{
  "abi": [
    {
      "inputs": [],
      "stateMutability": "nonpayable",
      "type": "constructor"
    },
    {
      "anonymous": false,
      "inputs": [
        {
          "indexed": false,
          "internalType": "string",
          "name": "msg",
          "type": "string"
        }
      ],
      "name": "Debug",
      "type": "event"
    },
    {
      "inputs": [
        {
          "internalType": "uint256",
          "name": "cliff",
          "type": "uint256"
        },
        {
          "internalType": "string",
          "name": "name",
          "type": "string"
        },
        {
          "internalType": "uint256",
          "name": "periods",
          "type": "uint256"
        },
        {
          "internalType": "uint256",
          "name": "amount",
          "type": "uint256"
        }
      ],
      "name": "addVestingBucket",
      "outputs": [],
      "stateMutability": "nonpayable",
      "type": "function"
    },
    {
      "inputs": [],
      "name": "bucket_num",
      "outputs": [
        {
          "internalType": "uint256",
          "name": "",
          "type": "uint256"
        }
      ],
      "stateMutability": "view",
      "type": "function"
    },
    {
      "inputs": [
        {
          "internalType": "uint256",
          "name": "",
          "type": "uint256"
        }
      ],
      "name": "buckets",
      "outputs": [
        {
          "internalType": "address",
          "name": "",
          "type": "address"
        }
      ],
      "stateMutability": "view",
      "type": "function"
    },
    {
      "inputs": [],
      "name": "circSupply",
      "outputs": [
        {
          "internalType": "uint256",
          "name": "",
          "type": "uint256"
        }
      ],
      "stateMutability": "view",
      "type": "function"
    },
    {
      "inputs": [],
      "name": "claimableAmount",
      "outputs": [
        {
          "internalType": "uint256",
          "name": "",
          "type": "uint256"
        }
      ],
      "stateMutability": "nonpayable",
      "type": "function"
    },
    {
      "inputs": [],
      "name": "lockedSupply",
      "outputs": [
        {
          "internalType": "uint256",
          "name": "",
          "type": "uint256"
        }
      ],
      "stateMutability": "view",
      "type": "function"
    },
    {
      "inputs": [],
      "name": "maxSupply",
      "outputs": [
        {
          "internalType": "uint256",
          "name": "",
          "type": "uint256"
        }
      ],
      "stateMutability": "view",
      "type": "function"
    },
    {
      "inputs": [],
      "name": "owner",
      "outputs": [
        {
          "internalType": "address",
          "name": "",
          "type": "address"
        }
      ],
      "stateMutability": "view",
      "type": "function"
    },
    {
      "inputs": [],
      "name": "releaseAll",
      "outputs": [],
      "stateMutability": "nonpayable",
      "type": "function"
    },
    {
      "inputs": [],
      "name": "vega_token",
      "outputs": [
        {
          "internalType": "contract VegaToken",
          "name": "",
          "type": "address"
        }
      ],
      "stateMutability": "view",
      "type": "function"
    },
    {
      "inputs": [],
      "name": "vega_token_address",
      "outputs": [
        {
          "internalType": "address",
          "name": "",
          "type": "address"
        }
      ],
      "stateMutability": "view",
      "type": "function"
    }
  ],
  "bytecode": "608060405234801561001057600080fd5b50600080546001600160a01b0319163317905560405161002f906100c1565b604051809103906000f08015801561004b573d6000803e3d6000fd5b50600180546001600160a01b03929092166001600160a01b03199283168117909155600060048190556003819055600280549093169091179091556006556040805160148082526102a08201909252906020820161028080368337505081516100bb9260059250602001906100ce565b50610148565b610aa780611a2783390190565b828054828255906000526020600020908101928215610123579160200282015b8281111561012357825182546001600160a01b0319166001600160a01b039091161782556020909201916001909101906100ee565b5061012f929150610133565b5090565b5b8082111561012f5760008155600101610134565b6118d0806101576000396000f3fe608060405234801561001057600080fd5b50600436106100a95760003560e01c80639b51fb0d116100715780639b51fb0d1461011e578063a556f84614610131578063bbb6f34714610138578063ca5c7b911461014b578063d5abeb0114610153578063dc5202921461015b57600080fd5b80635be7fde8146100ae57806368a87b0e146100b85780636c41a7c7146100e857806383429d0e146100fa5780638da5cb5b1461010d575b600080fd5b6100b6610164565b005b6002546100cb906001600160a01b031681565b6040516001600160a01b0390911681526020015b60405180910390f35b6003545b6040519081526020016100df565b6100b66101083660046105e3565b6101d4565b6000546001600160a01b03166100cb565b6100cb61012c3660046105b1565b6103eb565b60006100ec565b6001546100cb906001600160a01b031681565b6004546100ec565b6100ec610415565b6100ec60065481565b336101776000546001600160a01b031690565b6001600160a01b0316146101d25760405162461bcd60e51b815260206004820181905260248201527f4f776e61626c653a2063616c6c6572206973206e6f7420746865206f776e657260448201526064015b60405180910390fd5b565b336101e76000546001600160a01b031690565b6001600160a01b03161461023d5760405162461bcd60e51b815260206004820181905260248201527f4f776e61626c653a2063616c6c6572206973206e6f7420746865206f776e657260448201526064016101c9565b6002546000906001600160a01b03166102568642610703565b84846040516102649061057b565b6001600160a01b039094168452602084019290925260408301526060820152608001604051809103906000f0801580156102a2573d6000803e3d6000fd5b509050806001600160a01b03166328dc8ed96102c66000546001600160a01b031690565b6040516001600160e01b031960e084901b1681526001600160a01b039091166004820152602401600060405180830381600087803b15801561030757600080fd5b505af115801561031b573d6000803e3d6000fd5b505060405163c47f002760e01b81526001600160a01b038416925063c47f0027915061034b9087906004016106ae565b600060405180830381600087803b15801561036557600080fd5b505af1158015610379573d6000803e3d6000fd5b505050508060056006548154811061039357610393610729565b9060005260206000200160006101000a8154816001600160a01b0302191690836001600160a01b031602179055506001600660008282546103d49190610703565b909155506103e490508183610497565b5050505050565b600581815481106103fb57600080fd5b6000918252602090912001546001600160a01b0316905081565b60015460408051630cb2dac360e21b815290516000926001600160a01b0316916332cb6b0c916004808301926020929190829003018186803b15801561045a57600080fd5b505afa15801561046e573d6000803e3d6000fd5b505050506040513d601f19601f8201168201806040525081019061049291906105ca565b905090565b60015460405163a9059cbb60e01b81526001600160a01b03848116600483015260248201849052600092169063a9059cbb90604401602060405180830381600087803b1580156104e657600080fd5b505af11580156104fa573d6000803e3d6000fd5b505050506040513d601f19601f8201168201806040525081019061051e9190610588565b90508061055f5760405162461bcd60e51b815260206004820152600f60248201526e1d1c985b9cd9995c8819985a5b1959608a1b60448201526064016101c9565b81600460008282546105719190610703565b9091555050505050565b6111458061075683390190565b60006020828403121561059a57600080fd5b815180151581146105aa57600080fd5b9392505050565b6000602082840312156105c357600080fd5b5035919050565b6000602082840312156105dc57600080fd5b5051919050565b600080600080608085870312156105f957600080fd5b84359350602085013567ffffffffffffffff8082111561061857600080fd5b818701915087601f83011261062c57600080fd5b81358181111561063e5761063e61073f565b604051601f8201601f19908116603f011681019083821181831017156106665761066661073f565b816040528281528a602084870101111561067f57600080fd5b826020860160208301376000928101602001929092525095989597505050506040840135936060013592915050565b600060208083528351808285015260005b818110156106db578581018301518582016040015282016106bf565b818111156106ed576000604083870101525b50601f01601f1916929092016040019392505050565b6000821982111561072457634e487b7160e01b600052601160045260246000fd5b500190565b634e487b7160e01b600052603260045260246000fd5b634e487b7160e01b600052604160045260246000fdfe608060405234801561001057600080fd5b5060405161114538038061114583398101604081905261002f91610128565b60008054336001600160a01b031991821617909155600280549091166001600160a01b038616179055426003556009839055600a829055600b819055610075828261018c565b600c81905560405163556b30b960e11b81526004810185905260248101919091526044810182905273__VestingMath___________________________9063aad661729060640160206040518083038186803b1580156100d457600080fd5b505af41580156100e8573d6000803e3d6000fd5b505050506040513d601f19601f8201168201806040525081019061010c9190610173565b600d555050600060088190556007819055600e55506101ae9050565b6000806000806080858703121561013e57600080fd5b84516001600160a01b038116811461015557600080fd5b60208601516040870151606090970151919890975090945092505050565b60006020828403121561018557600080fd5b5051919050565b6000826101a957634e487b7160e01b600052601260045260246000fd5b500490565b610f88806101bd6000396000f3fe608060405234801561001057600080fd5b50600436106101425760003560e01c8063b58b6354116100b8578063c6788bdd1161007c578063c6788bdd14610250578063d0029d61146102ce578063dcd65479146102e1578063dfa93099146102ea578063f8fcabe3146102fd578063fc0fc8491461031057600080fd5b8063b58b6354146101fc578063b62287031461020f578063bbb6f34714610222578063c06d30a714610235578063c47f00271461023d57600080fd5b806329cb924d1161010a57806329cb924d146101ad5780633197cbb6146101b357806334dadad5146101bc57806335e9d90f146101c55780638523b7db146101ce5780638da5cb5b146101d757600080fd5b806306fdde03146101475780630f1a6444146101655780631a39d8ef1461017c57806321e76dc11461018557806328dc8ed914610198575b600080fd5b61014f610319565b60405161015c9190610e34565b60405180910390f35b61016e60095481565b60405190815260200161015c565b61016e600b5481565b61016e610193366004610c74565b6103a7565b6101ab6101a6366004610c74565b610664565b005b4261016e565b61016e600d5481565b61016e60035481565b61016e600c5481565b61016e60075481565b6000546001600160a01b03165b6040516001600160a01b03909116815260200161015c565b61016e61020a366004610c74565b6106ef565b61016e61021d366004610d87565b61070c565b6002546101e4906001600160a01b031681565b61016e6107c6565b6101ab61024b366004610cd6565b61082e565b61029a61025e366004610c74565b600560205260009081526040902080546001820154600283015460038401546004909401546001600160a01b0390931693919290919060ff1685565b604080516001600160a01b03909616865260208601949094529284019190915260608301521515608082015260a00161015c565b6101e46102dc366004610e02565b6108ae565b61016e600a5481565b61016e6102f8366004610c74565b6108d8565b6101ab61030b366004610c8f565b610943565b61016e600e5481565b6001805461032690610eda565b80601f016020809104026020016040519081016040528092919081815260200182805461035290610eda565b801561039f5780601f106103745761010080835404028352916020019161039f565b820191906000526020600020905b81548152906001019060200180831161038257829003601f168201915b505050505081565b6000336001600160a01b03831614806103ca57506000546001600160a01b031633145b6104415760405162461bcd60e51b815260206004820152603760248201527f56455354494e474255434b45543a2063616e206f6e6c792063616c6c2066726f60448201527f6d20636c61696d61646472657373206f72206f776e657200000000000000000060648201526084015b60405180910390fd5b6001600160a01b03821660009081526005602052604090206004015460ff166104b85760405162461bcd60e51b815260206004820152602360248201527f56455354494e474255434b45543a20636c61696d20646f6573206e6f742065786044820152621a5cdd60ea1b6064820152608401610438565b6001600160a01b038083166000908152600560209081526040808320815160a08101835281549095168552600181015492850192909252600282015490840152600381015460608401526004015460ff16151560808301526105198261070c565b9050600082606001518261052d9190610ec3565b905060008184606001516105419190610e89565b9050836020015181111561055457600080fd5b600254845160405163a9059cbb60e01b81526001600160a01b0391821660048201526024810185905291169063a9059cbb90604401602060405180830381600087803b1580156105a357600080fd5b505af11580156105b7573d6000803e3d6000fd5b505050506040513d601f19601f820116820180604052508101906105db9190610cb9565b6105e457600080fd5b83600001516001600160a01b03167f7fcf532c15f0a6db0bd6d0e038bea71d30d808c7d98cb3bf7268a95bf5081b658360405161062391815260200190565b60405180910390a2818460600181815161063d9190610e89565b90525060088054839190600090610655908490610e89565b90915550919695505050505050565b336106776000546001600160a01b031690565b6001600160a01b0316146106cd5760405162461bcd60e51b815260206004820181905260248201527f4f776e61626c653a2063616c6c6572206973206e6f7420746865206f776e65726044820152606401610438565b600480546001600160a01b0319166001600160a01b0392909216919091179055565b600080546001600160a01b0316331461070757600080fd5b919050565b600954600d5460408381015160208501519151633f6b939360e11b8152426004820181905260248201959095526044810193909352606483015260848201526000919073__VestingMath___________________________90637ed727269060a4015b60206040518083038186803b15801561078757600080fd5b505af415801561079b573d6000803e3d6000fd5b505050506040513d601f19601f820116820180604052508101906107bf9190610e1b565b9392505050565b600954600d54600c54600b54604051633f6b939360e11b81524260048201819052602482019590955260448101939093526064830191909152608482015260009190829073__VestingMath___________________________90637ed727269060a40161076f565b336108416000546001600160a01b031690565b6001600160a01b0316146108975760405162461bcd60e51b815260206004820181905260248201527f4f776e61626c653a2063616c6c6572206973206e6f7420746865206f776e65726044820152606401610438565b80516108aa906001906020840190610bc4565b5050565b600681815481106108be57600080fd5b6000918252602090912001546001600160a01b0316905081565b6001600160a01b038082166000908152600560209081526040808320815160a08101835281549095168552600181015492850192909252600282015490840152600381015460608401526004015460ff1615156080830152908161093b8261070c565b949350505050565b6004546001600160a01b031633148061096657506000546001600160a01b031633145b6109be5760405162461bcd60e51b815260206004820152602360248201527f4f776e61626c653a2063616c6c6572206973206e6f7420746865207265666f776044820152623732b960e91b6064820152608401610438565b6001600160a01b03821660009081526005602052604090206004015460ff1615610a465760405162461bcd60e51b815260206004820152603360248201527f56455354494e474255434b45543a20636c61696d2061742074686973206164646044820152727265737320616c72656164792065786973747360681b6064820152608401610438565b600b5481600754610a579190610e89565b1115610aba5760405162461bcd60e51b815260206004820152602c60248201527f56455354494e474255434b45543a2063616e206e6f7420636c61696d206d6f7260448201526b19481d1a185b881d1bdd185b60a21b6064820152608401610438565b6000600a5482610aca9190610ea1565b6040805160a0810182526001600160a01b03808716808352602080840188815284860187815260006060870181815260016080890181815287845260059096529882209751885497166001600160a01b0319978816178855925187890155905160028701559051600386015590516004909401805494151560ff199095169490941790935560068054948501815583527ff652222313e28459528d920b65115c16c04f3efc82aaedc97be59f3f377c0d3f9093018054909116909217909155600780549293508492909190610ba0908490610e89565b925050819055506001600e6000828254610bba9190610e89565b9091555050505050565b828054610bd090610eda565b90600052602060002090601f016020900481019282610bf25760008555610c38565b82601f10610c0b57805160ff1916838001178555610c38565b82800160010185558215610c38579182015b82811115610c38578251825591602001919060010190610c1d565b50610c44929150610c48565b5090565b5b80821115610c445760008155600101610c49565b80356001600160a01b038116811461070757600080fd5b600060208284031215610c8657600080fd5b6107bf82610c5d565b60008060408385031215610ca257600080fd5b610cab83610c5d565b946020939093013593505050565b600060208284031215610ccb57600080fd5b81516107bf81610f41565b600060208284031215610ce857600080fd5b813567ffffffffffffffff80821115610d0057600080fd5b818401915084601f830112610d1457600080fd5b813581811115610d2657610d26610f2b565b604051601f8201601f19908116603f01168101908382118183101715610d4e57610d4e610f2b565b81604052828152876020848701011115610d6757600080fd5b826020860160208301376000928101602001929092525095945050505050565b600060a08284031215610d9957600080fd5b60405160a0810181811067ffffffffffffffff82111715610dbc57610dbc610f2b565b604052610dc883610c5d565b81526020830135602082015260408301356040820152606083013560608201526080830135610df681610f41565b60808201529392505050565b600060208284031215610e1457600080fd5b5035919050565b600060208284031215610e2d57600080fd5b5051919050565b600060208083528351808285015260005b81811015610e6157858101830151858201604001528201610e45565b81811115610e73576000604083870101525b50601f01601f1916929092016040019392505050565b60008219821115610e9c57610e9c610f15565b500190565b600082610ebe57634e487b7160e01b600052601260045260246000fd5b500490565b600082821015610ed557610ed5610f15565b500390565b600181811c90821680610eee57607f821691505b60208210811415610f0f57634e487b7160e01b600052602260045260246000fd5b50919050565b634e487b7160e01b600052601160045260246000fd5b634e487b7160e01b600052604160045260246000fd5b8015158114610f4f57600080fd5b5056fea26469706673582212206b5e90ba2281916a47c04c537221dff2cc98933d7a300d45f145e3915e153c2464736f6c63430008050033a2646970667358221220f8ceb0742b24a9be9b66773abdf0142483fc47532c7cb66ebfda10edb6e073de64736f6c6343000805003360806040523480156200001157600080fd5b50600080546001600160a01b03191633179055620000326012600a62000126565b6200004290633b9aca00620001f4565b600355620000536012600a62000126565b6200006390633b9aca00620001f4565b600080546001600160a01b039081168252600160205260408220929092558054909116907fddf252ad1be2c89b69c2b068fc378daa952ba7f163c4a11628f55a4df523b3ef620000b66012600a62000126565b620000c690633b9aca00620001f4565b60405190815260200160405180910390a36200022c565b600181815b808511156200011e57816000190482111562000102576200010262000216565b808516156200011057918102915b93841c9390800290620000e2565b509250929050565b60006200013760ff8416836200013e565b9392505050565b6000826200014f57506001620001ee565b816200015e57506000620001ee565b81600181146200017757600281146200018257620001a2565b6001915050620001ee565b60ff84111562000196576200019662000216565b50506001821b620001ee565b5060208310610133831016604e8410600b8410161715620001c7575081810a620001ee565b620001d38383620000dd565b8060001904821115620001ea57620001ea62000216565b0290505b92915050565b600081600019048311821515161562000211576200021162000216565b500290565b634e487b7160e01b600052601160045260246000fd5b61086b806200023c6000396000f3fe608060405234801561001057600080fd5b50600436106100a95760003560e01c8063313ce56711610071578063313ce5671461014757806332cb6b0c1461014e57806370a082311461015657806395d89b411461017f578063a9059cbb1461019f578063dd62ed3e146101b257600080fd5b806306fdde03146100ae578063095ea7b3146100e557806318160ddd1461010857806323b872dd1461011a5780632e0f26251461012d575b600080fd5b6040805180820190915260098152682b32b3b0aa37b5b2b760b91b60208201525b6040516100dc91906106a5565b60405180910390f35b6100f86100f336600461067b565b6101eb565b60405190151581526020016100dc565b6003545b6040519081526020016100dc565b6100f861012836600461063f565b610202565b610135601281565b60405160ff90911681526020016100dc565b6012610135565b61010c6102b1565b61010c6101643660046105ea565b6001600160a01b031660009081526001602052604090205490565b6040805180820190915260048152635645474160e01b60208201526100cf565b6100f86101ad36600461067b565b6102ce565b61010c6101c036600461060c565b6001600160a01b03918216600090815260026020908152604080832093909416825291909152205490565b60006101f83384846102db565b5060015b92915050565b600061020f8484846103ff565b6001600160a01b0384166000908152600260209081526040808320338452909152902054828110156102995760405162461bcd60e51b815260206004820152602860248201527f45524332303a207472616e7366657220616d6f756e74206578636565647320616044820152676c6c6f77616e636560c01b60648201526084015b60405180910390fd5b6102a685338584036102db565b506001949350505050565b6102bd6012600a610755565b6102cb90633b9aca00610800565b81565b60006101f83384846103ff565b6001600160a01b03831661033d5760405162461bcd60e51b8152602060048201526024808201527f45524332303a20617070726f76652066726f6d20746865207a65726f206164646044820152637265737360e01b6064820152608401610290565b6001600160a01b03821661039e5760405162461bcd60e51b815260206004820152602260248201527f45524332303a20617070726f766520746f20746865207a65726f206164647265604482015261737360f01b6064820152608401610290565b6001600160a01b0383811660008181526002602090815260408083209487168084529482529182902085905590518481527f8c5be1e5ebec7d5bd14f71427d1e84f3dd0314c0f7b2291e5b200ac8c7c3b925910160405180910390a3505050565b6001600160a01b0383166104635760405162461bcd60e51b815260206004820152602560248201527f45524332303a207472616e736665722066726f6d20746865207a65726f206164604482015264647265737360d81b6064820152608401610290565b6001600160a01b0382166104c55760405162461bcd60e51b815260206004820152602360248201527f45524332303a207472616e7366657220746f20746865207a65726f206164647260448201526265737360e81b6064820152608401610290565b6001600160a01b0383166000908152600160205260409020548181101561053d5760405162461bcd60e51b815260206004820152602660248201527f45524332303a207472616e7366657220616d6f756e7420657863656564732062604482015265616c616e636560d01b6064820152608401610290565b6001600160a01b038085166000908152600160205260408082208585039055918516815290812080548492906105749084906106fa565b92505081905550826001600160a01b0316846001600160a01b03167fddf252ad1be2c89b69c2b068fc378daa952ba7f163c4a11628f55a4df523b3ef846040516105c091815260200190565b60405180910390a350505050565b80356001600160a01b03811681146105e557600080fd5b919050565b6000602082840312156105fc57600080fd5b610605826105ce565b9392505050565b6000806040838503121561061f57600080fd5b610628836105ce565b9150610636602084016105ce565b90509250929050565b60008060006060848603121561065457600080fd5b61065d846105ce565b925061066b602085016105ce565b9150604084013590509250925092565b6000806040838503121561068e57600080fd5b610697836105ce565b946020939093013593505050565b600060208083528351808285015260005b818110156106d2578581018301518582016040015282016106b6565b818111156106e4576000604083870101525b50601f01601f1916929092016040019392505050565b6000821982111561070d5761070d61081f565b500190565b600181815b8085111561074d5781600019048211156107335761073361081f565b8085161561074057918102915b93841c9390800290610717565b509250929050565b600061060560ff84168360008261076e575060016101fc565b8161077b575060006101fc565b8160018114610791576002811461079b576107b7565b60019150506101fc565b60ff8411156107ac576107ac61081f565b50506001821b6101fc565b5060208310610133831016604e8410600b84101617156107da575081810a6101fc565b6107e48383610712565b80600019048211156107f8576107f861081f565b029392505050565b600081600019048311821515161561081a5761081a61081f565b500290565b634e487b7160e01b600052601160045260246000fdfea264697066735822122095f18a8f06fa4ac27ea88baf70b0de233f13909a7f297218daa58ff8392276df64736f6c63430008050033",
  "bytecodeSha1": "eb37bd840313286353129f1834594891a9a1fb6e",
  "compiler": {
    "evm_version": "istanbul",
    "optimizer": {
      "enabled": true,
      "runs": 200
    },
    "version": "0.8.5+commit.a4f2e591"
  },
  "contractName": "VegaMaster",
  "deployedBytecode": "608060405234801561001057600080fd5b50600436106100a95760003560e01c80639b51fb0d116100715780639b51fb0d1461011e578063a556f84614610131578063bbb6f34714610138578063ca5c7b911461014b578063d5abeb0114610153578063dc5202921461015b57600080fd5b80635be7fde8146100ae57806368a87b0e146100b85780636c41a7c7146100e857806383429d0e146100fa5780638da5cb5b1461010d575b600080fd5b6100b6610164565b005b6002546100cb906001600160a01b031681565b6040516001600160a01b0390911681526020015b60405180910390f35b6003545b6040519081526020016100df565b6100b66101083660046105e3565b6101d4565b6000546001600160a01b03166100cb565b6100cb61012c3660046105b1565b6103eb565b60006100ec565b6001546100cb906001600160a01b031681565b6004546100ec565b6100ec610415565b6100ec60065481565b336101776000546001600160a01b031690565b6001600160a01b0316146101d25760405162461bcd60e51b815260206004820181905260248201527f4f776e61626c653a2063616c6c6572206973206e6f7420746865206f776e657260448201526064015b60405180910390fd5b565b336101e76000546001600160a01b031690565b6001600160a01b03161461023d5760405162461bcd60e51b815260206004820181905260248201527f4f776e61626c653a2063616c6c6572206973206e6f7420746865206f776e657260448201526064016101c9565b6002546000906001600160a01b03166102568642610703565b84846040516102649061057b565b6001600160a01b039094168452602084019290925260408301526060820152608001604051809103906000f0801580156102a2573d6000803e3d6000fd5b509050806001600160a01b03166328dc8ed96102c66000546001600160a01b031690565b6040516001600160e01b031960e084901b1681526001600160a01b039091166004820152602401600060405180830381600087803b15801561030757600080fd5b505af115801561031b573d6000803e3d6000fd5b505060405163c47f002760e01b81526001600160a01b038416925063c47f0027915061034b9087906004016106ae565b600060405180830381600087803b15801561036557600080fd5b505af1158015610379573d6000803e3d6000fd5b505050508060056006548154811061039357610393610729565b9060005260206000200160006101000a8154816001600160a01b0302191690836001600160a01b031602179055506001600660008282546103d49190610703565b909155506103e490508183610497565b5050505050565b600581815481106103fb57600080fd5b6000918252602090912001546001600160a01b0316905081565b60015460408051630cb2dac360e21b815290516000926001600160a01b0316916332cb6b0c916004808301926020929190829003018186803b15801561045a57600080fd5b505afa15801561046e573d6000803e3d6000fd5b505050506040513d601f19601f8201168201806040525081019061049291906105ca565b905090565b60015460405163a9059cbb60e01b81526001600160a01b03848116600483015260248201849052600092169063a9059cbb90604401602060405180830381600087803b1580156104e657600080fd5b505af11580156104fa573d6000803e3d6000fd5b505050506040513d601f19601f8201168201806040525081019061051e9190610588565b90508061055f5760405162461bcd60e51b815260206004820152600f60248201526e1d1c985b9cd9995c8819985a5b1959608a1b60448201526064016101c9565b81600460008282546105719190610703565b9091555050505050565b6111458061075683390190565b60006020828403121561059a57600080fd5b815180151581146105aa57600080fd5b9392505050565b6000602082840312156105c357600080fd5b5035919050565b6000602082840312156105dc57600080fd5b5051919050565b600080600080608085870312156105f957600080fd5b84359350602085013567ffffffffffffffff8082111561061857600080fd5b818701915087601f83011261062c57600080fd5b81358181111561063e5761063e61073f565b604051601f8201601f19908116603f011681019083821181831017156106665761066661073f565b816040528281528a602084870101111561067f57600080fd5b826020860160208301376000928101602001929092525095989597505050506040840135936060013592915050565b600060208083528351808285015260005b818110156106db578581018301518582016040015282016106bf565b818111156106ed576000604083870101525b50601f01601f1916929092016040019392505050565b6000821982111561072457634e487b7160e01b600052601160045260246000fd5b500190565b634e487b7160e01b600052603260045260246000fd5b634e487b7160e01b600052604160045260246000fdfe608060405234801561001057600080fd5b5060405161114538038061114583398101604081905261002f91610128565b60008054336001600160a01b031991821617909155600280549091166001600160a01b038616179055426003556009839055600a829055600b819055610075828261018c565b600c81905560405163556b30b960e11b81526004810185905260248101919091526044810182905273__$5e6753039be095b2af09f6e281dd6eeca6$__9063aad661729060640160206040518083038186803b1580156100d457600080fd5b505af41580156100e8573d6000803e3d6000fd5b505050506040513d601f19601f8201168201806040525081019061010c9190610173565b600d555050600060088190556007819055600e55506101ae9050565b6000806000806080858703121561013e57600080fd5b84516001600160a01b038116811461015557600080fd5b60208601516040870151606090970151919890975090945092505050565b60006020828403121561018557600080fd5b5051919050565b6000826101a957634e487b7160e01b600052601260045260246000fd5b500490565b610f88806101bd6000396000f3fe608060405234801561001057600080fd5b50600436106101425760003560e01c8063b58b6354116100b8578063c6788bdd1161007c578063c6788bdd14610250578063d0029d61146102ce578063dcd65479146102e1578063dfa93099146102ea578063f8fcabe3146102fd578063fc0fc8491461031057600080fd5b8063b58b6354146101fc578063b62287031461020f578063bbb6f34714610222578063c06d30a714610235578063c47f00271461023d57600080fd5b806329cb924d1161010a57806329cb924d146101ad5780633197cbb6146101b357806334dadad5146101bc57806335e9d90f146101c55780638523b7db146101ce5780638da5cb5b146101d757600080fd5b806306fdde03146101475780630f1a6444146101655780631a39d8ef1461017c57806321e76dc11461018557806328dc8ed914610198575b600080fd5b61014f610319565b60405161015c9190610e34565b60405180910390f35b61016e60095481565b60405190815260200161015c565b61016e600b5481565b61016e610193366004610c74565b6103a7565b6101ab6101a6366004610c74565b610664565b005b4261016e565b61016e600d5481565b61016e60035481565b61016e600c5481565b61016e60075481565b6000546001600160a01b03165b6040516001600160a01b03909116815260200161015c565b61016e61020a366004610c74565b6106ef565b61016e61021d366004610d87565b61070c565b6002546101e4906001600160a01b031681565b61016e6107c6565b6101ab61024b366004610cd6565b61082e565b61029a61025e366004610c74565b600560205260009081526040902080546001820154600283015460038401546004909401546001600160a01b0390931693919290919060ff1685565b604080516001600160a01b03909616865260208601949094529284019190915260608301521515608082015260a00161015c565b6101e46102dc366004610e02565b6108ae565b61016e600a5481565b61016e6102f8366004610c74565b6108d8565b6101ab61030b366004610c8f565b610943565b61016e600e5481565b6001805461032690610eda565b80601f016020809104026020016040519081016040528092919081815260200182805461035290610eda565b801561039f5780601f106103745761010080835404028352916020019161039f565b820191906000526020600020905b81548152906001019060200180831161038257829003601f168201915b505050505081565b6000336001600160a01b03831614806103ca57506000546001600160a01b031633145b6104415760405162461bcd60e51b815260206004820152603760248201527f56455354494e474255434b45543a2063616e206f6e6c792063616c6c2066726f60448201527f6d20636c61696d61646472657373206f72206f776e657200000000000000000060648201526084015b60405180910390fd5b6001600160a01b03821660009081526005602052604090206004015460ff166104b85760405162461bcd60e51b815260206004820152602360248201527f56455354494e474255434b45543a20636c61696d20646f6573206e6f742065786044820152621a5cdd60ea1b6064820152608401610438565b6001600160a01b038083166000908152600560209081526040808320815160a08101835281549095168552600181015492850192909252600282015490840152600381015460608401526004015460ff16151560808301526105198261070c565b9050600082606001518261052d9190610ec3565b905060008184606001516105419190610e89565b9050836020015181111561055457600080fd5b600254845160405163a9059cbb60e01b81526001600160a01b0391821660048201526024810185905291169063a9059cbb90604401602060405180830381600087803b1580156105a357600080fd5b505af11580156105b7573d6000803e3d6000fd5b505050506040513d601f19601f820116820180604052508101906105db9190610cb9565b6105e457600080fd5b83600001516001600160a01b03167f7fcf532c15f0a6db0bd6d0e038bea71d30d808c7d98cb3bf7268a95bf5081b658360405161062391815260200190565b60405180910390a2818460600181815161063d9190610e89565b90525060088054839190600090610655908490610e89565b90915550919695505050505050565b336106776000546001600160a01b031690565b6001600160a01b0316146106cd5760405162461bcd60e51b815260206004820181905260248201527f4f776e61626c653a2063616c6c6572206973206e6f7420746865206f776e65726044820152606401610438565b600480546001600160a01b0319166001600160a01b0392909216919091179055565b600080546001600160a01b0316331461070757600080fd5b919050565b600954600d5460408381015160208501519151633f6b939360e11b8152426004820181905260248201959095526044810193909352606483015260848201526000919073__$5e6753039be095b2af09f6e281dd6eeca6$__90637ed727269060a4015b60206040518083038186803b15801561078757600080fd5b505af415801561079b573d6000803e3d6000fd5b505050506040513d601f19601f820116820180604052508101906107bf9190610e1b565b9392505050565b600954600d54600c54600b54604051633f6b939360e11b81524260048201819052602482019590955260448101939093526064830191909152608482015260009190829073__$5e6753039be095b2af09f6e281dd6eeca6$__90637ed727269060a40161076f565b336108416000546001600160a01b031690565b6001600160a01b0316146108975760405162461bcd60e51b815260206004820181905260248201527f4f776e61626c653a2063616c6c6572206973206e6f7420746865206f776e65726044820152606401610438565b80516108aa906001906020840190610bc4565b5050565b600681815481106108be57600080fd5b6000918252602090912001546001600160a01b0316905081565b6001600160a01b038082166000908152600560209081526040808320815160a08101835281549095168552600181015492850192909252600282015490840152600381015460608401526004015460ff1615156080830152908161093b8261070c565b949350505050565b6004546001600160a01b031633148061096657506000546001600160a01b031633145b6109be5760405162461bcd60e51b815260206004820152602360248201527f4f776e61626c653a2063616c6c6572206973206e6f7420746865207265666f776044820152623732b960e91b6064820152608401610438565b6001600160a01b03821660009081526005602052604090206004015460ff1615610a465760405162461bcd60e51b815260206004820152603360248201527f56455354494e474255434b45543a20636c61696d2061742074686973206164646044820152727265737320616c72656164792065786973747360681b6064820152608401610438565b600b5481600754610a579190610e89565b1115610aba5760405162461bcd60e51b815260206004820152602c60248201527f56455354494e474255434b45543a2063616e206e6f7420636c61696d206d6f7260448201526b19481d1a185b881d1bdd185b60a21b6064820152608401610438565b6000600a5482610aca9190610ea1565b6040805160a0810182526001600160a01b03808716808352602080840188815284860187815260006060870181815260016080890181815287845260059096529882209751885497166001600160a01b0319978816178855925187890155905160028701559051600386015590516004909401805494151560ff199095169490941790935560068054948501815583527ff652222313e28459528d920b65115c16c04f3efc82aaedc97be59f3f377c0d3f9093018054909116909217909155600780549293508492909190610ba0908490610e89565b925050819055506001600e6000828254610bba9190610e89565b9091555050505050565b828054610bd090610eda565b90600052602060002090601f016020900481019282610bf25760008555610c38565b82601f10610c0b57805160ff1916838001178555610c38565b82800160010185558215610c38579182015b82811115610c38578251825591602001919060010190610c1d565b50610c44929150610c48565b5090565b5b80821115610c445760008155600101610c49565b80356001600160a01b038116811461070757600080fd5b600060208284031215610c8657600080fd5b6107bf82610c5d565b60008060408385031215610ca257600080fd5b610cab83610c5d565b946020939093013593505050565b600060208284031215610ccb57600080fd5b81516107bf81610f41565b600060208284031215610ce857600080fd5b813567ffffffffffffffff80821115610d0057600080fd5b818401915084601f830112610d1457600080fd5b813581811115610d2657610d26610f2b565b604051601f8201601f19908116603f01168101908382118183101715610d4e57610d4e610f2b565b81604052828152876020848701011115610d6757600080fd5b826020860160208301376000928101602001929092525095945050505050565b600060a08284031215610d9957600080fd5b60405160a0810181811067ffffffffffffffff82111715610dbc57610dbc610f2b565b604052610dc883610c5d565b81526020830135602082015260408301356040820152606083013560608201526080830135610df681610f41565b60808201529392505050565b600060208284031215610e1457600080fd5b5035919050565b600060208284031215610e2d57600080fd5b5051919050565b600060208083528351808285015260005b81811015610e6157858101830151858201604001528201610e45565b81811115610e73576000604083870101525b50601f01601f1916929092016040019392505050565b60008219821115610e9c57610e9c610f15565b500190565b600082610ebe57634e487b7160e01b600052601260045260246000fd5b500490565b600082821015610ed557610ed5610f15565b500390565b600181811c90821680610eee57607f821691505b60208210811415610f0f57634e487b7160e01b600052602260045260246000fd5b50919050565b634e487b7160e01b600052601160045260246000fd5b634e487b7160e01b600052604160045260246000fd5b8015158114610f4f57600080fd5b5056fea26469706673582212206b5e90ba2281916a47c04c537221dff2cc98933d7a300d45f145e3915e153c2464736f6c63430008050033a2646970667358221220f8ceb0742b24a9be9b66773abdf0142483fc47532c7cb66ebfda10edb6e073de64736f6c63430008050033",
  "language": "Solidity",
  "natspec": {
    "kind": "dev",
    "methods": {
      "owner()": {
        "details": "Returns the address of the current owner."
      }
    },
    "version": 1
  },
  "opcodes": "PUSH1 0x80 PUSH1 0x40 MSTORE CALLVALUE DUP1 ISZERO PUSH2 0x10 JUMPI PUSH1 0x0 DUP1 REVERT JUMPDEST POP PUSH1 0x4 CALLDATASIZE LT PUSH2 0xA9 JUMPI PUSH1 0x0 CALLDATALOAD PUSH1 0xE0 SHR DUP1 PUSH4 0x9B51FB0D GT PUSH2 0x71 JUMPI DUP1 PUSH4 0x9B51FB0D EQ PUSH2 0x11E JUMPI DUP1 PUSH4 0xA556F846 EQ PUSH2 0x131 JUMPI DUP1 PUSH4 0xBBB6F347 EQ PUSH2 0x138 JUMPI DUP1 PUSH4 0xCA5C7B91 EQ PUSH2 0x14B JUMPI DUP1 PUSH4 0xD5ABEB01 EQ PUSH2 0x153 JUMPI DUP1 PUSH4 0xDC520292 EQ PUSH2 0x15B JUMPI PUSH1 0x0 DUP1 REVERT JUMPDEST DUP1 PUSH4 0x5BE7FDE8 EQ PUSH2 0xAE JUMPI DUP1 PUSH4 0x68A87B0E EQ PUSH2 0xB8 JUMPI DUP1 PUSH4 0x6C41A7C7 EQ PUSH2 0xE8 JUMPI DUP1 PUSH4 0x83429D0E EQ PUSH2 0xFA JUMPI DUP1 PUSH4 0x8DA5CB5B EQ PUSH2 0x10D JUMPI JUMPDEST PUSH1 0x0 DUP1 REVERT JUMPDEST PUSH2 0xB6 PUSH2 0x164 JUMP JUMPDEST STOP JUMPDEST PUSH1 0x2 SLOAD PUSH2 0xCB SWAP1 PUSH1 0x1 PUSH1 0x1 PUSH1 0xA0 SHL SUB AND DUP2 JUMP JUMPDEST PUSH1 0x40 MLOAD PUSH1 0x1 PUSH1 0x1 PUSH1 0xA0 SHL SUB SWAP1 SWAP2 AND DUP2 MSTORE PUSH1 0x20 ADD JUMPDEST PUSH1 0x40 MLOAD DUP1 SWAP2 SUB SWAP1 RETURN JUMPDEST PUSH1 0x3 SLOAD JUMPDEST PUSH1 0x40 MLOAD SWAP1 DUP2 MSTORE PUSH1 0x20 ADD PUSH2 0xDF JUMP JUMPDEST PUSH2 0xB6 PUSH2 0x108 CALLDATASIZE PUSH1 0x4 PUSH2 0x5E3 JUMP JUMPDEST PUSH2 0x1D4 JUMP JUMPDEST PUSH1 0x0 SLOAD PUSH1 0x1 PUSH1 0x1 PUSH1 0xA0 SHL SUB AND PUSH2 0xCB JUMP JUMPDEST PUSH2 0xCB PUSH2 0x12C CALLDATASIZE PUSH1 0x4 PUSH2 0x5B1 JUMP JUMPDEST PUSH2 0x3EB JUMP JUMPDEST PUSH1 0x0 PUSH2 0xEC JUMP JUMPDEST PUSH1 0x1 SLOAD PUSH2 0xCB SWAP1 PUSH1 0x1 PUSH1 0x1 PUSH1 0xA0 SHL SUB AND DUP2 JUMP JUMPDEST PUSH1 0x4 SLOAD PUSH2 0xEC JUMP JUMPDEST PUSH2 0xEC PUSH2 0x415 JUMP JUMPDEST PUSH2 0xEC PUSH1 0x6 SLOAD DUP2 JUMP JUMPDEST CALLER PUSH2 0x177 PUSH1 0x0 SLOAD PUSH1 0x1 PUSH1 0x1 PUSH1 0xA0 SHL SUB AND SWAP1 JUMP JUMPDEST PUSH1 0x1 PUSH1 0x1 PUSH1 0xA0 SHL SUB AND EQ PUSH2 0x1D2 JUMPI PUSH1 0x40 MLOAD PUSH3 0x461BCD PUSH1 0xE5 SHL DUP2 MSTORE PUSH1 0x20 PUSH1 0x4 DUP3 ADD DUP2 SWAP1 MSTORE PUSH1 0x24 DUP3 ADD MSTORE PUSH32 0x4F776E61626C653A2063616C6C6572206973206E6F7420746865206F776E6572 PUSH1 0x44 DUP3 ADD MSTORE PUSH1 0x64 ADD JUMPDEST PUSH1 0x40 MLOAD DUP1 SWAP2 SUB SWAP1 REVERT JUMPDEST JUMP JUMPDEST CALLER PUSH2 0x1E7 PUSH1 0x0 SLOAD PUSH1 0x1 PUSH1 0x1 PUSH1 0xA0 SHL SUB AND SWAP1 JUMP JUMPDEST PUSH1 0x1 PUSH1 0x1 PUSH1 0xA0 SHL SUB AND EQ PUSH2 0x23D JUMPI PUSH1 0x40 MLOAD PUSH3 0x461BCD PUSH1 0xE5 SHL DUP2 MSTORE PUSH1 0x20 PUSH1 0x4 DUP3 ADD DUP2 SWAP1 MSTORE PUSH1 0x24 DUP3 ADD MSTORE PUSH32 0x4F776E61626C653A2063616C6C6572206973206E6F7420746865206F776E6572 PUSH1 0x44 DUP3 ADD MSTORE PUSH1 0x64 ADD PUSH2 0x1C9 JUMP JUMPDEST PUSH1 0x2 SLOAD PUSH1 0x0 SWAP1 PUSH1 0x1 PUSH1 0x1 PUSH1 0xA0 SHL SUB AND PUSH2 0x256 DUP7 TIMESTAMP PUSH2 0x703 JUMP JUMPDEST DUP5 DUP5 PUSH1 0x40 MLOAD PUSH2 0x264 SWAP1 PUSH2 0x57B JUMP JUMPDEST PUSH1 0x1 PUSH1 0x1 PUSH1 0xA0 SHL SUB SWAP1 SWAP5 AND DUP5 MSTORE PUSH1 0x20 DUP5 ADD SWAP3 SWAP1 SWAP3 MSTORE PUSH1 0x40 DUP4 ADD MSTORE PUSH1 0x60 DUP3 ADD MSTORE PUSH1 0x80 ADD PUSH1 0x40 MLOAD DUP1 SWAP2 SUB SWAP1 PUSH1 0x0 CREATE DUP1 ISZERO DUP1 ISZERO PUSH2 0x2A2 JUMPI RETURNDATASIZE PUSH1 0x0 DUP1 RETURNDATACOPY RETURNDATASIZE PUSH1 0x0 REVERT JUMPDEST POP SWAP1 POP DUP1 PUSH1 0x1 PUSH1 0x1 PUSH1 0xA0 SHL SUB AND PUSH4 0x28DC8ED9 PUSH2 0x2C6 PUSH1 0x0 SLOAD PUSH1 0x1 PUSH1 0x1 PUSH1 0xA0 SHL SUB AND SWAP1 JUMP JUMPDEST PUSH1 0x40 MLOAD PUSH1 0x1 PUSH1 0x1 PUSH1 0xE0 SHL SUB NOT PUSH1 0xE0 DUP5 SWAP1 SHL AND DUP2 MSTORE PUSH1 0x1 PUSH1 0x1 PUSH1 0xA0 SHL SUB SWAP1 SWAP2 AND PUSH1 0x4 DUP3 ADD MSTORE PUSH1 0x24 ADD PUSH1 0x0 PUSH1 0x40 MLOAD DUP1 DUP4 SUB DUP2 PUSH1 0x0 DUP8 DUP1 EXTCODESIZE ISZERO DUP1 ISZERO PUSH2 0x307 JUMPI PUSH1 0x0 DUP1 REVERT JUMPDEST POP GAS CALL ISZERO DUP1 ISZERO PUSH2 0x31B JUMPI RETURNDATASIZE PUSH1 0x0 DUP1 RETURNDATACOPY RETURNDATASIZE PUSH1 0x0 REVERT JUMPDEST POP POP PUSH1 0x40 MLOAD PUSH4 0xC47F0027 PUSH1 0xE0 SHL DUP2 MSTORE PUSH1 0x1 PUSH1 0x1 PUSH1 0xA0 SHL SUB DUP5 AND SWAP3 POP PUSH4 0xC47F0027 SWAP2 POP PUSH2 0x34B SWAP1 DUP8 SWAP1 PUSH1 0x4 ADD PUSH2 0x6AE JUMP JUMPDEST PUSH1 0x0 PUSH1 0x40 MLOAD DUP1 DUP4 SUB DUP2 PUSH1 0x0 DUP8 DUP1 EXTCODESIZE ISZERO DUP1 ISZERO PUSH2 0x365 JUMPI PUSH1 0x0 DUP1 REVERT JUMPDEST POP GAS CALL ISZERO DUP1 ISZERO PUSH2 0x379 JUMPI RETURNDATASIZE PUSH1 0x0 DUP1 RETURNDATACOPY RETURNDATASIZE PUSH1 0x0 REVERT JUMPDEST POP POP POP POP DUP1 PUSH1 0x5 PUSH1 0x6 SLOAD DUP2 SLOAD DUP2 LT PUSH2 0x393 JUMPI PUSH2 0x393 PUSH2 0x729 JUMP JUMPDEST SWAP1 PUSH1 0x0 MSTORE PUSH1 0x20 PUSH1 0x0 KECCAK256 ADD PUSH1 0x0 PUSH2 0x100 EXP DUP2 SLOAD DUP2 PUSH1 0x1 PUSH1 0x1 PUSH1 0xA0 SHL SUB MUL NOT AND SWAP1 DUP4 PUSH1 0x1 PUSH1 0x1 PUSH1 0xA0 SHL SUB AND MUL OR SWAP1 SSTORE POP PUSH1 0x1 PUSH1 0x6 PUSH1 0x0 DUP3 DUP3 SLOAD PUSH2 0x3D4 SWAP2 SWAP1 PUSH2 0x703 JUMP JUMPDEST SWAP1 SWAP2 SSTORE POP PUSH2 0x3E4 SWAP1 POP DUP2 DUP4 PUSH2 0x497 JUMP JUMPDEST POP POP POP POP POP JUMP JUMPDEST PUSH1 0x5 DUP2 DUP2 SLOAD DUP2 LT PUSH2 0x3FB JUMPI PUSH1 0x0 DUP1 REVERT JUMPDEST PUSH1 0x0 SWAP2 DUP3 MSTORE PUSH1 0x20 SWAP1 SWAP2 KECCAK256 ADD SLOAD PUSH1 0x1 PUSH1 0x1 PUSH1 0xA0 SHL SUB AND SWAP1 POP DUP2 JUMP JUMPDEST PUSH1 0x1 SLOAD PUSH1 0x40 DUP1 MLOAD PUSH4 0xCB2DAC3 PUSH1 0xE2 SHL DUP2 MSTORE SWAP1 MLOAD PUSH1 0x0 SWAP3 PUSH1 0x1 PUSH1 0x1 PUSH1 0xA0 SHL SUB AND SWAP2 PUSH4 0x32CB6B0C SWAP2 PUSH1 0x4 DUP1 DUP4 ADD SWAP3 PUSH1 0x20 SWAP3 SWAP2 SWAP1 DUP3 SWAP1 SUB ADD DUP2 DUP7 DUP1 EXTCODESIZE ISZERO DUP1 ISZERO PUSH2 0x45A JUMPI PUSH1 0x0 DUP1 REVERT JUMPDEST POP GAS STATICCALL ISZERO DUP1 ISZERO PUSH2 0x46E JUMPI RETURNDATASIZE PUSH1 0x0 DUP1 RETURNDATACOPY RETURNDATASIZE PUSH1 0x0 REVERT JUMPDEST POP POP POP POP PUSH1 0x40 MLOAD RETURNDATASIZE PUSH1 0x1F NOT PUSH1 0x1F DUP3 ADD AND DUP3 ADD DUP1 PUSH1 0x40 MSTORE POP DUP2 ADD SWAP1 PUSH2 0x492 SWAP2 SWAP1 PUSH2 0x5CA JUMP JUMPDEST SWAP1 POP SWAP1 JUMP JUMPDEST PUSH1 0x1 SLOAD PUSH1 0x40 MLOAD PUSH4 0xA9059CBB PUSH1 0xE0 SHL DUP2 MSTORE PUSH1 0x1 PUSH1 0x1 PUSH1 0xA0 SHL SUB DUP5 DUP2 AND PUSH1 0x4 DUP4 ADD MSTORE PUSH1 0x24 DUP3 ADD DUP5 SWAP1 MSTORE PUSH1 0x0 SWAP3 AND SWAP1 PUSH4 0xA9059CBB SWAP1 PUSH1 0x44 ADD PUSH1 0x20 PUSH1 0x40 MLOAD DUP1 DUP4 SUB DUP2 PUSH1 0x0 DUP8 DUP1 EXTCODESIZE ISZERO DUP1 ISZERO PUSH2 0x4E6 JUMPI PUSH1 0x0 DUP1 REVERT JUMPDEST POP GAS CALL ISZERO DUP1 ISZERO PUSH2 0x4FA JUMPI RETURNDATASIZE PUSH1 0x0 DUP1 RETURNDATACOPY RETURNDATASIZE PUSH1 0x0 REVERT JUMPDEST POP POP POP POP PUSH1 0x40 MLOAD RETURNDATASIZE PUSH1 0x1F NOT PUSH1 0x1F DUP3 ADD AND DUP3 ADD DUP1 PUSH1 0x40 MSTORE POP DUP2 ADD SWAP1 PUSH2 0x51E SWAP2 SWAP1 PUSH2 0x588 JUMP JUMPDEST SWAP1 POP DUP1 PUSH2 0x55F JUMPI PUSH1 0x40 MLOAD PUSH3 0x461BCD PUSH1 0xE5 SHL DUP2 MSTORE PUSH1 0x20 PUSH1 0x4 DUP3 ADD MSTORE PUSH1 0xF PUSH1 0x24 DUP3 ADD MSTORE PUSH15 0x1D1C985B9CD9995C8819985A5B1959 PUSH1 0x8A SHL PUSH1 0x44 DUP3 ADD MSTORE PUSH1 0x64 ADD PUSH2 0x1C9 JUMP JUMPDEST DUP2 PUSH1 0x4 PUSH1 0x0 DUP3 DUP3 SLOAD PUSH2 0x571 SWAP2 SWAP1 PUSH2 0x703 JUMP JUMPDEST SWAP1 SWAP2 SSTORE POP POP POP POP POP JUMP JUMPDEST PUSH2 0x1145 DUP1 PUSH2 0x756 DUP4 CODECOPY ADD SWAP1 JUMP JUMPDEST PUSH1 0x0 PUSH1 0x20 DUP3 DUP5 SUB SLT ISZERO PUSH2 0x59A JUMPI PUSH1 0x0 DUP1 REVERT JUMPDEST DUP2 MLOAD DUP1 ISZERO ISZERO DUP2 EQ PUSH2 0x5AA JUMPI PUSH1 0x0 DUP1 REVERT JUMPDEST SWAP4 SWAP3 POP POP POP JUMP JUMPDEST PUSH1 0x0 PUSH1 0x20 DUP3 DUP5 SUB SLT ISZERO PUSH2 0x5C3 JUMPI PUSH1 0x0 DUP1 REVERT JUMPDEST POP CALLDATALOAD SWAP2 SWAP1 POP JUMP JUMPDEST PUSH1 0x0 PUSH1 0x20 DUP3 DUP5 SUB SLT ISZERO PUSH2 0x5DC JUMPI PUSH1 0x0 DUP1 REVERT JUMPDEST POP MLOAD SWAP2 SWAP1 POP JUMP JUMPDEST PUSH1 0x0 DUP1 PUSH1 0x0 DUP1 PUSH1 0x80 DUP6 DUP8 SUB SLT ISZERO PUSH2 0x5F9 JUMPI PUSH1 0x0 DUP1 REVERT JUMPDEST DUP5 CALLDATALOAD SWAP4 POP PUSH1 0x20 DUP6 ADD CALLDATALOAD PUSH8 0xFFFFFFFFFFFFFFFF DUP1 DUP3 GT ISZERO PUSH2 0x618 JUMPI PUSH1 0x0 DUP1 REVERT JUMPDEST DUP2 DUP8 ADD SWAP2 POP DUP8 PUSH1 0x1F DUP4 ADD SLT PUSH2 0x62C JUMPI PUSH1 0x0 DUP1 REVERT JUMPDEST DUP2 CALLDATALOAD DUP2 DUP2 GT ISZERO PUSH2 0x63E JUMPI PUSH2 0x63E PUSH2 0x73F JUMP JUMPDEST PUSH1 0x40 MLOAD PUSH1 0x1F DUP3 ADD PUSH1 0x1F NOT SWAP1 DUP2 AND PUSH1 0x3F ADD AND DUP2 ADD SWAP1 DUP4 DUP3 GT DUP2 DUP4 LT OR ISZERO PUSH2 0x666 JUMPI PUSH2 0x666 PUSH2 0x73F JUMP JUMPDEST DUP2 PUSH1 0x40 MSTORE DUP3 DUP2 MSTORE DUP11 PUSH1 0x20 DUP5 DUP8 ADD ADD GT ISZERO PUSH2 0x67F JUMPI PUSH1 0x0 DUP1 REVERT JUMPDEST DUP3 PUSH1 0x20 DUP7 ADD PUSH1 0x20 DUP4 ADD CALLDATACOPY PUSH1 0x0 SWAP3 DUP2 ADD PUSH1 0x20 ADD SWAP3 SWAP1 SWAP3 MSTORE POP SWAP6 SWAP9 SWAP6 SWAP8 POP POP POP POP PUSH1 0x40 DUP5 ADD CALLDATALOAD SWAP4 PUSH1 0x60 ADD CALLDATALOAD SWAP3 SWAP2 POP POP JUMP JUMPDEST PUSH1 0x0 PUSH1 0x20 DUP1 DUP4 MSTORE DUP4 MLOAD DUP1 DUP3 DUP6 ADD MSTORE PUSH1 0x0 JUMPDEST DUP2 DUP2 LT ISZERO PUSH2 0x6DB JUMPI DUP6 DUP2 ADD DUP4 ADD MLOAD DUP6 DUP3 ADD PUSH1 0x40 ADD MSTORE DUP3 ADD PUSH2 0x6BF JUMP JUMPDEST DUP2 DUP2 GT ISZERO PUSH2 0x6ED JUMPI PUSH1 0x0 PUSH1 0x40 DUP4 DUP8 ADD ADD MSTORE JUMPDEST POP PUSH1 0x1F ADD PUSH1 0x1F NOT AND SWAP3 SWAP1 SWAP3 ADD PUSH1 0x40 ADD SWAP4 SWAP3 POP POP POP JUMP JUMPDEST PUSH1 0x0 DUP3 NOT DUP3 GT ISZERO PUSH2 0x724 JUMPI PUSH4 0x4E487B71 PUSH1 0xE0 SHL PUSH1 0x0 MSTORE PUSH1 0x11 PUSH1 0x4 MSTORE PUSH1 0x24 PUSH1 0x0 REVERT JUMPDEST POP ADD SWAP1 JUMP JUMPDEST PUSH4 0x4E487B71 PUSH1 0xE0 SHL PUSH1 0x0 MSTORE PUSH1 0x32 PUSH1 0x4 MSTORE PUSH1 0x24 PUSH1 0x0 REVERT JUMPDEST PUSH4 0x4E487B71 PUSH1 0xE0 SHL PUSH1 0x0 MSTORE PUSH1 0x41 PUSH1 0x4 MSTORE PUSH1 0x24 PUSH1 0x0 REVERT INVALID PUSH1 0x80 PUSH1 0x40 MSTORE CALLVALUE DUP1 ISZERO PUSH2 0x10 JUMPI PUSH1 0x0 DUP1 REVERT JUMPDEST POP PUSH1 0x40 MLOAD PUSH2 0x1145 CODESIZE SUB DUP1 PUSH2 0x1145 DUP4 CODECOPY DUP2 ADD PUSH1 0x40 DUP2 SWAP1 MSTORE PUSH2 0x2F SWAP2 PUSH2 0x128 JUMP JUMPDEST PUSH1 0x0 DUP1 SLOAD CALLER PUSH1 0x1 PUSH1 0x1 PUSH1 0xA0 SHL SUB NOT SWAP2 DUP3 AND OR SWAP1 SWAP2 SSTORE PUSH1 0x2 DUP1 SLOAD SWAP1 SWAP2 AND PUSH1 0x1 PUSH1 0x1 PUSH1 0xA0 SHL SUB DUP7 AND OR SWAP1 SSTORE TIMESTAMP PUSH1 0x3 SSTORE PUSH1 0x9 DUP4 SWAP1 SSTORE PUSH1 0xA DUP3 SWAP1 SSTORE PUSH1 0xB DUP2 SWAP1 SSTORE PUSH2 0x75 DUP3 DUP3 PUSH2 0x18C JUMP JUMPDEST PUSH1 0xC DUP2 SWAP1 SSTORE PUSH1 0x40 MLOAD PUSH4 0x556B30B9 PUSH1 0xE1 SHL DUP2 MSTORE PUSH1 0x4 DUP2 ADD DUP6 SWAP1 MSTORE PUSH1 0x24 DUP2 ADD SWAP2 SWAP1 SWAP2 MSTORE PUSH1 0x44 DUP2 ADD DUP3 SWAP1 MSTORE PUSH20 0x0 SWAP1 PUSH4 0xAAD66172 SWAP1 PUSH1 0x64 ADD PUSH1 0x20 PUSH1 0x40 MLOAD DUP1 DUP4 SUB DUP2 DUP7 DUP1 EXTCODESIZE ISZERO DUP1 ISZERO PUSH2 0xD4 JUMPI PUSH1 0x0 DUP1 REVERT JUMPDEST POP GAS DELEGATECALL ISZERO DUP1 ISZERO PUSH2 0xE8 JUMPI RETURNDATASIZE PUSH1 0x0 DUP1 RETURNDATACOPY RETURNDATASIZE PUSH1 0x0 REVERT JUMPDEST POP POP POP POP PUSH1 0x40 MLOAD RETURNDATASIZE PUSH1 0x1F NOT PUSH1 0x1F DUP3 ADD AND DUP3 ADD DUP1 PUSH1 0x40 MSTORE POP DUP2 ADD SWAP1 PUSH2 0x10C SWAP2 SWAP1 PUSH2 0x173 JUMP JUMPDEST PUSH1 0xD SSTORE POP POP PUSH1 0x0 PUSH1 0x8 DUP2 SWAP1 SSTORE PUSH1 0x7 DUP2 SWAP1 SSTORE PUSH1 0xE SSTORE POP PUSH2 0x1AE SWAP1 POP JUMP JUMPDEST PUSH1 0x0 DUP1 PUSH1 0x0 DUP1 PUSH1 0x80 DUP6 DUP8 SUB SLT ISZERO PUSH2 0x13E JUMPI PUSH1 0x0 DUP1 REVERT JUMPDEST DUP5 MLOAD PUSH1 0x1 PUSH1 0x1 PUSH1 0xA0 SHL SUB DUP2 AND DUP2 EQ PUSH2 0x155 JUMPI PUSH1 0x0 DUP1 REVERT JUMPDEST PUSH1 0x20 DUP7 ADD MLOAD PUSH1 0x40 DUP8 ADD MLOAD PUSH1 0x60 SWAP1 SWAP8 ADD MLOAD SWAP2 SWAP9 SWAP1 SWAP8 POP SWAP1 SWAP5 POP SWAP3 POP POP POP JUMP JUMPDEST PUSH1 0x0 PUSH1 0x20 DUP3 DUP5 SUB SLT ISZERO PUSH2 0x185 JUMPI PUSH1 0x0 DUP1 REVERT JUMPDEST POP MLOAD SWAP2 SWAP1 POP JUMP JUMPDEST PUSH1 0x0 DUP3 PUSH2 0x1A9 JUMPI PUSH4 0x4E487B71 PUSH1 0xE0 SHL PUSH1 0x0 MSTORE PUSH1 0x12 PUSH1 0x4 MSTORE PUSH1 0x24 PUSH1 0x0 REVERT JUMPDEST POP DIV SWAP1 JUMP JUMPDEST PUSH2 0xF88 DUP1 PUSH2 0x1BD PUSH1 0x0 CODECOPY PUSH1 0x0 RETURN INVALID PUSH1 0x80 PUSH1 0x40 MSTORE CALLVALUE DUP1 ISZERO PUSH2 0x10 JUMPI PUSH1 0x0 DUP1 REVERT JUMPDEST POP PUSH1 0x4 CALLDATASIZE LT PUSH2 0x142 JUMPI PUSH1 0x0 CALLDATALOAD PUSH1 0xE0 SHR DUP1 PUSH4 0xB58B6354 GT PUSH2 0xB8 JUMPI DUP1 PUSH4 0xC6788BDD GT PUSH2 0x7C JUMPI DUP1 PUSH4 0xC6788BDD EQ PUSH2 0x250 JUMPI DUP1 PUSH4 0xD0029D61 EQ PUSH2 0x2CE JUMPI DUP1 PUSH4 0xDCD65479 EQ PUSH2 0x2E1 JUMPI DUP1 PUSH4 0xDFA93099 EQ PUSH2 0x2EA JUMPI DUP1 PUSH4 0xF8FCABE3 EQ PUSH2 0x2FD JUMPI DUP1 PUSH4 0xFC0FC849 EQ PUSH2 0x310 JUMPI PUSH1 0x0 DUP1 REVERT JUMPDEST DUP1 PUSH4 0xB58B6354 EQ PUSH2 0x1FC JUMPI DUP1 PUSH4 0xB6228703 EQ PUSH2 0x20F JUMPI DUP1 PUSH4 0xBBB6F347 EQ PUSH2 0x222 JUMPI DUP1 PUSH4 0xC06D30A7 EQ PUSH2 0x235 JUMPI DUP1 PUSH4 0xC47F0027 EQ PUSH2 0x23D JUMPI PUSH1 0x0 DUP1 REVERT JUMPDEST DUP1 PUSH4 0x29CB924D GT PUSH2 0x10A JUMPI DUP1 PUSH4 0x29CB924D EQ PUSH2 0x1AD JUMPI DUP1 PUSH4 0x3197CBB6 EQ PUSH2 0x1B3 JUMPI DUP1 PUSH4 0x34DADAD5 EQ PUSH2 0x1BC JUMPI DUP1 PUSH4 0x35E9D90F EQ PUSH2 0x1C5 JUMPI DUP1 PUSH4 0x8523B7DB EQ PUSH2 0x1CE JUMPI DUP1 PUSH4 0x8DA5CB5B EQ PUSH2 0x1D7 JUMPI PUSH1 0x0 DUP1 REVERT JUMPDEST DUP1 PUSH4 0x6FDDE03 EQ PUSH2 0x147 JUMPI DUP1 PUSH4 0xF1A6444 EQ PUSH2 0x165 JUMPI DUP1 PUSH4 0x1A39D8EF EQ PUSH2 0x17C JUMPI DUP1 PUSH4 0x21E76DC1 EQ PUSH2 0x185 JUMPI DUP1 PUSH4 0x28DC8ED9 EQ PUSH2 0x198 JUMPI JUMPDEST PUSH1 0x0 DUP1 REVERT JUMPDEST PUSH2 0x14F PUSH2 0x319 JUMP JUMPDEST PUSH1 0x40 MLOAD PUSH2 0x15C SWAP2 SWAP1 PUSH2 0xE34 JUMP JUMPDEST PUSH1 0x40 MLOAD DUP1 SWAP2 SUB SWAP1 RETURN JUMPDEST PUSH2 0x16E PUSH1 0x9 SLOAD DUP2 JUMP JUMPDEST PUSH1 0x40 MLOAD SWAP1 DUP2 MSTORE PUSH1 0x20 ADD PUSH2 0x15C JUMP JUMPDEST PUSH2 0x16E PUSH1 0xB SLOAD DUP2 JUMP JUMPDEST PUSH2 0x16E PUSH2 0x193 CALLDATASIZE PUSH1 0x4 PUSH2 0xC74 JUMP JUMPDEST PUSH2 0x3A7 JUMP JUMPDEST PUSH2 0x1AB PUSH2 0x1A6 CALLDATASIZE PUSH1 0x4 PUSH2 0xC74 JUMP JUMPDEST PUSH2 0x664 JUMP JUMPDEST STOP JUMPDEST TIMESTAMP PUSH2 0x16E JUMP JUMPDEST PUSH2 0x16E PUSH1 0xD SLOAD DUP2 JUMP JUMPDEST PUSH2 0x16E PUSH1 0x3 SLOAD DUP2 JUMP JUMPDEST PUSH2 0x16E PUSH1 0xC SLOAD DUP2 JUMP JUMPDEST PUSH2 0x16E PUSH1 0x7 SLOAD DUP2 JUMP JUMPDEST PUSH1 0x0 SLOAD PUSH1 0x1 PUSH1 0x1 PUSH1 0xA0 SHL SUB AND JUMPDEST PUSH1 0x40 MLOAD PUSH1 0x1 PUSH1 0x1 PUSH1 0xA0 SHL SUB SWAP1 SWAP2 AND DUP2 MSTORE PUSH1 0x20 ADD PUSH2 0x15C JUMP JUMPDEST PUSH2 0x16E PUSH2 0x20A CALLDATASIZE PUSH1 0x4 PUSH2 0xC74 JUMP JUMPDEST PUSH2 0x6EF JUMP JUMPDEST PUSH2 0x16E PUSH2 0x21D CALLDATASIZE PUSH1 0x4 PUSH2 0xD87 JUMP JUMPDEST PUSH2 0x70C JUMP JUMPDEST PUSH1 0x2 SLOAD PUSH2 0x1E4 SWAP1 PUSH1 0x1 PUSH1 0x1 PUSH1 0xA0 SHL SUB AND DUP2 JUMP JUMPDEST PUSH2 0x16E PUSH2 0x7C6 JUMP JUMPDEST PUSH2 0x1AB PUSH2 0x24B CALLDATASIZE PUSH1 0x4 PUSH2 0xCD6 JUMP JUMPDEST PUSH2 0x82E JUMP JUMPDEST PUSH2 0x29A PUSH2 0x25E CALLDATASIZE PUSH1 0x4 PUSH2 0xC74 JUMP JUMPDEST PUSH1 0x5 PUSH1 0x20 MSTORE PUSH1 0x0 SWAP1 DUP2 MSTORE PUSH1 0x40 SWAP1 KECCAK256 DUP1 SLOAD PUSH1 0x1 DUP3 ADD SLOAD PUSH1 0x2 DUP4 ADD SLOAD PUSH1 0x3 DUP5 ADD SLOAD PUSH1 0x4 SWAP1 SWAP5 ADD SLOAD PUSH1 0x1 PUSH1 0x1 PUSH1 0xA0 SHL SUB SWAP1 SWAP4 AND SWAP4 SWAP2 SWAP3 SWAP1 SWAP2 SWAP1 PUSH1 0xFF AND DUP6 JUMP JUMPDEST PUSH1 0x40 DUP1 MLOAD PUSH1 0x1 PUSH1 0x1 PUSH1 0xA0 SHL SUB SWAP1 SWAP7 AND DUP7 MSTORE PUSH1 0x20 DUP7 ADD SWAP5 SWAP1 SWAP5 MSTORE SWAP3 DUP5 ADD SWAP2 SWAP1 SWAP2 MSTORE PUSH1 0x60 DUP4 ADD MSTORE ISZERO ISZERO PUSH1 0x80 DUP3 ADD MSTORE PUSH1 0xA0 ADD PUSH2 0x15C JUMP JUMPDEST PUSH2 0x1E4 PUSH2 0x2DC CALLDATASIZE PUSH1 0x4 PUSH2 0xE02 JUMP JUMPDEST PUSH2 0x8AE JUMP JUMPDEST PUSH2 0x16E PUSH1 0xA SLOAD DUP2 JUMP JUMPDEST PUSH2 0x16E PUSH2 0x2F8 CALLDATASIZE PUSH1 0x4 PUSH2 0xC74 JUMP JUMPDEST PUSH2 0x8D8 JUMP JUMPDEST PUSH2 0x1AB PUSH2 0x30B CALLDATASIZE PUSH1 0x4 PUSH2 0xC8F JUMP JUMPDEST PUSH2 0x943 JUMP JUMPDEST PUSH2 0x16E PUSH1 0xE SLOAD DUP2 JUMP JUMPDEST PUSH1 0x1 DUP1 SLOAD PUSH2 0x326 SWAP1 PUSH2 0xEDA JUMP JUMPDEST DUP1 PUSH1 0x1F ADD PUSH1 0x20 DUP1 SWAP2 DIV MUL PUSH1 0x20 ADD PUSH1 0x40 MLOAD SWAP1 DUP2 ADD PUSH1 0x40 MSTORE DUP1 SWAP3 SWAP2 SWAP1 DUP2 DUP2 MSTORE PUSH1 0x20 ADD DUP3 DUP1 SLOAD PUSH2 0x352 SWAP1 PUSH2 0xEDA JUMP JUMPDEST DUP1 ISZERO PUSH2 0x39F JUMPI DUP1 PUSH1 0x1F LT PUSH2 0x374 JUMPI PUSH2 0x100 DUP1 DUP4 SLOAD DIV MUL DUP4 MSTORE SWAP2 PUSH1 0x20 ADD SWAP2 PUSH2 0x39F JUMP JUMPDEST DUP3 ADD SWAP2 SWAP1 PUSH1 0x0 MSTORE PUSH1 0x20 PUSH1 0x0 KECCAK256 SWAP1 JUMPDEST DUP2 SLOAD DUP2 MSTORE SWAP1 PUSH1 0x1 ADD SWAP1 PUSH1 0x20 ADD DUP1 DUP4 GT PUSH2 0x382 JUMPI DUP3 SWAP1 SUB PUSH1 0x1F AND DUP3 ADD SWAP2 JUMPDEST POP POP POP POP POP DUP2 JUMP JUMPDEST PUSH1 0x0 CALLER PUSH1 0x1 PUSH1 0x1 PUSH1 0xA0 SHL SUB DUP4 AND EQ DUP1 PUSH2 0x3CA JUMPI POP PUSH1 0x0 SLOAD PUSH1 0x1 PUSH1 0x1 PUSH1 0xA0 SHL SUB AND CALLER EQ JUMPDEST PUSH2 0x441 JUMPI PUSH1 0x40 MLOAD PUSH3 0x461BCD PUSH1 0xE5 SHL DUP2 MSTORE PUSH1 0x20 PUSH1 0x4 DUP3 ADD MSTORE PUSH1 0x37 PUSH1 0x24 DUP3 ADD MSTORE PUSH32 0x56455354494E474255434B45543A2063616E206F6E6C792063616C6C2066726F PUSH1 0x44 DUP3 ADD MSTORE PUSH32 0x6D20636C61696D61646472657373206F72206F776E6572000000000000000000 PUSH1 0x64 DUP3 ADD MSTORE PUSH1 0x84 ADD JUMPDEST PUSH1 0x40 MLOAD DUP1 SWAP2 SUB SWAP1 REVERT JUMPDEST PUSH1 0x1 PUSH1 0x1 PUSH1 0xA0 SHL SUB DUP3 AND PUSH1 0x0 SWAP1 DUP2 MSTORE PUSH1 0x5 PUSH1 0x20 MSTORE PUSH1 0x40 SWAP1 KECCAK256 PUSH1 0x4 ADD SLOAD PUSH1 0xFF AND PUSH2 0x4B8 JUMPI PUSH1 0x40 MLOAD PUSH3 0x461BCD PUSH1 0xE5 SHL DUP2 MSTORE PUSH1 0x20 PUSH1 0x4 DUP3 ADD MSTORE PUSH1 0x23 PUSH1 0x24 DUP3 ADD MSTORE PUSH32 0x56455354494E474255434B45543A20636C61696D20646F6573206E6F74206578 PUSH1 0x44 DUP3 ADD MSTORE PUSH3 0x1A5CDD PUSH1 0xEA SHL PUSH1 0x64 DUP3 ADD MSTORE PUSH1 0x84 ADD PUSH2 0x438 JUMP JUMPDEST PUSH1 0x1 PUSH1 0x1 PUSH1 0xA0 SHL SUB DUP1 DUP4 AND PUSH1 0x0 SWAP1 DUP2 MSTORE PUSH1 0x5 PUSH1 0x20 SWAP1 DUP2 MSTORE PUSH1 0x40 DUP1 DUP4 KECCAK256 DUP2 MLOAD PUSH1 0xA0 DUP2 ADD DUP4 MSTORE DUP2 SLOAD SWAP1 SWAP6 AND DUP6 MSTORE PUSH1 0x1 DUP2 ADD SLOAD SWAP3 DUP6 ADD SWAP3 SWAP1 SWAP3 MSTORE PUSH1 0x2 DUP3 ADD SLOAD SWAP1 DUP5 ADD MSTORE PUSH1 0x3 DUP2 ADD SLOAD PUSH1 0x60 DUP5 ADD MSTORE PUSH1 0x4 ADD SLOAD PUSH1 0xFF AND ISZERO ISZERO PUSH1 0x80 DUP4 ADD MSTORE PUSH2 0x519 DUP3 PUSH2 0x70C JUMP JUMPDEST SWAP1 POP PUSH1 0x0 DUP3 PUSH1 0x60 ADD MLOAD DUP3 PUSH2 0x52D SWAP2 SWAP1 PUSH2 0xEC3 JUMP JUMPDEST SWAP1 POP PUSH1 0x0 DUP2 DUP5 PUSH1 0x60 ADD MLOAD PUSH2 0x541 SWAP2 SWAP1 PUSH2 0xE89 JUMP JUMPDEST SWAP1 POP DUP4 PUSH1 0x20 ADD MLOAD DUP2 GT ISZERO PUSH2 0x554 JUMPI PUSH1 0x0 DUP1 REVERT JUMPDEST PUSH1 0x2 SLOAD DUP5 MLOAD PUSH1 0x40 MLOAD PUSH4 0xA9059CBB PUSH1 0xE0 SHL DUP2 MSTORE PUSH1 0x1 PUSH1 0x1 PUSH1 0xA0 SHL SUB SWAP2 DUP3 AND PUSH1 0x4 DUP3 ADD MSTORE PUSH1 0x24 DUP2 ADD DUP6 SWAP1 MSTORE SWAP2 AND SWAP1 PUSH4 0xA9059CBB SWAP1 PUSH1 0x44 ADD PUSH1 0x20 PUSH1 0x40 MLOAD DUP1 DUP4 SUB DUP2 PUSH1 0x0 DUP8 DUP1 EXTCODESIZE ISZERO DUP1 ISZERO PUSH2 0x5A3 JUMPI PUSH1 0x0 DUP1 REVERT JUMPDEST POP GAS CALL ISZERO DUP1 ISZERO PUSH2 0x5B7 JUMPI RETURNDATASIZE PUSH1 0x0 DUP1 RETURNDATACOPY RETURNDATASIZE PUSH1 0x0 REVERT JUMPDEST POP POP POP POP PUSH1 0x40 MLOAD RETURNDATASIZE PUSH1 0x1F NOT PUSH1 0x1F DUP3 ADD AND DUP3 ADD DUP1 PUSH1 0x40 MSTORE POP DUP2 ADD SWAP1 PUSH2 0x5DB SWAP2 SWAP1 PUSH2 0xCB9 JUMP JUMPDEST PUSH2 0x5E4 JUMPI PUSH1 0x0 DUP1 REVERT JUMPDEST DUP4 PUSH1 0x0 ADD MLOAD PUSH1 0x1 PUSH1 0x1 PUSH1 0xA0 SHL SUB AND PUSH32 0x7FCF532C15F0A6DB0BD6D0E038BEA71D30D808C7D98CB3BF7268A95BF5081B65 DUP4 PUSH1 0x40 MLOAD PUSH2 0x623 SWAP2 DUP2 MSTORE PUSH1 0x20 ADD SWAP1 JUMP JUMPDEST PUSH1 0x40 MLOAD DUP1 SWAP2 SUB SWAP1 LOG2 DUP2 DUP5 PUSH1 0x60 ADD DUP2 DUP2 MLOAD PUSH2 0x63D SWAP2 SWAP1 PUSH2 0xE89 JUMP JUMPDEST SWAP1 MSTORE POP PUSH1 0x8 DUP1 SLOAD DUP4 SWAP2 SWAP1 PUSH1 0x0 SWAP1 PUSH2 0x655 SWAP1 DUP5 SWAP1 PUSH2 0xE89 JUMP JUMPDEST SWAP1 SWAP2 SSTORE POP SWAP2 SWAP7 SWAP6 POP POP POP POP POP POP JUMP JUMPDEST CALLER PUSH2 0x677 PUSH1 0x0 SLOAD PUSH1 0x1 PUSH1 0x1 PUSH1 0xA0 SHL SUB AND SWAP1 JUMP JUMPDEST PUSH1 0x1 PUSH1 0x1 PUSH1 0xA0 SHL SUB AND EQ PUSH2 0x6CD JUMPI PUSH1 0x40 MLOAD PUSH3 0x461BCD PUSH1 0xE5 SHL DUP2 MSTORE PUSH1 0x20 PUSH1 0x4 DUP3 ADD DUP2 SWAP1 MSTORE PUSH1 0x24 DUP3 ADD MSTORE PUSH32 0x4F776E61626C653A2063616C6C6572206973206E6F7420746865206F776E6572 PUSH1 0x44 DUP3 ADD MSTORE PUSH1 0x64 ADD PUSH2 0x438 JUMP JUMPDEST PUSH1 0x4 DUP1 SLOAD PUSH1 0x1 PUSH1 0x1 PUSH1 0xA0 SHL SUB NOT AND PUSH1 0x1 PUSH1 0x1 PUSH1 0xA0 SHL SUB SWAP3 SWAP1 SWAP3 AND SWAP2 SWAP1 SWAP2 OR SWAP1 SSTORE JUMP JUMPDEST PUSH1 0x0 DUP1 SLOAD PUSH1 0x1 PUSH1 0x1 PUSH1 0xA0 SHL SUB AND CALLER EQ PUSH2 0x707 JUMPI PUSH1 0x0 DUP1 REVERT JUMPDEST SWAP2 SWAP1 POP JUMP JUMPDEST PUSH1 0x9 SLOAD PUSH1 0xD SLOAD PUSH1 0x40 DUP4 DUP2 ADD MLOAD PUSH1 0x20 DUP6 ADD MLOAD SWAP2 MLOAD PUSH4 0x3F6B9393 PUSH1 0xE1 SHL DUP2 MSTORE TIMESTAMP PUSH1 0x4 DUP3 ADD DUP2 SWAP1 MSTORE PUSH1 0x24 DUP3 ADD SWAP6 SWAP1 SWAP6 MSTORE PUSH1 0x44 DUP2 ADD SWAP4 SWAP1 SWAP4 MSTORE PUSH1 0x64 DUP4 ADD MSTORE PUSH1 0x84 DUP3 ADD MSTORE PUSH1 0x0 SWAP2 SWAP1 PUSH20 0x0 SWAP1 PUSH4 0x7ED72726 SWAP1 PUSH1 0xA4 ADD JUMPDEST PUSH1 0x20 PUSH1 0x40 MLOAD DUP1 DUP4 SUB DUP2 DUP7 DUP1 EXTCODESIZE ISZERO DUP1 ISZERO PUSH2 0x787 JUMPI PUSH1 0x0 DUP1 REVERT JUMPDEST POP GAS DELEGATECALL ISZERO DUP1 ISZERO PUSH2 0x79B JUMPI RETURNDATASIZE PUSH1 0x0 DUP1 RETURNDATACOPY RETURNDATASIZE PUSH1 0x0 REVERT JUMPDEST POP POP POP POP PUSH1 0x40 MLOAD RETURNDATASIZE PUSH1 0x1F NOT PUSH1 0x1F DUP3 ADD AND DUP3 ADD DUP1 PUSH1 0x40 MSTORE POP DUP2 ADD SWAP1 PUSH2 0x7BF SWAP2 SWAP1 PUSH2 0xE1B JUMP JUMPDEST SWAP4 SWAP3 POP POP POP JUMP JUMPDEST PUSH1 0x9 SLOAD PUSH1 0xD SLOAD PUSH1 0xC SLOAD PUSH1 0xB SLOAD PUSH1 0x40 MLOAD PUSH4 0x3F6B9393 PUSH1 0xE1 SHL DUP2 MSTORE TIMESTAMP PUSH1 0x4 DUP3 ADD DUP2 SWAP1 MSTORE PUSH1 0x24 DUP3 ADD SWAP6 SWAP1 SWAP6 MSTORE PUSH1 0x44 DUP2 ADD SWAP4 SWAP1 SWAP4 MSTORE PUSH1 0x64 DUP4 ADD SWAP2 SWAP1 SWAP2 MSTORE PUSH1 0x84 DUP3 ADD MSTORE PUSH1 0x0 SWAP2 SWAP1 DUP3 SWAP1 PUSH20 0x0 SWAP1 PUSH4 0x7ED72726 SWAP1 PUSH1 0xA4 ADD PUSH2 0x76F JUMP JUMPDEST CALLER PUSH2 0x841 PUSH1 0x0 SLOAD PUSH1 0x1 PUSH1 0x1 PUSH1 0xA0 SHL SUB AND SWAP1 JUMP JUMPDEST PUSH1 0x1 PUSH1 0x1 PUSH1 0xA0 SHL SUB AND EQ PUSH2 0x897 JUMPI PUSH1 0x40 MLOAD PUSH3 0x461BCD PUSH1 0xE5 SHL DUP2 MSTORE PUSH1 0x20 PUSH1 0x4 DUP3 ADD DUP2 SWAP1 MSTORE PUSH1 0x24 DUP3 ADD MSTORE PUSH32 0x4F776E61626C653A2063616C6C6572206973206E6F7420746865206F776E6572 PUSH1 0x44 DUP3 ADD MSTORE PUSH1 0x64 ADD PUSH2 0x438 JUMP JUMPDEST DUP1 MLOAD PUSH2 0x8AA SWAP1 PUSH1 0x1 SWAP1 PUSH1 0x20 DUP5 ADD SWAP1 PUSH2 0xBC4 JUMP JUMPDEST POP POP JUMP JUMPDEST PUSH1 0x6 DUP2 DUP2 SLOAD DUP2 LT PUSH2 0x8BE JUMPI PUSH1 0x0 DUP1 REVERT JUMPDEST PUSH1 0x0 SWAP2 DUP3 MSTORE PUSH1 0x20 SWAP1 SWAP2 KECCAK256 ADD SLOAD PUSH1 0x1 PUSH1 0x1 PUSH1 0xA0 SHL SUB AND SWAP1 POP DUP2 JUMP JUMPDEST PUSH1 0x1 PUSH1 0x1 PUSH1 0xA0 SHL SUB DUP1 DUP3 AND PUSH1 0x0 SWAP1 DUP2 MSTORE PUSH1 0x5 PUSH1 0x20 SWAP1 DUP2 MSTORE PUSH1 0x40 DUP1 DUP4 KECCAK256 DUP2 MLOAD PUSH1 0xA0 DUP2 ADD DUP4 MSTORE DUP2 SLOAD SWAP1 SWAP6 AND DUP6 MSTORE PUSH1 0x1 DUP2 ADD SLOAD SWAP3 DUP6 ADD SWAP3 SWAP1 SWAP3 MSTORE PUSH1 0x2 DUP3 ADD SLOAD SWAP1 DUP5 ADD MSTORE PUSH1 0x3 DUP2 ADD SLOAD PUSH1 0x60 DUP5 ADD MSTORE PUSH1 0x4 ADD SLOAD PUSH1 0xFF AND ISZERO ISZERO PUSH1 0x80 DUP4 ADD MSTORE SWAP1 DUP2 PUSH2 0x93B DUP3 PUSH2 0x70C JUMP JUMPDEST SWAP5 SWAP4 POP POP POP POP JUMP JUMPDEST PUSH1 0x4 SLOAD PUSH1 0x1 PUSH1 0x1 PUSH1 0xA0 SHL SUB AND CALLER EQ DUP1 PUSH2 0x966 JUMPI POP PUSH1 0x0 SLOAD PUSH1 0x1 PUSH1 0x1 PUSH1 0xA0 SHL SUB AND CALLER EQ JUMPDEST PUSH2 0x9BE JUMPI PUSH1 0x40 MLOAD PUSH3 0x461BCD PUSH1 0xE5 SHL DUP2 MSTORE PUSH1 0x20 PUSH1 0x4 DUP3 ADD MSTORE PUSH1 0x23 PUSH1 0x24 DUP3 ADD MSTORE PUSH32 0x4F776E61626C653A2063616C6C6572206973206E6F7420746865207265666F77 PUSH1 0x44 DUP3 ADD MSTORE PUSH3 0x3732B9 PUSH1 0xE9 SHL PUSH1 0x64 DUP3 ADD MSTORE PUSH1 0x84 ADD PUSH2 0x438 JUMP JUMPDEST PUSH1 0x1 PUSH1 0x1 PUSH1 0xA0 SHL SUB DUP3 AND PUSH1 0x0 SWAP1 DUP2 MSTORE PUSH1 0x5 PUSH1 0x20 MSTORE PUSH1 0x40 SWAP1 KECCAK256 PUSH1 0x4 ADD SLOAD PUSH1 0xFF AND ISZERO PUSH2 0xA46 JUMPI PUSH1 0x40 MLOAD PUSH3 0x461BCD PUSH1 0xE5 SHL DUP2 MSTORE PUSH1 0x20 PUSH1 0x4 DUP3 ADD MSTORE PUSH1 0x33 PUSH1 0x24 DUP3 ADD MSTORE PUSH32 0x56455354494E474255434B45543A20636C61696D206174207468697320616464 PUSH1 0x44 DUP3 ADD MSTORE PUSH19 0x7265737320616C726561647920657869737473 PUSH1 0x68 SHL PUSH1 0x64 DUP3 ADD MSTORE PUSH1 0x84 ADD PUSH2 0x438 JUMP JUMPDEST PUSH1 0xB SLOAD DUP2 PUSH1 0x7 SLOAD PUSH2 0xA57 SWAP2 SWAP1 PUSH2 0xE89 JUMP JUMPDEST GT ISZERO PUSH2 0xABA JUMPI PUSH1 0x40 MLOAD PUSH3 0x461BCD PUSH1 0xE5 SHL DUP2 MSTORE PUSH1 0x20 PUSH1 0x4 DUP3 ADD MSTORE PUSH1 0x2C PUSH1 0x24 DUP3 ADD MSTORE PUSH32 0x56455354494E474255434B45543A2063616E206E6F7420636C61696D206D6F72 PUSH1 0x44 DUP3 ADD MSTORE PUSH12 0x19481D1A185B881D1BDD185B PUSH1 0xA2 SHL PUSH1 0x64 DUP3 ADD MSTORE PUSH1 0x84 ADD PUSH2 0x438 JUMP JUMPDEST PUSH1 0x0 PUSH1 0xA SLOAD DUP3 PUSH2 0xACA SWAP2 SWAP1 PUSH2 0xEA1 JUMP JUMPDEST PUSH1 0x40 DUP1 MLOAD PUSH1 0xA0 DUP2 ADD DUP3 MSTORE PUSH1 0x1 PUSH1 0x1 PUSH1 0xA0 SHL SUB DUP1 DUP8 AND DUP1 DUP4 MSTORE PUSH1 0x20 DUP1 DUP5 ADD DUP9 DUP2 MSTORE DUP5 DUP7 ADD DUP8 DUP2 MSTORE PUSH1 0x0 PUSH1 0x60 DUP8 ADD DUP2 DUP2 MSTORE PUSH1 0x1 PUSH1 0x80 DUP10 ADD DUP2 DUP2 MSTORE DUP8 DUP5 MSTORE PUSH1 0x5 SWAP1 SWAP7 MSTORE SWAP9 DUP3 KECCAK256 SWAP8 MLOAD DUP9 SLOAD SWAP8 AND PUSH1 0x1 PUSH1 0x1 PUSH1 0xA0 SHL SUB NOT SWAP8 DUP9 AND OR DUP9 SSTORE SWAP3 MLOAD DUP8 DUP10 ADD SSTORE SWAP1 MLOAD PUSH1 0x2 DUP8 ADD SSTORE SWAP1 MLOAD PUSH1 0x3 DUP7 ADD SSTORE SWAP1 MLOAD PUSH1 0x4 SWAP1 SWAP5 ADD DUP1 SLOAD SWAP5 ISZERO ISZERO PUSH1 0xFF NOT SWAP1 SWAP6 AND SWAP5 SWAP1 SWAP5 OR SWAP1 SWAP4 SSTORE PUSH1 0x6 DUP1 SLOAD SWAP5 DUP6 ADD DUP2 SSTORE DUP4 MSTORE PUSH32 0xF652222313E28459528D920B65115C16C04F3EFC82AAEDC97BE59F3F377C0D3F SWAP1 SWAP4 ADD DUP1 SLOAD SWAP1 SWAP2 AND SWAP1 SWAP3 OR SWAP1 SWAP2 SSTORE PUSH1 0x7 DUP1 SLOAD SWAP3 SWAP4 POP DUP5 SWAP3 SWAP1 SWAP2 SWAP1 PUSH2 0xBA0 SWAP1 DUP5 SWAP1 PUSH2 0xE89 JUMP JUMPDEST SWAP3 POP POP DUP2 SWAP1 SSTORE POP PUSH1 0x1 PUSH1 0xE PUSH1 0x0 DUP3 DUP3 SLOAD PUSH2 0xBBA SWAP2 SWAP1 PUSH2 0xE89 JUMP JUMPDEST SWAP1 SWAP2 SSTORE POP POP POP POP POP JUMP JUMPDEST DUP3 DUP1 SLOAD PUSH2 0xBD0 SWAP1 PUSH2 0xEDA JUMP JUMPDEST SWAP1 PUSH1 0x0 MSTORE PUSH1 0x20 PUSH1 0x0 KECCAK256 SWAP1 PUSH1 0x1F ADD PUSH1 0x20 SWAP1 DIV DUP2 ADD SWAP3 DUP3 PUSH2 0xBF2 JUMPI PUSH1 0x0 DUP6 SSTORE PUSH2 0xC38 JUMP JUMPDEST DUP3 PUSH1 0x1F LT PUSH2 0xC0B JUMPI DUP1 MLOAD PUSH1 0xFF NOT AND DUP4 DUP1 ADD OR DUP6 SSTORE PUSH2 0xC38 JUMP JUMPDEST DUP3 DUP1 ADD PUSH1 0x1 ADD DUP6 SSTORE DUP3 ISZERO PUSH2 0xC38 JUMPI SWAP2 DUP3 ADD JUMPDEST DUP3 DUP2 GT ISZERO PUSH2 0xC38 JUMPI DUP3 MLOAD DUP3 SSTORE SWAP2 PUSH1 0x20 ADD SWAP2 SWAP1 PUSH1 0x1 ADD SWAP1 PUSH2 0xC1D JUMP JUMPDEST POP PUSH2 0xC44 SWAP3 SWAP2 POP PUSH2 0xC48 JUMP JUMPDEST POP SWAP1 JUMP JUMPDEST JUMPDEST DUP1 DUP3 GT ISZERO PUSH2 0xC44 JUMPI PUSH1 0x0 DUP2 SSTORE PUSH1 0x1 ADD PUSH2 0xC49 JUMP JUMPDEST DUP1 CALLDATALOAD PUSH1 0x1 PUSH1 0x1 PUSH1 0xA0 SHL SUB DUP2 AND DUP2 EQ PUSH2 0x707 JUMPI PUSH1 0x0 DUP1 REVERT JUMPDEST PUSH1 0x0 PUSH1 0x20 DUP3 DUP5 SUB SLT ISZERO PUSH2 0xC86 JUMPI PUSH1 0x0 DUP1 REVERT JUMPDEST PUSH2 0x7BF DUP3 PUSH2 0xC5D JUMP JUMPDEST PUSH1 0x0 DUP1 PUSH1 0x40 DUP4 DUP6 SUB SLT ISZERO PUSH2 0xCA2 JUMPI PUSH1 0x0 DUP1 REVERT JUMPDEST PUSH2 0xCAB DUP4 PUSH2 0xC5D JUMP JUMPDEST SWAP5 PUSH1 0x20 SWAP4 SWAP1 SWAP4 ADD CALLDATALOAD SWAP4 POP POP POP JUMP JUMPDEST PUSH1 0x0 PUSH1 0x20 DUP3 DUP5 SUB SLT ISZERO PUSH2 0xCCB JUMPI PUSH1 0x0 DUP1 REVERT JUMPDEST DUP2 MLOAD PUSH2 0x7BF DUP2 PUSH2 0xF41 JUMP JUMPDEST PUSH1 0x0 PUSH1 0x20 DUP3 DUP5 SUB SLT ISZERO PUSH2 0xCE8 JUMPI PUSH1 0x0 DUP1 REVERT JUMPDEST DUP2 CALLDATALOAD PUSH8 0xFFFFFFFFFFFFFFFF DUP1 DUP3 GT ISZERO PUSH2 0xD00 JUMPI PUSH1 0x0 DUP1 REVERT JUMPDEST DUP2 DUP5 ADD SWAP2 POP DUP5 PUSH1 0x1F DUP4 ADD SLT PUSH2 0xD14 JUMPI PUSH1 0x0 DUP1 REVERT JUMPDEST DUP2 CALLDATALOAD DUP2 DUP2 GT ISZERO PUSH2 0xD26 JUMPI PUSH2 0xD26 PUSH2 0xF2B JUMP JUMPDEST PUSH1 0x40 MLOAD PUSH1 0x1F DUP3 ADD PUSH1 0x1F NOT SWAP1 DUP2 AND PUSH1 0x3F ADD AND DUP2 ADD SWAP1 DUP4 DUP3 GT DUP2 DUP4 LT OR ISZERO PUSH2 0xD4E JUMPI PUSH2 0xD4E PUSH2 0xF2B JUMP JUMPDEST DUP2 PUSH1 0x40 MSTORE DUP3 DUP2 MSTORE DUP8 PUSH1 0x20 DUP5 DUP8 ADD ADD GT ISZERO PUSH2 0xD67 JUMPI PUSH1 0x0 DUP1 REVERT JUMPDEST DUP3 PUSH1 0x20 DUP7 ADD PUSH1 0x20 DUP4 ADD CALLDATACOPY PUSH1 0x0 SWAP3 DUP2 ADD PUSH1 0x20 ADD SWAP3 SWAP1 SWAP3 MSTORE POP SWAP6 SWAP5 POP POP POP POP POP JUMP JUMPDEST PUSH1 0x0 PUSH1 0xA0 DUP3 DUP5 SUB SLT ISZERO PUSH2 0xD99 JUMPI PUSH1 0x0 DUP1 REVERT JUMPDEST PUSH1 0x40 MLOAD PUSH1 0xA0 DUP2 ADD DUP2 DUP2 LT PUSH8 0xFFFFFFFFFFFFFFFF DUP3 GT OR ISZERO PUSH2 0xDBC JUMPI PUSH2 0xDBC PUSH2 0xF2B JUMP JUMPDEST PUSH1 0x40 MSTORE PUSH2 0xDC8 DUP4 PUSH2 0xC5D JUMP JUMPDEST DUP2 MSTORE PUSH1 0x20 DUP4 ADD CALLDATALOAD PUSH1 0x20 DUP3 ADD MSTORE PUSH1 0x40 DUP4 ADD CALLDATALOAD PUSH1 0x40 DUP3 ADD MSTORE PUSH1 0x60 DUP4 ADD CALLDATALOAD PUSH1 0x60 DUP3 ADD MSTORE PUSH1 0x80 DUP4 ADD CALLDATALOAD PUSH2 0xDF6 DUP2 PUSH2 0xF41 JUMP JUMPDEST PUSH1 0x80 DUP3 ADD MSTORE SWAP4 SWAP3 POP POP POP JUMP JUMPDEST PUSH1 0x0 PUSH1 0x20 DUP3 DUP5 SUB SLT ISZERO PUSH2 0xE14 JUMPI PUSH1 0x0 DUP1 REVERT JUMPDEST POP CALLDATALOAD SWAP2 SWAP1 POP JUMP JUMPDEST PUSH1 0x0 PUSH1 0x20 DUP3 DUP5 SUB SLT ISZERO PUSH2 0xE2D JUMPI PUSH1 0x0 DUP1 REVERT JUMPDEST POP MLOAD SWAP2 SWAP1 POP JUMP JUMPDEST PUSH1 0x0 PUSH1 0x20 DUP1 DUP4 MSTORE DUP4 MLOAD DUP1 DUP3 DUP6 ADD MSTORE PUSH1 0x0 JUMPDEST DUP2 DUP2 LT ISZERO PUSH2 0xE61 JUMPI DUP6 DUP2 ADD DUP4 ADD MLOAD DUP6 DUP3 ADD PUSH1 0x40 ADD MSTORE DUP3 ADD PUSH2 0xE45 JUMP JUMPDEST DUP2 DUP2 GT ISZERO PUSH2 0xE73 JUMPI PUSH1 0x0 PUSH1 0x40 DUP4 DUP8 ADD ADD MSTORE JUMPDEST POP PUSH1 0x1F ADD PUSH1 0x1F NOT AND SWAP3 SWAP1 SWAP3 ADD PUSH1 0x40 ADD SWAP4 SWAP3 POP POP POP JUMP JUMPDEST PUSH1 0x0 DUP3 NOT DUP3 GT ISZERO PUSH2 0xE9C JUMPI PUSH2 0xE9C PUSH2 0xF15 JUMP JUMPDEST POP ADD SWAP1 JUMP JUMPDEST PUSH1 0x0 DUP3 PUSH2 0xEBE JUMPI PUSH4 0x4E487B71 PUSH1 0xE0 SHL PUSH1 0x0 MSTORE PUSH1 0x12 PUSH1 0x4 MSTORE PUSH1 0x24 PUSH1 0x0 REVERT JUMPDEST POP DIV SWAP1 JUMP JUMPDEST PUSH1 0x0 DUP3 DUP3 LT ISZERO PUSH2 0xED5 JUMPI PUSH2 0xED5 PUSH2 0xF15 JUMP JUMPDEST POP SUB SWAP1 JUMP JUMPDEST PUSH1 0x1 DUP2 DUP2 SHR SWAP1 DUP3 AND DUP1 PUSH2 0xEEE JUMPI PUSH1 0x7F DUP3 AND SWAP2 POP JUMPDEST PUSH1 0x20 DUP3 LT DUP2 EQ ISZERO PUSH2 0xF0F JUMPI PUSH4 0x4E487B71 PUSH1 0xE0 SHL PUSH1 0x0 MSTORE PUSH1 0x22 PUSH1 0x4 MSTORE PUSH1 0x24 PUSH1 0x0 REVERT JUMPDEST POP SWAP2 SWAP1 POP JUMP JUMPDEST PUSH4 0x4E487B71 PUSH1 0xE0 SHL PUSH1 0x0 MSTORE PUSH1 0x11 PUSH1 0x4 MSTORE PUSH1 0x24 PUSH1 0x0 REVERT JUMPDEST PUSH4 0x4E487B71 PUSH1 0xE0 SHL PUSH1 0x0 MSTORE PUSH1 0x41 PUSH1 0x4 MSTORE PUSH1 0x24 PUSH1 0x0 REVERT JUMPDEST DUP1 ISZERO ISZERO DUP2 EQ PUSH2 0xF4F JUMPI PUSH1 0x0 DUP1 REVERT JUMPDEST POP JUMP INVALID LOG2 PUSH5 0x6970667358 0x22 SLT KECCAK256 PUSH12 0x5E90BA2281916A47C04C5372 0x21 0xDF CALLCODE 0xCC SWAP9 SWAP4 RETURNDATASIZE PUSH27 0x300D45F145E3915E153C2464736F6C63430008050033A264697066 PUSH20 0x58221220F8CEB0742B24A9BE9B66773ABDF01424 DUP4 0xFC SELFBALANCE MSTORE8 0x2C PUSH29 0xB66EBFDA10EDB6E073DE64736F6C634300080500330000000000000000 ",
  "sha1": "349dcedab3d83ac495da5e61dd58ed8bd7bb4c90",
  "source": "// SPDX-License-Identifier: MIT\n\npragma solidity ^0.8.5;\n\nimport \"./VegaToken.sol\";\nimport \"./Ownable.sol\";\nimport \"./BasicBucket.sol\";\nimport \"./VestingBucket.sol\";\nimport \"./VestingConstants.sol\";\n\n// master distributes tokens to buckets\n// main token handler\n// bucket allocation is defined in VestingConstants\ncontract VegaMaster is Ownable {\n    VegaToken public vega_token;\n    address public vega_token_address;\n\n    uint256 private _circSupply;\n\n    //locked supply of vega\n    uint256 private _lockedSupply;\n\n    //uint256 public depositAmount;\n    //uint256 public vestedAmount;\n\n    address[] public buckets;\n    uint256 public bucket_num;\n\n    event Debug(string msg);\n\n    constructor() {\n        vega_token = new VegaToken();\n\n        _lockedSupply = 0;\n        _circSupply = 0;\n\n        vega_token_address = address(vega_token);\n\n        bucket_num = 0;\n\n        buckets = new address[](20);\n    }\n\n    function addVestingBucket(\n        uint256 cliff,\n        string memory name,\n        uint256 periods,\n        uint256 amount\n    ) public onlyOwner {\n        //uint8 DECIMALS = vega_token.decimals();\n        //uint256 bal = vega_token.balanceOf(address(this));\n        VestingBucket vbucket = new VestingBucket(\n            vega_token_address,\n            block.timestamp + cliff,\n            periods,\n            amount\n        );\n        //refowner of vbucket is owner of master\n        vbucket.setRefowner(owner());\n        vbucket.setName(name);\n        //require(bucket_num < num_buckets, \"bucket num too large\");\n        buckets[bucket_num] = address(vbucket);\n        bucket_num += 1;\n        transferToVested(address(vbucket), amount);\n        //return true\n    }\n\n    //TODO!\n    function claimableAmount() public returns (uint256) {\n        return 0;\n    }\n\n    function transferToVested(address recipient, uint256 amount) private {\n        bool success = vega_token.transfer(address(recipient), amount);\n        require(success, \"transfer failed\");\n        _lockedSupply += amount;\n    }\n\n    function circSupply() public view returns (uint256) {\n        return _circSupply;\n    }\n\n    function lockedSupply() public view returns (uint256) {\n        return _lockedSupply;\n    }\n\n    function maxSupply() public view returns (uint256) {\n        return vega_token.MAX_SUPPLY();\n    }\n\n    function releaseAll() public onlyOwner {\n        //\n    }\n\n    // Call at cliffTime/periodTime to release tokens to tokenholders\n    // @dev: we pay for the fee\n    // TODO: multi call maybe\n    // function release() external payable onlyOwner {\n    //     VestingSchedule storage vestingSchedule;\n    //     uint256 i = 0;\n    //     uint256 newTotalWithdrawn = 0;\n    //     for (i = 0; i < registeredAddresses.length; i++) {\n    //         vestingSchedule = vestingSchedules[registeredAddresses[i]];\n    //         newTotalWithdrawn = _release(vestingSchedule);\n    //         vestingSchedule.withdrawnAmount = newTotalWithdrawn;\n    //     }\n    // }\n\n    // function circulatingSupply() public returns (uint256) {\n    //     how much is circulating\n    // }\n\n    //     function depositTokens(uint256 amount) public { //onlyowner\n    //         //check approve\n    //         //require(VegaToken.allowance()>amount);\n    //         vega_token.transferFrom(msg.sender, address(this), amount);\n    //         depositAmount += amount;\n    //         emit Deposit(msg.sender, amount);\n}\n",
  "sourcePath": "contracts/VegaMaster.sol",
  "type": "contract"
}