{
  "abi": [
    {
      "inputs": [
        {
          "internalType": "address",
          "name": "_VEGA_TOKEN_ADDRESS",
          "type": "address"
        },
        {
          "internalType": "uint256",
          "name": "_cliffTime",
          "type": "uint256"
        },
        {
          "internalType": "uint256",
          "name": "_numPeriods",
          "type": "uint256"
        },
        {
          "internalType": "uint256",
          "name": "_totalAmount",
          "type": "uint256"
        },
        {
          "internalType": "address",
          "name": "_refowner",
          "type": "address"
        }
      ],
      "stateMutability": "nonpayable",
      "type": "constructor"
    },
    {
      "anonymous": false,
      "inputs": [
        {
          "indexed": true,
          "internalType": "address",
          "name": "addr",
          "type": "address"
        },
        {
          "indexed": false,
          "internalType": "uint256",
          "name": "amount",
          "type": "uint256"
        }
      ],
      "name": "Withdrawal",
      "type": "event"
    },
    {
      "inputs": [
        {
          "internalType": "address",
          "name": "_claimAddress",
          "type": "address"
        },
        {
          "internalType": "uint256",
          "name": "_claimTotalAmount",
          "type": "uint256"
        }
      ],
      "name": "addClaim",
      "outputs": [],
      "stateMutability": "nonpayable",
      "type": "function"
    },
    {
      "inputs": [
        {
          "internalType": "address",
          "name": "_claimAddress",
          "type": "address"
        }
      ],
      "name": "allClaim",
      "outputs": [
        {
          "internalType": "uint256",
          "name": "",
          "type": "uint256"
        }
      ],
      "stateMutability": "nonpayable",
      "type": "function"
    },
    {
      "inputs": [],
      "name": "bucketAmountPerPeriod",
      "outputs": [
        {
          "internalType": "uint256",
          "name": "",
          "type": "uint256"
        }
      ],
      "stateMutability": "view",
      "type": "function"
    },
    {
      "inputs": [
        {
          "internalType": "uint256",
          "name": "",
          "type": "uint256"
        }
      ],
      "name": "claimAddresses",
      "outputs": [
        {
          "internalType": "address",
          "name": "",
          "type": "address"
        }
      ],
      "stateMutability": "view",
      "type": "function"
    },
    {
      "inputs": [
        {
          "internalType": "address",
          "name": "",
          "type": "address"
        }
      ],
      "name": "claims",
      "outputs": [
        {
          "internalType": "address",
          "name": "claimAddress",
          "type": "address"
        },
        {
          "internalType": "uint256",
          "name": "claimTotalAmount",
          "type": "uint256"
        },
        {
          "internalType": "uint256",
          "name": "amountPerPeriod",
          "type": "uint256"
        },
        {
          "internalType": "uint256",
          "name": "withdrawnAmount",
          "type": "uint256"
        },
        {
          "internalType": "bool",
          "name": "isAdded",
          "type": "bool"
        }
      ],
      "stateMutability": "view",
      "type": "function"
    },
    {
      "inputs": [],
      "name": "cliffTime",
      "outputs": [
        {
          "internalType": "uint256",
          "name": "",
          "type": "uint256"
        }
      ],
      "stateMutability": "view",
      "type": "function"
    },
    {
      "inputs": [],
      "name": "endTime",
      "outputs": [
        {
          "internalType": "uint256",
          "name": "",
          "type": "uint256"
        }
      ],
      "stateMutability": "view",
      "type": "function"
    },
    {
      "inputs": [],
      "name": "getCurrentTime",
      "outputs": [
        {
          "internalType": "uint256",
          "name": "",
          "type": "uint256"
        }
      ],
      "stateMutability": "view",
      "type": "function"
    },
    {
      "inputs": [
        {
          "internalType": "address",
          "name": "_claimAddress",
          "type": "address"
        }
      ],
      "name": "getVestableAmount",
      "outputs": [
        {
          "internalType": "uint256",
          "name": "",
          "type": "uint256"
        }
      ],
      "stateMutability": "view",
      "type": "function"
    },
    {
      "inputs": [],
      "name": "getVestableAmountAll",
      "outputs": [
        {
          "internalType": "uint256",
          "name": "",
          "type": "uint256"
        }
      ],
      "stateMutability": "view",
      "type": "function"
    },
    {
      "inputs": [
        {
          "components": [
            {
              "internalType": "address",
              "name": "claimAddress",
              "type": "address"
            },
            {
              "internalType": "uint256",
              "name": "claimTotalAmount",
              "type": "uint256"
            },
            {
              "internalType": "uint256",
              "name": "amountPerPeriod",
              "type": "uint256"
            },
            {
              "internalType": "uint256",
              "name": "withdrawnAmount",
              "type": "uint256"
            },
            {
              "internalType": "bool",
              "name": "isAdded",
              "type": "bool"
            }
          ],
          "internalType": "struct VestingBucket.Claim",
          "name": "claim",
          "type": "tuple"
        }
      ],
      "name": "getVestedAmount",
      "outputs": [
        {
          "internalType": "uint256",
          "name": "",
          "type": "uint256"
        }
      ],
      "stateMutability": "view",
      "type": "function"
    },
    {
      "inputs": [],
      "name": "name",
      "outputs": [
        {
          "internalType": "string",
          "name": "",
          "type": "string"
        }
      ],
      "stateMutability": "view",
      "type": "function"
    },
    {
      "inputs": [],
      "name": "numClaims",
      "outputs": [
        {
          "internalType": "uint256",
          "name": "",
          "type": "uint256"
        }
      ],
      "stateMutability": "view",
      "type": "function"
    },
    {
      "inputs": [],
      "name": "numPeriods",
      "outputs": [
        {
          "internalType": "uint256",
          "name": "",
          "type": "uint256"
        }
      ],
      "stateMutability": "view",
      "type": "function"
    },
    {
      "inputs": [],
      "name": "owner",
      "outputs": [
        {
          "internalType": "address",
          "name": "",
          "type": "address"
        }
      ],
      "stateMutability": "view",
      "type": "function"
    },
    {
      "inputs": [],
      "name": "registerTime",
      "outputs": [
        {
          "internalType": "uint256",
          "name": "",
          "type": "uint256"
        }
      ],
      "stateMutability": "view",
      "type": "function"
    },
    {
      "inputs": [
        {
          "internalType": "string",
          "name": "_name",
          "type": "string"
        }
      ],
      "name": "setName",
      "outputs": [],
      "stateMutability": "nonpayable",
      "type": "function"
    },
    {
      "inputs": [],
      "name": "totalAmount",
      "outputs": [
        {
          "internalType": "uint256",
          "name": "",
          "type": "uint256"
        }
      ],
      "stateMutability": "view",
      "type": "function"
    },
    {
      "inputs": [],
      "name": "totalClaimAmount",
      "outputs": [
        {
          "internalType": "uint256",
          "name": "",
          "type": "uint256"
        }
      ],
      "stateMutability": "view",
      "type": "function"
    },
    {
      "inputs": [],
      "name": "vega_token",
      "outputs": [
        {
          "internalType": "contract VegaToken",
          "name": "",
          "type": "address"
        }
      ],
      "stateMutability": "view",
      "type": "function"
    },
    {
      "inputs": [
        {
          "internalType": "address",
          "name": "_claimAddress",
          "type": "address"
        }
      ],
      "name": "vestClaimMax",
      "outputs": [
        {
          "internalType": "uint256",
          "name": "",
          "type": "uint256"
        }
      ],
      "stateMutability": "nonpayable",
      "type": "function"
    }
  ],
  "bytecode": "60806040523480156200001157600080fd5b50604051620010c3380380620010c3833981016040819052620000349162000163565b60008054336001600160a01b0319918216179091556002805482166001600160a01b038881169190911790915542600355600480549092169083161790556009849055600a839055600b8290556200008d8383620001d2565b600c81905560405163556b30b960e11b81526004810186905260248101919091526044810183905273__VestingMath___________________________9063aad661729060640160206040518083038186803b158015620000ed57600080fd5b505af415801562000102573d6000803e3d6000fd5b505050506040513d601f19601f82011682018060405250810190620001289190620001b8565b600d555050600060088190556007819055600e5550620001f5915050565b80516001600160a01b03811681146200015e57600080fd5b919050565b600080600080600060a086880312156200017c57600080fd5b620001878662000146565b9450602086015193506040860151925060608601519150620001ac6080870162000146565b90509295509295909350565b600060208284031215620001cb57600080fd5b5051919050565b600082620001f057634e487b7160e01b600052601260045260246000fd5b500490565b610ebe80620002056000396000f3fe608060405234801561001057600080fd5b50600436106101375760003560e01c8063b58b6354116100b8578063c6788bdd1161007c578063c6788bdd14610232578063d0029d61146102b0578063dcd65479146102c3578063dfa93099146102cc578063f8fcabe3146102df578063fc0fc849146102f257600080fd5b8063b58b6354146101dc578063b6228703146101ef578063bbb6f34714610202578063c06d30a714610215578063c47f00271461021d57600080fd5b80633197cbb6116100ff5780633197cbb61461019357806334dadad51461019c57806335e9d90f146101a55780638523b7db146101ae5780638da5cb5b146101b757600080fd5b806306fdde031461013c5780630f1a64441461015a5780631a39d8ef1461017157806321e76dc11461017a57806329cb924d1461018d575b600080fd5b6101446102fb565b6040516101519190610d6a565b60405180910390f35b61016360095481565b604051908152602001610151565b610163600b5481565b610163610188366004610baa565b610389565b42610163565b610163600d5481565b61016360035481565b610163600c5481565b61016360075481565b6000546001600160a01b03165b6040516001600160a01b039091168152602001610151565b6101636101ea366004610baa565b610646565b6101636101fd366004610cbd565b610663565b6002546101c4906001600160a01b031681565b61016361071d565b61023061022b366004610c0c565b610785565b005b61027c610240366004610baa565b600560205260009081526040902080546001820154600283015460038401546004909401546001600160a01b0390931693919290919060ff1685565b604080516001600160a01b03909616865260208601949094529284019190915260608301521515608082015260a001610151565b6101c46102be366004610d38565b610805565b610163600a5481565b6101636102da366004610baa565b61082f565b6102306102ed366004610bc5565b61089a565b610163600e5481565b6001805461030890610e10565b80601f016020809104026020016040519081016040528092919081815260200182805461033490610e10565b80156103815780601f1061035657610100808354040283529160200191610381565b820191906000526020600020905b81548152906001019060200180831161036457829003601f168201915b505050505081565b6000336001600160a01b03831614806103ac57506000546001600160a01b031633145b6104235760405162461bcd60e51b815260206004820152603760248201527f56455354494e474255434b45543a2063616e206f6e6c792063616c6c2066726f60448201527f6d20636c61696d61646472657373206f72206f776e657200000000000000000060648201526084015b60405180910390fd5b6001600160a01b03821660009081526005602052604090206004015460ff1661049a5760405162461bcd60e51b815260206004820152602360248201527f56455354494e474255434b45543a20636c61696d20646f6573206e6f742065786044820152621a5cdd60ea1b606482015260840161041a565b6001600160a01b038083166000908152600560209081526040808320815160a08101835281549095168552600181015492850192909252600282015490840152600381015460608401526004015460ff16151560808301526104fb82610663565b9050600082606001518261050f9190610df9565b905060008184606001516105239190610dbf565b9050836020015181111561053657600080fd5b600254845160405163a9059cbb60e01b81526001600160a01b0391821660048201526024810185905291169063a9059cbb90604401602060405180830381600087803b15801561058557600080fd5b505af1158015610599573d6000803e3d6000fd5b505050506040513d601f19601f820116820180604052508101906105bd9190610bef565b6105c657600080fd5b83600001516001600160a01b03167f7fcf532c15f0a6db0bd6d0e038bea71d30d808c7d98cb3bf7268a95bf5081b658360405161060591815260200190565b60405180910390a2818460600181815161061f9190610dbf565b90525060088054839190600090610637908490610dbf565b90915550919695505050505050565b600080546001600160a01b0316331461065e57600080fd5b919050565b600954600d5460408381015160208501519151633f6b939360e11b8152426004820181905260248201959095526044810193909352606483015260848201526000919073__VestingMath___________________________90637ed727269060a4015b60206040518083038186803b1580156106de57600080fd5b505af41580156106f2573d6000803e3d6000fd5b505050506040513d601f19601f820116820180604052508101906107169190610d51565b9392505050565b600954600d54600c54600b54604051633f6b939360e11b81524260048201819052602482019590955260448101939093526064830191909152608482015260009190829073__VestingMath___________________________90637ed727269060a4016106c6565b336107986000546001600160a01b031690565b6001600160a01b0316146107ee5760405162461bcd60e51b815260206004820181905260248201527f4f776e61626c653a2063616c6c6572206973206e6f7420746865206f776e6572604482015260640161041a565b8051610801906001906020840190610afa565b5050565b6006818154811061081557600080fd5b6000918252602090912001546001600160a01b0316905081565b6001600160a01b038082166000908152600560209081526040808320815160a08101835281549095168552600181015492850192909252600282015490840152600381015460608401526004015460ff1615156080830152908161089282610663565b949350505050565b6004546001600160a01b031633146108f45760405162461bcd60e51b815260206004820181905260248201527f4f776e61626c653a2063616c6c6572206973206e6f7420746865206f776e6572604482015260640161041a565b6001600160a01b03821660009081526005602052604090206004015460ff161561097c5760405162461bcd60e51b815260206004820152603360248201527f56455354494e474255434b45543a20636c61696d2061742074686973206164646044820152727265737320616c72656164792065786973747360681b606482015260840161041a565b600b548160075461098d9190610dbf565b11156109f05760405162461bcd60e51b815260206004820152602c60248201527f56455354494e474255434b45543a2063616e206e6f7420636c61696d206d6f7260448201526b19481d1a185b881d1bdd185b60a21b606482015260840161041a565b6000600a5482610a009190610dd7565b6040805160a0810182526001600160a01b03808716808352602080840188815284860187815260006060870181815260016080890181815287845260059096529882209751885497166001600160a01b0319978816178855925187890155905160028701559051600386015590516004909401805494151560ff199095169490941790935560068054948501815583527ff652222313e28459528d920b65115c16c04f3efc82aaedc97be59f3f377c0d3f9093018054909116909217909155600780549293508492909190610ad6908490610dbf565b925050819055506001600e6000828254610af09190610dbf565b9091555050505050565b828054610b0690610e10565b90600052602060002090601f016020900481019282610b285760008555610b6e565b82601f10610b4157805160ff1916838001178555610b6e565b82800160010185558215610b6e579182015b82811115610b6e578251825591602001919060010190610b53565b50610b7a929150610b7e565b5090565b5b80821115610b7a5760008155600101610b7f565b80356001600160a01b038116811461065e57600080fd5b600060208284031215610bbc57600080fd5b61071682610b93565b60008060408385031215610bd857600080fd5b610be183610b93565b946020939093013593505050565b600060208284031215610c0157600080fd5b815161071681610e77565b600060208284031215610c1e57600080fd5b813567ffffffffffffffff80821115610c3657600080fd5b818401915084601f830112610c4a57600080fd5b813581811115610c5c57610c5c610e61565b604051601f8201601f19908116603f01168101908382118183101715610c8457610c84610e61565b81604052828152876020848701011115610c9d57600080fd5b826020860160208301376000928101602001929092525095945050505050565b600060a08284031215610ccf57600080fd5b60405160a0810181811067ffffffffffffffff82111715610cf257610cf2610e61565b604052610cfe83610b93565b81526020830135602082015260408301356040820152606083013560608201526080830135610d2c81610e77565b60808201529392505050565b600060208284031215610d4a57600080fd5b5035919050565b600060208284031215610d6357600080fd5b5051919050565b600060208083528351808285015260005b81811015610d9757858101830151858201604001528201610d7b565b81811115610da9576000604083870101525b50601f01601f1916929092016040019392505050565b60008219821115610dd257610dd2610e4b565b500190565b600082610df457634e487b7160e01b600052601260045260246000fd5b500490565b600082821015610e0b57610e0b610e4b565b500390565b600181811c90821680610e2457607f821691505b60208210811415610e4557634e487b7160e01b600052602260045260246000fd5b50919050565b634e487b7160e01b600052601160045260246000fd5b634e487b7160e01b600052604160045260246000fd5b8015158114610e8557600080fd5b5056fea264697066735822122086de10b78530bacffc556661b9a14ec4463431708bdd7ee94e829fc38d7b358c64736f6c63430008050033",
  "bytecodeSha1": "3e243efcfc599125f92081986f0f68b2915c104e",
  "compiler": {
    "evm_version": "istanbul",
    "optimizer": {
      "enabled": true,
      "runs": 200
    },
    "version": "0.8.5+commit.a4f2e591"
  },
  "contractName": "VestingBucket",
  "deployedBytecode": "608060405234801561001057600080fd5b50600436106101375760003560e01c8063b58b6354116100b8578063c6788bdd1161007c578063c6788bdd14610232578063d0029d61146102b0578063dcd65479146102c3578063dfa93099146102cc578063f8fcabe3146102df578063fc0fc849146102f257600080fd5b8063b58b6354146101dc578063b6228703146101ef578063bbb6f34714610202578063c06d30a714610215578063c47f00271461021d57600080fd5b80633197cbb6116100ff5780633197cbb61461019357806334dadad51461019c57806335e9d90f146101a55780638523b7db146101ae5780638da5cb5b146101b757600080fd5b806306fdde031461013c5780630f1a64441461015a5780631a39d8ef1461017157806321e76dc11461017a57806329cb924d1461018d575b600080fd5b6101446102fb565b6040516101519190610d6a565b60405180910390f35b61016360095481565b604051908152602001610151565b610163600b5481565b610163610188366004610baa565b610389565b42610163565b610163600d5481565b61016360035481565b610163600c5481565b61016360075481565b6000546001600160a01b03165b6040516001600160a01b039091168152602001610151565b6101636101ea366004610baa565b610646565b6101636101fd366004610cbd565b610663565b6002546101c4906001600160a01b031681565b61016361071d565b61023061022b366004610c0c565b610785565b005b61027c610240366004610baa565b600560205260009081526040902080546001820154600283015460038401546004909401546001600160a01b0390931693919290919060ff1685565b604080516001600160a01b03909616865260208601949094529284019190915260608301521515608082015260a001610151565b6101c46102be366004610d38565b610805565b610163600a5481565b6101636102da366004610baa565b61082f565b6102306102ed366004610bc5565b61089a565b610163600e5481565b6001805461030890610e10565b80601f016020809104026020016040519081016040528092919081815260200182805461033490610e10565b80156103815780601f1061035657610100808354040283529160200191610381565b820191906000526020600020905b81548152906001019060200180831161036457829003601f168201915b505050505081565b6000336001600160a01b03831614806103ac57506000546001600160a01b031633145b6104235760405162461bcd60e51b815260206004820152603760248201527f56455354494e474255434b45543a2063616e206f6e6c792063616c6c2066726f60448201527f6d20636c61696d61646472657373206f72206f776e657200000000000000000060648201526084015b60405180910390fd5b6001600160a01b03821660009081526005602052604090206004015460ff1661049a5760405162461bcd60e51b815260206004820152602360248201527f56455354494e474255434b45543a20636c61696d20646f6573206e6f742065786044820152621a5cdd60ea1b606482015260840161041a565b6001600160a01b038083166000908152600560209081526040808320815160a08101835281549095168552600181015492850192909252600282015490840152600381015460608401526004015460ff16151560808301526104fb82610663565b9050600082606001518261050f9190610df9565b905060008184606001516105239190610dbf565b9050836020015181111561053657600080fd5b600254845160405163a9059cbb60e01b81526001600160a01b0391821660048201526024810185905291169063a9059cbb90604401602060405180830381600087803b15801561058557600080fd5b505af1158015610599573d6000803e3d6000fd5b505050506040513d601f19601f820116820180604052508101906105bd9190610bef565b6105c657600080fd5b83600001516001600160a01b03167f7fcf532c15f0a6db0bd6d0e038bea71d30d808c7d98cb3bf7268a95bf5081b658360405161060591815260200190565b60405180910390a2818460600181815161061f9190610dbf565b90525060088054839190600090610637908490610dbf565b90915550919695505050505050565b600080546001600160a01b0316331461065e57600080fd5b919050565b600954600d5460408381015160208501519151633f6b939360e11b8152426004820181905260248201959095526044810193909352606483015260848201526000919073__$5e6753039be095b2af09f6e281dd6eeca6$__90637ed727269060a4015b60206040518083038186803b1580156106de57600080fd5b505af41580156106f2573d6000803e3d6000fd5b505050506040513d601f19601f820116820180604052508101906107169190610d51565b9392505050565b600954600d54600c54600b54604051633f6b939360e11b81524260048201819052602482019590955260448101939093526064830191909152608482015260009190829073__$5e6753039be095b2af09f6e281dd6eeca6$__90637ed727269060a4016106c6565b336107986000546001600160a01b031690565b6001600160a01b0316146107ee5760405162461bcd60e51b815260206004820181905260248201527f4f776e61626c653a2063616c6c6572206973206e6f7420746865206f776e6572604482015260640161041a565b8051610801906001906020840190610afa565b5050565b6006818154811061081557600080fd5b6000918252602090912001546001600160a01b0316905081565b6001600160a01b038082166000908152600560209081526040808320815160a08101835281549095168552600181015492850192909252600282015490840152600381015460608401526004015460ff1615156080830152908161089282610663565b949350505050565b6004546001600160a01b031633146108f45760405162461bcd60e51b815260206004820181905260248201527f4f776e61626c653a2063616c6c6572206973206e6f7420746865206f776e6572604482015260640161041a565b6001600160a01b03821660009081526005602052604090206004015460ff161561097c5760405162461bcd60e51b815260206004820152603360248201527f56455354494e474255434b45543a20636c61696d2061742074686973206164646044820152727265737320616c72656164792065786973747360681b606482015260840161041a565b600b548160075461098d9190610dbf565b11156109f05760405162461bcd60e51b815260206004820152602c60248201527f56455354494e474255434b45543a2063616e206e6f7420636c61696d206d6f7260448201526b19481d1a185b881d1bdd185b60a21b606482015260840161041a565b6000600a5482610a009190610dd7565b6040805160a0810182526001600160a01b03808716808352602080840188815284860187815260006060870181815260016080890181815287845260059096529882209751885497166001600160a01b0319978816178855925187890155905160028701559051600386015590516004909401805494151560ff199095169490941790935560068054948501815583527ff652222313e28459528d920b65115c16c04f3efc82aaedc97be59f3f377c0d3f9093018054909116909217909155600780549293508492909190610ad6908490610dbf565b925050819055506001600e6000828254610af09190610dbf565b9091555050505050565b828054610b0690610e10565b90600052602060002090601f016020900481019282610b285760008555610b6e565b82601f10610b4157805160ff1916838001178555610b6e565b82800160010185558215610b6e579182015b82811115610b6e578251825591602001919060010190610b53565b50610b7a929150610b7e565b5090565b5b80821115610b7a5760008155600101610b7f565b80356001600160a01b038116811461065e57600080fd5b600060208284031215610bbc57600080fd5b61071682610b93565b60008060408385031215610bd857600080fd5b610be183610b93565b946020939093013593505050565b600060208284031215610c0157600080fd5b815161071681610e77565b600060208284031215610c1e57600080fd5b813567ffffffffffffffff80821115610c3657600080fd5b818401915084601f830112610c4a57600080fd5b813581811115610c5c57610c5c610e61565b604051601f8201601f19908116603f01168101908382118183101715610c8457610c84610e61565b81604052828152876020848701011115610c9d57600080fd5b826020860160208301376000928101602001929092525095945050505050565b600060a08284031215610ccf57600080fd5b60405160a0810181811067ffffffffffffffff82111715610cf257610cf2610e61565b604052610cfe83610b93565b81526020830135602082015260408301356040820152606083013560608201526080830135610d2c81610e77565b60808201529392505050565b600060208284031215610d4a57600080fd5b5035919050565b600060208284031215610d6357600080fd5b5051919050565b600060208083528351808285015260005b81811015610d9757858101830151858201604001528201610d7b565b81811115610da9576000604083870101525b50601f01601f1916929092016040019392505050565b60008219821115610dd257610dd2610e4b565b500190565b600082610df457634e487b7160e01b600052601260045260246000fd5b500490565b600082821015610e0b57610e0b610e4b565b500390565b600181811c90821680610e2457607f821691505b60208210811415610e4557634e487b7160e01b600052602260045260246000fd5b50919050565b634e487b7160e01b600052601160045260246000fd5b634e487b7160e01b600052604160045260246000fd5b8015158114610e8557600080fd5b5056fea264697066735822122086de10b78530bacffc556661b9a14ec4463431708bdd7ee94e829fc38d7b358c64736f6c63430008050033",
  "language": "Solidity",
  "natspec": {
    "kind": "dev",
    "methods": {
      "owner()": {
        "details": "Returns the address of the current owner."
      }
    },
    "version": 1
  },
  "opcodes": "PUSH1 0x80 PUSH1 0x40 MSTORE CALLVALUE DUP1 ISZERO PUSH2 0x10 JUMPI PUSH1 0x0 DUP1 REVERT JUMPDEST POP PUSH1 0x4 CALLDATASIZE LT PUSH2 0x137 JUMPI PUSH1 0x0 CALLDATALOAD PUSH1 0xE0 SHR DUP1 PUSH4 0xB58B6354 GT PUSH2 0xB8 JUMPI DUP1 PUSH4 0xC6788BDD GT PUSH2 0x7C JUMPI DUP1 PUSH4 0xC6788BDD EQ PUSH2 0x232 JUMPI DUP1 PUSH4 0xD0029D61 EQ PUSH2 0x2B0 JUMPI DUP1 PUSH4 0xDCD65479 EQ PUSH2 0x2C3 JUMPI DUP1 PUSH4 0xDFA93099 EQ PUSH2 0x2CC JUMPI DUP1 PUSH4 0xF8FCABE3 EQ PUSH2 0x2DF JUMPI DUP1 PUSH4 0xFC0FC849 EQ PUSH2 0x2F2 JUMPI PUSH1 0x0 DUP1 REVERT JUMPDEST DUP1 PUSH4 0xB58B6354 EQ PUSH2 0x1DC JUMPI DUP1 PUSH4 0xB6228703 EQ PUSH2 0x1EF JUMPI DUP1 PUSH4 0xBBB6F347 EQ PUSH2 0x202 JUMPI DUP1 PUSH4 0xC06D30A7 EQ PUSH2 0x215 JUMPI DUP1 PUSH4 0xC47F0027 EQ PUSH2 0x21D JUMPI PUSH1 0x0 DUP1 REVERT JUMPDEST DUP1 PUSH4 0x3197CBB6 GT PUSH2 0xFF JUMPI DUP1 PUSH4 0x3197CBB6 EQ PUSH2 0x193 JUMPI DUP1 PUSH4 0x34DADAD5 EQ PUSH2 0x19C JUMPI DUP1 PUSH4 0x35E9D90F EQ PUSH2 0x1A5 JUMPI DUP1 PUSH4 0x8523B7DB EQ PUSH2 0x1AE JUMPI DUP1 PUSH4 0x8DA5CB5B EQ PUSH2 0x1B7 JUMPI PUSH1 0x0 DUP1 REVERT JUMPDEST DUP1 PUSH4 0x6FDDE03 EQ PUSH2 0x13C JUMPI DUP1 PUSH4 0xF1A6444 EQ PUSH2 0x15A JUMPI DUP1 PUSH4 0x1A39D8EF EQ PUSH2 0x171 JUMPI DUP1 PUSH4 0x21E76DC1 EQ PUSH2 0x17A JUMPI DUP1 PUSH4 0x29CB924D EQ PUSH2 0x18D JUMPI JUMPDEST PUSH1 0x0 DUP1 REVERT JUMPDEST PUSH2 0x144 PUSH2 0x2FB JUMP JUMPDEST PUSH1 0x40 MLOAD PUSH2 0x151 SWAP2 SWAP1 PUSH2 0xD6A JUMP JUMPDEST PUSH1 0x40 MLOAD DUP1 SWAP2 SUB SWAP1 RETURN JUMPDEST PUSH2 0x163 PUSH1 0x9 SLOAD DUP2 JUMP JUMPDEST PUSH1 0x40 MLOAD SWAP1 DUP2 MSTORE PUSH1 0x20 ADD PUSH2 0x151 JUMP JUMPDEST PUSH2 0x163 PUSH1 0xB SLOAD DUP2 JUMP JUMPDEST PUSH2 0x163 PUSH2 0x188 CALLDATASIZE PUSH1 0x4 PUSH2 0xBAA JUMP JUMPDEST PUSH2 0x389 JUMP JUMPDEST TIMESTAMP PUSH2 0x163 JUMP JUMPDEST PUSH2 0x163 PUSH1 0xD SLOAD DUP2 JUMP JUMPDEST PUSH2 0x163 PUSH1 0x3 SLOAD DUP2 JUMP JUMPDEST PUSH2 0x163 PUSH1 0xC SLOAD DUP2 JUMP JUMPDEST PUSH2 0x163 PUSH1 0x7 SLOAD DUP2 JUMP JUMPDEST PUSH1 0x0 SLOAD PUSH1 0x1 PUSH1 0x1 PUSH1 0xA0 SHL SUB AND JUMPDEST PUSH1 0x40 MLOAD PUSH1 0x1 PUSH1 0x1 PUSH1 0xA0 SHL SUB SWAP1 SWAP2 AND DUP2 MSTORE PUSH1 0x20 ADD PUSH2 0x151 JUMP JUMPDEST PUSH2 0x163 PUSH2 0x1EA CALLDATASIZE PUSH1 0x4 PUSH2 0xBAA JUMP JUMPDEST PUSH2 0x646 JUMP JUMPDEST PUSH2 0x163 PUSH2 0x1FD CALLDATASIZE PUSH1 0x4 PUSH2 0xCBD JUMP JUMPDEST PUSH2 0x663 JUMP JUMPDEST PUSH1 0x2 SLOAD PUSH2 0x1C4 SWAP1 PUSH1 0x1 PUSH1 0x1 PUSH1 0xA0 SHL SUB AND DUP2 JUMP JUMPDEST PUSH2 0x163 PUSH2 0x71D JUMP JUMPDEST PUSH2 0x230 PUSH2 0x22B CALLDATASIZE PUSH1 0x4 PUSH2 0xC0C JUMP JUMPDEST PUSH2 0x785 JUMP JUMPDEST STOP JUMPDEST PUSH2 0x27C PUSH2 0x240 CALLDATASIZE PUSH1 0x4 PUSH2 0xBAA JUMP JUMPDEST PUSH1 0x5 PUSH1 0x20 MSTORE PUSH1 0x0 SWAP1 DUP2 MSTORE PUSH1 0x40 SWAP1 KECCAK256 DUP1 SLOAD PUSH1 0x1 DUP3 ADD SLOAD PUSH1 0x2 DUP4 ADD SLOAD PUSH1 0x3 DUP5 ADD SLOAD PUSH1 0x4 SWAP1 SWAP5 ADD SLOAD PUSH1 0x1 PUSH1 0x1 PUSH1 0xA0 SHL SUB SWAP1 SWAP4 AND SWAP4 SWAP2 SWAP3 SWAP1 SWAP2 SWAP1 PUSH1 0xFF AND DUP6 JUMP JUMPDEST PUSH1 0x40 DUP1 MLOAD PUSH1 0x1 PUSH1 0x1 PUSH1 0xA0 SHL SUB SWAP1 SWAP7 AND DUP7 MSTORE PUSH1 0x20 DUP7 ADD SWAP5 SWAP1 SWAP5 MSTORE SWAP3 DUP5 ADD SWAP2 SWAP1 SWAP2 MSTORE PUSH1 0x60 DUP4 ADD MSTORE ISZERO ISZERO PUSH1 0x80 DUP3 ADD MSTORE PUSH1 0xA0 ADD PUSH2 0x151 JUMP JUMPDEST PUSH2 0x1C4 PUSH2 0x2BE CALLDATASIZE PUSH1 0x4 PUSH2 0xD38 JUMP JUMPDEST PUSH2 0x805 JUMP JUMPDEST PUSH2 0x163 PUSH1 0xA SLOAD DUP2 JUMP JUMPDEST PUSH2 0x163 PUSH2 0x2DA CALLDATASIZE PUSH1 0x4 PUSH2 0xBAA JUMP JUMPDEST PUSH2 0x82F JUMP JUMPDEST PUSH2 0x230 PUSH2 0x2ED CALLDATASIZE PUSH1 0x4 PUSH2 0xBC5 JUMP JUMPDEST PUSH2 0x89A JUMP JUMPDEST PUSH2 0x163 PUSH1 0xE SLOAD DUP2 JUMP JUMPDEST PUSH1 0x1 DUP1 SLOAD PUSH2 0x308 SWAP1 PUSH2 0xE10 JUMP JUMPDEST DUP1 PUSH1 0x1F ADD PUSH1 0x20 DUP1 SWAP2 DIV MUL PUSH1 0x20 ADD PUSH1 0x40 MLOAD SWAP1 DUP2 ADD PUSH1 0x40 MSTORE DUP1 SWAP3 SWAP2 SWAP1 DUP2 DUP2 MSTORE PUSH1 0x20 ADD DUP3 DUP1 SLOAD PUSH2 0x334 SWAP1 PUSH2 0xE10 JUMP JUMPDEST DUP1 ISZERO PUSH2 0x381 JUMPI DUP1 PUSH1 0x1F LT PUSH2 0x356 JUMPI PUSH2 0x100 DUP1 DUP4 SLOAD DIV MUL DUP4 MSTORE SWAP2 PUSH1 0x20 ADD SWAP2 PUSH2 0x381 JUMP JUMPDEST DUP3 ADD SWAP2 SWAP1 PUSH1 0x0 MSTORE PUSH1 0x20 PUSH1 0x0 KECCAK256 SWAP1 JUMPDEST DUP2 SLOAD DUP2 MSTORE SWAP1 PUSH1 0x1 ADD SWAP1 PUSH1 0x20 ADD DUP1 DUP4 GT PUSH2 0x364 JUMPI DUP3 SWAP1 SUB PUSH1 0x1F AND DUP3 ADD SWAP2 JUMPDEST POP POP POP POP POP DUP2 JUMP JUMPDEST PUSH1 0x0 CALLER PUSH1 0x1 PUSH1 0x1 PUSH1 0xA0 SHL SUB DUP4 AND EQ DUP1 PUSH2 0x3AC JUMPI POP PUSH1 0x0 SLOAD PUSH1 0x1 PUSH1 0x1 PUSH1 0xA0 SHL SUB AND CALLER EQ JUMPDEST PUSH2 0x423 JUMPI PUSH1 0x40 MLOAD PUSH3 0x461BCD PUSH1 0xE5 SHL DUP2 MSTORE PUSH1 0x20 PUSH1 0x4 DUP3 ADD MSTORE PUSH1 0x37 PUSH1 0x24 DUP3 ADD MSTORE PUSH32 0x56455354494E474255434B45543A2063616E206F6E6C792063616C6C2066726F PUSH1 0x44 DUP3 ADD MSTORE PUSH32 0x6D20636C61696D61646472657373206F72206F776E6572000000000000000000 PUSH1 0x64 DUP3 ADD MSTORE PUSH1 0x84 ADD JUMPDEST PUSH1 0x40 MLOAD DUP1 SWAP2 SUB SWAP1 REVERT JUMPDEST PUSH1 0x1 PUSH1 0x1 PUSH1 0xA0 SHL SUB DUP3 AND PUSH1 0x0 SWAP1 DUP2 MSTORE PUSH1 0x5 PUSH1 0x20 MSTORE PUSH1 0x40 SWAP1 KECCAK256 PUSH1 0x4 ADD SLOAD PUSH1 0xFF AND PUSH2 0x49A JUMPI PUSH1 0x40 MLOAD PUSH3 0x461BCD PUSH1 0xE5 SHL DUP2 MSTORE PUSH1 0x20 PUSH1 0x4 DUP3 ADD MSTORE PUSH1 0x23 PUSH1 0x24 DUP3 ADD MSTORE PUSH32 0x56455354494E474255434B45543A20636C61696D20646F6573206E6F74206578 PUSH1 0x44 DUP3 ADD MSTORE PUSH3 0x1A5CDD PUSH1 0xEA SHL PUSH1 0x64 DUP3 ADD MSTORE PUSH1 0x84 ADD PUSH2 0x41A JUMP JUMPDEST PUSH1 0x1 PUSH1 0x1 PUSH1 0xA0 SHL SUB DUP1 DUP4 AND PUSH1 0x0 SWAP1 DUP2 MSTORE PUSH1 0x5 PUSH1 0x20 SWAP1 DUP2 MSTORE PUSH1 0x40 DUP1 DUP4 KECCAK256 DUP2 MLOAD PUSH1 0xA0 DUP2 ADD DUP4 MSTORE DUP2 SLOAD SWAP1 SWAP6 AND DUP6 MSTORE PUSH1 0x1 DUP2 ADD SLOAD SWAP3 DUP6 ADD SWAP3 SWAP1 SWAP3 MSTORE PUSH1 0x2 DUP3 ADD SLOAD SWAP1 DUP5 ADD MSTORE PUSH1 0x3 DUP2 ADD SLOAD PUSH1 0x60 DUP5 ADD MSTORE PUSH1 0x4 ADD SLOAD PUSH1 0xFF AND ISZERO ISZERO PUSH1 0x80 DUP4 ADD MSTORE PUSH2 0x4FB DUP3 PUSH2 0x663 JUMP JUMPDEST SWAP1 POP PUSH1 0x0 DUP3 PUSH1 0x60 ADD MLOAD DUP3 PUSH2 0x50F SWAP2 SWAP1 PUSH2 0xDF9 JUMP JUMPDEST SWAP1 POP PUSH1 0x0 DUP2 DUP5 PUSH1 0x60 ADD MLOAD PUSH2 0x523 SWAP2 SWAP1 PUSH2 0xDBF JUMP JUMPDEST SWAP1 POP DUP4 PUSH1 0x20 ADD MLOAD DUP2 GT ISZERO PUSH2 0x536 JUMPI PUSH1 0x0 DUP1 REVERT JUMPDEST PUSH1 0x2 SLOAD DUP5 MLOAD PUSH1 0x40 MLOAD PUSH4 0xA9059CBB PUSH1 0xE0 SHL DUP2 MSTORE PUSH1 0x1 PUSH1 0x1 PUSH1 0xA0 SHL SUB SWAP2 DUP3 AND PUSH1 0x4 DUP3 ADD MSTORE PUSH1 0x24 DUP2 ADD DUP6 SWAP1 MSTORE SWAP2 AND SWAP1 PUSH4 0xA9059CBB SWAP1 PUSH1 0x44 ADD PUSH1 0x20 PUSH1 0x40 MLOAD DUP1 DUP4 SUB DUP2 PUSH1 0x0 DUP8 DUP1 EXTCODESIZE ISZERO DUP1 ISZERO PUSH2 0x585 JUMPI PUSH1 0x0 DUP1 REVERT JUMPDEST POP GAS CALL ISZERO DUP1 ISZERO PUSH2 0x599 JUMPI RETURNDATASIZE PUSH1 0x0 DUP1 RETURNDATACOPY RETURNDATASIZE PUSH1 0x0 REVERT JUMPDEST POP POP POP POP PUSH1 0x40 MLOAD RETURNDATASIZE PUSH1 0x1F NOT PUSH1 0x1F DUP3 ADD AND DUP3 ADD DUP1 PUSH1 0x40 MSTORE POP DUP2 ADD SWAP1 PUSH2 0x5BD SWAP2 SWAP1 PUSH2 0xBEF JUMP JUMPDEST PUSH2 0x5C6 JUMPI PUSH1 0x0 DUP1 REVERT JUMPDEST DUP4 PUSH1 0x0 ADD MLOAD PUSH1 0x1 PUSH1 0x1 PUSH1 0xA0 SHL SUB AND PUSH32 0x7FCF532C15F0A6DB0BD6D0E038BEA71D30D808C7D98CB3BF7268A95BF5081B65 DUP4 PUSH1 0x40 MLOAD PUSH2 0x605 SWAP2 DUP2 MSTORE PUSH1 0x20 ADD SWAP1 JUMP JUMPDEST PUSH1 0x40 MLOAD DUP1 SWAP2 SUB SWAP1 LOG2 DUP2 DUP5 PUSH1 0x60 ADD DUP2 DUP2 MLOAD PUSH2 0x61F SWAP2 SWAP1 PUSH2 0xDBF JUMP JUMPDEST SWAP1 MSTORE POP PUSH1 0x8 DUP1 SLOAD DUP4 SWAP2 SWAP1 PUSH1 0x0 SWAP1 PUSH2 0x637 SWAP1 DUP5 SWAP1 PUSH2 0xDBF JUMP JUMPDEST SWAP1 SWAP2 SSTORE POP SWAP2 SWAP7 SWAP6 POP POP POP POP POP POP JUMP JUMPDEST PUSH1 0x0 DUP1 SLOAD PUSH1 0x1 PUSH1 0x1 PUSH1 0xA0 SHL SUB AND CALLER EQ PUSH2 0x65E JUMPI PUSH1 0x0 DUP1 REVERT JUMPDEST SWAP2 SWAP1 POP JUMP JUMPDEST PUSH1 0x9 SLOAD PUSH1 0xD SLOAD PUSH1 0x40 DUP4 DUP2 ADD MLOAD PUSH1 0x20 DUP6 ADD MLOAD SWAP2 MLOAD PUSH4 0x3F6B9393 PUSH1 0xE1 SHL DUP2 MSTORE TIMESTAMP PUSH1 0x4 DUP3 ADD DUP2 SWAP1 MSTORE PUSH1 0x24 DUP3 ADD SWAP6 SWAP1 SWAP6 MSTORE PUSH1 0x44 DUP2 ADD SWAP4 SWAP1 SWAP4 MSTORE PUSH1 0x64 DUP4 ADD MSTORE PUSH1 0x84 DUP3 ADD MSTORE PUSH1 0x0 SWAP2 SWAP1 PUSH20 0x0 SWAP1 PUSH4 0x7ED72726 SWAP1 PUSH1 0xA4 ADD JUMPDEST PUSH1 0x20 PUSH1 0x40 MLOAD DUP1 DUP4 SUB DUP2 DUP7 DUP1 EXTCODESIZE ISZERO DUP1 ISZERO PUSH2 0x6DE JUMPI PUSH1 0x0 DUP1 REVERT JUMPDEST POP GAS DELEGATECALL ISZERO DUP1 ISZERO PUSH2 0x6F2 JUMPI RETURNDATASIZE PUSH1 0x0 DUP1 RETURNDATACOPY RETURNDATASIZE PUSH1 0x0 REVERT JUMPDEST POP POP POP POP PUSH1 0x40 MLOAD RETURNDATASIZE PUSH1 0x1F NOT PUSH1 0x1F DUP3 ADD AND DUP3 ADD DUP1 PUSH1 0x40 MSTORE POP DUP2 ADD SWAP1 PUSH2 0x716 SWAP2 SWAP1 PUSH2 0xD51 JUMP JUMPDEST SWAP4 SWAP3 POP POP POP JUMP JUMPDEST PUSH1 0x9 SLOAD PUSH1 0xD SLOAD PUSH1 0xC SLOAD PUSH1 0xB SLOAD PUSH1 0x40 MLOAD PUSH4 0x3F6B9393 PUSH1 0xE1 SHL DUP2 MSTORE TIMESTAMP PUSH1 0x4 DUP3 ADD DUP2 SWAP1 MSTORE PUSH1 0x24 DUP3 ADD SWAP6 SWAP1 SWAP6 MSTORE PUSH1 0x44 DUP2 ADD SWAP4 SWAP1 SWAP4 MSTORE PUSH1 0x64 DUP4 ADD SWAP2 SWAP1 SWAP2 MSTORE PUSH1 0x84 DUP3 ADD MSTORE PUSH1 0x0 SWAP2 SWAP1 DUP3 SWAP1 PUSH20 0x0 SWAP1 PUSH4 0x7ED72726 SWAP1 PUSH1 0xA4 ADD PUSH2 0x6C6 JUMP JUMPDEST CALLER PUSH2 0x798 PUSH1 0x0 SLOAD PUSH1 0x1 PUSH1 0x1 PUSH1 0xA0 SHL SUB AND SWAP1 JUMP JUMPDEST PUSH1 0x1 PUSH1 0x1 PUSH1 0xA0 SHL SUB AND EQ PUSH2 0x7EE JUMPI PUSH1 0x40 MLOAD PUSH3 0x461BCD PUSH1 0xE5 SHL DUP2 MSTORE PUSH1 0x20 PUSH1 0x4 DUP3 ADD DUP2 SWAP1 MSTORE PUSH1 0x24 DUP3 ADD MSTORE PUSH32 0x4F776E61626C653A2063616C6C6572206973206E6F7420746865206F776E6572 PUSH1 0x44 DUP3 ADD MSTORE PUSH1 0x64 ADD PUSH2 0x41A JUMP JUMPDEST DUP1 MLOAD PUSH2 0x801 SWAP1 PUSH1 0x1 SWAP1 PUSH1 0x20 DUP5 ADD SWAP1 PUSH2 0xAFA JUMP JUMPDEST POP POP JUMP JUMPDEST PUSH1 0x6 DUP2 DUP2 SLOAD DUP2 LT PUSH2 0x815 JUMPI PUSH1 0x0 DUP1 REVERT JUMPDEST PUSH1 0x0 SWAP2 DUP3 MSTORE PUSH1 0x20 SWAP1 SWAP2 KECCAK256 ADD SLOAD PUSH1 0x1 PUSH1 0x1 PUSH1 0xA0 SHL SUB AND SWAP1 POP DUP2 JUMP JUMPDEST PUSH1 0x1 PUSH1 0x1 PUSH1 0xA0 SHL SUB DUP1 DUP3 AND PUSH1 0x0 SWAP1 DUP2 MSTORE PUSH1 0x5 PUSH1 0x20 SWAP1 DUP2 MSTORE PUSH1 0x40 DUP1 DUP4 KECCAK256 DUP2 MLOAD PUSH1 0xA0 DUP2 ADD DUP4 MSTORE DUP2 SLOAD SWAP1 SWAP6 AND DUP6 MSTORE PUSH1 0x1 DUP2 ADD SLOAD SWAP3 DUP6 ADD SWAP3 SWAP1 SWAP3 MSTORE PUSH1 0x2 DUP3 ADD SLOAD SWAP1 DUP5 ADD MSTORE PUSH1 0x3 DUP2 ADD SLOAD PUSH1 0x60 DUP5 ADD MSTORE PUSH1 0x4 ADD SLOAD PUSH1 0xFF AND ISZERO ISZERO PUSH1 0x80 DUP4 ADD MSTORE SWAP1 DUP2 PUSH2 0x892 DUP3 PUSH2 0x663 JUMP JUMPDEST SWAP5 SWAP4 POP POP POP POP JUMP JUMPDEST PUSH1 0x4 SLOAD PUSH1 0x1 PUSH1 0x1 PUSH1 0xA0 SHL SUB AND CALLER EQ PUSH2 0x8F4 JUMPI PUSH1 0x40 MLOAD PUSH3 0x461BCD PUSH1 0xE5 SHL DUP2 MSTORE PUSH1 0x20 PUSH1 0x4 DUP3 ADD DUP2 SWAP1 MSTORE PUSH1 0x24 DUP3 ADD MSTORE PUSH32 0x4F776E61626C653A2063616C6C6572206973206E6F7420746865206F776E6572 PUSH1 0x44 DUP3 ADD MSTORE PUSH1 0x64 ADD PUSH2 0x41A JUMP JUMPDEST PUSH1 0x1 PUSH1 0x1 PUSH1 0xA0 SHL SUB DUP3 AND PUSH1 0x0 SWAP1 DUP2 MSTORE PUSH1 0x5 PUSH1 0x20 MSTORE PUSH1 0x40 SWAP1 KECCAK256 PUSH1 0x4 ADD SLOAD PUSH1 0xFF AND ISZERO PUSH2 0x97C JUMPI PUSH1 0x40 MLOAD PUSH3 0x461BCD PUSH1 0xE5 SHL DUP2 MSTORE PUSH1 0x20 PUSH1 0x4 DUP3 ADD MSTORE PUSH1 0x33 PUSH1 0x24 DUP3 ADD MSTORE PUSH32 0x56455354494E474255434B45543A20636C61696D206174207468697320616464 PUSH1 0x44 DUP3 ADD MSTORE PUSH19 0x7265737320616C726561647920657869737473 PUSH1 0x68 SHL PUSH1 0x64 DUP3 ADD MSTORE PUSH1 0x84 ADD PUSH2 0x41A JUMP JUMPDEST PUSH1 0xB SLOAD DUP2 PUSH1 0x7 SLOAD PUSH2 0x98D SWAP2 SWAP1 PUSH2 0xDBF JUMP JUMPDEST GT ISZERO PUSH2 0x9F0 JUMPI PUSH1 0x40 MLOAD PUSH3 0x461BCD PUSH1 0xE5 SHL DUP2 MSTORE PUSH1 0x20 PUSH1 0x4 DUP3 ADD MSTORE PUSH1 0x2C PUSH1 0x24 DUP3 ADD MSTORE PUSH32 0x56455354494E474255434B45543A2063616E206E6F7420636C61696D206D6F72 PUSH1 0x44 DUP3 ADD MSTORE PUSH12 0x19481D1A185B881D1BDD185B PUSH1 0xA2 SHL PUSH1 0x64 DUP3 ADD MSTORE PUSH1 0x84 ADD PUSH2 0x41A JUMP JUMPDEST PUSH1 0x0 PUSH1 0xA SLOAD DUP3 PUSH2 0xA00 SWAP2 SWAP1 PUSH2 0xDD7 JUMP JUMPDEST PUSH1 0x40 DUP1 MLOAD PUSH1 0xA0 DUP2 ADD DUP3 MSTORE PUSH1 0x1 PUSH1 0x1 PUSH1 0xA0 SHL SUB DUP1 DUP8 AND DUP1 DUP4 MSTORE PUSH1 0x20 DUP1 DUP5 ADD DUP9 DUP2 MSTORE DUP5 DUP7 ADD DUP8 DUP2 MSTORE PUSH1 0x0 PUSH1 0x60 DUP8 ADD DUP2 DUP2 MSTORE PUSH1 0x1 PUSH1 0x80 DUP10 ADD DUP2 DUP2 MSTORE DUP8 DUP5 MSTORE PUSH1 0x5 SWAP1 SWAP7 MSTORE SWAP9 DUP3 KECCAK256 SWAP8 MLOAD DUP9 SLOAD SWAP8 AND PUSH1 0x1 PUSH1 0x1 PUSH1 0xA0 SHL SUB NOT SWAP8 DUP9 AND OR DUP9 SSTORE SWAP3 MLOAD DUP8 DUP10 ADD SSTORE SWAP1 MLOAD PUSH1 0x2 DUP8 ADD SSTORE SWAP1 MLOAD PUSH1 0x3 DUP7 ADD SSTORE SWAP1 MLOAD PUSH1 0x4 SWAP1 SWAP5 ADD DUP1 SLOAD SWAP5 ISZERO ISZERO PUSH1 0xFF NOT SWAP1 SWAP6 AND SWAP5 SWAP1 SWAP5 OR SWAP1 SWAP4 SSTORE PUSH1 0x6 DUP1 SLOAD SWAP5 DUP6 ADD DUP2 SSTORE DUP4 MSTORE PUSH32 0xF652222313E28459528D920B65115C16C04F3EFC82AAEDC97BE59F3F377C0D3F SWAP1 SWAP4 ADD DUP1 SLOAD SWAP1 SWAP2 AND SWAP1 SWAP3 OR SWAP1 SWAP2 SSTORE PUSH1 0x7 DUP1 SLOAD SWAP3 SWAP4 POP DUP5 SWAP3 SWAP1 SWAP2 SWAP1 PUSH2 0xAD6 SWAP1 DUP5 SWAP1 PUSH2 0xDBF JUMP JUMPDEST SWAP3 POP POP DUP2 SWAP1 SSTORE POP PUSH1 0x1 PUSH1 0xE PUSH1 0x0 DUP3 DUP3 SLOAD PUSH2 0xAF0 SWAP2 SWAP1 PUSH2 0xDBF JUMP JUMPDEST SWAP1 SWAP2 SSTORE POP POP POP POP POP JUMP JUMPDEST DUP3 DUP1 SLOAD PUSH2 0xB06 SWAP1 PUSH2 0xE10 JUMP JUMPDEST SWAP1 PUSH1 0x0 MSTORE PUSH1 0x20 PUSH1 0x0 KECCAK256 SWAP1 PUSH1 0x1F ADD PUSH1 0x20 SWAP1 DIV DUP2 ADD SWAP3 DUP3 PUSH2 0xB28 JUMPI PUSH1 0x0 DUP6 SSTORE PUSH2 0xB6E JUMP JUMPDEST DUP3 PUSH1 0x1F LT PUSH2 0xB41 JUMPI DUP1 MLOAD PUSH1 0xFF NOT AND DUP4 DUP1 ADD OR DUP6 SSTORE PUSH2 0xB6E JUMP JUMPDEST DUP3 DUP1 ADD PUSH1 0x1 ADD DUP6 SSTORE DUP3 ISZERO PUSH2 0xB6E JUMPI SWAP2 DUP3 ADD JUMPDEST DUP3 DUP2 GT ISZERO PUSH2 0xB6E JUMPI DUP3 MLOAD DUP3 SSTORE SWAP2 PUSH1 0x20 ADD SWAP2 SWAP1 PUSH1 0x1 ADD SWAP1 PUSH2 0xB53 JUMP JUMPDEST POP PUSH2 0xB7A SWAP3 SWAP2 POP PUSH2 0xB7E JUMP JUMPDEST POP SWAP1 JUMP JUMPDEST JUMPDEST DUP1 DUP3 GT ISZERO PUSH2 0xB7A JUMPI PUSH1 0x0 DUP2 SSTORE PUSH1 0x1 ADD PUSH2 0xB7F JUMP JUMPDEST DUP1 CALLDATALOAD PUSH1 0x1 PUSH1 0x1 PUSH1 0xA0 SHL SUB DUP2 AND DUP2 EQ PUSH2 0x65E JUMPI PUSH1 0x0 DUP1 REVERT JUMPDEST PUSH1 0x0 PUSH1 0x20 DUP3 DUP5 SUB SLT ISZERO PUSH2 0xBBC JUMPI PUSH1 0x0 DUP1 REVERT JUMPDEST PUSH2 0x716 DUP3 PUSH2 0xB93 JUMP JUMPDEST PUSH1 0x0 DUP1 PUSH1 0x40 DUP4 DUP6 SUB SLT ISZERO PUSH2 0xBD8 JUMPI PUSH1 0x0 DUP1 REVERT JUMPDEST PUSH2 0xBE1 DUP4 PUSH2 0xB93 JUMP JUMPDEST SWAP5 PUSH1 0x20 SWAP4 SWAP1 SWAP4 ADD CALLDATALOAD SWAP4 POP POP POP JUMP JUMPDEST PUSH1 0x0 PUSH1 0x20 DUP3 DUP5 SUB SLT ISZERO PUSH2 0xC01 JUMPI PUSH1 0x0 DUP1 REVERT JUMPDEST DUP2 MLOAD PUSH2 0x716 DUP2 PUSH2 0xE77 JUMP JUMPDEST PUSH1 0x0 PUSH1 0x20 DUP3 DUP5 SUB SLT ISZERO PUSH2 0xC1E JUMPI PUSH1 0x0 DUP1 REVERT JUMPDEST DUP2 CALLDATALOAD PUSH8 0xFFFFFFFFFFFFFFFF DUP1 DUP3 GT ISZERO PUSH2 0xC36 JUMPI PUSH1 0x0 DUP1 REVERT JUMPDEST DUP2 DUP5 ADD SWAP2 POP DUP5 PUSH1 0x1F DUP4 ADD SLT PUSH2 0xC4A JUMPI PUSH1 0x0 DUP1 REVERT JUMPDEST DUP2 CALLDATALOAD DUP2 DUP2 GT ISZERO PUSH2 0xC5C JUMPI PUSH2 0xC5C PUSH2 0xE61 JUMP JUMPDEST PUSH1 0x40 MLOAD PUSH1 0x1F DUP3 ADD PUSH1 0x1F NOT SWAP1 DUP2 AND PUSH1 0x3F ADD AND DUP2 ADD SWAP1 DUP4 DUP3 GT DUP2 DUP4 LT OR ISZERO PUSH2 0xC84 JUMPI PUSH2 0xC84 PUSH2 0xE61 JUMP JUMPDEST DUP2 PUSH1 0x40 MSTORE DUP3 DUP2 MSTORE DUP8 PUSH1 0x20 DUP5 DUP8 ADD ADD GT ISZERO PUSH2 0xC9D JUMPI PUSH1 0x0 DUP1 REVERT JUMPDEST DUP3 PUSH1 0x20 DUP7 ADD PUSH1 0x20 DUP4 ADD CALLDATACOPY PUSH1 0x0 SWAP3 DUP2 ADD PUSH1 0x20 ADD SWAP3 SWAP1 SWAP3 MSTORE POP SWAP6 SWAP5 POP POP POP POP POP JUMP JUMPDEST PUSH1 0x0 PUSH1 0xA0 DUP3 DUP5 SUB SLT ISZERO PUSH2 0xCCF JUMPI PUSH1 0x0 DUP1 REVERT JUMPDEST PUSH1 0x40 MLOAD PUSH1 0xA0 DUP2 ADD DUP2 DUP2 LT PUSH8 0xFFFFFFFFFFFFFFFF DUP3 GT OR ISZERO PUSH2 0xCF2 JUMPI PUSH2 0xCF2 PUSH2 0xE61 JUMP JUMPDEST PUSH1 0x40 MSTORE PUSH2 0xCFE DUP4 PUSH2 0xB93 JUMP JUMPDEST DUP2 MSTORE PUSH1 0x20 DUP4 ADD CALLDATALOAD PUSH1 0x20 DUP3 ADD MSTORE PUSH1 0x40 DUP4 ADD CALLDATALOAD PUSH1 0x40 DUP3 ADD MSTORE PUSH1 0x60 DUP4 ADD CALLDATALOAD PUSH1 0x60 DUP3 ADD MSTORE PUSH1 0x80 DUP4 ADD CALLDATALOAD PUSH2 0xD2C DUP2 PUSH2 0xE77 JUMP JUMPDEST PUSH1 0x80 DUP3 ADD MSTORE SWAP4 SWAP3 POP POP POP JUMP JUMPDEST PUSH1 0x0 PUSH1 0x20 DUP3 DUP5 SUB SLT ISZERO PUSH2 0xD4A JUMPI PUSH1 0x0 DUP1 REVERT JUMPDEST POP CALLDATALOAD SWAP2 SWAP1 POP JUMP JUMPDEST PUSH1 0x0 PUSH1 0x20 DUP3 DUP5 SUB SLT ISZERO PUSH2 0xD63 JUMPI PUSH1 0x0 DUP1 REVERT JUMPDEST POP MLOAD SWAP2 SWAP1 POP JUMP JUMPDEST PUSH1 0x0 PUSH1 0x20 DUP1 DUP4 MSTORE DUP4 MLOAD DUP1 DUP3 DUP6 ADD MSTORE PUSH1 0x0 JUMPDEST DUP2 DUP2 LT ISZERO PUSH2 0xD97 JUMPI DUP6 DUP2 ADD DUP4 ADD MLOAD DUP6 DUP3 ADD PUSH1 0x40 ADD MSTORE DUP3 ADD PUSH2 0xD7B JUMP JUMPDEST DUP2 DUP2 GT ISZERO PUSH2 0xDA9 JUMPI PUSH1 0x0 PUSH1 0x40 DUP4 DUP8 ADD ADD MSTORE JUMPDEST POP PUSH1 0x1F ADD PUSH1 0x1F NOT AND SWAP3 SWAP1 SWAP3 ADD PUSH1 0x40 ADD SWAP4 SWAP3 POP POP POP JUMP JUMPDEST PUSH1 0x0 DUP3 NOT DUP3 GT ISZERO PUSH2 0xDD2 JUMPI PUSH2 0xDD2 PUSH2 0xE4B JUMP JUMPDEST POP ADD SWAP1 JUMP JUMPDEST PUSH1 0x0 DUP3 PUSH2 0xDF4 JUMPI PUSH4 0x4E487B71 PUSH1 0xE0 SHL PUSH1 0x0 MSTORE PUSH1 0x12 PUSH1 0x4 MSTORE PUSH1 0x24 PUSH1 0x0 REVERT JUMPDEST POP DIV SWAP1 JUMP JUMPDEST PUSH1 0x0 DUP3 DUP3 LT ISZERO PUSH2 0xE0B JUMPI PUSH2 0xE0B PUSH2 0xE4B JUMP JUMPDEST POP SUB SWAP1 JUMP JUMPDEST PUSH1 0x1 DUP2 DUP2 SHR SWAP1 DUP3 AND DUP1 PUSH2 0xE24 JUMPI PUSH1 0x7F DUP3 AND SWAP2 POP JUMPDEST PUSH1 0x20 DUP3 LT DUP2 EQ ISZERO PUSH2 0xE45 JUMPI PUSH4 0x4E487B71 PUSH1 0xE0 SHL PUSH1 0x0 MSTORE PUSH1 0x22 PUSH1 0x4 MSTORE PUSH1 0x24 PUSH1 0x0 REVERT JUMPDEST POP SWAP2 SWAP1 POP JUMP JUMPDEST PUSH4 0x4E487B71 PUSH1 0xE0 SHL PUSH1 0x0 MSTORE PUSH1 0x11 PUSH1 0x4 MSTORE PUSH1 0x24 PUSH1 0x0 REVERT JUMPDEST PUSH4 0x4E487B71 PUSH1 0xE0 SHL PUSH1 0x0 MSTORE PUSH1 0x41 PUSH1 0x4 MSTORE PUSH1 0x24 PUSH1 0x0 REVERT JUMPDEST DUP1 ISZERO ISZERO DUP2 EQ PUSH2 0xE85 JUMPI PUSH1 0x0 DUP1 REVERT JUMPDEST POP JUMP INVALID LOG2 PUSH5 0x6970667358 0x22 SLT KECCAK256 DUP7 0xDE LT 0xB7 DUP6 ADDRESS 0xBA 0xCF 0xFC SSTORE PUSH7 0x61B9A14EC44634 BALANCE PUSH17 0x8BDD7EE94E829FC38D7B358C64736F6C63 NUMBER STOP ADDMOD SDIV STOP CALLER ",
  "sha1": "d60d0c4f6efc033c9f93f9d64fed4add89246900",
  "source": "// // SPDX-License-Identifier: MIT\npragma solidity ^0.8.5;\n\nimport \"./AbstractBucket.sol\";\nimport \"./Ownable.sol\";\nimport \"./VegaToken.sol\";\nimport \"./VestingMath.sol\";\n\n//bucket with vesting of multiple addresses\n//claims and\n//claim addresses have claims towards the bucket\n//vesting in equal parts per time\n//e.g. 6 months, 1/6 equal\ncontract VestingBucket is AbstractBucket {\n    address refowner;\n    //a claim towards this bucket by an addreess\n    struct Claim {\n        address claimAddress;\n        uint256 claimTotalAmount;\n        uint256 amountPerPeriod;\n        uint256 withdrawnAmount;\n        bool isAdded;\n    }\n\n    mapping(address => Claim) public claims;\n    address[] public claimAddresses;\n    uint256 public totalClaimAmount;\n    uint256 totalWithdrawnAmount;\n\n    //unix time when vesting starts\n    uint256 public cliffTime;\n    //how many periods .the number of months not the number of the final month\n    uint256 public numPeriods;\n    //how much in total is vested\n    uint256 public totalAmount;\n    // calculated\n    //how much per period. since its linear this is calculated\n    uint256 public bucketAmountPerPeriod;\n    uint256 public endTime;\n    uint256 public numClaims;\n\n    //TODO deposit\n    event Withdrawal(address indexed addr, uint256 amount);\n\n    modifier onlyRefOwner() {\n        require(msg.sender == refowner, \"Ownable: caller is not the owner\");\n        _;\n    }\n\n    constructor(\n        address _VEGA_TOKEN_ADDRESS,\n        uint256 _cliffTime,\n        uint256 _numPeriods,\n        uint256 _totalAmount,\n        address _refowner\n    ) AbstractBucket(_VEGA_TOKEN_ADDRESS) {\n        refowner = _refowner;\n        cliffTime = _cliffTime;\n        numPeriods = _numPeriods;\n        totalAmount = _totalAmount;\n\n        bucketAmountPerPeriod = totalAmount / numPeriods;\n        endTime = VestingMath.getEndTime(\n            _cliffTime,\n            bucketAmountPerPeriod,\n            _totalAmount\n        );\n\n        totalWithdrawnAmount = 0;\n        totalClaimAmount = 0;\n        numClaims = 0;\n        //claimAddresses =\n    }\n\n    //linear vesting claim\n    function addClaim(address _claimAddress, uint256 _claimTotalAmount)\n        public\n        onlyRefOwner\n    {\n        if (claims[_claimAddress].isAdded)\n            revert(\"VESTINGBUCKET: claim at this address already exists\");\n\n        require(\n            totalClaimAmount + _claimTotalAmount <= totalAmount,\n            \"VESTINGBUCKET: can not claim more than total\"\n        );\n\n        //TODO! add prechecks\n\n        uint256 amountPerPeriod = _claimTotalAmount / numPeriods;\n\n        claims[_claimAddress] = Claim({\n            claimAddress: _claimAddress,\n            amountPerPeriod: amountPerPeriod,\n            claimTotalAmount: _claimTotalAmount,\n            withdrawnAmount: 0,\n            isAdded: true\n        });\n\n        //claimAddresses[numClaims] = _claimAddress;\n        claimAddresses.push(_claimAddress);\n        totalClaimAmount += _claimTotalAmount;\n        numClaims += 1;\n        //amountPerPeriod: amountPerPeriod\n    }\n\n    function getCurrentTime() public view returns (uint256) {\n        return block.timestamp;\n    }\n\n    function getVestedAmount(Claim memory claim) public view returns (uint256) {\n        uint256 blocktime = block.timestamp;\n        return\n            VestingMath.getVestedAmountTS(\n                blocktime,\n                cliffTime,\n                endTime,\n                claim.amountPerPeriod,\n                claim.claimTotalAmount\n            );\n    }\n\n    function getVestableAmountAll() public view returns (uint256) {\n        uint256 blocktime = block.timestamp;\n\n        uint256 amount = VestingMath.getVestedAmountTS(\n            blocktime,\n            cliffTime,\n            endTime,\n            bucketAmountPerPeriod,\n            totalAmount\n        );\n\n        return amount;\n\n        // uint256 total = 0;\n        // Claim memory claim;\n        // uint256 i = 0;\n        // for (i = 0; i < claimAddresses.length; i++) {\n        //     //claim = claims[i];\n        //     address _ca = claimAddresses[i];\n        //     claim = claims[_ca];\n        //     uint256 vestableAmount = getVestedAmount(claim);\n        //     total += vestableAmount;\n        // }\n\n        // return total;\n    }\n\n    function getVestableAmount(address _claimAddress)\n        public\n        view\n        returns (uint256)\n    {\n        Claim memory claim = claims[_claimAddress];\n        uint256 vestableAmount = getVestedAmount(claim);\n        return vestableAmount;\n    }\n\n    //vest the claim. this vests the maximum possible\n    function vestClaimMax(address _claimAddress) public returns (uint256) {\n        //BUG! TODO!\n        //TODO! throw error String\n        //check if claims exists\n\n        //isAdded!\n        require(\n            msg.sender == _claimAddress || msg.sender == owner(),\n            \"VESTINGBUCKET: can only call from claimaddress or owner\"\n        );\n\n        if (!claims[_claimAddress].isAdded)\n            revert(\"VESTINGBUCKET: claim does not exist\");\n\n        // require(\n        //     claimAddresses[_claimAddress].exists,\n        //     \"_claimAddress does not exist.\"\n        // );\n\n        Claim memory claim = claims[_claimAddress];\n\n        uint256 vestableAmount = getVestedAmount(claim);\n\n        uint256 withdrawAmount = vestableAmount - claim.withdrawnAmount;\n        uint256 willwithdraw = claim.withdrawnAmount + withdrawAmount;\n        require(willwithdraw <= claim.claimTotalAmount);\n\n        //TODO! edge case\n        //  if (vestingSchedule.totalWithdrawnAmount + withdrawableAmount > vestingSchedule.totalAmount) {\n        //   withdrawableAmount = vestingSchedule.totalAmount - vestingSchedule.totalWithdrawnAmount;\n        // }\n\n        require(vega_token.transfer(claim.claimAddress, withdrawAmount));\n        emit Withdrawal(claim.claimAddress, withdrawAmount);\n        claim.withdrawnAmount += withdrawAmount;\n        totalWithdrawnAmount += withdrawAmount;\n        return withdrawAmount;\n    }\n\n    //owner calls all claims\n    function allClaim(address _claimAddress) public returns (uint256) {\n        require(msg.sender == owner());\n\n        //for every claim\n        //Claim memory claim = claims[i];\n        //vestClaimMax()\n    }\n\n    // function depositOwner() public onlyOwner {\n\n    // }\n\n    // function withdrawOwner(uint256 amount) public onlyOwner {\n    //     require(vega_token.transfer(msg.sender, amount));\n    // }\n}\n",
  "sourcePath": "contracts/VestingBucket.sol",
  "type": "contract"
}