{
  "abi": [
    {
      "inputs": [],
      "name": "DEFAULT_PERIOD",
      "outputs": [
        {
          "internalType": "uint256",
          "name": "",
          "type": "uint256"
        }
      ],
      "stateMutability": "view",
      "type": "function"
    },
    {
      "inputs": [],
      "name": "advisorsPeriods",
      "outputs": [
        {
          "internalType": "uint256",
          "name": "",
          "type": "uint256"
        }
      ],
      "stateMutability": "view",
      "type": "function"
    },
    {
      "inputs": [],
      "name": "advisoryAmount",
      "outputs": [
        {
          "internalType": "uint256",
          "name": "",
          "type": "uint256"
        }
      ],
      "stateMutability": "view",
      "type": "function"
    },
    {
      "inputs": [],
      "name": "advisoryCliff",
      "outputs": [
        {
          "internalType": "uint256",
          "name": "",
          "type": "uint256"
        }
      ],
      "stateMutability": "view",
      "type": "function"
    },
    {
      "inputs": [],
      "name": "ecoAmount",
      "outputs": [
        {
          "internalType": "uint256",
          "name": "",
          "type": "uint256"
        }
      ],
      "stateMutability": "view",
      "type": "function"
    },
    {
      "inputs": [],
      "name": "ecoCliff",
      "outputs": [
        {
          "internalType": "uint256",
          "name": "",
          "type": "uint256"
        }
      ],
      "stateMutability": "view",
      "type": "function"
    },
    {
      "inputs": [],
      "name": "ecoPeriods",
      "outputs": [
        {
          "internalType": "uint256",
          "name": "",
          "type": "uint256"
        }
      ],
      "stateMutability": "view",
      "type": "function"
    },
    {
      "inputs": [],
      "name": "liqAmount",
      "outputs": [
        {
          "internalType": "uint256",
          "name": "",
          "type": "uint256"
        }
      ],
      "stateMutability": "view",
      "type": "function"
    },
    {
      "inputs": [],
      "name": "liqCliff",
      "outputs": [
        {
          "internalType": "uint256",
          "name": "",
          "type": "uint256"
        }
      ],
      "stateMutability": "view",
      "type": "function"
    },
    {
      "inputs": [],
      "name": "liqPeriods",
      "outputs": [
        {
          "internalType": "uint256",
          "name": "",
          "type": "uint256"
        }
      ],
      "stateMutability": "view",
      "type": "function"
    },
    {
      "inputs": [],
      "name": "lpgrantsAmount",
      "outputs": [
        {
          "internalType": "uint256",
          "name": "",
          "type": "uint256"
        }
      ],
      "stateMutability": "view",
      "type": "function"
    },
    {
      "inputs": [],
      "name": "lpgrantsCliff",
      "outputs": [
        {
          "internalType": "uint256",
          "name": "",
          "type": "uint256"
        }
      ],
      "stateMutability": "view",
      "type": "function"
    },
    {
      "inputs": [],
      "name": "lpgrantsPeriods",
      "outputs": [
        {
          "internalType": "uint256",
          "name": "",
          "type": "uint256"
        }
      ],
      "stateMutability": "view",
      "type": "function"
    },
    {
      "inputs": [],
      "name": "lprewardsAmount",
      "outputs": [
        {
          "internalType": "uint256",
          "name": "",
          "type": "uint256"
        }
      ],
      "stateMutability": "view",
      "type": "function"
    },
    {
      "inputs": [],
      "name": "lprewardsPeriods",
      "outputs": [
        {
          "internalType": "uint256",
          "name": "",
          "type": "uint256"
        }
      ],
      "stateMutability": "view",
      "type": "function"
    },
    {
      "inputs": [],
      "name": "lpwRewardsCliff",
      "outputs": [
        {
          "internalType": "uint256",
          "name": "",
          "type": "uint256"
        }
      ],
      "stateMutability": "view",
      "type": "function"
    },
    {
      "inputs": [],
      "name": "privateAmount",
      "outputs": [
        {
          "internalType": "uint256",
          "name": "",
          "type": "uint256"
        }
      ],
      "stateMutability": "view",
      "type": "function"
    },
    {
      "inputs": [],
      "name": "privateCliff",
      "outputs": [
        {
          "internalType": "uint256",
          "name": "",
          "type": "uint256"
        }
      ],
      "stateMutability": "view",
      "type": "function"
    },
    {
      "inputs": [],
      "name": "privatePeriods",
      "outputs": [
        {
          "internalType": "uint256",
          "name": "",
          "type": "uint256"
        }
      ],
      "stateMutability": "view",
      "type": "function"
    },
    {
      "inputs": [],
      "name": "publicAmount",
      "outputs": [
        {
          "internalType": "uint256",
          "name": "",
          "type": "uint256"
        }
      ],
      "stateMutability": "view",
      "type": "function"
    },
    {
      "inputs": [],
      "name": "publicCliff",
      "outputs": [
        {
          "internalType": "uint256",
          "name": "",
          "type": "uint256"
        }
      ],
      "stateMutability": "view",
      "type": "function"
    },
    {
      "inputs": [],
      "name": "publicPeriods",
      "outputs": [
        {
          "internalType": "uint256",
          "name": "",
          "type": "uint256"
        }
      ],
      "stateMutability": "view",
      "type": "function"
    },
    {
      "inputs": [],
      "name": "seedAmount",
      "outputs": [
        {
          "internalType": "uint256",
          "name": "",
          "type": "uint256"
        }
      ],
      "stateMutability": "view",
      "type": "function"
    },
    {
      "inputs": [],
      "name": "seedCliff",
      "outputs": [
        {
          "internalType": "uint256",
          "name": "",
          "type": "uint256"
        }
      ],
      "stateMutability": "view",
      "type": "function"
    },
    {
      "inputs": [],
      "name": "seedPeriods",
      "outputs": [
        {
          "internalType": "uint256",
          "name": "",
          "type": "uint256"
        }
      ],
      "stateMutability": "view",
      "type": "function"
    },
    {
      "inputs": [],
      "name": "teamAmount",
      "outputs": [
        {
          "internalType": "uint256",
          "name": "",
          "type": "uint256"
        }
      ],
      "stateMutability": "view",
      "type": "function"
    },
    {
      "inputs": [],
      "name": "teamCliff",
      "outputs": [
        {
          "internalType": "uint256",
          "name": "",
          "type": "uint256"
        }
      ],
      "stateMutability": "view",
      "type": "function"
    },
    {
      "inputs": [],
      "name": "teamPeriods",
      "outputs": [
        {
          "internalType": "uint256",
          "name": "",
          "type": "uint256"
        }
      ],
      "stateMutability": "view",
      "type": "function"
    },
    {
      "inputs": [],
      "name": "trademiningAmount",
      "outputs": [
        {
          "internalType": "uint256",
          "name": "",
          "type": "uint256"
        }
      ],
      "stateMutability": "view",
      "type": "function"
    },
    {
      "inputs": [],
      "name": "trademiningCliff",
      "outputs": [
        {
          "internalType": "uint256",
          "name": "",
          "type": "uint256"
        }
      ],
      "stateMutability": "view",
      "type": "function"
    },
    {
      "inputs": [],
      "name": "trademiningPeriods",
      "outputs": [
        {
          "internalType": "uint256",
          "name": "",
          "type": "uint256"
        }
      ],
      "stateMutability": "view",
      "type": "function"
    },
    {
      "inputs": [],
      "name": "treasuryAmount",
      "outputs": [
        {
          "internalType": "uint256",
          "name": "",
          "type": "uint256"
        }
      ],
      "stateMutability": "view",
      "type": "function"
    },
    {
      "inputs": [],
      "name": "treasuryCliff",
      "outputs": [
        {
          "internalType": "uint256",
          "name": "",
          "type": "uint256"
        }
      ],
      "stateMutability": "view",
      "type": "function"
    },
    {
      "inputs": [],
      "name": "treasuryPeriods",
      "outputs": [
        {
          "internalType": "uint256",
          "name": "",
          "type": "uint256"
        }
      ],
      "stateMutability": "view",
      "type": "function"
    }
  ],
  "bytecode": "6103ea61003a600b82828239805160001a60731461002d57634e487b7160e01b600052600060045260246000fd5b30600052607381538281f3fe730000000000000000000000000000000000000000301460806040526004361061020f5760003560e01c8063780e789311610124578063c51ce9ad116100b7578063d3145f0811610086578063d3145f0814610290578063db00d838146102a0578063dcc9148014610280578063e789fd7f14610280578063e93aa5881461025257600080fd5b8063c51ce9ad146102ba578063c5774a3f146102c2578063c81ae9ee14610236578063cfcb12f0146102a057600080fd5b8063a26b3ca7116100f3578063a26b3ca7146102a8578063a27a9e7f146102b2578063a2cbc624146102a0578063a406e51a146102a857600080fd5b8063780e7893146102365780638057f332146102145780638824f00b146102885780638df46565146102a057600080fd5b8063368acb09116101a75780635bacfddb116101765780635bacfddb1461028057806362afd79f1461022e5780636b4cd109146102885780637043938514610290578063763f7f321461029857600080fd5b8063368acb091461025a5780633879c9f3146102645780634e761f9e1461026e578063546dd8831461027857600080fd5b806311385082116101e35780631138508214610214578063272f8b62146102365780632da452a41461024a578063342965dd1461025257600080fd5b8062ee0ec814610214578063013296e11461022e57806306e6446c1461023657806308f35b2614610240575b600080fd5b61021c600681565b60405190815260200160405180910390f35b61021c6102ca565b61021c62278d0081565b61021c629e340081565b61021c6102db565b61021c600c81565b61021c6259027581565b61021c62ed4e0081565b61021c620d2f0081565b61021c6102e9565b61021c600081565b61021c6102f7565b61021c610305565b61021c600181565b61021c600381565b61021c624f1a0081565b61021c610313565b61021c600281565b61021c610345565b6102d8620f4240603261037f565b81565b6102d8620f4240606461037f565b6102d8620f4240604161037f565b6102d8620f424060c861037f565b6102d8620f4240609661037f565b6103216103e861029a61037f565b61032f620f4240601061037f565b6103399190610367565b6102d89061029b610367565b6103536103e86101f461037f565b610361620f4240600c61037f565b6102d891905b6000821982111561037a5761037a61039e565b500190565b60008160001904831182151516156103995761039961039e565b500290565b634e487b7160e01b600052601160045260246000fdfea2646970667358221220ea41d817a8e4b91efdb3e10babeb913ea221caaea8b30495fc88f67dad4260e364736f6c63430008050033",
  "bytecodeSha1": "08d4360d7e6d07e475998204877037f9542b37d2",
  "compiler": {
    "evm_version": "istanbul",
    "optimizer": {
      "enabled": true,
      "runs": 200
    },
    "version": "0.8.5+commit.a4f2e591"
  },
  "contractName": "VestingConstants",
  "language": "Solidity",
  "natspec": {
    "kind": "dev",
    "methods": {},
    "version": 1
  },
  "opcodes": "PUSH20 0x0 ADDRESS EQ PUSH1 0x80 PUSH1 0x40 MSTORE PUSH1 0x4 CALLDATASIZE LT PUSH2 0x20F JUMPI PUSH1 0x0 CALLDATALOAD PUSH1 0xE0 SHR DUP1 PUSH4 0x780E7893 GT PUSH2 0x124 JUMPI DUP1 PUSH4 0xC51CE9AD GT PUSH2 0xB7 JUMPI DUP1 PUSH4 0xD3145F08 GT PUSH2 0x86 JUMPI DUP1 PUSH4 0xD3145F08 EQ PUSH2 0x290 JUMPI DUP1 PUSH4 0xDB00D838 EQ PUSH2 0x2A0 JUMPI DUP1 PUSH4 0xDCC91480 EQ PUSH2 0x280 JUMPI DUP1 PUSH4 0xE789FD7F EQ PUSH2 0x280 JUMPI DUP1 PUSH4 0xE93AA588 EQ PUSH2 0x252 JUMPI PUSH1 0x0 DUP1 REVERT JUMPDEST DUP1 PUSH4 0xC51CE9AD EQ PUSH2 0x2BA JUMPI DUP1 PUSH4 0xC5774A3F EQ PUSH2 0x2C2 JUMPI DUP1 PUSH4 0xC81AE9EE EQ PUSH2 0x236 JUMPI DUP1 PUSH4 0xCFCB12F0 EQ PUSH2 0x2A0 JUMPI PUSH1 0x0 DUP1 REVERT JUMPDEST DUP1 PUSH4 0xA26B3CA7 GT PUSH2 0xF3 JUMPI DUP1 PUSH4 0xA26B3CA7 EQ PUSH2 0x2A8 JUMPI DUP1 PUSH4 0xA27A9E7F EQ PUSH2 0x2B2 JUMPI DUP1 PUSH4 0xA2CBC624 EQ PUSH2 0x2A0 JUMPI DUP1 PUSH4 0xA406E51A EQ PUSH2 0x2A8 JUMPI PUSH1 0x0 DUP1 REVERT JUMPDEST DUP1 PUSH4 0x780E7893 EQ PUSH2 0x236 JUMPI DUP1 PUSH4 0x8057F332 EQ PUSH2 0x214 JUMPI DUP1 PUSH4 0x8824F00B EQ PUSH2 0x288 JUMPI DUP1 PUSH4 0x8DF46565 EQ PUSH2 0x2A0 JUMPI PUSH1 0x0 DUP1 REVERT JUMPDEST DUP1 PUSH4 0x368ACB09 GT PUSH2 0x1A7 JUMPI DUP1 PUSH4 0x5BACFDDB GT PUSH2 0x176 JUMPI DUP1 PUSH4 0x5BACFDDB EQ PUSH2 0x280 JUMPI DUP1 PUSH4 0x62AFD79F EQ PUSH2 0x22E JUMPI DUP1 PUSH4 0x6B4CD109 EQ PUSH2 0x288 JUMPI DUP1 PUSH4 0x70439385 EQ PUSH2 0x290 JUMPI DUP1 PUSH4 0x763F7F32 EQ PUSH2 0x298 JUMPI PUSH1 0x0 DUP1 REVERT JUMPDEST DUP1 PUSH4 0x368ACB09 EQ PUSH2 0x25A JUMPI DUP1 PUSH4 0x3879C9F3 EQ PUSH2 0x264 JUMPI DUP1 PUSH4 0x4E761F9E EQ PUSH2 0x26E JUMPI DUP1 PUSH4 0x546DD883 EQ PUSH2 0x278 JUMPI PUSH1 0x0 DUP1 REVERT JUMPDEST DUP1 PUSH4 0x11385082 GT PUSH2 0x1E3 JUMPI DUP1 PUSH4 0x11385082 EQ PUSH2 0x214 JUMPI DUP1 PUSH4 0x272F8B62 EQ PUSH2 0x236 JUMPI DUP1 PUSH4 0x2DA452A4 EQ PUSH2 0x24A JUMPI DUP1 PUSH4 0x342965DD EQ PUSH2 0x252 JUMPI PUSH1 0x0 DUP1 REVERT JUMPDEST DUP1 PUSH3 0xEE0EC8 EQ PUSH2 0x214 JUMPI DUP1 PUSH4 0x13296E1 EQ PUSH2 0x22E JUMPI DUP1 PUSH4 0x6E6446C EQ PUSH2 0x236 JUMPI DUP1 PUSH4 0x8F35B26 EQ PUSH2 0x240 JUMPI JUMPDEST PUSH1 0x0 DUP1 REVERT JUMPDEST PUSH2 0x21C PUSH1 0x6 DUP2 JUMP JUMPDEST PUSH1 0x40 MLOAD SWAP1 DUP2 MSTORE PUSH1 0x20 ADD PUSH1 0x40 MLOAD DUP1 SWAP2 SUB SWAP1 RETURN JUMPDEST PUSH2 0x21C PUSH2 0x2CA JUMP JUMPDEST PUSH2 0x21C PUSH3 0x278D00 DUP2 JUMP JUMPDEST PUSH2 0x21C PUSH3 0x9E3400 DUP2 JUMP JUMPDEST PUSH2 0x21C PUSH2 0x2DB JUMP JUMPDEST PUSH2 0x21C PUSH1 0xC DUP2 JUMP JUMPDEST PUSH2 0x21C PUSH3 0x590275 DUP2 JUMP JUMPDEST PUSH2 0x21C PUSH3 0xED4E00 DUP2 JUMP JUMPDEST PUSH2 0x21C PUSH3 0xD2F00 DUP2 JUMP JUMPDEST PUSH2 0x21C PUSH2 0x2E9 JUMP JUMPDEST PUSH2 0x21C PUSH1 0x0 DUP2 JUMP JUMPDEST PUSH2 0x21C PUSH2 0x2F7 JUMP JUMPDEST PUSH2 0x21C PUSH2 0x305 JUMP JUMPDEST PUSH2 0x21C PUSH1 0x1 DUP2 JUMP JUMPDEST PUSH2 0x21C PUSH1 0x3 DUP2 JUMP JUMPDEST PUSH2 0x21C PUSH3 0x4F1A00 DUP2 JUMP JUMPDEST PUSH2 0x21C PUSH2 0x313 JUMP JUMPDEST PUSH2 0x21C PUSH1 0x2 DUP2 JUMP JUMPDEST PUSH2 0x21C PUSH2 0x345 JUMP JUMPDEST PUSH2 0x2D8 PUSH3 0xF4240 PUSH1 0x32 PUSH2 0x37F JUMP JUMPDEST DUP2 JUMP JUMPDEST PUSH2 0x2D8 PUSH3 0xF4240 PUSH1 0x64 PUSH2 0x37F JUMP JUMPDEST PUSH2 0x2D8 PUSH3 0xF4240 PUSH1 0x41 PUSH2 0x37F JUMP JUMPDEST PUSH2 0x2D8 PUSH3 0xF4240 PUSH1 0xC8 PUSH2 0x37F JUMP JUMPDEST PUSH2 0x2D8 PUSH3 0xF4240 PUSH1 0x96 PUSH2 0x37F JUMP JUMPDEST PUSH2 0x321 PUSH2 0x3E8 PUSH2 0x29A PUSH2 0x37F JUMP JUMPDEST PUSH2 0x32F PUSH3 0xF4240 PUSH1 0x10 PUSH2 0x37F JUMP JUMPDEST PUSH2 0x339 SWAP2 SWAP1 PUSH2 0x367 JUMP JUMPDEST PUSH2 0x2D8 SWAP1 PUSH2 0x29B PUSH2 0x367 JUMP JUMPDEST PUSH2 0x353 PUSH2 0x3E8 PUSH2 0x1F4 PUSH2 0x37F JUMP JUMPDEST PUSH2 0x361 PUSH3 0xF4240 PUSH1 0xC PUSH2 0x37F JUMP JUMPDEST PUSH2 0x2D8 SWAP2 SWAP1 JUMPDEST PUSH1 0x0 DUP3 NOT DUP3 GT ISZERO PUSH2 0x37A JUMPI PUSH2 0x37A PUSH2 0x39E JUMP JUMPDEST POP ADD SWAP1 JUMP JUMPDEST PUSH1 0x0 DUP2 PUSH1 0x0 NOT DIV DUP4 GT DUP3 ISZERO ISZERO AND ISZERO PUSH2 0x399 JUMPI PUSH2 0x399 PUSH2 0x39E JUMP JUMPDEST POP MUL SWAP1 JUMP JUMPDEST PUSH4 0x4E487B71 PUSH1 0xE0 SHL PUSH1 0x0 MSTORE PUSH1 0x11 PUSH1 0x4 MSTORE PUSH1 0x24 PUSH1 0x0 REVERT INVALID LOG2 PUSH5 0x6970667358 0x22 SLT KECCAK256 0xEA COINBASE 0xD8 OR 0xA8 0xE4 0xB9 0x1E REVERT 0xB3 0xE1 SIGNEXTEND 0xAB 0xEB SWAP2 RETURNDATACOPY LOG2 0x21 0xCA 0xAE 0xA8 0xB3 DIV SWAP6 0xFC DUP9 0xF6 PUSH30 0xAD4260E364736F6C63430008050033000000000000000000000000000000 ",
  "sha1": "3eb60872b66e97873da27c95dca354ff59cbfb95",
  "source": "// // SPDX-License-Identifier: MIT\npragma solidity ^0.8.5;\n\nlibrary VestingConstants {\n    uint256 public constant DEFAULT_PERIOD = 30 days;\n\n    uint256 constant K = 10**3;\n    uint256 constant M = 10**6;\n\n    //1000M supply allocate to 11 buckets\n    //total amounts, no decimals\n    uint256 public constant seedAmount = 12 * M + 500 * K;\n    uint256 public constant privateAmount = 65 * M;\n    uint256 public constant publicAmount = 16 * M + 666 * K + 667;\n    uint256 public constant liqAmount = 150 * M;\n    uint256 public constant lprewardsAmount = 200 * M;\n    uint256 public constant lpgrantsAmount = 50 * M;\n    uint256 public constant ecoAmount = 100 * M;\n    uint256 public constant trademiningAmount = 200 * M;\n    uint256 public constant teamAmount = 150 * M;\n    uint256 public constant advisoryAmount = 50 * M;\n    //treasury is the rest\n    uint256 public constant treasuryAmount = 5833333;\n\n    //cliffs\n    uint256 public constant seedCliff = 0 days; //33%\n    uint256 public constant privateCliff = 0 days;\n    uint256 public constant publicCliff = 0 days;\n    uint256 public constant liqCliff = 30 days;\n    uint256 public constant lpwRewardsCliff = 30 days;\n    uint256 public constant lpgrantsCliff = 60 days;\n    uint256 public constant ecoCliff = 120 days;\n    uint256 public constant trademiningCliff = 10 days;\n    uint256 public constant teamCliff = 180 days;\n    uint256 public constant advisoryCliff = 60 days;\n    uint256 public constant treasuryCliff = 30 days;\n\n    //durations\n    uint256 public constant seedPeriods = 6;\n    uint256 public constant privatePeriods = 6;\n    uint256 public constant publicPeriods = 3;\n    uint256 public constant liqPeriods = 2;\n    uint256 public constant lprewardsPeriods = 3;\n    uint256 public constant lpgrantsPeriods = 3;\n    uint256 public constant ecoPeriods = 6;\n    uint256 public constant trademiningPeriods = 3;\n    uint256 public constant teamPeriods = 12;\n    uint256 public constant advisorsPeriods = 12;\n    uint256 public constant treasuryPeriods = 1;\n}\n",
  "sourcePath": "contracts/VestingConstants.sol",
  "type": "library"
}