{
  "abi": [
    {
      "inputs": [
        {
          "internalType": "address",
          "name": "_VEGA_TOKEN_ADDRESS",
          "type": "address"
        },
        {
          "internalType": "uint256",
          "name": "_cliffTime",
          "type": "uint256"
        },
        {
          "internalType": "uint256",
          "name": "_numPeriods",
          "type": "uint256"
        },
        {
          "internalType": "uint256",
          "name": "_totalAmount",
          "type": "uint256"
        }
      ],
      "stateMutability": "nonpayable",
      "type": "constructor"
    },
    {
      "anonymous": false,
      "inputs": [
        {
          "indexed": true,
          "internalType": "address",
          "name": "addr",
          "type": "address"
        },
        {
          "indexed": false,
          "internalType": "uint256",
          "name": "amount",
          "type": "uint256"
        }
      ],
      "name": "Withdrawal",
      "type": "event"
    },
    {
      "inputs": [
        {
          "internalType": "address",
          "name": "_claimAddress",
          "type": "address"
        },
        {
          "internalType": "uint256",
          "name": "_claimTotalAmount",
          "type": "uint256"
        }
      ],
      "name": "addClaim",
      "outputs": [],
      "stateMutability": "nonpayable",
      "type": "function"
    },
    {
      "inputs": [
        {
          "internalType": "address",
          "name": "_claimAddress",
          "type": "address"
        }
      ],
      "name": "allClaim",
      "outputs": [
        {
          "internalType": "uint256",
          "name": "",
          "type": "uint256"
        }
      ],
      "stateMutability": "nonpayable",
      "type": "function"
    },
    {
      "inputs": [],
      "name": "bucketAmountPerPeriod",
      "outputs": [
        {
          "internalType": "uint256",
          "name": "",
          "type": "uint256"
        }
      ],
      "stateMutability": "view",
      "type": "function"
    },
    {
      "inputs": [
        {
          "internalType": "uint256",
          "name": "",
          "type": "uint256"
        }
      ],
      "name": "claimAddresses",
      "outputs": [
        {
          "internalType": "address",
          "name": "",
          "type": "address"
        }
      ],
      "stateMutability": "view",
      "type": "function"
    },
    {
      "inputs": [
        {
          "internalType": "address",
          "name": "",
          "type": "address"
        }
      ],
      "name": "claims",
      "outputs": [
        {
          "internalType": "address",
          "name": "claimAddress",
          "type": "address"
        },
        {
          "internalType": "uint256",
          "name": "claimTotalAmount",
          "type": "uint256"
        },
        {
          "internalType": "uint256",
          "name": "amountPerPeriod",
          "type": "uint256"
        },
        {
          "internalType": "uint256",
          "name": "withdrawnAmount",
          "type": "uint256"
        },
        {
          "internalType": "bool",
          "name": "isAdded",
          "type": "bool"
        }
      ],
      "stateMutability": "view",
      "type": "function"
    },
    {
      "inputs": [],
      "name": "cliffTime",
      "outputs": [
        {
          "internalType": "uint256",
          "name": "",
          "type": "uint256"
        }
      ],
      "stateMutability": "view",
      "type": "function"
    },
    {
      "inputs": [],
      "name": "endTime",
      "outputs": [
        {
          "internalType": "uint256",
          "name": "",
          "type": "uint256"
        }
      ],
      "stateMutability": "view",
      "type": "function"
    },
    {
      "inputs": [],
      "name": "getCurrentTime",
      "outputs": [
        {
          "internalType": "uint256",
          "name": "",
          "type": "uint256"
        }
      ],
      "stateMutability": "view",
      "type": "function"
    },
    {
      "inputs": [
        {
          "internalType": "address",
          "name": "_claimAddress",
          "type": "address"
        }
      ],
      "name": "getVestableAmount",
      "outputs": [
        {
          "internalType": "uint256",
          "name": "",
          "type": "uint256"
        }
      ],
      "stateMutability": "view",
      "type": "function"
    },
    {
      "inputs": [],
      "name": "getVestableAmountAll",
      "outputs": [
        {
          "internalType": "uint256",
          "name": "",
          "type": "uint256"
        }
      ],
      "stateMutability": "view",
      "type": "function"
    },
    {
      "inputs": [
        {
          "components": [
            {
              "internalType": "address",
              "name": "claimAddress",
              "type": "address"
            },
            {
              "internalType": "uint256",
              "name": "claimTotalAmount",
              "type": "uint256"
            },
            {
              "internalType": "uint256",
              "name": "amountPerPeriod",
              "type": "uint256"
            },
            {
              "internalType": "uint256",
              "name": "withdrawnAmount",
              "type": "uint256"
            },
            {
              "internalType": "bool",
              "name": "isAdded",
              "type": "bool"
            }
          ],
          "internalType": "struct VestingBucket.Claim",
          "name": "claim",
          "type": "tuple"
        }
      ],
      "name": "getVestedAmount",
      "outputs": [
        {
          "internalType": "uint256",
          "name": "",
          "type": "uint256"
        }
      ],
      "stateMutability": "view",
      "type": "function"
    },
    {
      "inputs": [],
      "name": "name",
      "outputs": [
        {
          "internalType": "string",
          "name": "",
          "type": "string"
        }
      ],
      "stateMutability": "view",
      "type": "function"
    },
    {
      "inputs": [],
      "name": "numClaims",
      "outputs": [
        {
          "internalType": "uint256",
          "name": "",
          "type": "uint256"
        }
      ],
      "stateMutability": "view",
      "type": "function"
    },
    {
      "inputs": [],
      "name": "numPeriods",
      "outputs": [
        {
          "internalType": "uint256",
          "name": "",
          "type": "uint256"
        }
      ],
      "stateMutability": "view",
      "type": "function"
    },
    {
      "inputs": [],
      "name": "owner",
      "outputs": [
        {
          "internalType": "address",
          "name": "",
          "type": "address"
        }
      ],
      "stateMutability": "view",
      "type": "function"
    },
    {
      "inputs": [],
      "name": "registerTime",
      "outputs": [
        {
          "internalType": "uint256",
          "name": "",
          "type": "uint256"
        }
      ],
      "stateMutability": "view",
      "type": "function"
    },
    {
      "inputs": [
        {
          "internalType": "string",
          "name": "_name",
          "type": "string"
        }
      ],
      "name": "setName",
      "outputs": [],
      "stateMutability": "nonpayable",
      "type": "function"
    },
    {
      "inputs": [
        {
          "internalType": "address",
          "name": "_refowner",
          "type": "address"
        }
      ],
      "name": "setRefowner",
      "outputs": [],
      "stateMutability": "nonpayable",
      "type": "function"
    },
    {
      "inputs": [],
      "name": "totalAmount",
      "outputs": [
        {
          "internalType": "uint256",
          "name": "",
          "type": "uint256"
        }
      ],
      "stateMutability": "view",
      "type": "function"
    },
    {
      "inputs": [],
      "name": "totalClaimAmount",
      "outputs": [
        {
          "internalType": "uint256",
          "name": "",
          "type": "uint256"
        }
      ],
      "stateMutability": "view",
      "type": "function"
    },
    {
      "inputs": [],
      "name": "vega_token",
      "outputs": [
        {
          "internalType": "contract VegaToken",
          "name": "",
          "type": "address"
        }
      ],
      "stateMutability": "view",
      "type": "function"
    },
    {
      "inputs": [
        {
          "internalType": "address",
          "name": "_claimAddress",
          "type": "address"
        }
      ],
      "name": "vestClaimMax",
      "outputs": [
        {
          "internalType": "uint256",
          "name": "",
          "type": "uint256"
        }
      ],
      "stateMutability": "nonpayable",
      "type": "function"
    }
  ],
  "bytecode": "608060405234801561001057600080fd5b5060405161114538038061114583398101604081905261002f91610128565b60008054336001600160a01b031991821617909155600280549091166001600160a01b038616179055426003556009839055600a829055600b819055610075828261018c565b600c81905560405163556b30b960e11b81526004810185905260248101919091526044810182905273__VestingMath___________________________9063aad661729060640160206040518083038186803b1580156100d457600080fd5b505af41580156100e8573d6000803e3d6000fd5b505050506040513d601f19601f8201168201806040525081019061010c9190610173565b600d555050600060088190556007819055600e55506101ae9050565b6000806000806080858703121561013e57600080fd5b84516001600160a01b038116811461015557600080fd5b60208601516040870151606090970151919890975090945092505050565b60006020828403121561018557600080fd5b5051919050565b6000826101a957634e487b7160e01b600052601260045260246000fd5b500490565b610f88806101bd6000396000f3fe608060405234801561001057600080fd5b50600436106101425760003560e01c8063b58b6354116100b8578063c6788bdd1161007c578063c6788bdd14610250578063d0029d61146102ce578063dcd65479146102e1578063dfa93099146102ea578063f8fcabe3146102fd578063fc0fc8491461031057600080fd5b8063b58b6354146101fc578063b62287031461020f578063bbb6f34714610222578063c06d30a714610235578063c47f00271461023d57600080fd5b806329cb924d1161010a57806329cb924d146101ad5780633197cbb6146101b357806334dadad5146101bc57806335e9d90f146101c55780638523b7db146101ce5780638da5cb5b146101d757600080fd5b806306fdde03146101475780630f1a6444146101655780631a39d8ef1461017c57806321e76dc11461018557806328dc8ed914610198575b600080fd5b61014f610319565b60405161015c9190610e34565b60405180910390f35b61016e60095481565b60405190815260200161015c565b61016e600b5481565b61016e610193366004610c74565b6103a7565b6101ab6101a6366004610c74565b610664565b005b4261016e565b61016e600d5481565b61016e60035481565b61016e600c5481565b61016e60075481565b6000546001600160a01b03165b6040516001600160a01b03909116815260200161015c565b61016e61020a366004610c74565b6106ef565b61016e61021d366004610d87565b61070c565b6002546101e4906001600160a01b031681565b61016e6107c6565b6101ab61024b366004610cd6565b61082e565b61029a61025e366004610c74565b600560205260009081526040902080546001820154600283015460038401546004909401546001600160a01b0390931693919290919060ff1685565b604080516001600160a01b03909616865260208601949094529284019190915260608301521515608082015260a00161015c565b6101e46102dc366004610e02565b6108ae565b61016e600a5481565b61016e6102f8366004610c74565b6108d8565b6101ab61030b366004610c8f565b610943565b61016e600e5481565b6001805461032690610eda565b80601f016020809104026020016040519081016040528092919081815260200182805461035290610eda565b801561039f5780601f106103745761010080835404028352916020019161039f565b820191906000526020600020905b81548152906001019060200180831161038257829003601f168201915b505050505081565b6000336001600160a01b03831614806103ca57506000546001600160a01b031633145b6104415760405162461bcd60e51b815260206004820152603760248201527f56455354494e474255434b45543a2063616e206f6e6c792063616c6c2066726f60448201527f6d20636c61696d61646472657373206f72206f776e657200000000000000000060648201526084015b60405180910390fd5b6001600160a01b03821660009081526005602052604090206004015460ff166104b85760405162461bcd60e51b815260206004820152602360248201527f56455354494e474255434b45543a20636c61696d20646f6573206e6f742065786044820152621a5cdd60ea1b6064820152608401610438565b6001600160a01b038083166000908152600560209081526040808320815160a08101835281549095168552600181015492850192909252600282015490840152600381015460608401526004015460ff16151560808301526105198261070c565b9050600082606001518261052d9190610ec3565b905060008184606001516105419190610e89565b9050836020015181111561055457600080fd5b600254845160405163a9059cbb60e01b81526001600160a01b0391821660048201526024810185905291169063a9059cbb90604401602060405180830381600087803b1580156105a357600080fd5b505af11580156105b7573d6000803e3d6000fd5b505050506040513d601f19601f820116820180604052508101906105db9190610cb9565b6105e457600080fd5b83600001516001600160a01b03167f7fcf532c15f0a6db0bd6d0e038bea71d30d808c7d98cb3bf7268a95bf5081b658360405161062391815260200190565b60405180910390a2818460600181815161063d9190610e89565b90525060088054839190600090610655908490610e89565b90915550919695505050505050565b336106776000546001600160a01b031690565b6001600160a01b0316146106cd5760405162461bcd60e51b815260206004820181905260248201527f4f776e61626c653a2063616c6c6572206973206e6f7420746865206f776e65726044820152606401610438565b600480546001600160a01b0319166001600160a01b0392909216919091179055565b600080546001600160a01b0316331461070757600080fd5b919050565b600954600d5460408381015160208501519151633f6b939360e11b8152426004820181905260248201959095526044810193909352606483015260848201526000919073__VestingMath___________________________90637ed727269060a4015b60206040518083038186803b15801561078757600080fd5b505af415801561079b573d6000803e3d6000fd5b505050506040513d601f19601f820116820180604052508101906107bf9190610e1b565b9392505050565b600954600d54600c54600b54604051633f6b939360e11b81524260048201819052602482019590955260448101939093526064830191909152608482015260009190829073__VestingMath___________________________90637ed727269060a40161076f565b336108416000546001600160a01b031690565b6001600160a01b0316146108975760405162461bcd60e51b815260206004820181905260248201527f4f776e61626c653a2063616c6c6572206973206e6f7420746865206f776e65726044820152606401610438565b80516108aa906001906020840190610bc4565b5050565b600681815481106108be57600080fd5b6000918252602090912001546001600160a01b0316905081565b6001600160a01b038082166000908152600560209081526040808320815160a08101835281549095168552600181015492850192909252600282015490840152600381015460608401526004015460ff1615156080830152908161093b8261070c565b949350505050565b6004546001600160a01b031633148061096657506000546001600160a01b031633145b6109be5760405162461bcd60e51b815260206004820152602360248201527f4f776e61626c653a2063616c6c6572206973206e6f7420746865207265666f776044820152623732b960e91b6064820152608401610438565b6001600160a01b03821660009081526005602052604090206004015460ff1615610a465760405162461bcd60e51b815260206004820152603360248201527f56455354494e474255434b45543a20636c61696d2061742074686973206164646044820152727265737320616c72656164792065786973747360681b6064820152608401610438565b600b5481600754610a579190610e89565b1115610aba5760405162461bcd60e51b815260206004820152602c60248201527f56455354494e474255434b45543a2063616e206e6f7420636c61696d206d6f7260448201526b19481d1a185b881d1bdd185b60a21b6064820152608401610438565b6000600a5482610aca9190610ea1565b6040805160a0810182526001600160a01b03808716808352602080840188815284860187815260006060870181815260016080890181815287845260059096529882209751885497166001600160a01b0319978816178855925187890155905160028701559051600386015590516004909401805494151560ff199095169490941790935560068054948501815583527ff652222313e28459528d920b65115c16c04f3efc82aaedc97be59f3f377c0d3f9093018054909116909217909155600780549293508492909190610ba0908490610e89565b925050819055506001600e6000828254610bba9190610e89565b9091555050505050565b828054610bd090610eda565b90600052602060002090601f016020900481019282610bf25760008555610c38565b82601f10610c0b57805160ff1916838001178555610c38565b82800160010185558215610c38579182015b82811115610c38578251825591602001919060010190610c1d565b50610c44929150610c48565b5090565b5b80821115610c445760008155600101610c49565b80356001600160a01b038116811461070757600080fd5b600060208284031215610c8657600080fd5b6107bf82610c5d565b60008060408385031215610ca257600080fd5b610cab83610c5d565b946020939093013593505050565b600060208284031215610ccb57600080fd5b81516107bf81610f41565b600060208284031215610ce857600080fd5b813567ffffffffffffffff80821115610d0057600080fd5b818401915084601f830112610d1457600080fd5b813581811115610d2657610d26610f2b565b604051601f8201601f19908116603f01168101908382118183101715610d4e57610d4e610f2b565b81604052828152876020848701011115610d6757600080fd5b826020860160208301376000928101602001929092525095945050505050565b600060a08284031215610d9957600080fd5b60405160a0810181811067ffffffffffffffff82111715610dbc57610dbc610f2b565b604052610dc883610c5d565b81526020830135602082015260408301356040820152606083013560608201526080830135610df681610f41565b60808201529392505050565b600060208284031215610e1457600080fd5b5035919050565b600060208284031215610e2d57600080fd5b5051919050565b600060208083528351808285015260005b81811015610e6157858101830151858201604001528201610e45565b81811115610e73576000604083870101525b50601f01601f1916929092016040019392505050565b60008219821115610e9c57610e9c610f15565b500190565b600082610ebe57634e487b7160e01b600052601260045260246000fd5b500490565b600082821015610ed557610ed5610f15565b500390565b600181811c90821680610eee57607f821691505b60208210811415610f0f57634e487b7160e01b600052602260045260246000fd5b50919050565b634e487b7160e01b600052601160045260246000fd5b634e487b7160e01b600052604160045260246000fd5b8015158114610f4f57600080fd5b5056fea26469706673582212206b5e90ba2281916a47c04c537221dff2cc98933d7a300d45f145e3915e153c2464736f6c63430008050033",
  "bytecodeSha1": "c37cb0003d5365bbbd516380454f12cb422aa031",
  "compiler": {
    "evm_version": "istanbul",
    "optimizer": {
      "enabled": true,
      "runs": 200
    },
    "version": "0.8.5+commit.a4f2e591"
  },
  "contractName": "VestingBucket",
  "deployedBytecode": "608060405234801561001057600080fd5b50600436106101425760003560e01c8063b58b6354116100b8578063c6788bdd1161007c578063c6788bdd14610250578063d0029d61146102ce578063dcd65479146102e1578063dfa93099146102ea578063f8fcabe3146102fd578063fc0fc8491461031057600080fd5b8063b58b6354146101fc578063b62287031461020f578063bbb6f34714610222578063c06d30a714610235578063c47f00271461023d57600080fd5b806329cb924d1161010a57806329cb924d146101ad5780633197cbb6146101b357806334dadad5146101bc57806335e9d90f146101c55780638523b7db146101ce5780638da5cb5b146101d757600080fd5b806306fdde03146101475780630f1a6444146101655780631a39d8ef1461017c57806321e76dc11461018557806328dc8ed914610198575b600080fd5b61014f610319565b60405161015c9190610e34565b60405180910390f35b61016e60095481565b60405190815260200161015c565b61016e600b5481565b61016e610193366004610c74565b6103a7565b6101ab6101a6366004610c74565b610664565b005b4261016e565b61016e600d5481565b61016e60035481565b61016e600c5481565b61016e60075481565b6000546001600160a01b03165b6040516001600160a01b03909116815260200161015c565b61016e61020a366004610c74565b6106ef565b61016e61021d366004610d87565b61070c565b6002546101e4906001600160a01b031681565b61016e6107c6565b6101ab61024b366004610cd6565b61082e565b61029a61025e366004610c74565b600560205260009081526040902080546001820154600283015460038401546004909401546001600160a01b0390931693919290919060ff1685565b604080516001600160a01b03909616865260208601949094529284019190915260608301521515608082015260a00161015c565b6101e46102dc366004610e02565b6108ae565b61016e600a5481565b61016e6102f8366004610c74565b6108d8565b6101ab61030b366004610c8f565b610943565b61016e600e5481565b6001805461032690610eda565b80601f016020809104026020016040519081016040528092919081815260200182805461035290610eda565b801561039f5780601f106103745761010080835404028352916020019161039f565b820191906000526020600020905b81548152906001019060200180831161038257829003601f168201915b505050505081565b6000336001600160a01b03831614806103ca57506000546001600160a01b031633145b6104415760405162461bcd60e51b815260206004820152603760248201527f56455354494e474255434b45543a2063616e206f6e6c792063616c6c2066726f60448201527f6d20636c61696d61646472657373206f72206f776e657200000000000000000060648201526084015b60405180910390fd5b6001600160a01b03821660009081526005602052604090206004015460ff166104b85760405162461bcd60e51b815260206004820152602360248201527f56455354494e474255434b45543a20636c61696d20646f6573206e6f742065786044820152621a5cdd60ea1b6064820152608401610438565b6001600160a01b038083166000908152600560209081526040808320815160a08101835281549095168552600181015492850192909252600282015490840152600381015460608401526004015460ff16151560808301526105198261070c565b9050600082606001518261052d9190610ec3565b905060008184606001516105419190610e89565b9050836020015181111561055457600080fd5b600254845160405163a9059cbb60e01b81526001600160a01b0391821660048201526024810185905291169063a9059cbb90604401602060405180830381600087803b1580156105a357600080fd5b505af11580156105b7573d6000803e3d6000fd5b505050506040513d601f19601f820116820180604052508101906105db9190610cb9565b6105e457600080fd5b83600001516001600160a01b03167f7fcf532c15f0a6db0bd6d0e038bea71d30d808c7d98cb3bf7268a95bf5081b658360405161062391815260200190565b60405180910390a2818460600181815161063d9190610e89565b90525060088054839190600090610655908490610e89565b90915550919695505050505050565b336106776000546001600160a01b031690565b6001600160a01b0316146106cd5760405162461bcd60e51b815260206004820181905260248201527f4f776e61626c653a2063616c6c6572206973206e6f7420746865206f776e65726044820152606401610438565b600480546001600160a01b0319166001600160a01b0392909216919091179055565b600080546001600160a01b0316331461070757600080fd5b919050565b600954600d5460408381015160208501519151633f6b939360e11b8152426004820181905260248201959095526044810193909352606483015260848201526000919073__$5e6753039be095b2af09f6e281dd6eeca6$__90637ed727269060a4015b60206040518083038186803b15801561078757600080fd5b505af415801561079b573d6000803e3d6000fd5b505050506040513d601f19601f820116820180604052508101906107bf9190610e1b565b9392505050565b600954600d54600c54600b54604051633f6b939360e11b81524260048201819052602482019590955260448101939093526064830191909152608482015260009190829073__$5e6753039be095b2af09f6e281dd6eeca6$__90637ed727269060a40161076f565b336108416000546001600160a01b031690565b6001600160a01b0316146108975760405162461bcd60e51b815260206004820181905260248201527f4f776e61626c653a2063616c6c6572206973206e6f7420746865206f776e65726044820152606401610438565b80516108aa906001906020840190610bc4565b5050565b600681815481106108be57600080fd5b6000918252602090912001546001600160a01b0316905081565b6001600160a01b038082166000908152600560209081526040808320815160a08101835281549095168552600181015492850192909252600282015490840152600381015460608401526004015460ff1615156080830152908161093b8261070c565b949350505050565b6004546001600160a01b031633148061096657506000546001600160a01b031633145b6109be5760405162461bcd60e51b815260206004820152602360248201527f4f776e61626c653a2063616c6c6572206973206e6f7420746865207265666f776044820152623732b960e91b6064820152608401610438565b6001600160a01b03821660009081526005602052604090206004015460ff1615610a465760405162461bcd60e51b815260206004820152603360248201527f56455354494e474255434b45543a20636c61696d2061742074686973206164646044820152727265737320616c72656164792065786973747360681b6064820152608401610438565b600b5481600754610a579190610e89565b1115610aba5760405162461bcd60e51b815260206004820152602c60248201527f56455354494e474255434b45543a2063616e206e6f7420636c61696d206d6f7260448201526b19481d1a185b881d1bdd185b60a21b6064820152608401610438565b6000600a5482610aca9190610ea1565b6040805160a0810182526001600160a01b03808716808352602080840188815284860187815260006060870181815260016080890181815287845260059096529882209751885497166001600160a01b0319978816178855925187890155905160028701559051600386015590516004909401805494151560ff199095169490941790935560068054948501815583527ff652222313e28459528d920b65115c16c04f3efc82aaedc97be59f3f377c0d3f9093018054909116909217909155600780549293508492909190610ba0908490610e89565b925050819055506001600e6000828254610bba9190610e89565b9091555050505050565b828054610bd090610eda565b90600052602060002090601f016020900481019282610bf25760008555610c38565b82601f10610c0b57805160ff1916838001178555610c38565b82800160010185558215610c38579182015b82811115610c38578251825591602001919060010190610c1d565b50610c44929150610c48565b5090565b5b80821115610c445760008155600101610c49565b80356001600160a01b038116811461070757600080fd5b600060208284031215610c8657600080fd5b6107bf82610c5d565b60008060408385031215610ca257600080fd5b610cab83610c5d565b946020939093013593505050565b600060208284031215610ccb57600080fd5b81516107bf81610f41565b600060208284031215610ce857600080fd5b813567ffffffffffffffff80821115610d0057600080fd5b818401915084601f830112610d1457600080fd5b813581811115610d2657610d26610f2b565b604051601f8201601f19908116603f01168101908382118183101715610d4e57610d4e610f2b565b81604052828152876020848701011115610d6757600080fd5b826020860160208301376000928101602001929092525095945050505050565b600060a08284031215610d9957600080fd5b60405160a0810181811067ffffffffffffffff82111715610dbc57610dbc610f2b565b604052610dc883610c5d565b81526020830135602082015260408301356040820152606083013560608201526080830135610df681610f41565b60808201529392505050565b600060208284031215610e1457600080fd5b5035919050565b600060208284031215610e2d57600080fd5b5051919050565b600060208083528351808285015260005b81811015610e6157858101830151858201604001528201610e45565b81811115610e73576000604083870101525b50601f01601f1916929092016040019392505050565b60008219821115610e9c57610e9c610f15565b500190565b600082610ebe57634e487b7160e01b600052601260045260246000fd5b500490565b600082821015610ed557610ed5610f15565b500390565b600181811c90821680610eee57607f821691505b60208210811415610f0f57634e487b7160e01b600052602260045260246000fd5b50919050565b634e487b7160e01b600052601160045260246000fd5b634e487b7160e01b600052604160045260246000fd5b8015158114610f4f57600080fd5b5056fea26469706673582212206b5e90ba2281916a47c04c537221dff2cc98933d7a300d45f145e3915e153c2464736f6c63430008050033",
  "language": "Solidity",
  "natspec": {
    "kind": "dev",
    "methods": {
      "owner()": {
        "details": "Returns the address of the current owner."
      }
    },
    "version": 1
  },
  "opcodes": "PUSH1 0x80 PUSH1 0x40 MSTORE CALLVALUE DUP1 ISZERO PUSH2 0x10 JUMPI PUSH1 0x0 DUP1 REVERT JUMPDEST POP PUSH1 0x4 CALLDATASIZE LT PUSH2 0x142 JUMPI PUSH1 0x0 CALLDATALOAD PUSH1 0xE0 SHR DUP1 PUSH4 0xB58B6354 GT PUSH2 0xB8 JUMPI DUP1 PUSH4 0xC6788BDD GT PUSH2 0x7C JUMPI DUP1 PUSH4 0xC6788BDD EQ PUSH2 0x250 JUMPI DUP1 PUSH4 0xD0029D61 EQ PUSH2 0x2CE JUMPI DUP1 PUSH4 0xDCD65479 EQ PUSH2 0x2E1 JUMPI DUP1 PUSH4 0xDFA93099 EQ PUSH2 0x2EA JUMPI DUP1 PUSH4 0xF8FCABE3 EQ PUSH2 0x2FD JUMPI DUP1 PUSH4 0xFC0FC849 EQ PUSH2 0x310 JUMPI PUSH1 0x0 DUP1 REVERT JUMPDEST DUP1 PUSH4 0xB58B6354 EQ PUSH2 0x1FC JUMPI DUP1 PUSH4 0xB6228703 EQ PUSH2 0x20F JUMPI DUP1 PUSH4 0xBBB6F347 EQ PUSH2 0x222 JUMPI DUP1 PUSH4 0xC06D30A7 EQ PUSH2 0x235 JUMPI DUP1 PUSH4 0xC47F0027 EQ PUSH2 0x23D JUMPI PUSH1 0x0 DUP1 REVERT JUMPDEST DUP1 PUSH4 0x29CB924D GT PUSH2 0x10A JUMPI DUP1 PUSH4 0x29CB924D EQ PUSH2 0x1AD JUMPI DUP1 PUSH4 0x3197CBB6 EQ PUSH2 0x1B3 JUMPI DUP1 PUSH4 0x34DADAD5 EQ PUSH2 0x1BC JUMPI DUP1 PUSH4 0x35E9D90F EQ PUSH2 0x1C5 JUMPI DUP1 PUSH4 0x8523B7DB EQ PUSH2 0x1CE JUMPI DUP1 PUSH4 0x8DA5CB5B EQ PUSH2 0x1D7 JUMPI PUSH1 0x0 DUP1 REVERT JUMPDEST DUP1 PUSH4 0x6FDDE03 EQ PUSH2 0x147 JUMPI DUP1 PUSH4 0xF1A6444 EQ PUSH2 0x165 JUMPI DUP1 PUSH4 0x1A39D8EF EQ PUSH2 0x17C JUMPI DUP1 PUSH4 0x21E76DC1 EQ PUSH2 0x185 JUMPI DUP1 PUSH4 0x28DC8ED9 EQ PUSH2 0x198 JUMPI JUMPDEST PUSH1 0x0 DUP1 REVERT JUMPDEST PUSH2 0x14F PUSH2 0x319 JUMP JUMPDEST PUSH1 0x40 MLOAD PUSH2 0x15C SWAP2 SWAP1 PUSH2 0xE34 JUMP JUMPDEST PUSH1 0x40 MLOAD DUP1 SWAP2 SUB SWAP1 RETURN JUMPDEST PUSH2 0x16E PUSH1 0x9 SLOAD DUP2 JUMP JUMPDEST PUSH1 0x40 MLOAD SWAP1 DUP2 MSTORE PUSH1 0x20 ADD PUSH2 0x15C JUMP JUMPDEST PUSH2 0x16E PUSH1 0xB SLOAD DUP2 JUMP JUMPDEST PUSH2 0x16E PUSH2 0x193 CALLDATASIZE PUSH1 0x4 PUSH2 0xC74 JUMP JUMPDEST PUSH2 0x3A7 JUMP JUMPDEST PUSH2 0x1AB PUSH2 0x1A6 CALLDATASIZE PUSH1 0x4 PUSH2 0xC74 JUMP JUMPDEST PUSH2 0x664 JUMP JUMPDEST STOP JUMPDEST TIMESTAMP PUSH2 0x16E JUMP JUMPDEST PUSH2 0x16E PUSH1 0xD SLOAD DUP2 JUMP JUMPDEST PUSH2 0x16E PUSH1 0x3 SLOAD DUP2 JUMP JUMPDEST PUSH2 0x16E PUSH1 0xC SLOAD DUP2 JUMP JUMPDEST PUSH2 0x16E PUSH1 0x7 SLOAD DUP2 JUMP JUMPDEST PUSH1 0x0 SLOAD PUSH1 0x1 PUSH1 0x1 PUSH1 0xA0 SHL SUB AND JUMPDEST PUSH1 0x40 MLOAD PUSH1 0x1 PUSH1 0x1 PUSH1 0xA0 SHL SUB SWAP1 SWAP2 AND DUP2 MSTORE PUSH1 0x20 ADD PUSH2 0x15C JUMP JUMPDEST PUSH2 0x16E PUSH2 0x20A CALLDATASIZE PUSH1 0x4 PUSH2 0xC74 JUMP JUMPDEST PUSH2 0x6EF JUMP JUMPDEST PUSH2 0x16E PUSH2 0x21D CALLDATASIZE PUSH1 0x4 PUSH2 0xD87 JUMP JUMPDEST PUSH2 0x70C JUMP JUMPDEST PUSH1 0x2 SLOAD PUSH2 0x1E4 SWAP1 PUSH1 0x1 PUSH1 0x1 PUSH1 0xA0 SHL SUB AND DUP2 JUMP JUMPDEST PUSH2 0x16E PUSH2 0x7C6 JUMP JUMPDEST PUSH2 0x1AB PUSH2 0x24B CALLDATASIZE PUSH1 0x4 PUSH2 0xCD6 JUMP JUMPDEST PUSH2 0x82E JUMP JUMPDEST PUSH2 0x29A PUSH2 0x25E CALLDATASIZE PUSH1 0x4 PUSH2 0xC74 JUMP JUMPDEST PUSH1 0x5 PUSH1 0x20 MSTORE PUSH1 0x0 SWAP1 DUP2 MSTORE PUSH1 0x40 SWAP1 KECCAK256 DUP1 SLOAD PUSH1 0x1 DUP3 ADD SLOAD PUSH1 0x2 DUP4 ADD SLOAD PUSH1 0x3 DUP5 ADD SLOAD PUSH1 0x4 SWAP1 SWAP5 ADD SLOAD PUSH1 0x1 PUSH1 0x1 PUSH1 0xA0 SHL SUB SWAP1 SWAP4 AND SWAP4 SWAP2 SWAP3 SWAP1 SWAP2 SWAP1 PUSH1 0xFF AND DUP6 JUMP JUMPDEST PUSH1 0x40 DUP1 MLOAD PUSH1 0x1 PUSH1 0x1 PUSH1 0xA0 SHL SUB SWAP1 SWAP7 AND DUP7 MSTORE PUSH1 0x20 DUP7 ADD SWAP5 SWAP1 SWAP5 MSTORE SWAP3 DUP5 ADD SWAP2 SWAP1 SWAP2 MSTORE PUSH1 0x60 DUP4 ADD MSTORE ISZERO ISZERO PUSH1 0x80 DUP3 ADD MSTORE PUSH1 0xA0 ADD PUSH2 0x15C JUMP JUMPDEST PUSH2 0x1E4 PUSH2 0x2DC CALLDATASIZE PUSH1 0x4 PUSH2 0xE02 JUMP JUMPDEST PUSH2 0x8AE JUMP JUMPDEST PUSH2 0x16E PUSH1 0xA SLOAD DUP2 JUMP JUMPDEST PUSH2 0x16E PUSH2 0x2F8 CALLDATASIZE PUSH1 0x4 PUSH2 0xC74 JUMP JUMPDEST PUSH2 0x8D8 JUMP JUMPDEST PUSH2 0x1AB PUSH2 0x30B CALLDATASIZE PUSH1 0x4 PUSH2 0xC8F JUMP JUMPDEST PUSH2 0x943 JUMP JUMPDEST PUSH2 0x16E PUSH1 0xE SLOAD DUP2 JUMP JUMPDEST PUSH1 0x1 DUP1 SLOAD PUSH2 0x326 SWAP1 PUSH2 0xEDA JUMP JUMPDEST DUP1 PUSH1 0x1F ADD PUSH1 0x20 DUP1 SWAP2 DIV MUL PUSH1 0x20 ADD PUSH1 0x40 MLOAD SWAP1 DUP2 ADD PUSH1 0x40 MSTORE DUP1 SWAP3 SWAP2 SWAP1 DUP2 DUP2 MSTORE PUSH1 0x20 ADD DUP3 DUP1 SLOAD PUSH2 0x352 SWAP1 PUSH2 0xEDA JUMP JUMPDEST DUP1 ISZERO PUSH2 0x39F JUMPI DUP1 PUSH1 0x1F LT PUSH2 0x374 JUMPI PUSH2 0x100 DUP1 DUP4 SLOAD DIV MUL DUP4 MSTORE SWAP2 PUSH1 0x20 ADD SWAP2 PUSH2 0x39F JUMP JUMPDEST DUP3 ADD SWAP2 SWAP1 PUSH1 0x0 MSTORE PUSH1 0x20 PUSH1 0x0 KECCAK256 SWAP1 JUMPDEST DUP2 SLOAD DUP2 MSTORE SWAP1 PUSH1 0x1 ADD SWAP1 PUSH1 0x20 ADD DUP1 DUP4 GT PUSH2 0x382 JUMPI DUP3 SWAP1 SUB PUSH1 0x1F AND DUP3 ADD SWAP2 JUMPDEST POP POP POP POP POP DUP2 JUMP JUMPDEST PUSH1 0x0 CALLER PUSH1 0x1 PUSH1 0x1 PUSH1 0xA0 SHL SUB DUP4 AND EQ DUP1 PUSH2 0x3CA JUMPI POP PUSH1 0x0 SLOAD PUSH1 0x1 PUSH1 0x1 PUSH1 0xA0 SHL SUB AND CALLER EQ JUMPDEST PUSH2 0x441 JUMPI PUSH1 0x40 MLOAD PUSH3 0x461BCD PUSH1 0xE5 SHL DUP2 MSTORE PUSH1 0x20 PUSH1 0x4 DUP3 ADD MSTORE PUSH1 0x37 PUSH1 0x24 DUP3 ADD MSTORE PUSH32 0x56455354494E474255434B45543A2063616E206F6E6C792063616C6C2066726F PUSH1 0x44 DUP3 ADD MSTORE PUSH32 0x6D20636C61696D61646472657373206F72206F776E6572000000000000000000 PUSH1 0x64 DUP3 ADD MSTORE PUSH1 0x84 ADD JUMPDEST PUSH1 0x40 MLOAD DUP1 SWAP2 SUB SWAP1 REVERT JUMPDEST PUSH1 0x1 PUSH1 0x1 PUSH1 0xA0 SHL SUB DUP3 AND PUSH1 0x0 SWAP1 DUP2 MSTORE PUSH1 0x5 PUSH1 0x20 MSTORE PUSH1 0x40 SWAP1 KECCAK256 PUSH1 0x4 ADD SLOAD PUSH1 0xFF AND PUSH2 0x4B8 JUMPI PUSH1 0x40 MLOAD PUSH3 0x461BCD PUSH1 0xE5 SHL DUP2 MSTORE PUSH1 0x20 PUSH1 0x4 DUP3 ADD MSTORE PUSH1 0x23 PUSH1 0x24 DUP3 ADD MSTORE PUSH32 0x56455354494E474255434B45543A20636C61696D20646F6573206E6F74206578 PUSH1 0x44 DUP3 ADD MSTORE PUSH3 0x1A5CDD PUSH1 0xEA SHL PUSH1 0x64 DUP3 ADD MSTORE PUSH1 0x84 ADD PUSH2 0x438 JUMP JUMPDEST PUSH1 0x1 PUSH1 0x1 PUSH1 0xA0 SHL SUB DUP1 DUP4 AND PUSH1 0x0 SWAP1 DUP2 MSTORE PUSH1 0x5 PUSH1 0x20 SWAP1 DUP2 MSTORE PUSH1 0x40 DUP1 DUP4 KECCAK256 DUP2 MLOAD PUSH1 0xA0 DUP2 ADD DUP4 MSTORE DUP2 SLOAD SWAP1 SWAP6 AND DUP6 MSTORE PUSH1 0x1 DUP2 ADD SLOAD SWAP3 DUP6 ADD SWAP3 SWAP1 SWAP3 MSTORE PUSH1 0x2 DUP3 ADD SLOAD SWAP1 DUP5 ADD MSTORE PUSH1 0x3 DUP2 ADD SLOAD PUSH1 0x60 DUP5 ADD MSTORE PUSH1 0x4 ADD SLOAD PUSH1 0xFF AND ISZERO ISZERO PUSH1 0x80 DUP4 ADD MSTORE PUSH2 0x519 DUP3 PUSH2 0x70C JUMP JUMPDEST SWAP1 POP PUSH1 0x0 DUP3 PUSH1 0x60 ADD MLOAD DUP3 PUSH2 0x52D SWAP2 SWAP1 PUSH2 0xEC3 JUMP JUMPDEST SWAP1 POP PUSH1 0x0 DUP2 DUP5 PUSH1 0x60 ADD MLOAD PUSH2 0x541 SWAP2 SWAP1 PUSH2 0xE89 JUMP JUMPDEST SWAP1 POP DUP4 PUSH1 0x20 ADD MLOAD DUP2 GT ISZERO PUSH2 0x554 JUMPI PUSH1 0x0 DUP1 REVERT JUMPDEST PUSH1 0x2 SLOAD DUP5 MLOAD PUSH1 0x40 MLOAD PUSH4 0xA9059CBB PUSH1 0xE0 SHL DUP2 MSTORE PUSH1 0x1 PUSH1 0x1 PUSH1 0xA0 SHL SUB SWAP2 DUP3 AND PUSH1 0x4 DUP3 ADD MSTORE PUSH1 0x24 DUP2 ADD DUP6 SWAP1 MSTORE SWAP2 AND SWAP1 PUSH4 0xA9059CBB SWAP1 PUSH1 0x44 ADD PUSH1 0x20 PUSH1 0x40 MLOAD DUP1 DUP4 SUB DUP2 PUSH1 0x0 DUP8 DUP1 EXTCODESIZE ISZERO DUP1 ISZERO PUSH2 0x5A3 JUMPI PUSH1 0x0 DUP1 REVERT JUMPDEST POP GAS CALL ISZERO DUP1 ISZERO PUSH2 0x5B7 JUMPI RETURNDATASIZE PUSH1 0x0 DUP1 RETURNDATACOPY RETURNDATASIZE PUSH1 0x0 REVERT JUMPDEST POP POP POP POP PUSH1 0x40 MLOAD RETURNDATASIZE PUSH1 0x1F NOT PUSH1 0x1F DUP3 ADD AND DUP3 ADD DUP1 PUSH1 0x40 MSTORE POP DUP2 ADD SWAP1 PUSH2 0x5DB SWAP2 SWAP1 PUSH2 0xCB9 JUMP JUMPDEST PUSH2 0x5E4 JUMPI PUSH1 0x0 DUP1 REVERT JUMPDEST DUP4 PUSH1 0x0 ADD MLOAD PUSH1 0x1 PUSH1 0x1 PUSH1 0xA0 SHL SUB AND PUSH32 0x7FCF532C15F0A6DB0BD6D0E038BEA71D30D808C7D98CB3BF7268A95BF5081B65 DUP4 PUSH1 0x40 MLOAD PUSH2 0x623 SWAP2 DUP2 MSTORE PUSH1 0x20 ADD SWAP1 JUMP JUMPDEST PUSH1 0x40 MLOAD DUP1 SWAP2 SUB SWAP1 LOG2 DUP2 DUP5 PUSH1 0x60 ADD DUP2 DUP2 MLOAD PUSH2 0x63D SWAP2 SWAP1 PUSH2 0xE89 JUMP JUMPDEST SWAP1 MSTORE POP PUSH1 0x8 DUP1 SLOAD DUP4 SWAP2 SWAP1 PUSH1 0x0 SWAP1 PUSH2 0x655 SWAP1 DUP5 SWAP1 PUSH2 0xE89 JUMP JUMPDEST SWAP1 SWAP2 SSTORE POP SWAP2 SWAP7 SWAP6 POP POP POP POP POP POP JUMP JUMPDEST CALLER PUSH2 0x677 PUSH1 0x0 SLOAD PUSH1 0x1 PUSH1 0x1 PUSH1 0xA0 SHL SUB AND SWAP1 JUMP JUMPDEST PUSH1 0x1 PUSH1 0x1 PUSH1 0xA0 SHL SUB AND EQ PUSH2 0x6CD JUMPI PUSH1 0x40 MLOAD PUSH3 0x461BCD PUSH1 0xE5 SHL DUP2 MSTORE PUSH1 0x20 PUSH1 0x4 DUP3 ADD DUP2 SWAP1 MSTORE PUSH1 0x24 DUP3 ADD MSTORE PUSH32 0x4F776E61626C653A2063616C6C6572206973206E6F7420746865206F776E6572 PUSH1 0x44 DUP3 ADD MSTORE PUSH1 0x64 ADD PUSH2 0x438 JUMP JUMPDEST PUSH1 0x4 DUP1 SLOAD PUSH1 0x1 PUSH1 0x1 PUSH1 0xA0 SHL SUB NOT AND PUSH1 0x1 PUSH1 0x1 PUSH1 0xA0 SHL SUB SWAP3 SWAP1 SWAP3 AND SWAP2 SWAP1 SWAP2 OR SWAP1 SSTORE JUMP JUMPDEST PUSH1 0x0 DUP1 SLOAD PUSH1 0x1 PUSH1 0x1 PUSH1 0xA0 SHL SUB AND CALLER EQ PUSH2 0x707 JUMPI PUSH1 0x0 DUP1 REVERT JUMPDEST SWAP2 SWAP1 POP JUMP JUMPDEST PUSH1 0x9 SLOAD PUSH1 0xD SLOAD PUSH1 0x40 DUP4 DUP2 ADD MLOAD PUSH1 0x20 DUP6 ADD MLOAD SWAP2 MLOAD PUSH4 0x3F6B9393 PUSH1 0xE1 SHL DUP2 MSTORE TIMESTAMP PUSH1 0x4 DUP3 ADD DUP2 SWAP1 MSTORE PUSH1 0x24 DUP3 ADD SWAP6 SWAP1 SWAP6 MSTORE PUSH1 0x44 DUP2 ADD SWAP4 SWAP1 SWAP4 MSTORE PUSH1 0x64 DUP4 ADD MSTORE PUSH1 0x84 DUP3 ADD MSTORE PUSH1 0x0 SWAP2 SWAP1 PUSH20 0x0 SWAP1 PUSH4 0x7ED72726 SWAP1 PUSH1 0xA4 ADD JUMPDEST PUSH1 0x20 PUSH1 0x40 MLOAD DUP1 DUP4 SUB DUP2 DUP7 DUP1 EXTCODESIZE ISZERO DUP1 ISZERO PUSH2 0x787 JUMPI PUSH1 0x0 DUP1 REVERT JUMPDEST POP GAS DELEGATECALL ISZERO DUP1 ISZERO PUSH2 0x79B JUMPI RETURNDATASIZE PUSH1 0x0 DUP1 RETURNDATACOPY RETURNDATASIZE PUSH1 0x0 REVERT JUMPDEST POP POP POP POP PUSH1 0x40 MLOAD RETURNDATASIZE PUSH1 0x1F NOT PUSH1 0x1F DUP3 ADD AND DUP3 ADD DUP1 PUSH1 0x40 MSTORE POP DUP2 ADD SWAP1 PUSH2 0x7BF SWAP2 SWAP1 PUSH2 0xE1B JUMP JUMPDEST SWAP4 SWAP3 POP POP POP JUMP JUMPDEST PUSH1 0x9 SLOAD PUSH1 0xD SLOAD PUSH1 0xC SLOAD PUSH1 0xB SLOAD PUSH1 0x40 MLOAD PUSH4 0x3F6B9393 PUSH1 0xE1 SHL DUP2 MSTORE TIMESTAMP PUSH1 0x4 DUP3 ADD DUP2 SWAP1 MSTORE PUSH1 0x24 DUP3 ADD SWAP6 SWAP1 SWAP6 MSTORE PUSH1 0x44 DUP2 ADD SWAP4 SWAP1 SWAP4 MSTORE PUSH1 0x64 DUP4 ADD SWAP2 SWAP1 SWAP2 MSTORE PUSH1 0x84 DUP3 ADD MSTORE PUSH1 0x0 SWAP2 SWAP1 DUP3 SWAP1 PUSH20 0x0 SWAP1 PUSH4 0x7ED72726 SWAP1 PUSH1 0xA4 ADD PUSH2 0x76F JUMP JUMPDEST CALLER PUSH2 0x841 PUSH1 0x0 SLOAD PUSH1 0x1 PUSH1 0x1 PUSH1 0xA0 SHL SUB AND SWAP1 JUMP JUMPDEST PUSH1 0x1 PUSH1 0x1 PUSH1 0xA0 SHL SUB AND EQ PUSH2 0x897 JUMPI PUSH1 0x40 MLOAD PUSH3 0x461BCD PUSH1 0xE5 SHL DUP2 MSTORE PUSH1 0x20 PUSH1 0x4 DUP3 ADD DUP2 SWAP1 MSTORE PUSH1 0x24 DUP3 ADD MSTORE PUSH32 0x4F776E61626C653A2063616C6C6572206973206E6F7420746865206F776E6572 PUSH1 0x44 DUP3 ADD MSTORE PUSH1 0x64 ADD PUSH2 0x438 JUMP JUMPDEST DUP1 MLOAD PUSH2 0x8AA SWAP1 PUSH1 0x1 SWAP1 PUSH1 0x20 DUP5 ADD SWAP1 PUSH2 0xBC4 JUMP JUMPDEST POP POP JUMP JUMPDEST PUSH1 0x6 DUP2 DUP2 SLOAD DUP2 LT PUSH2 0x8BE JUMPI PUSH1 0x0 DUP1 REVERT JUMPDEST PUSH1 0x0 SWAP2 DUP3 MSTORE PUSH1 0x20 SWAP1 SWAP2 KECCAK256 ADD SLOAD PUSH1 0x1 PUSH1 0x1 PUSH1 0xA0 SHL SUB AND SWAP1 POP DUP2 JUMP JUMPDEST PUSH1 0x1 PUSH1 0x1 PUSH1 0xA0 SHL SUB DUP1 DUP3 AND PUSH1 0x0 SWAP1 DUP2 MSTORE PUSH1 0x5 PUSH1 0x20 SWAP1 DUP2 MSTORE PUSH1 0x40 DUP1 DUP4 KECCAK256 DUP2 MLOAD PUSH1 0xA0 DUP2 ADD DUP4 MSTORE DUP2 SLOAD SWAP1 SWAP6 AND DUP6 MSTORE PUSH1 0x1 DUP2 ADD SLOAD SWAP3 DUP6 ADD SWAP3 SWAP1 SWAP3 MSTORE PUSH1 0x2 DUP3 ADD SLOAD SWAP1 DUP5 ADD MSTORE PUSH1 0x3 DUP2 ADD SLOAD PUSH1 0x60 DUP5 ADD MSTORE PUSH1 0x4 ADD SLOAD PUSH1 0xFF AND ISZERO ISZERO PUSH1 0x80 DUP4 ADD MSTORE SWAP1 DUP2 PUSH2 0x93B DUP3 PUSH2 0x70C JUMP JUMPDEST SWAP5 SWAP4 POP POP POP POP JUMP JUMPDEST PUSH1 0x4 SLOAD PUSH1 0x1 PUSH1 0x1 PUSH1 0xA0 SHL SUB AND CALLER EQ DUP1 PUSH2 0x966 JUMPI POP PUSH1 0x0 SLOAD PUSH1 0x1 PUSH1 0x1 PUSH1 0xA0 SHL SUB AND CALLER EQ JUMPDEST PUSH2 0x9BE JUMPI PUSH1 0x40 MLOAD PUSH3 0x461BCD PUSH1 0xE5 SHL DUP2 MSTORE PUSH1 0x20 PUSH1 0x4 DUP3 ADD MSTORE PUSH1 0x23 PUSH1 0x24 DUP3 ADD MSTORE PUSH32 0x4F776E61626C653A2063616C6C6572206973206E6F7420746865207265666F77 PUSH1 0x44 DUP3 ADD MSTORE PUSH3 0x3732B9 PUSH1 0xE9 SHL PUSH1 0x64 DUP3 ADD MSTORE PUSH1 0x84 ADD PUSH2 0x438 JUMP JUMPDEST PUSH1 0x1 PUSH1 0x1 PUSH1 0xA0 SHL SUB DUP3 AND PUSH1 0x0 SWAP1 DUP2 MSTORE PUSH1 0x5 PUSH1 0x20 MSTORE PUSH1 0x40 SWAP1 KECCAK256 PUSH1 0x4 ADD SLOAD PUSH1 0xFF AND ISZERO PUSH2 0xA46 JUMPI PUSH1 0x40 MLOAD PUSH3 0x461BCD PUSH1 0xE5 SHL DUP2 MSTORE PUSH1 0x20 PUSH1 0x4 DUP3 ADD MSTORE PUSH1 0x33 PUSH1 0x24 DUP3 ADD MSTORE PUSH32 0x56455354494E474255434B45543A20636C61696D206174207468697320616464 PUSH1 0x44 DUP3 ADD MSTORE PUSH19 0x7265737320616C726561647920657869737473 PUSH1 0x68 SHL PUSH1 0x64 DUP3 ADD MSTORE PUSH1 0x84 ADD PUSH2 0x438 JUMP JUMPDEST PUSH1 0xB SLOAD DUP2 PUSH1 0x7 SLOAD PUSH2 0xA57 SWAP2 SWAP1 PUSH2 0xE89 JUMP JUMPDEST GT ISZERO PUSH2 0xABA JUMPI PUSH1 0x40 MLOAD PUSH3 0x461BCD PUSH1 0xE5 SHL DUP2 MSTORE PUSH1 0x20 PUSH1 0x4 DUP3 ADD MSTORE PUSH1 0x2C PUSH1 0x24 DUP3 ADD MSTORE PUSH32 0x56455354494E474255434B45543A2063616E206E6F7420636C61696D206D6F72 PUSH1 0x44 DUP3 ADD MSTORE PUSH12 0x19481D1A185B881D1BDD185B PUSH1 0xA2 SHL PUSH1 0x64 DUP3 ADD MSTORE PUSH1 0x84 ADD PUSH2 0x438 JUMP JUMPDEST PUSH1 0x0 PUSH1 0xA SLOAD DUP3 PUSH2 0xACA SWAP2 SWAP1 PUSH2 0xEA1 JUMP JUMPDEST PUSH1 0x40 DUP1 MLOAD PUSH1 0xA0 DUP2 ADD DUP3 MSTORE PUSH1 0x1 PUSH1 0x1 PUSH1 0xA0 SHL SUB DUP1 DUP8 AND DUP1 DUP4 MSTORE PUSH1 0x20 DUP1 DUP5 ADD DUP9 DUP2 MSTORE DUP5 DUP7 ADD DUP8 DUP2 MSTORE PUSH1 0x0 PUSH1 0x60 DUP8 ADD DUP2 DUP2 MSTORE PUSH1 0x1 PUSH1 0x80 DUP10 ADD DUP2 DUP2 MSTORE DUP8 DUP5 MSTORE PUSH1 0x5 SWAP1 SWAP7 MSTORE SWAP9 DUP3 KECCAK256 SWAP8 MLOAD DUP9 SLOAD SWAP8 AND PUSH1 0x1 PUSH1 0x1 PUSH1 0xA0 SHL SUB NOT SWAP8 DUP9 AND OR DUP9 SSTORE SWAP3 MLOAD DUP8 DUP10 ADD SSTORE SWAP1 MLOAD PUSH1 0x2 DUP8 ADD SSTORE SWAP1 MLOAD PUSH1 0x3 DUP7 ADD SSTORE SWAP1 MLOAD PUSH1 0x4 SWAP1 SWAP5 ADD DUP1 SLOAD SWAP5 ISZERO ISZERO PUSH1 0xFF NOT SWAP1 SWAP6 AND SWAP5 SWAP1 SWAP5 OR SWAP1 SWAP4 SSTORE PUSH1 0x6 DUP1 SLOAD SWAP5 DUP6 ADD DUP2 SSTORE DUP4 MSTORE PUSH32 0xF652222313E28459528D920B65115C16C04F3EFC82AAEDC97BE59F3F377C0D3F SWAP1 SWAP4 ADD DUP1 SLOAD SWAP1 SWAP2 AND SWAP1 SWAP3 OR SWAP1 SWAP2 SSTORE PUSH1 0x7 DUP1 SLOAD SWAP3 SWAP4 POP DUP5 SWAP3 SWAP1 SWAP2 SWAP1 PUSH2 0xBA0 SWAP1 DUP5 SWAP1 PUSH2 0xE89 JUMP JUMPDEST SWAP3 POP POP DUP2 SWAP1 SSTORE POP PUSH1 0x1 PUSH1 0xE PUSH1 0x0 DUP3 DUP3 SLOAD PUSH2 0xBBA SWAP2 SWAP1 PUSH2 0xE89 JUMP JUMPDEST SWAP1 SWAP2 SSTORE POP POP POP POP POP JUMP JUMPDEST DUP3 DUP1 SLOAD PUSH2 0xBD0 SWAP1 PUSH2 0xEDA JUMP JUMPDEST SWAP1 PUSH1 0x0 MSTORE PUSH1 0x20 PUSH1 0x0 KECCAK256 SWAP1 PUSH1 0x1F ADD PUSH1 0x20 SWAP1 DIV DUP2 ADD SWAP3 DUP3 PUSH2 0xBF2 JUMPI PUSH1 0x0 DUP6 SSTORE PUSH2 0xC38 JUMP JUMPDEST DUP3 PUSH1 0x1F LT PUSH2 0xC0B JUMPI DUP1 MLOAD PUSH1 0xFF NOT AND DUP4 DUP1 ADD OR DUP6 SSTORE PUSH2 0xC38 JUMP JUMPDEST DUP3 DUP1 ADD PUSH1 0x1 ADD DUP6 SSTORE DUP3 ISZERO PUSH2 0xC38 JUMPI SWAP2 DUP3 ADD JUMPDEST DUP3 DUP2 GT ISZERO PUSH2 0xC38 JUMPI DUP3 MLOAD DUP3 SSTORE SWAP2 PUSH1 0x20 ADD SWAP2 SWAP1 PUSH1 0x1 ADD SWAP1 PUSH2 0xC1D JUMP JUMPDEST POP PUSH2 0xC44 SWAP3 SWAP2 POP PUSH2 0xC48 JUMP JUMPDEST POP SWAP1 JUMP JUMPDEST JUMPDEST DUP1 DUP3 GT ISZERO PUSH2 0xC44 JUMPI PUSH1 0x0 DUP2 SSTORE PUSH1 0x1 ADD PUSH2 0xC49 JUMP JUMPDEST DUP1 CALLDATALOAD PUSH1 0x1 PUSH1 0x1 PUSH1 0xA0 SHL SUB DUP2 AND DUP2 EQ PUSH2 0x707 JUMPI PUSH1 0x0 DUP1 REVERT JUMPDEST PUSH1 0x0 PUSH1 0x20 DUP3 DUP5 SUB SLT ISZERO PUSH2 0xC86 JUMPI PUSH1 0x0 DUP1 REVERT JUMPDEST PUSH2 0x7BF DUP3 PUSH2 0xC5D JUMP JUMPDEST PUSH1 0x0 DUP1 PUSH1 0x40 DUP4 DUP6 SUB SLT ISZERO PUSH2 0xCA2 JUMPI PUSH1 0x0 DUP1 REVERT JUMPDEST PUSH2 0xCAB DUP4 PUSH2 0xC5D JUMP JUMPDEST SWAP5 PUSH1 0x20 SWAP4 SWAP1 SWAP4 ADD CALLDATALOAD SWAP4 POP POP POP JUMP JUMPDEST PUSH1 0x0 PUSH1 0x20 DUP3 DUP5 SUB SLT ISZERO PUSH2 0xCCB JUMPI PUSH1 0x0 DUP1 REVERT JUMPDEST DUP2 MLOAD PUSH2 0x7BF DUP2 PUSH2 0xF41 JUMP JUMPDEST PUSH1 0x0 PUSH1 0x20 DUP3 DUP5 SUB SLT ISZERO PUSH2 0xCE8 JUMPI PUSH1 0x0 DUP1 REVERT JUMPDEST DUP2 CALLDATALOAD PUSH8 0xFFFFFFFFFFFFFFFF DUP1 DUP3 GT ISZERO PUSH2 0xD00 JUMPI PUSH1 0x0 DUP1 REVERT JUMPDEST DUP2 DUP5 ADD SWAP2 POP DUP5 PUSH1 0x1F DUP4 ADD SLT PUSH2 0xD14 JUMPI PUSH1 0x0 DUP1 REVERT JUMPDEST DUP2 CALLDATALOAD DUP2 DUP2 GT ISZERO PUSH2 0xD26 JUMPI PUSH2 0xD26 PUSH2 0xF2B JUMP JUMPDEST PUSH1 0x40 MLOAD PUSH1 0x1F DUP3 ADD PUSH1 0x1F NOT SWAP1 DUP2 AND PUSH1 0x3F ADD AND DUP2 ADD SWAP1 DUP4 DUP3 GT DUP2 DUP4 LT OR ISZERO PUSH2 0xD4E JUMPI PUSH2 0xD4E PUSH2 0xF2B JUMP JUMPDEST DUP2 PUSH1 0x40 MSTORE DUP3 DUP2 MSTORE DUP8 PUSH1 0x20 DUP5 DUP8 ADD ADD GT ISZERO PUSH2 0xD67 JUMPI PUSH1 0x0 DUP1 REVERT JUMPDEST DUP3 PUSH1 0x20 DUP7 ADD PUSH1 0x20 DUP4 ADD CALLDATACOPY PUSH1 0x0 SWAP3 DUP2 ADD PUSH1 0x20 ADD SWAP3 SWAP1 SWAP3 MSTORE POP SWAP6 SWAP5 POP POP POP POP POP JUMP JUMPDEST PUSH1 0x0 PUSH1 0xA0 DUP3 DUP5 SUB SLT ISZERO PUSH2 0xD99 JUMPI PUSH1 0x0 DUP1 REVERT JUMPDEST PUSH1 0x40 MLOAD PUSH1 0xA0 DUP2 ADD DUP2 DUP2 LT PUSH8 0xFFFFFFFFFFFFFFFF DUP3 GT OR ISZERO PUSH2 0xDBC JUMPI PUSH2 0xDBC PUSH2 0xF2B JUMP JUMPDEST PUSH1 0x40 MSTORE PUSH2 0xDC8 DUP4 PUSH2 0xC5D JUMP JUMPDEST DUP2 MSTORE PUSH1 0x20 DUP4 ADD CALLDATALOAD PUSH1 0x20 DUP3 ADD MSTORE PUSH1 0x40 DUP4 ADD CALLDATALOAD PUSH1 0x40 DUP3 ADD MSTORE PUSH1 0x60 DUP4 ADD CALLDATALOAD PUSH1 0x60 DUP3 ADD MSTORE PUSH1 0x80 DUP4 ADD CALLDATALOAD PUSH2 0xDF6 DUP2 PUSH2 0xF41 JUMP JUMPDEST PUSH1 0x80 DUP3 ADD MSTORE SWAP4 SWAP3 POP POP POP JUMP JUMPDEST PUSH1 0x0 PUSH1 0x20 DUP3 DUP5 SUB SLT ISZERO PUSH2 0xE14 JUMPI PUSH1 0x0 DUP1 REVERT JUMPDEST POP CALLDATALOAD SWAP2 SWAP1 POP JUMP JUMPDEST PUSH1 0x0 PUSH1 0x20 DUP3 DUP5 SUB SLT ISZERO PUSH2 0xE2D JUMPI PUSH1 0x0 DUP1 REVERT JUMPDEST POP MLOAD SWAP2 SWAP1 POP JUMP JUMPDEST PUSH1 0x0 PUSH1 0x20 DUP1 DUP4 MSTORE DUP4 MLOAD DUP1 DUP3 DUP6 ADD MSTORE PUSH1 0x0 JUMPDEST DUP2 DUP2 LT ISZERO PUSH2 0xE61 JUMPI DUP6 DUP2 ADD DUP4 ADD MLOAD DUP6 DUP3 ADD PUSH1 0x40 ADD MSTORE DUP3 ADD PUSH2 0xE45 JUMP JUMPDEST DUP2 DUP2 GT ISZERO PUSH2 0xE73 JUMPI PUSH1 0x0 PUSH1 0x40 DUP4 DUP8 ADD ADD MSTORE JUMPDEST POP PUSH1 0x1F ADD PUSH1 0x1F NOT AND SWAP3 SWAP1 SWAP3 ADD PUSH1 0x40 ADD SWAP4 SWAP3 POP POP POP JUMP JUMPDEST PUSH1 0x0 DUP3 NOT DUP3 GT ISZERO PUSH2 0xE9C JUMPI PUSH2 0xE9C PUSH2 0xF15 JUMP JUMPDEST POP ADD SWAP1 JUMP JUMPDEST PUSH1 0x0 DUP3 PUSH2 0xEBE JUMPI PUSH4 0x4E487B71 PUSH1 0xE0 SHL PUSH1 0x0 MSTORE PUSH1 0x12 PUSH1 0x4 MSTORE PUSH1 0x24 PUSH1 0x0 REVERT JUMPDEST POP DIV SWAP1 JUMP JUMPDEST PUSH1 0x0 DUP3 DUP3 LT ISZERO PUSH2 0xED5 JUMPI PUSH2 0xED5 PUSH2 0xF15 JUMP JUMPDEST POP SUB SWAP1 JUMP JUMPDEST PUSH1 0x1 DUP2 DUP2 SHR SWAP1 DUP3 AND DUP1 PUSH2 0xEEE JUMPI PUSH1 0x7F DUP3 AND SWAP2 POP JUMPDEST PUSH1 0x20 DUP3 LT DUP2 EQ ISZERO PUSH2 0xF0F JUMPI PUSH4 0x4E487B71 PUSH1 0xE0 SHL PUSH1 0x0 MSTORE PUSH1 0x22 PUSH1 0x4 MSTORE PUSH1 0x24 PUSH1 0x0 REVERT JUMPDEST POP SWAP2 SWAP1 POP JUMP JUMPDEST PUSH4 0x4E487B71 PUSH1 0xE0 SHL PUSH1 0x0 MSTORE PUSH1 0x11 PUSH1 0x4 MSTORE PUSH1 0x24 PUSH1 0x0 REVERT JUMPDEST PUSH4 0x4E487B71 PUSH1 0xE0 SHL PUSH1 0x0 MSTORE PUSH1 0x41 PUSH1 0x4 MSTORE PUSH1 0x24 PUSH1 0x0 REVERT JUMPDEST DUP1 ISZERO ISZERO DUP2 EQ PUSH2 0xF4F JUMPI PUSH1 0x0 DUP1 REVERT JUMPDEST POP JUMP INVALID LOG2 PUSH5 0x6970667358 0x22 SLT KECCAK256 PUSH12 0x5E90BA2281916A47C04C5372 0x21 0xDF CALLCODE 0xCC SWAP9 SWAP4 RETURNDATASIZE PUSH27 0x300D45F145E3915E153C2464736F6C634300080500330000000000 ",
  "sha1": "821c27751c64319accabc0c29c26b7b852f43bec",
  "source": "// // SPDX-License-Identifier: MIT\npragma solidity ^0.8.5;\n\nimport \"./AbstractBucket.sol\";\nimport \"./Ownable.sol\";\nimport \"./VegaToken.sol\";\nimport \"./VestingMath.sol\";\n\n//bucket with vesting of multiple addresses\n//claims and\n//claim addresses have claims towards the bucket\n//vesting in equal parts per time\n//e.g. 6 months, 1/6 equal\ncontract VestingBucket is AbstractBucket {\n    address refowner;\n    //a claim towards this bucket by an addreess\n    struct Claim {\n        address claimAddress;\n        uint256 claimTotalAmount;\n        uint256 amountPerPeriod;\n        uint256 withdrawnAmount;\n        bool isAdded;\n    }\n\n    mapping(address => Claim) public claims;\n    address[] public claimAddresses;\n    uint256 public totalClaimAmount;\n    uint256 totalWithdrawnAmount;\n\n    //unix time when vesting starts\n    uint256 public cliffTime;\n    //how many periods .the number of months not the number of the final month\n    uint256 public numPeriods;\n    //how much in total is vested\n    uint256 public totalAmount;\n    // calculated\n    //how much per period. since its linear this is calculated\n    uint256 public bucketAmountPerPeriod;\n    uint256 public endTime;\n    uint256 public numClaims;\n\n    //TODO deposit\n    event Withdrawal(address indexed addr, uint256 amount);\n\n    modifier onlyRefOwner() {\n        require(\n            msg.sender == refowner || msg.sender == owner(),\n            \"Ownable: caller is not the refowner\"\n        );\n        _;\n    }\n\n    constructor(\n        address _VEGA_TOKEN_ADDRESS,\n        uint256 _cliffTime,\n        uint256 _numPeriods,\n        uint256 _totalAmount\n    ) AbstractBucket(_VEGA_TOKEN_ADDRESS) {\n        cliffTime = _cliffTime;\n        numPeriods = _numPeriods;\n        totalAmount = _totalAmount;\n\n        bucketAmountPerPeriod = totalAmount / numPeriods;\n        endTime = VestingMath.getEndTime(\n            _cliffTime,\n            bucketAmountPerPeriod,\n            _totalAmount\n        );\n\n        totalWithdrawnAmount = 0;\n        totalClaimAmount = 0;\n        numClaims = 0;\n        //claimAddresses =\n    }\n\n    function setRefowner(address _refowner) public onlyOwner {\n        refowner = _refowner;\n    }\n\n    //linear vesting claim\n    function addClaim(address _claimAddress, uint256 _claimTotalAmount)\n        public\n        onlyRefOwner\n    {\n        if (claims[_claimAddress].isAdded)\n            revert(\"VESTINGBUCKET: claim at this address already exists\");\n\n        require(\n            totalClaimAmount + _claimTotalAmount <= totalAmount,\n            \"VESTINGBUCKET: can not claim more than total\"\n        );\n\n        //TODO! add prechecks\n\n        uint256 amountPerPeriod = _claimTotalAmount / numPeriods;\n\n        claims[_claimAddress] = Claim({\n            claimAddress: _claimAddress,\n            amountPerPeriod: amountPerPeriod,\n            claimTotalAmount: _claimTotalAmount,\n            withdrawnAmount: 0,\n            isAdded: true\n        });\n\n        //claimAddresses[numClaims] = _claimAddress;\n        claimAddresses.push(_claimAddress);\n        totalClaimAmount += _claimTotalAmount;\n        numClaims += 1;\n        //amountPerPeriod: amountPerPeriod\n    }\n\n    function getCurrentTime() public view returns (uint256) {\n        return block.timestamp;\n    }\n\n    function getVestedAmount(Claim memory claim) public view returns (uint256) {\n        uint256 blocktime = block.timestamp;\n        return\n            VestingMath.getVestedAmountTS(\n                blocktime,\n                cliffTime,\n                endTime,\n                claim.amountPerPeriod,\n                claim.claimTotalAmount\n            );\n    }\n\n    function getVestableAmountAll() public view returns (uint256) {\n        uint256 blocktime = block.timestamp;\n\n        uint256 amount = VestingMath.getVestedAmountTS(\n            blocktime,\n            cliffTime,\n            endTime,\n            bucketAmountPerPeriod,\n            totalAmount\n        );\n\n        return amount;\n\n        // uint256 total = 0;\n        // Claim memory claim;\n        // uint256 i = 0;\n        // for (i = 0; i < claimAddresses.length; i++) {\n        //     //claim = claims[i];\n        //     address _ca = claimAddresses[i];\n        //     claim = claims[_ca];\n        //     uint256 vestableAmount = getVestedAmount(claim);\n        //     total += vestableAmount;\n        // }\n\n        // return total;\n    }\n\n    function getVestableAmount(address _claimAddress)\n        public\n        view\n        returns (uint256)\n    {\n        Claim memory claim = claims[_claimAddress];\n        uint256 vestableAmount = getVestedAmount(claim);\n        return vestableAmount;\n    }\n\n    //vest the claim. this vests the maximum possible\n    function vestClaimMax(address _claimAddress) public returns (uint256) {\n        //BUG! TODO!\n        //TODO! throw error String\n        //check if claims exists\n\n        //isAdded!\n        require(\n            msg.sender == _claimAddress || msg.sender == owner(),\n            \"VESTINGBUCKET: can only call from claimaddress or owner\"\n        );\n\n        if (!claims[_claimAddress].isAdded)\n            revert(\"VESTINGBUCKET: claim does not exist\");\n\n        // require(\n        //     claimAddresses[_claimAddress].exists,\n        //     \"_claimAddress does not exist.\"\n        // );\n\n        Claim memory claim = claims[_claimAddress];\n\n        uint256 vestableAmount = getVestedAmount(claim);\n\n        uint256 withdrawAmount = vestableAmount - claim.withdrawnAmount;\n        uint256 willwithdraw = claim.withdrawnAmount + withdrawAmount;\n        require(willwithdraw <= claim.claimTotalAmount);\n\n        //TODO! edge case\n        //  if (vestingSchedule.totalWithdrawnAmount + withdrawableAmount > vestingSchedule.totalAmount) {\n        //   withdrawableAmount = vestingSchedule.totalAmount - vestingSchedule.totalWithdrawnAmount;\n        // }\n\n        require(vega_token.transfer(claim.claimAddress, withdrawAmount));\n        emit Withdrawal(claim.claimAddress, withdrawAmount);\n        claim.withdrawnAmount += withdrawAmount;\n        totalWithdrawnAmount += withdrawAmount;\n        return withdrawAmount;\n    }\n\n    //owner calls all claims\n    function allClaim(address _claimAddress) public returns (uint256) {\n        require(msg.sender == owner());\n\n        //for every claim\n        //Claim memory claim = claims[i];\n        //vestClaimMax()\n    }\n\n    // function depositOwner() public onlyOwner {\n\n    // }\n\n    // function withdrawOwner(uint256 amount) public onlyOwner {\n    //     require(vega_token.transfer(msg.sender, amount));\n    // }\n}\n",
  "sourcePath": "contracts/VestingBucket.sol",
  "type": "contract"
}