{
  "abi": [
    {
      "inputs": [],
      "stateMutability": "nonpayable",
      "type": "constructor"
    },
    {
      "anonymous": false,
      "inputs": [
        {
          "indexed": false,
          "internalType": "string",
          "name": "msg",
          "type": "string"
        }
      ],
      "name": "Debug",
      "type": "event"
    },
    {
      "inputs": [
        {
          "internalType": "uint256",
          "name": "cliffOffset",
          "type": "uint256"
        },
        {
          "internalType": "string",
          "name": "name",
          "type": "string"
        },
        {
          "internalType": "uint256",
          "name": "periods",
          "type": "uint256"
        },
        {
          "internalType": "uint256",
          "name": "amount",
          "type": "uint256"
        }
      ],
      "name": "addVestingBucket",
      "outputs": [],
      "stateMutability": "nonpayable",
      "type": "function"
    },
    {
      "inputs": [],
      "name": "bucket_num",
      "outputs": [
        {
          "internalType": "uint256",
          "name": "",
          "type": "uint256"
        }
      ],
      "stateMutability": "view",
      "type": "function"
    },
    {
      "inputs": [
        {
          "internalType": "uint256",
          "name": "",
          "type": "uint256"
        }
      ],
      "name": "buckets",
      "outputs": [
        {
          "internalType": "address",
          "name": "",
          "type": "address"
        }
      ],
      "stateMutability": "view",
      "type": "function"
    },
    {
      "inputs": [],
      "name": "maxSupply",
      "outputs": [
        {
          "internalType": "uint256",
          "name": "",
          "type": "uint256"
        }
      ],
      "stateMutability": "view",
      "type": "function"
    },
    {
      "inputs": [],
      "name": "owner",
      "outputs": [
        {
          "internalType": "address",
          "name": "",
          "type": "address"
        }
      ],
      "stateMutability": "view",
      "type": "function"
    },
    {
      "inputs": [],
      "name": "vega_token",
      "outputs": [
        {
          "internalType": "contract VegaToken",
          "name": "",
          "type": "address"
        }
      ],
      "stateMutability": "view",
      "type": "function"
    },
    {
      "inputs": [],
      "name": "vega_token_address",
      "outputs": [
        {
          "internalType": "address",
          "name": "",
          "type": "address"
        }
      ],
      "stateMutability": "view",
      "type": "function"
    }
  ],
  "bytecode": "608060405234801561001057600080fd5b50600080546001600160a01b0319163317905560405161002f906100c1565b604051809103906000f08015801561004b573d6000803e3d6000fd5b50600180546001600160a01b03929092166001600160a01b03199283168117909155600060048190556003819055600280549093169091179091556006556040805160148082526102a08201909252906020820161028080368337505081516100bb9260059250602001906100ce565b50610148565b610aa780611bde83390190565b828054828255906000526020600020908101928215610123579160200282015b8281111561012357825182546001600160a01b0319166001600160a01b039091161782556020909201916001909101906100ee565b5061012f929150610133565b5090565b5b8082111561012f5760008155600101610134565b611a87806101576000396000f3fe608060405234801561001057600080fd5b506004361061007d5760003560e01c80639b51fb0d1161005b5780639b51fb0d146100d8578063bbb6f347146100eb578063d5abeb01146100fe578063dc5202921461011457600080fd5b806368a87b0e1461008257806383429d0e146100b25780638da5cb5b146100c7575b600080fd5b600254610095906001600160a01b031681565b6040516001600160a01b0390911681526020015b60405180910390f35b6100c56100c036600461051a565b61011d565b005b6000546001600160a01b0316610095565b6100956100e63660046104e8565b610339565b600154610095906001600160a01b031681565b610106610363565b6040519081526020016100a9565b61010660065481565b336101306000546001600160a01b031690565b6001600160a01b03161461018b5760405162461bcd60e51b815260206004820181905260248201527f4f776e61626c653a2063616c6c6572206973206e6f7420746865206f776e657260448201526064015b60405180910390fd5b6002546000906001600160a01b03166101a4864261063a565b84846040516101b2906104b2565b6001600160a01b039094168452602084019290925260408301526060820152608001604051809103906000f0801580156101f0573d6000803e3d6000fd5b509050806001600160a01b03166328dc8ed96102146000546001600160a01b031690565b6040516001600160e01b031960e084901b1681526001600160a01b039091166004820152602401600060405180830381600087803b15801561025557600080fd5b505af1158015610269573d6000803e3d6000fd5b505060405163c47f002760e01b81526001600160a01b038416925063c47f002791506102999087906004016105e5565b600060405180830381600087803b1580156102b357600080fd5b505af11580156102c7573d6000803e3d6000fd5b50505050806005600654815481106102e1576102e1610660565b9060005260206000200160006101000a8154816001600160a01b0302191690836001600160a01b03160217905550600160066000828254610322919061063a565b90915550610332905081836103e5565b5050505050565b6005818154811061034957600080fd5b6000918252602090912001546001600160a01b0316905081565b60015460408051630cb2dac360e21b815290516000926001600160a01b0316916332cb6b0c916004808301926020929190829003018186803b1580156103a857600080fd5b505afa1580156103bc573d6000803e3d6000fd5b505050506040513d601f19601f820116820180604052508101906103e09190610501565b905090565b60015460405163a9059cbb60e01b81526001600160a01b03848116600483015260248201849052600092169063a9059cbb90604401602060405180830381600087803b15801561043457600080fd5b505af1158015610448573d6000803e3d6000fd5b505050506040513d601f19601f8201168201806040525081019061046c91906104bf565b9050806104ad5760405162461bcd60e51b815260206004820152600f60248201526e1d1c985b9cd9995c8819985a5b1959608a1b6044820152606401610182565b505050565b6113c58061068d83390190565b6000602082840312156104d157600080fd5b815180151581146104e157600080fd5b9392505050565b6000602082840312156104fa57600080fd5b5035919050565b60006020828403121561051357600080fd5b5051919050565b6000806000806080858703121561053057600080fd5b84359350602085013567ffffffffffffffff8082111561054f57600080fd5b818701915087601f83011261056357600080fd5b81358181111561057557610575610676565b604051601f8201601f19908116603f0116810190838211818310171561059d5761059d610676565b816040528281528a60208487010111156105b657600080fd5b826020860160208301376000928101602001929092525095989597505050506040840135936060013592915050565b600060208083528351808285015260005b81811015610612578581018301518582016040015282016105f6565b81811115610624576000604083870101525b50601f01601f1916929092016040019392505050565b6000821982111561065b57634e487b7160e01b600052601160045260246000fd5b500190565b634e487b7160e01b600052603260045260246000fd5b634e487b7160e01b600052604160045260246000fdfe60806040523480156200001157600080fd5b50604051620013c5380380620013c583398101604081905262000034916200019c565b60008054336001600160a01b031991821617909155600280549091166001600160a01b038616179055426003819055831015620000c95760405162461bcd60e51b815260206004820152602960248201527f56455354494e474255434b455420636c696666206d75737420626520696e207460448201526868652066757475726560b81b606482015260840160405180910390fd5b6009839055600a829055600b819055620000e4828262000203565b600c81905560405163556b30b960e11b81526004810185905260248101919091526044810182905273__VestingMath___________________________9063aad661729060640160206040518083038186803b1580156200014457600080fd5b505af415801562000159573d6000803e3d6000fd5b505050506040513d601f19601f820116820180604052508101906200017f9190620001e9565b600d555050600060088190556007819055600e5550620002269050565b60008060008060808587031215620001b357600080fd5b84516001600160a01b0381168114620001cb57600080fd5b60208601516040870151606090970151919890975090945092505050565b600060208284031215620001fc57600080fd5b5051919050565b6000826200022157634e487b7160e01b600052601260045260246000fd5b500490565b61118f80620002366000396000f3fe608060405234801561001057600080fd5b506004361061014d5760003560e01c80638da5cb5b116100c3578063c6788bdd1161007c578063c6788bdd14610259578063d0029d61146102d7578063dcd65479146102ea578063dfa93099146102f3578063f8fcabe314610306578063fc0fc8491461031957600080fd5b80638da5cb5b146101eb578063b4cb529a14610210578063b622870314610218578063bbb6f3471461022b578063c06d30a71461023e578063c47f00271461024657600080fd5b806328dc8ed91161011557806328dc8ed9146101ae57806329cb924d146101c15780633197cbb6146101c757806334dadad5146101d057806335e9d90f146101d95780638523b7db146101e257600080fd5b806306fdde03146101525780630f1a6444146101705780631a39d8ef146101875780631d8b44c51461019057806321e76dc114610199575b600080fd5b61015a610322565b6040516101679190610fca565b60405180910390f35b61017960095481565b604051908152602001610167565b610179600b5481565b61017960085481565b6101ac6101a7366004610e0a565b6103b0565b005b6101ac6101bc366004610e0a565b61075b565b42610179565b610179600d5481565b61017960035481565b610179600c5481565b61017960075481565b6000546001600160a01b03165b6040516001600160a01b039091168152602001610167565b6101ac6107e6565b610179610226366004610f1d565b61087d565b6002546101f8906001600160a01b031681565b610179610937565b6101ac610254366004610e6c565b61099f565b6102a3610267366004610e0a565b600560205260009081526040902080546001820154600283015460038401546004909401546001600160a01b0390931693919290919060ff1685565b604080516001600160a01b03909616865260208601949094529284019190915260608301521515608082015260a001610167565b6101f86102e5366004610f98565b610a1f565b610179600a5481565b610179610301366004610e0a565b610a49565b6101ac610314366004610e25565b610ab4565b610179600e5481565b6001805461032f906110b3565b80601f016020809104026020016040519081016040528092919081815260200182805461035b906110b3565b80156103a85780601f1061037d576101008083540402835291602001916103a8565b820191906000526020600020905b81548152906001019060200180831161038b57829003601f168201915b505050505081565b336001600160a01b03821614806103d157506000546001600160a01b031633145b806103e657506004546001600160a01b031633145b61045d5760405162461bcd60e51b815260206004820152603760248201527f56455354494e474255434b45543a2063616e206f6e6c792063616c6c2066726f60448201527f6d20636c61696d61646472657373206f72206f776e657200000000000000000060648201526084015b60405180910390fd5b6001600160a01b03811660009081526005602052604090206004015460ff166104d45760405162461bcd60e51b815260206004820152602360248201527f56455354494e474255434b45543a20636c61696d20646f6573206e6f742065786044820152621a5cdd60ea1b6064820152608401610454565b6001600160a01b038082166000908152600560209081526040808320815160a0810183528154909516855260018101549285019290925260028201549084015260038101546060840152600481015460ff1615156080840152916105379061087d565b9050600082600301548261054b919061109c565b9050600081846003015461055f9190611062565b905083600101548111156105cd5760405162461bcd60e51b815260206004820152602f60248201527f56455354494e474255434b45543a2063616e206e6f742077697468647261772060448201526e1b5bdc99481d1a185b881d1bdd185b608a1b6064820152608401610454565b6000821161061d5760405162461bcd60e51b815260206004820181905260248201527f56455354494e474255434b45543a206e6f20616d6f756e7420636c61696d65646044820152606401610454565b60025460405163a9059cbb60e01b81526001600160a01b038781166004830152602482018590529091169063a9059cbb90604401602060405180830381600087803b15801561066b57600080fd5b505af115801561067f573d6000803e3d6000fd5b505050506040513d601f19601f820116820180604052508101906106a39190610e4f565b6106e15760405162461bcd60e51b815260206004820152600f60248201526e1d1c985b9cd9995c8819985a5b1959608a1b6044820152606401610454565b83546040518381526001600160a01b03909116907f394a4e97a8193f113cce457fc16cabc66ff1a10c478cdab3b82e5cc57c67bbf99060200160405180910390a2818460030160008282546107369190611062565b92505081905550816008600082825461074f9190611062565b90915550505050505050565b3361076e6000546001600160a01b031690565b6001600160a01b0316146107c45760405162461bcd60e51b815260206004820181905260248201527f4f776e61626c653a2063616c6c6572206973206e6f7420746865206f776e65726044820152606401610454565b600480546001600160a01b0319166001600160a01b0392909216919091179055565b6004546001600160a01b031633148061080957506000546001600160a01b031633145b6108255760405162461bcd60e51b81526004016104549061101f565b60005b600e5481101561087a576000600682815481106108475761084761111f565b6000918252602090912001546001600160a01b03169050610867816103b0565b5080610872816110ee565b915050610828565b50565b600954600d5460408381015160208501519151633f6b939360e11b8152426004820181905260248201959095526044810193909352606483015260848201526000919073__VestingMath___________________________90637ed727269060a4015b60206040518083038186803b1580156108f857600080fd5b505af415801561090c573d6000803e3d6000fd5b505050506040513d601f19601f820116820180604052508101906109309190610fb1565b9392505050565b600954600d54600c54600b54604051633f6b939360e11b81524260048201819052602482019590955260448101939093526064830191909152608482015260009190829073__VestingMath___________________________90637ed727269060a4016108e0565b336109b26000546001600160a01b031690565b6001600160a01b031614610a085760405162461bcd60e51b815260206004820181905260248201527f4f776e61626c653a2063616c6c6572206973206e6f7420746865206f776e65726044820152606401610454565b8051610a1b906001906020840190610d55565b5050565b60068181548110610a2f57600080fd5b6000918252602090912001546001600160a01b0316905081565b6001600160a01b038082166000908152600560209081526040808320815160a08101835281549095168552600181015492850192909252600282015490840152600381015460608401526004015460ff16151560808301529081610aac8261087d565b949350505050565b6004546001600160a01b0316331480610ad757506000546001600160a01b031633145b610af35760405162461bcd60e51b81526004016104549061101f565b6001600160a01b03821660009081526005602052604090206004015460ff1615610b7b5760405162461bcd60e51b815260206004820152603360248201527f56455354494e474255434b45543a20636c61696d2061742074686973206164646044820152727265737320616c72656164792065786973747360681b6064820152608401610454565b600b5481600754610b8c9190611062565b1115610bef5760405162461bcd60e51b815260206004820152602c60248201527f56455354494e474255434b45543a2063616e206e6f7420636c61696d206d6f7260448201526b19481d1a185b881d1bdd185b60a21b6064820152608401610454565b60008111610c4b5760405162461bcd60e51b8152602060048201526024808201527f56455354494e474255434b45543a20636c61696d2063616e206e6f74206265206044820152637a65726f60e01b6064820152608401610454565b6000600a5482610c5b919061107a565b6040805160a0810182526001600160a01b03808716808352602080840188815284860187815260006060870181815260016080890181815287845260059096529882209751885497166001600160a01b0319978816178855925187890155905160028701559051600386015590516004909401805494151560ff199095169490941790935560068054948501815583527ff652222313e28459528d920b65115c16c04f3efc82aaedc97be59f3f377c0d3f9093018054909116909217909155600780549293508492909190610d31908490611062565b925050819055506001600e6000828254610d4b9190611062565b9091555050505050565b828054610d61906110b3565b90600052602060002090601f016020900481019282610d835760008555610dc9565b82601f10610d9c57805160ff1916838001178555610dc9565b82800160010185558215610dc9579182015b82811115610dc9578251825591602001919060010190610dae565b50610dd5929150610dd9565b5090565b5b80821115610dd55760008155600101610dda565b80356001600160a01b0381168114610e0557600080fd5b919050565b600060208284031215610e1c57600080fd5b61093082610dee565b60008060408385031215610e3857600080fd5b610e4183610dee565b946020939093013593505050565b600060208284031215610e6157600080fd5b81516109308161114b565b600060208284031215610e7e57600080fd5b813567ffffffffffffffff80821115610e9657600080fd5b818401915084601f830112610eaa57600080fd5b813581811115610ebc57610ebc611135565b604051601f8201601f19908116603f01168101908382118183101715610ee457610ee4611135565b81604052828152876020848701011115610efd57600080fd5b826020860160208301376000928101602001929092525095945050505050565b600060a08284031215610f2f57600080fd5b60405160a0810181811067ffffffffffffffff82111715610f5257610f52611135565b604052610f5e83610dee565b81526020830135602082015260408301356040820152606083013560608201526080830135610f8c8161114b565b60808201529392505050565b600060208284031215610faa57600080fd5b5035919050565b600060208284031215610fc357600080fd5b5051919050565b600060208083528351808285015260005b81811015610ff757858101830151858201604001528201610fdb565b81811115611009576000604083870101525b50601f01601f1916929092016040019392505050565b60208082526023908201527f4f776e61626c653a2063616c6c6572206973206e6f7420746865207265666f776040820152623732b960e91b606082015260800190565b6000821982111561107557611075611109565b500190565b60008261109757634e487b7160e01b600052601260045260246000fd5b500490565b6000828210156110ae576110ae611109565b500390565b600181811c908216806110c757607f821691505b602082108114156110e857634e487b7160e01b600052602260045260246000fd5b50919050565b600060001982141561110257611102611109565b5060010190565b634e487b7160e01b600052601160045260246000fd5b634e487b7160e01b600052603260045260246000fd5b634e487b7160e01b600052604160045260246000fd5b801515811461087a57600080fdfea264697066735822122091f9a8a98bbc69e6a74f82e233d2b66bf3ef765f370480c9e46b5a940f153ebd64736f6c63430008050033a26469706673582212205263ab7c4e22a30acae9806e16eb825b61f2425f1e27c89f14127795656864b764736f6c6343000805003360806040523480156200001157600080fd5b50600080546001600160a01b03191633179055620000326012600a62000126565b6200004290633b9aca00620001f4565b600355620000536012600a62000126565b6200006390633b9aca00620001f4565b600080546001600160a01b039081168252600160205260408220929092558054909116907fddf252ad1be2c89b69c2b068fc378daa952ba7f163c4a11628f55a4df523b3ef620000b66012600a62000126565b620000c690633b9aca00620001f4565b60405190815260200160405180910390a36200022c565b600181815b808511156200011e57816000190482111562000102576200010262000216565b808516156200011057918102915b93841c9390800290620000e2565b509250929050565b60006200013760ff8416836200013e565b9392505050565b6000826200014f57506001620001ee565b816200015e57506000620001ee565b81600181146200017757600281146200018257620001a2565b6001915050620001ee565b60ff84111562000196576200019662000216565b50506001821b620001ee565b5060208310610133831016604e8410600b8410161715620001c7575081810a620001ee565b620001d38383620000dd565b8060001904821115620001ea57620001ea62000216565b0290505b92915050565b600081600019048311821515161562000211576200021162000216565b500290565b634e487b7160e01b600052601160045260246000fd5b61086b806200023c6000396000f3fe608060405234801561001057600080fd5b50600436106100a95760003560e01c8063313ce56711610071578063313ce5671461014757806332cb6b0c1461014e57806370a082311461015657806395d89b411461017f578063a9059cbb1461019f578063dd62ed3e146101b257600080fd5b806306fdde03146100ae578063095ea7b3146100e557806318160ddd1461010857806323b872dd1461011a5780632e0f26251461012d575b600080fd5b6040805180820190915260098152682b32b3b0aa37b5b2b760b91b60208201525b6040516100dc91906106a5565b60405180910390f35b6100f86100f336600461067b565b6101eb565b60405190151581526020016100dc565b6003545b6040519081526020016100dc565b6100f861012836600461063f565b610202565b610135601281565b60405160ff90911681526020016100dc565b6012610135565b61010c6102b1565b61010c6101643660046105ea565b6001600160a01b031660009081526001602052604090205490565b6040805180820190915260048152635645474160e01b60208201526100cf565b6100f86101ad36600461067b565b6102ce565b61010c6101c036600461060c565b6001600160a01b03918216600090815260026020908152604080832093909416825291909152205490565b60006101f83384846102db565b5060015b92915050565b600061020f8484846103ff565b6001600160a01b0384166000908152600260209081526040808320338452909152902054828110156102995760405162461bcd60e51b815260206004820152602860248201527f45524332303a207472616e7366657220616d6f756e74206578636565647320616044820152676c6c6f77616e636560c01b60648201526084015b60405180910390fd5b6102a685338584036102db565b506001949350505050565b6102bd6012600a610755565b6102cb90633b9aca00610800565b81565b60006101f83384846103ff565b6001600160a01b03831661033d5760405162461bcd60e51b8152602060048201526024808201527f45524332303a20617070726f76652066726f6d20746865207a65726f206164646044820152637265737360e01b6064820152608401610290565b6001600160a01b03821661039e5760405162461bcd60e51b815260206004820152602260248201527f45524332303a20617070726f766520746f20746865207a65726f206164647265604482015261737360f01b6064820152608401610290565b6001600160a01b0383811660008181526002602090815260408083209487168084529482529182902085905590518481527f8c5be1e5ebec7d5bd14f71427d1e84f3dd0314c0f7b2291e5b200ac8c7c3b925910160405180910390a3505050565b6001600160a01b0383166104635760405162461bcd60e51b815260206004820152602560248201527f45524332303a207472616e736665722066726f6d20746865207a65726f206164604482015264647265737360d81b6064820152608401610290565b6001600160a01b0382166104c55760405162461bcd60e51b815260206004820152602360248201527f45524332303a207472616e7366657220746f20746865207a65726f206164647260448201526265737360e81b6064820152608401610290565b6001600160a01b0383166000908152600160205260409020548181101561053d5760405162461bcd60e51b815260206004820152602660248201527f45524332303a207472616e7366657220616d6f756e7420657863656564732062604482015265616c616e636560d01b6064820152608401610290565b6001600160a01b038085166000908152600160205260408082208585039055918516815290812080548492906105749084906106fa565b92505081905550826001600160a01b0316846001600160a01b03167fddf252ad1be2c89b69c2b068fc378daa952ba7f163c4a11628f55a4df523b3ef846040516105c091815260200190565b60405180910390a350505050565b80356001600160a01b03811681146105e557600080fd5b919050565b6000602082840312156105fc57600080fd5b610605826105ce565b9392505050565b6000806040838503121561061f57600080fd5b610628836105ce565b9150610636602084016105ce565b90509250929050565b60008060006060848603121561065457600080fd5b61065d846105ce565b925061066b602085016105ce565b9150604084013590509250925092565b6000806040838503121561068e57600080fd5b610697836105ce565b946020939093013593505050565b600060208083528351808285015260005b818110156106d2578581018301518582016040015282016106b6565b818111156106e4576000604083870101525b50601f01601f1916929092016040019392505050565b6000821982111561070d5761070d61081f565b500190565b600181815b8085111561074d5781600019048211156107335761073361081f565b8085161561074057918102915b93841c9390800290610717565b509250929050565b600061060560ff84168360008261076e575060016101fc565b8161077b575060006101fc565b8160018114610791576002811461079b576107b7565b60019150506101fc565b60ff8411156107ac576107ac61081f565b50506001821b6101fc565b5060208310610133831016604e8410600b84101617156107da575081810a6101fc565b6107e48383610712565b80600019048211156107f8576107f861081f565b029392505050565b600081600019048311821515161561081a5761081a61081f565b500290565b634e487b7160e01b600052601160045260246000fdfea2646970667358221220d56ac17a8dcadde7ad2b71ae364ccb2e28b217f5e45a286f7d54523b1037179164736f6c63430008050033",
  "bytecodeSha1": "c60529624cf4b20b4cb8935dec35610b25b49c70",
  "compiler": {
    "evm_version": "istanbul",
    "optimizer": {
      "enabled": true,
      "runs": 200
    },
    "version": "0.8.5+commit.a4f2e591"
  },
  "contractName": "VegaMaster",
  "deployedBytecode": "608060405234801561001057600080fd5b506004361061007d5760003560e01c80639b51fb0d1161005b5780639b51fb0d146100d8578063bbb6f347146100eb578063d5abeb01146100fe578063dc5202921461011457600080fd5b806368a87b0e1461008257806383429d0e146100b25780638da5cb5b146100c7575b600080fd5b600254610095906001600160a01b031681565b6040516001600160a01b0390911681526020015b60405180910390f35b6100c56100c036600461051a565b61011d565b005b6000546001600160a01b0316610095565b6100956100e63660046104e8565b610339565b600154610095906001600160a01b031681565b610106610363565b6040519081526020016100a9565b61010660065481565b336101306000546001600160a01b031690565b6001600160a01b03161461018b5760405162461bcd60e51b815260206004820181905260248201527f4f776e61626c653a2063616c6c6572206973206e6f7420746865206f776e657260448201526064015b60405180910390fd5b6002546000906001600160a01b03166101a4864261063a565b84846040516101b2906104b2565b6001600160a01b039094168452602084019290925260408301526060820152608001604051809103906000f0801580156101f0573d6000803e3d6000fd5b509050806001600160a01b03166328dc8ed96102146000546001600160a01b031690565b6040516001600160e01b031960e084901b1681526001600160a01b039091166004820152602401600060405180830381600087803b15801561025557600080fd5b505af1158015610269573d6000803e3d6000fd5b505060405163c47f002760e01b81526001600160a01b038416925063c47f002791506102999087906004016105e5565b600060405180830381600087803b1580156102b357600080fd5b505af11580156102c7573d6000803e3d6000fd5b50505050806005600654815481106102e1576102e1610660565b9060005260206000200160006101000a8154816001600160a01b0302191690836001600160a01b03160217905550600160066000828254610322919061063a565b90915550610332905081836103e5565b5050505050565b6005818154811061034957600080fd5b6000918252602090912001546001600160a01b0316905081565b60015460408051630cb2dac360e21b815290516000926001600160a01b0316916332cb6b0c916004808301926020929190829003018186803b1580156103a857600080fd5b505afa1580156103bc573d6000803e3d6000fd5b505050506040513d601f19601f820116820180604052508101906103e09190610501565b905090565b60015460405163a9059cbb60e01b81526001600160a01b03848116600483015260248201849052600092169063a9059cbb90604401602060405180830381600087803b15801561043457600080fd5b505af1158015610448573d6000803e3d6000fd5b505050506040513d601f19601f8201168201806040525081019061046c91906104bf565b9050806104ad5760405162461bcd60e51b815260206004820152600f60248201526e1d1c985b9cd9995c8819985a5b1959608a1b6044820152606401610182565b505050565b6113c58061068d83390190565b6000602082840312156104d157600080fd5b815180151581146104e157600080fd5b9392505050565b6000602082840312156104fa57600080fd5b5035919050565b60006020828403121561051357600080fd5b5051919050565b6000806000806080858703121561053057600080fd5b84359350602085013567ffffffffffffffff8082111561054f57600080fd5b818701915087601f83011261056357600080fd5b81358181111561057557610575610676565b604051601f8201601f19908116603f0116810190838211818310171561059d5761059d610676565b816040528281528a60208487010111156105b657600080fd5b826020860160208301376000928101602001929092525095989597505050506040840135936060013592915050565b600060208083528351808285015260005b81811015610612578581018301518582016040015282016105f6565b81811115610624576000604083870101525b50601f01601f1916929092016040019392505050565b6000821982111561065b57634e487b7160e01b600052601160045260246000fd5b500190565b634e487b7160e01b600052603260045260246000fd5b634e487b7160e01b600052604160045260246000fdfe60806040523480156200001157600080fd5b50604051620013c5380380620013c583398101604081905262000034916200019c565b60008054336001600160a01b031991821617909155600280549091166001600160a01b038616179055426003819055831015620000c95760405162461bcd60e51b815260206004820152602960248201527f56455354494e474255434b455420636c696666206d75737420626520696e207460448201526868652066757475726560b81b606482015260840160405180910390fd5b6009839055600a829055600b819055620000e4828262000203565b600c81905560405163556b30b960e11b81526004810185905260248101919091526044810182905273__$5e6753039be095b2af09f6e281dd6eeca6$__9063aad661729060640160206040518083038186803b1580156200014457600080fd5b505af415801562000159573d6000803e3d6000fd5b505050506040513d601f19601f820116820180604052508101906200017f9190620001e9565b600d555050600060088190556007819055600e5550620002269050565b60008060008060808587031215620001b357600080fd5b84516001600160a01b0381168114620001cb57600080fd5b60208601516040870151606090970151919890975090945092505050565b600060208284031215620001fc57600080fd5b5051919050565b6000826200022157634e487b7160e01b600052601260045260246000fd5b500490565b61118f80620002366000396000f3fe608060405234801561001057600080fd5b506004361061014d5760003560e01c80638da5cb5b116100c3578063c6788bdd1161007c578063c6788bdd14610259578063d0029d61146102d7578063dcd65479146102ea578063dfa93099146102f3578063f8fcabe314610306578063fc0fc8491461031957600080fd5b80638da5cb5b146101eb578063b4cb529a14610210578063b622870314610218578063bbb6f3471461022b578063c06d30a71461023e578063c47f00271461024657600080fd5b806328dc8ed91161011557806328dc8ed9146101ae57806329cb924d146101c15780633197cbb6146101c757806334dadad5146101d057806335e9d90f146101d95780638523b7db146101e257600080fd5b806306fdde03146101525780630f1a6444146101705780631a39d8ef146101875780631d8b44c51461019057806321e76dc114610199575b600080fd5b61015a610322565b6040516101679190610fca565b60405180910390f35b61017960095481565b604051908152602001610167565b610179600b5481565b61017960085481565b6101ac6101a7366004610e0a565b6103b0565b005b6101ac6101bc366004610e0a565b61075b565b42610179565b610179600d5481565b61017960035481565b610179600c5481565b61017960075481565b6000546001600160a01b03165b6040516001600160a01b039091168152602001610167565b6101ac6107e6565b610179610226366004610f1d565b61087d565b6002546101f8906001600160a01b031681565b610179610937565b6101ac610254366004610e6c565b61099f565b6102a3610267366004610e0a565b600560205260009081526040902080546001820154600283015460038401546004909401546001600160a01b0390931693919290919060ff1685565b604080516001600160a01b03909616865260208601949094529284019190915260608301521515608082015260a001610167565b6101f86102e5366004610f98565b610a1f565b610179600a5481565b610179610301366004610e0a565b610a49565b6101ac610314366004610e25565b610ab4565b610179600e5481565b6001805461032f906110b3565b80601f016020809104026020016040519081016040528092919081815260200182805461035b906110b3565b80156103a85780601f1061037d576101008083540402835291602001916103a8565b820191906000526020600020905b81548152906001019060200180831161038b57829003601f168201915b505050505081565b336001600160a01b03821614806103d157506000546001600160a01b031633145b806103e657506004546001600160a01b031633145b61045d5760405162461bcd60e51b815260206004820152603760248201527f56455354494e474255434b45543a2063616e206f6e6c792063616c6c2066726f60448201527f6d20636c61696d61646472657373206f72206f776e657200000000000000000060648201526084015b60405180910390fd5b6001600160a01b03811660009081526005602052604090206004015460ff166104d45760405162461bcd60e51b815260206004820152602360248201527f56455354494e474255434b45543a20636c61696d20646f6573206e6f742065786044820152621a5cdd60ea1b6064820152608401610454565b6001600160a01b038082166000908152600560209081526040808320815160a0810183528154909516855260018101549285019290925260028201549084015260038101546060840152600481015460ff1615156080840152916105379061087d565b9050600082600301548261054b919061109c565b9050600081846003015461055f9190611062565b905083600101548111156105cd5760405162461bcd60e51b815260206004820152602f60248201527f56455354494e474255434b45543a2063616e206e6f742077697468647261772060448201526e1b5bdc99481d1a185b881d1bdd185b608a1b6064820152608401610454565b6000821161061d5760405162461bcd60e51b815260206004820181905260248201527f56455354494e474255434b45543a206e6f20616d6f756e7420636c61696d65646044820152606401610454565b60025460405163a9059cbb60e01b81526001600160a01b038781166004830152602482018590529091169063a9059cbb90604401602060405180830381600087803b15801561066b57600080fd5b505af115801561067f573d6000803e3d6000fd5b505050506040513d601f19601f820116820180604052508101906106a39190610e4f565b6106e15760405162461bcd60e51b815260206004820152600f60248201526e1d1c985b9cd9995c8819985a5b1959608a1b6044820152606401610454565b83546040518381526001600160a01b03909116907f394a4e97a8193f113cce457fc16cabc66ff1a10c478cdab3b82e5cc57c67bbf99060200160405180910390a2818460030160008282546107369190611062565b92505081905550816008600082825461074f9190611062565b90915550505050505050565b3361076e6000546001600160a01b031690565b6001600160a01b0316146107c45760405162461bcd60e51b815260206004820181905260248201527f4f776e61626c653a2063616c6c6572206973206e6f7420746865206f776e65726044820152606401610454565b600480546001600160a01b0319166001600160a01b0392909216919091179055565b6004546001600160a01b031633148061080957506000546001600160a01b031633145b6108255760405162461bcd60e51b81526004016104549061101f565b60005b600e5481101561087a576000600682815481106108475761084761111f565b6000918252602090912001546001600160a01b03169050610867816103b0565b5080610872816110ee565b915050610828565b50565b600954600d5460408381015160208501519151633f6b939360e11b8152426004820181905260248201959095526044810193909352606483015260848201526000919073__$5e6753039be095b2af09f6e281dd6eeca6$__90637ed727269060a4015b60206040518083038186803b1580156108f857600080fd5b505af415801561090c573d6000803e3d6000fd5b505050506040513d601f19601f820116820180604052508101906109309190610fb1565b9392505050565b600954600d54600c54600b54604051633f6b939360e11b81524260048201819052602482019590955260448101939093526064830191909152608482015260009190829073__$5e6753039be095b2af09f6e281dd6eeca6$__90637ed727269060a4016108e0565b336109b26000546001600160a01b031690565b6001600160a01b031614610a085760405162461bcd60e51b815260206004820181905260248201527f4f776e61626c653a2063616c6c6572206973206e6f7420746865206f776e65726044820152606401610454565b8051610a1b906001906020840190610d55565b5050565b60068181548110610a2f57600080fd5b6000918252602090912001546001600160a01b0316905081565b6001600160a01b038082166000908152600560209081526040808320815160a08101835281549095168552600181015492850192909252600282015490840152600381015460608401526004015460ff16151560808301529081610aac8261087d565b949350505050565b6004546001600160a01b0316331480610ad757506000546001600160a01b031633145b610af35760405162461bcd60e51b81526004016104549061101f565b6001600160a01b03821660009081526005602052604090206004015460ff1615610b7b5760405162461bcd60e51b815260206004820152603360248201527f56455354494e474255434b45543a20636c61696d2061742074686973206164646044820152727265737320616c72656164792065786973747360681b6064820152608401610454565b600b5481600754610b8c9190611062565b1115610bef5760405162461bcd60e51b815260206004820152602c60248201527f56455354494e474255434b45543a2063616e206e6f7420636c61696d206d6f7260448201526b19481d1a185b881d1bdd185b60a21b6064820152608401610454565b60008111610c4b5760405162461bcd60e51b8152602060048201526024808201527f56455354494e474255434b45543a20636c61696d2063616e206e6f74206265206044820152637a65726f60e01b6064820152608401610454565b6000600a5482610c5b919061107a565b6040805160a0810182526001600160a01b03808716808352602080840188815284860187815260006060870181815260016080890181815287845260059096529882209751885497166001600160a01b0319978816178855925187890155905160028701559051600386015590516004909401805494151560ff199095169490941790935560068054948501815583527ff652222313e28459528d920b65115c16c04f3efc82aaedc97be59f3f377c0d3f9093018054909116909217909155600780549293508492909190610d31908490611062565b925050819055506001600e6000828254610d4b9190611062565b9091555050505050565b828054610d61906110b3565b90600052602060002090601f016020900481019282610d835760008555610dc9565b82601f10610d9c57805160ff1916838001178555610dc9565b82800160010185558215610dc9579182015b82811115610dc9578251825591602001919060010190610dae565b50610dd5929150610dd9565b5090565b5b80821115610dd55760008155600101610dda565b80356001600160a01b0381168114610e0557600080fd5b919050565b600060208284031215610e1c57600080fd5b61093082610dee565b60008060408385031215610e3857600080fd5b610e4183610dee565b946020939093013593505050565b600060208284031215610e6157600080fd5b81516109308161114b565b600060208284031215610e7e57600080fd5b813567ffffffffffffffff80821115610e9657600080fd5b818401915084601f830112610eaa57600080fd5b813581811115610ebc57610ebc611135565b604051601f8201601f19908116603f01168101908382118183101715610ee457610ee4611135565b81604052828152876020848701011115610efd57600080fd5b826020860160208301376000928101602001929092525095945050505050565b600060a08284031215610f2f57600080fd5b60405160a0810181811067ffffffffffffffff82111715610f5257610f52611135565b604052610f5e83610dee565b81526020830135602082015260408301356040820152606083013560608201526080830135610f8c8161114b565b60808201529392505050565b600060208284031215610faa57600080fd5b5035919050565b600060208284031215610fc357600080fd5b5051919050565b600060208083528351808285015260005b81811015610ff757858101830151858201604001528201610fdb565b81811115611009576000604083870101525b50601f01601f1916929092016040019392505050565b60208082526023908201527f4f776e61626c653a2063616c6c6572206973206e6f7420746865207265666f776040820152623732b960e91b606082015260800190565b6000821982111561107557611075611109565b500190565b60008261109757634e487b7160e01b600052601260045260246000fd5b500490565b6000828210156110ae576110ae611109565b500390565b600181811c908216806110c757607f821691505b602082108114156110e857634e487b7160e01b600052602260045260246000fd5b50919050565b600060001982141561110257611102611109565b5060010190565b634e487b7160e01b600052601160045260246000fd5b634e487b7160e01b600052603260045260246000fd5b634e487b7160e01b600052604160045260246000fd5b801515811461087a57600080fdfea264697066735822122091f9a8a98bbc69e6a74f82e233d2b66bf3ef765f370480c9e46b5a940f153ebd64736f6c63430008050033a26469706673582212205263ab7c4e22a30acae9806e16eb825b61f2425f1e27c89f14127795656864b764736f6c63430008050033",
  "language": "Solidity",
  "natspec": {
    "kind": "dev",
    "methods": {
      "owner()": {
        "details": "Returns the address of the current owner."
      }
    },
    "version": 1
  },
  "opcodes": "PUSH1 0x80 PUSH1 0x40 MSTORE CALLVALUE DUP1 ISZERO PUSH2 0x10 JUMPI PUSH1 0x0 DUP1 REVERT JUMPDEST POP PUSH1 0x4 CALLDATASIZE LT PUSH2 0x7D JUMPI PUSH1 0x0 CALLDATALOAD PUSH1 0xE0 SHR DUP1 PUSH4 0x9B51FB0D GT PUSH2 0x5B JUMPI DUP1 PUSH4 0x9B51FB0D EQ PUSH2 0xD8 JUMPI DUP1 PUSH4 0xBBB6F347 EQ PUSH2 0xEB JUMPI DUP1 PUSH4 0xD5ABEB01 EQ PUSH2 0xFE JUMPI DUP1 PUSH4 0xDC520292 EQ PUSH2 0x114 JUMPI PUSH1 0x0 DUP1 REVERT JUMPDEST DUP1 PUSH4 0x68A87B0E EQ PUSH2 0x82 JUMPI DUP1 PUSH4 0x83429D0E EQ PUSH2 0xB2 JUMPI DUP1 PUSH4 0x8DA5CB5B EQ PUSH2 0xC7 JUMPI JUMPDEST PUSH1 0x0 DUP1 REVERT JUMPDEST PUSH1 0x2 SLOAD PUSH2 0x95 SWAP1 PUSH1 0x1 PUSH1 0x1 PUSH1 0xA0 SHL SUB AND DUP2 JUMP JUMPDEST PUSH1 0x40 MLOAD PUSH1 0x1 PUSH1 0x1 PUSH1 0xA0 SHL SUB SWAP1 SWAP2 AND DUP2 MSTORE PUSH1 0x20 ADD JUMPDEST PUSH1 0x40 MLOAD DUP1 SWAP2 SUB SWAP1 RETURN JUMPDEST PUSH2 0xC5 PUSH2 0xC0 CALLDATASIZE PUSH1 0x4 PUSH2 0x51A JUMP JUMPDEST PUSH2 0x11D JUMP JUMPDEST STOP JUMPDEST PUSH1 0x0 SLOAD PUSH1 0x1 PUSH1 0x1 PUSH1 0xA0 SHL SUB AND PUSH2 0x95 JUMP JUMPDEST PUSH2 0x95 PUSH2 0xE6 CALLDATASIZE PUSH1 0x4 PUSH2 0x4E8 JUMP JUMPDEST PUSH2 0x339 JUMP JUMPDEST PUSH1 0x1 SLOAD PUSH2 0x95 SWAP1 PUSH1 0x1 PUSH1 0x1 PUSH1 0xA0 SHL SUB AND DUP2 JUMP JUMPDEST PUSH2 0x106 PUSH2 0x363 JUMP JUMPDEST PUSH1 0x40 MLOAD SWAP1 DUP2 MSTORE PUSH1 0x20 ADD PUSH2 0xA9 JUMP JUMPDEST PUSH2 0x106 PUSH1 0x6 SLOAD DUP2 JUMP JUMPDEST CALLER PUSH2 0x130 PUSH1 0x0 SLOAD PUSH1 0x1 PUSH1 0x1 PUSH1 0xA0 SHL SUB AND SWAP1 JUMP JUMPDEST PUSH1 0x1 PUSH1 0x1 PUSH1 0xA0 SHL SUB AND EQ PUSH2 0x18B JUMPI PUSH1 0x40 MLOAD PUSH3 0x461BCD PUSH1 0xE5 SHL DUP2 MSTORE PUSH1 0x20 PUSH1 0x4 DUP3 ADD DUP2 SWAP1 MSTORE PUSH1 0x24 DUP3 ADD MSTORE PUSH32 0x4F776E61626C653A2063616C6C6572206973206E6F7420746865206F776E6572 PUSH1 0x44 DUP3 ADD MSTORE PUSH1 0x64 ADD JUMPDEST PUSH1 0x40 MLOAD DUP1 SWAP2 SUB SWAP1 REVERT JUMPDEST PUSH1 0x2 SLOAD PUSH1 0x0 SWAP1 PUSH1 0x1 PUSH1 0x1 PUSH1 0xA0 SHL SUB AND PUSH2 0x1A4 DUP7 TIMESTAMP PUSH2 0x63A JUMP JUMPDEST DUP5 DUP5 PUSH1 0x40 MLOAD PUSH2 0x1B2 SWAP1 PUSH2 0x4B2 JUMP JUMPDEST PUSH1 0x1 PUSH1 0x1 PUSH1 0xA0 SHL SUB SWAP1 SWAP5 AND DUP5 MSTORE PUSH1 0x20 DUP5 ADD SWAP3 SWAP1 SWAP3 MSTORE PUSH1 0x40 DUP4 ADD MSTORE PUSH1 0x60 DUP3 ADD MSTORE PUSH1 0x80 ADD PUSH1 0x40 MLOAD DUP1 SWAP2 SUB SWAP1 PUSH1 0x0 CREATE DUP1 ISZERO DUP1 ISZERO PUSH2 0x1F0 JUMPI RETURNDATASIZE PUSH1 0x0 DUP1 RETURNDATACOPY RETURNDATASIZE PUSH1 0x0 REVERT JUMPDEST POP SWAP1 POP DUP1 PUSH1 0x1 PUSH1 0x1 PUSH1 0xA0 SHL SUB AND PUSH4 0x28DC8ED9 PUSH2 0x214 PUSH1 0x0 SLOAD PUSH1 0x1 PUSH1 0x1 PUSH1 0xA0 SHL SUB AND SWAP1 JUMP JUMPDEST PUSH1 0x40 MLOAD PUSH1 0x1 PUSH1 0x1 PUSH1 0xE0 SHL SUB NOT PUSH1 0xE0 DUP5 SWAP1 SHL AND DUP2 MSTORE PUSH1 0x1 PUSH1 0x1 PUSH1 0xA0 SHL SUB SWAP1 SWAP2 AND PUSH1 0x4 DUP3 ADD MSTORE PUSH1 0x24 ADD PUSH1 0x0 PUSH1 0x40 MLOAD DUP1 DUP4 SUB DUP2 PUSH1 0x0 DUP8 DUP1 EXTCODESIZE ISZERO DUP1 ISZERO PUSH2 0x255 JUMPI PUSH1 0x0 DUP1 REVERT JUMPDEST POP GAS CALL ISZERO DUP1 ISZERO PUSH2 0x269 JUMPI RETURNDATASIZE PUSH1 0x0 DUP1 RETURNDATACOPY RETURNDATASIZE PUSH1 0x0 REVERT JUMPDEST POP POP PUSH1 0x40 MLOAD PUSH4 0xC47F0027 PUSH1 0xE0 SHL DUP2 MSTORE PUSH1 0x1 PUSH1 0x1 PUSH1 0xA0 SHL SUB DUP5 AND SWAP3 POP PUSH4 0xC47F0027 SWAP2 POP PUSH2 0x299 SWAP1 DUP8 SWAP1 PUSH1 0x4 ADD PUSH2 0x5E5 JUMP JUMPDEST PUSH1 0x0 PUSH1 0x40 MLOAD DUP1 DUP4 SUB DUP2 PUSH1 0x0 DUP8 DUP1 EXTCODESIZE ISZERO DUP1 ISZERO PUSH2 0x2B3 JUMPI PUSH1 0x0 DUP1 REVERT JUMPDEST POP GAS CALL ISZERO DUP1 ISZERO PUSH2 0x2C7 JUMPI RETURNDATASIZE PUSH1 0x0 DUP1 RETURNDATACOPY RETURNDATASIZE PUSH1 0x0 REVERT JUMPDEST POP POP POP POP DUP1 PUSH1 0x5 PUSH1 0x6 SLOAD DUP2 SLOAD DUP2 LT PUSH2 0x2E1 JUMPI PUSH2 0x2E1 PUSH2 0x660 JUMP JUMPDEST SWAP1 PUSH1 0x0 MSTORE PUSH1 0x20 PUSH1 0x0 KECCAK256 ADD PUSH1 0x0 PUSH2 0x100 EXP DUP2 SLOAD DUP2 PUSH1 0x1 PUSH1 0x1 PUSH1 0xA0 SHL SUB MUL NOT AND SWAP1 DUP4 PUSH1 0x1 PUSH1 0x1 PUSH1 0xA0 SHL SUB AND MUL OR SWAP1 SSTORE POP PUSH1 0x1 PUSH1 0x6 PUSH1 0x0 DUP3 DUP3 SLOAD PUSH2 0x322 SWAP2 SWAP1 PUSH2 0x63A JUMP JUMPDEST SWAP1 SWAP2 SSTORE POP PUSH2 0x332 SWAP1 POP DUP2 DUP4 PUSH2 0x3E5 JUMP JUMPDEST POP POP POP POP POP JUMP JUMPDEST PUSH1 0x5 DUP2 DUP2 SLOAD DUP2 LT PUSH2 0x349 JUMPI PUSH1 0x0 DUP1 REVERT JUMPDEST PUSH1 0x0 SWAP2 DUP3 MSTORE PUSH1 0x20 SWAP1 SWAP2 KECCAK256 ADD SLOAD PUSH1 0x1 PUSH1 0x1 PUSH1 0xA0 SHL SUB AND SWAP1 POP DUP2 JUMP JUMPDEST PUSH1 0x1 SLOAD PUSH1 0x40 DUP1 MLOAD PUSH4 0xCB2DAC3 PUSH1 0xE2 SHL DUP2 MSTORE SWAP1 MLOAD PUSH1 0x0 SWAP3 PUSH1 0x1 PUSH1 0x1 PUSH1 0xA0 SHL SUB AND SWAP2 PUSH4 0x32CB6B0C SWAP2 PUSH1 0x4 DUP1 DUP4 ADD SWAP3 PUSH1 0x20 SWAP3 SWAP2 SWAP1 DUP3 SWAP1 SUB ADD DUP2 DUP7 DUP1 EXTCODESIZE ISZERO DUP1 ISZERO PUSH2 0x3A8 JUMPI PUSH1 0x0 DUP1 REVERT JUMPDEST POP GAS STATICCALL ISZERO DUP1 ISZERO PUSH2 0x3BC JUMPI RETURNDATASIZE PUSH1 0x0 DUP1 RETURNDATACOPY RETURNDATASIZE PUSH1 0x0 REVERT JUMPDEST POP POP POP POP PUSH1 0x40 MLOAD RETURNDATASIZE PUSH1 0x1F NOT PUSH1 0x1F DUP3 ADD AND DUP3 ADD DUP1 PUSH1 0x40 MSTORE POP DUP2 ADD SWAP1 PUSH2 0x3E0 SWAP2 SWAP1 PUSH2 0x501 JUMP JUMPDEST SWAP1 POP SWAP1 JUMP JUMPDEST PUSH1 0x1 SLOAD PUSH1 0x40 MLOAD PUSH4 0xA9059CBB PUSH1 0xE0 SHL DUP2 MSTORE PUSH1 0x1 PUSH1 0x1 PUSH1 0xA0 SHL SUB DUP5 DUP2 AND PUSH1 0x4 DUP4 ADD MSTORE PUSH1 0x24 DUP3 ADD DUP5 SWAP1 MSTORE PUSH1 0x0 SWAP3 AND SWAP1 PUSH4 0xA9059CBB SWAP1 PUSH1 0x44 ADD PUSH1 0x20 PUSH1 0x40 MLOAD DUP1 DUP4 SUB DUP2 PUSH1 0x0 DUP8 DUP1 EXTCODESIZE ISZERO DUP1 ISZERO PUSH2 0x434 JUMPI PUSH1 0x0 DUP1 REVERT JUMPDEST POP GAS CALL ISZERO DUP1 ISZERO PUSH2 0x448 JUMPI RETURNDATASIZE PUSH1 0x0 DUP1 RETURNDATACOPY RETURNDATASIZE PUSH1 0x0 REVERT JUMPDEST POP POP POP POP PUSH1 0x40 MLOAD RETURNDATASIZE PUSH1 0x1F NOT PUSH1 0x1F DUP3 ADD AND DUP3 ADD DUP1 PUSH1 0x40 MSTORE POP DUP2 ADD SWAP1 PUSH2 0x46C SWAP2 SWAP1 PUSH2 0x4BF JUMP JUMPDEST SWAP1 POP DUP1 PUSH2 0x4AD JUMPI PUSH1 0x40 MLOAD PUSH3 0x461BCD PUSH1 0xE5 SHL DUP2 MSTORE PUSH1 0x20 PUSH1 0x4 DUP3 ADD MSTORE PUSH1 0xF PUSH1 0x24 DUP3 ADD MSTORE PUSH15 0x1D1C985B9CD9995C8819985A5B1959 PUSH1 0x8A SHL PUSH1 0x44 DUP3 ADD MSTORE PUSH1 0x64 ADD PUSH2 0x182 JUMP JUMPDEST POP POP POP JUMP JUMPDEST PUSH2 0x13C5 DUP1 PUSH2 0x68D DUP4 CODECOPY ADD SWAP1 JUMP JUMPDEST PUSH1 0x0 PUSH1 0x20 DUP3 DUP5 SUB SLT ISZERO PUSH2 0x4D1 JUMPI PUSH1 0x0 DUP1 REVERT JUMPDEST DUP2 MLOAD DUP1 ISZERO ISZERO DUP2 EQ PUSH2 0x4E1 JUMPI PUSH1 0x0 DUP1 REVERT JUMPDEST SWAP4 SWAP3 POP POP POP JUMP JUMPDEST PUSH1 0x0 PUSH1 0x20 DUP3 DUP5 SUB SLT ISZERO PUSH2 0x4FA JUMPI PUSH1 0x0 DUP1 REVERT JUMPDEST POP CALLDATALOAD SWAP2 SWAP1 POP JUMP JUMPDEST PUSH1 0x0 PUSH1 0x20 DUP3 DUP5 SUB SLT ISZERO PUSH2 0x513 JUMPI PUSH1 0x0 DUP1 REVERT JUMPDEST POP MLOAD SWAP2 SWAP1 POP JUMP JUMPDEST PUSH1 0x0 DUP1 PUSH1 0x0 DUP1 PUSH1 0x80 DUP6 DUP8 SUB SLT ISZERO PUSH2 0x530 JUMPI PUSH1 0x0 DUP1 REVERT JUMPDEST DUP5 CALLDATALOAD SWAP4 POP PUSH1 0x20 DUP6 ADD CALLDATALOAD PUSH8 0xFFFFFFFFFFFFFFFF DUP1 DUP3 GT ISZERO PUSH2 0x54F JUMPI PUSH1 0x0 DUP1 REVERT JUMPDEST DUP2 DUP8 ADD SWAP2 POP DUP8 PUSH1 0x1F DUP4 ADD SLT PUSH2 0x563 JUMPI PUSH1 0x0 DUP1 REVERT JUMPDEST DUP2 CALLDATALOAD DUP2 DUP2 GT ISZERO PUSH2 0x575 JUMPI PUSH2 0x575 PUSH2 0x676 JUMP JUMPDEST PUSH1 0x40 MLOAD PUSH1 0x1F DUP3 ADD PUSH1 0x1F NOT SWAP1 DUP2 AND PUSH1 0x3F ADD AND DUP2 ADD SWAP1 DUP4 DUP3 GT DUP2 DUP4 LT OR ISZERO PUSH2 0x59D JUMPI PUSH2 0x59D PUSH2 0x676 JUMP JUMPDEST DUP2 PUSH1 0x40 MSTORE DUP3 DUP2 MSTORE DUP11 PUSH1 0x20 DUP5 DUP8 ADD ADD GT ISZERO PUSH2 0x5B6 JUMPI PUSH1 0x0 DUP1 REVERT JUMPDEST DUP3 PUSH1 0x20 DUP7 ADD PUSH1 0x20 DUP4 ADD CALLDATACOPY PUSH1 0x0 SWAP3 DUP2 ADD PUSH1 0x20 ADD SWAP3 SWAP1 SWAP3 MSTORE POP SWAP6 SWAP9 SWAP6 SWAP8 POP POP POP POP PUSH1 0x40 DUP5 ADD CALLDATALOAD SWAP4 PUSH1 0x60 ADD CALLDATALOAD SWAP3 SWAP2 POP POP JUMP JUMPDEST PUSH1 0x0 PUSH1 0x20 DUP1 DUP4 MSTORE DUP4 MLOAD DUP1 DUP3 DUP6 ADD MSTORE PUSH1 0x0 JUMPDEST DUP2 DUP2 LT ISZERO PUSH2 0x612 JUMPI DUP6 DUP2 ADD DUP4 ADD MLOAD DUP6 DUP3 ADD PUSH1 0x40 ADD MSTORE DUP3 ADD PUSH2 0x5F6 JUMP JUMPDEST DUP2 DUP2 GT ISZERO PUSH2 0x624 JUMPI PUSH1 0x0 PUSH1 0x40 DUP4 DUP8 ADD ADD MSTORE JUMPDEST POP PUSH1 0x1F ADD PUSH1 0x1F NOT AND SWAP3 SWAP1 SWAP3 ADD PUSH1 0x40 ADD SWAP4 SWAP3 POP POP POP JUMP JUMPDEST PUSH1 0x0 DUP3 NOT DUP3 GT ISZERO PUSH2 0x65B JUMPI PUSH4 0x4E487B71 PUSH1 0xE0 SHL PUSH1 0x0 MSTORE PUSH1 0x11 PUSH1 0x4 MSTORE PUSH1 0x24 PUSH1 0x0 REVERT JUMPDEST POP ADD SWAP1 JUMP JUMPDEST PUSH4 0x4E487B71 PUSH1 0xE0 SHL PUSH1 0x0 MSTORE PUSH1 0x32 PUSH1 0x4 MSTORE PUSH1 0x24 PUSH1 0x0 REVERT JUMPDEST PUSH4 0x4E487B71 PUSH1 0xE0 SHL PUSH1 0x0 MSTORE PUSH1 0x41 PUSH1 0x4 MSTORE PUSH1 0x24 PUSH1 0x0 REVERT INVALID PUSH1 0x80 PUSH1 0x40 MSTORE CALLVALUE DUP1 ISZERO PUSH3 0x11 JUMPI PUSH1 0x0 DUP1 REVERT JUMPDEST POP PUSH1 0x40 MLOAD PUSH3 0x13C5 CODESIZE SUB DUP1 PUSH3 0x13C5 DUP4 CODECOPY DUP2 ADD PUSH1 0x40 DUP2 SWAP1 MSTORE PUSH3 0x34 SWAP2 PUSH3 0x19C JUMP JUMPDEST PUSH1 0x0 DUP1 SLOAD CALLER PUSH1 0x1 PUSH1 0x1 PUSH1 0xA0 SHL SUB NOT SWAP2 DUP3 AND OR SWAP1 SWAP2 SSTORE PUSH1 0x2 DUP1 SLOAD SWAP1 SWAP2 AND PUSH1 0x1 PUSH1 0x1 PUSH1 0xA0 SHL SUB DUP7 AND OR SWAP1 SSTORE TIMESTAMP PUSH1 0x3 DUP2 SWAP1 SSTORE DUP4 LT ISZERO PUSH3 0xC9 JUMPI PUSH1 0x40 MLOAD PUSH3 0x461BCD PUSH1 0xE5 SHL DUP2 MSTORE PUSH1 0x20 PUSH1 0x4 DUP3 ADD MSTORE PUSH1 0x29 PUSH1 0x24 DUP3 ADD MSTORE PUSH32 0x56455354494E474255434B455420636C696666206D75737420626520696E2074 PUSH1 0x44 DUP3 ADD MSTORE PUSH9 0x686520667574757265 PUSH1 0xB8 SHL PUSH1 0x64 DUP3 ADD MSTORE PUSH1 0x84 ADD PUSH1 0x40 MLOAD DUP1 SWAP2 SUB SWAP1 REVERT JUMPDEST PUSH1 0x9 DUP4 SWAP1 SSTORE PUSH1 0xA DUP3 SWAP1 SSTORE PUSH1 0xB DUP2 SWAP1 SSTORE PUSH3 0xE4 DUP3 DUP3 PUSH3 0x203 JUMP JUMPDEST PUSH1 0xC DUP2 SWAP1 SSTORE PUSH1 0x40 MLOAD PUSH4 0x556B30B9 PUSH1 0xE1 SHL DUP2 MSTORE PUSH1 0x4 DUP2 ADD DUP6 SWAP1 MSTORE PUSH1 0x24 DUP2 ADD SWAP2 SWAP1 SWAP2 MSTORE PUSH1 0x44 DUP2 ADD DUP3 SWAP1 MSTORE PUSH20 0x0 SWAP1 PUSH4 0xAAD66172 SWAP1 PUSH1 0x64 ADD PUSH1 0x20 PUSH1 0x40 MLOAD DUP1 DUP4 SUB DUP2 DUP7 DUP1 EXTCODESIZE ISZERO DUP1 ISZERO PUSH3 0x144 JUMPI PUSH1 0x0 DUP1 REVERT JUMPDEST POP GAS DELEGATECALL ISZERO DUP1 ISZERO PUSH3 0x159 JUMPI RETURNDATASIZE PUSH1 0x0 DUP1 RETURNDATACOPY RETURNDATASIZE PUSH1 0x0 REVERT JUMPDEST POP POP POP POP PUSH1 0x40 MLOAD RETURNDATASIZE PUSH1 0x1F NOT PUSH1 0x1F DUP3 ADD AND DUP3 ADD DUP1 PUSH1 0x40 MSTORE POP DUP2 ADD SWAP1 PUSH3 0x17F SWAP2 SWAP1 PUSH3 0x1E9 JUMP JUMPDEST PUSH1 0xD SSTORE POP POP PUSH1 0x0 PUSH1 0x8 DUP2 SWAP1 SSTORE PUSH1 0x7 DUP2 SWAP1 SSTORE PUSH1 0xE SSTORE POP PUSH3 0x226 SWAP1 POP JUMP JUMPDEST PUSH1 0x0 DUP1 PUSH1 0x0 DUP1 PUSH1 0x80 DUP6 DUP8 SUB SLT ISZERO PUSH3 0x1B3 JUMPI PUSH1 0x0 DUP1 REVERT JUMPDEST DUP5 MLOAD PUSH1 0x1 PUSH1 0x1 PUSH1 0xA0 SHL SUB DUP2 AND DUP2 EQ PUSH3 0x1CB JUMPI PUSH1 0x0 DUP1 REVERT JUMPDEST PUSH1 0x20 DUP7 ADD MLOAD PUSH1 0x40 DUP8 ADD MLOAD PUSH1 0x60 SWAP1 SWAP8 ADD MLOAD SWAP2 SWAP9 SWAP1 SWAP8 POP SWAP1 SWAP5 POP SWAP3 POP POP POP JUMP JUMPDEST PUSH1 0x0 PUSH1 0x20 DUP3 DUP5 SUB SLT ISZERO PUSH3 0x1FC JUMPI PUSH1 0x0 DUP1 REVERT JUMPDEST POP MLOAD SWAP2 SWAP1 POP JUMP JUMPDEST PUSH1 0x0 DUP3 PUSH3 0x221 JUMPI PUSH4 0x4E487B71 PUSH1 0xE0 SHL PUSH1 0x0 MSTORE PUSH1 0x12 PUSH1 0x4 MSTORE PUSH1 0x24 PUSH1 0x0 REVERT JUMPDEST POP DIV SWAP1 JUMP JUMPDEST PUSH2 0x118F DUP1 PUSH3 0x236 PUSH1 0x0 CODECOPY PUSH1 0x0 RETURN INVALID PUSH1 0x80 PUSH1 0x40 MSTORE CALLVALUE DUP1 ISZERO PUSH2 0x10 JUMPI PUSH1 0x0 DUP1 REVERT JUMPDEST POP PUSH1 0x4 CALLDATASIZE LT PUSH2 0x14D JUMPI PUSH1 0x0 CALLDATALOAD PUSH1 0xE0 SHR DUP1 PUSH4 0x8DA5CB5B GT PUSH2 0xC3 JUMPI DUP1 PUSH4 0xC6788BDD GT PUSH2 0x7C JUMPI DUP1 PUSH4 0xC6788BDD EQ PUSH2 0x259 JUMPI DUP1 PUSH4 0xD0029D61 EQ PUSH2 0x2D7 JUMPI DUP1 PUSH4 0xDCD65479 EQ PUSH2 0x2EA JUMPI DUP1 PUSH4 0xDFA93099 EQ PUSH2 0x2F3 JUMPI DUP1 PUSH4 0xF8FCABE3 EQ PUSH2 0x306 JUMPI DUP1 PUSH4 0xFC0FC849 EQ PUSH2 0x319 JUMPI PUSH1 0x0 DUP1 REVERT JUMPDEST DUP1 PUSH4 0x8DA5CB5B EQ PUSH2 0x1EB JUMPI DUP1 PUSH4 0xB4CB529A EQ PUSH2 0x210 JUMPI DUP1 PUSH4 0xB6228703 EQ PUSH2 0x218 JUMPI DUP1 PUSH4 0xBBB6F347 EQ PUSH2 0x22B JUMPI DUP1 PUSH4 0xC06D30A7 EQ PUSH2 0x23E JUMPI DUP1 PUSH4 0xC47F0027 EQ PUSH2 0x246 JUMPI PUSH1 0x0 DUP1 REVERT JUMPDEST DUP1 PUSH4 0x28DC8ED9 GT PUSH2 0x115 JUMPI DUP1 PUSH4 0x28DC8ED9 EQ PUSH2 0x1AE JUMPI DUP1 PUSH4 0x29CB924D EQ PUSH2 0x1C1 JUMPI DUP1 PUSH4 0x3197CBB6 EQ PUSH2 0x1C7 JUMPI DUP1 PUSH4 0x34DADAD5 EQ PUSH2 0x1D0 JUMPI DUP1 PUSH4 0x35E9D90F EQ PUSH2 0x1D9 JUMPI DUP1 PUSH4 0x8523B7DB EQ PUSH2 0x1E2 JUMPI PUSH1 0x0 DUP1 REVERT JUMPDEST DUP1 PUSH4 0x6FDDE03 EQ PUSH2 0x152 JUMPI DUP1 PUSH4 0xF1A6444 EQ PUSH2 0x170 JUMPI DUP1 PUSH4 0x1A39D8EF EQ PUSH2 0x187 JUMPI DUP1 PUSH4 0x1D8B44C5 EQ PUSH2 0x190 JUMPI DUP1 PUSH4 0x21E76DC1 EQ PUSH2 0x199 JUMPI JUMPDEST PUSH1 0x0 DUP1 REVERT JUMPDEST PUSH2 0x15A PUSH2 0x322 JUMP JUMPDEST PUSH1 0x40 MLOAD PUSH2 0x167 SWAP2 SWAP1 PUSH2 0xFCA JUMP JUMPDEST PUSH1 0x40 MLOAD DUP1 SWAP2 SUB SWAP1 RETURN JUMPDEST PUSH2 0x179 PUSH1 0x9 SLOAD DUP2 JUMP JUMPDEST PUSH1 0x40 MLOAD SWAP1 DUP2 MSTORE PUSH1 0x20 ADD PUSH2 0x167 JUMP JUMPDEST PUSH2 0x179 PUSH1 0xB SLOAD DUP2 JUMP JUMPDEST PUSH2 0x179 PUSH1 0x8 SLOAD DUP2 JUMP JUMPDEST PUSH2 0x1AC PUSH2 0x1A7 CALLDATASIZE PUSH1 0x4 PUSH2 0xE0A JUMP JUMPDEST PUSH2 0x3B0 JUMP JUMPDEST STOP JUMPDEST PUSH2 0x1AC PUSH2 0x1BC CALLDATASIZE PUSH1 0x4 PUSH2 0xE0A JUMP JUMPDEST PUSH2 0x75B JUMP JUMPDEST TIMESTAMP PUSH2 0x179 JUMP JUMPDEST PUSH2 0x179 PUSH1 0xD SLOAD DUP2 JUMP JUMPDEST PUSH2 0x179 PUSH1 0x3 SLOAD DUP2 JUMP JUMPDEST PUSH2 0x179 PUSH1 0xC SLOAD DUP2 JUMP JUMPDEST PUSH2 0x179 PUSH1 0x7 SLOAD DUP2 JUMP JUMPDEST PUSH1 0x0 SLOAD PUSH1 0x1 PUSH1 0x1 PUSH1 0xA0 SHL SUB AND JUMPDEST PUSH1 0x40 MLOAD PUSH1 0x1 PUSH1 0x1 PUSH1 0xA0 SHL SUB SWAP1 SWAP2 AND DUP2 MSTORE PUSH1 0x20 ADD PUSH2 0x167 JUMP JUMPDEST PUSH2 0x1AC PUSH2 0x7E6 JUMP JUMPDEST PUSH2 0x179 PUSH2 0x226 CALLDATASIZE PUSH1 0x4 PUSH2 0xF1D JUMP JUMPDEST PUSH2 0x87D JUMP JUMPDEST PUSH1 0x2 SLOAD PUSH2 0x1F8 SWAP1 PUSH1 0x1 PUSH1 0x1 PUSH1 0xA0 SHL SUB AND DUP2 JUMP JUMPDEST PUSH2 0x179 PUSH2 0x937 JUMP JUMPDEST PUSH2 0x1AC PUSH2 0x254 CALLDATASIZE PUSH1 0x4 PUSH2 0xE6C JUMP JUMPDEST PUSH2 0x99F JUMP JUMPDEST PUSH2 0x2A3 PUSH2 0x267 CALLDATASIZE PUSH1 0x4 PUSH2 0xE0A JUMP JUMPDEST PUSH1 0x5 PUSH1 0x20 MSTORE PUSH1 0x0 SWAP1 DUP2 MSTORE PUSH1 0x40 SWAP1 KECCAK256 DUP1 SLOAD PUSH1 0x1 DUP3 ADD SLOAD PUSH1 0x2 DUP4 ADD SLOAD PUSH1 0x3 DUP5 ADD SLOAD PUSH1 0x4 SWAP1 SWAP5 ADD SLOAD PUSH1 0x1 PUSH1 0x1 PUSH1 0xA0 SHL SUB SWAP1 SWAP4 AND SWAP4 SWAP2 SWAP3 SWAP1 SWAP2 SWAP1 PUSH1 0xFF AND DUP6 JUMP JUMPDEST PUSH1 0x40 DUP1 MLOAD PUSH1 0x1 PUSH1 0x1 PUSH1 0xA0 SHL SUB SWAP1 SWAP7 AND DUP7 MSTORE PUSH1 0x20 DUP7 ADD SWAP5 SWAP1 SWAP5 MSTORE SWAP3 DUP5 ADD SWAP2 SWAP1 SWAP2 MSTORE PUSH1 0x60 DUP4 ADD MSTORE ISZERO ISZERO PUSH1 0x80 DUP3 ADD MSTORE PUSH1 0xA0 ADD PUSH2 0x167 JUMP JUMPDEST PUSH2 0x1F8 PUSH2 0x2E5 CALLDATASIZE PUSH1 0x4 PUSH2 0xF98 JUMP JUMPDEST PUSH2 0xA1F JUMP JUMPDEST PUSH2 0x179 PUSH1 0xA SLOAD DUP2 JUMP JUMPDEST PUSH2 0x179 PUSH2 0x301 CALLDATASIZE PUSH1 0x4 PUSH2 0xE0A JUMP JUMPDEST PUSH2 0xA49 JUMP JUMPDEST PUSH2 0x1AC PUSH2 0x314 CALLDATASIZE PUSH1 0x4 PUSH2 0xE25 JUMP JUMPDEST PUSH2 0xAB4 JUMP JUMPDEST PUSH2 0x179 PUSH1 0xE SLOAD DUP2 JUMP JUMPDEST PUSH1 0x1 DUP1 SLOAD PUSH2 0x32F SWAP1 PUSH2 0x10B3 JUMP JUMPDEST DUP1 PUSH1 0x1F ADD PUSH1 0x20 DUP1 SWAP2 DIV MUL PUSH1 0x20 ADD PUSH1 0x40 MLOAD SWAP1 DUP2 ADD PUSH1 0x40 MSTORE DUP1 SWAP3 SWAP2 SWAP1 DUP2 DUP2 MSTORE PUSH1 0x20 ADD DUP3 DUP1 SLOAD PUSH2 0x35B SWAP1 PUSH2 0x10B3 JUMP JUMPDEST DUP1 ISZERO PUSH2 0x3A8 JUMPI DUP1 PUSH1 0x1F LT PUSH2 0x37D JUMPI PUSH2 0x100 DUP1 DUP4 SLOAD DIV MUL DUP4 MSTORE SWAP2 PUSH1 0x20 ADD SWAP2 PUSH2 0x3A8 JUMP JUMPDEST DUP3 ADD SWAP2 SWAP1 PUSH1 0x0 MSTORE PUSH1 0x20 PUSH1 0x0 KECCAK256 SWAP1 JUMPDEST DUP2 SLOAD DUP2 MSTORE SWAP1 PUSH1 0x1 ADD SWAP1 PUSH1 0x20 ADD DUP1 DUP4 GT PUSH2 0x38B JUMPI DUP3 SWAP1 SUB PUSH1 0x1F AND DUP3 ADD SWAP2 JUMPDEST POP POP POP POP POP DUP2 JUMP JUMPDEST CALLER PUSH1 0x1 PUSH1 0x1 PUSH1 0xA0 SHL SUB DUP3 AND EQ DUP1 PUSH2 0x3D1 JUMPI POP PUSH1 0x0 SLOAD PUSH1 0x1 PUSH1 0x1 PUSH1 0xA0 SHL SUB AND CALLER EQ JUMPDEST DUP1 PUSH2 0x3E6 JUMPI POP PUSH1 0x4 SLOAD PUSH1 0x1 PUSH1 0x1 PUSH1 0xA0 SHL SUB AND CALLER EQ JUMPDEST PUSH2 0x45D JUMPI PUSH1 0x40 MLOAD PUSH3 0x461BCD PUSH1 0xE5 SHL DUP2 MSTORE PUSH1 0x20 PUSH1 0x4 DUP3 ADD MSTORE PUSH1 0x37 PUSH1 0x24 DUP3 ADD MSTORE PUSH32 0x56455354494E474255434B45543A2063616E206F6E6C792063616C6C2066726F PUSH1 0x44 DUP3 ADD MSTORE PUSH32 0x6D20636C61696D61646472657373206F72206F776E6572000000000000000000 PUSH1 0x64 DUP3 ADD MSTORE PUSH1 0x84 ADD JUMPDEST PUSH1 0x40 MLOAD DUP1 SWAP2 SUB SWAP1 REVERT JUMPDEST PUSH1 0x1 PUSH1 0x1 PUSH1 0xA0 SHL SUB DUP2 AND PUSH1 0x0 SWAP1 DUP2 MSTORE PUSH1 0x5 PUSH1 0x20 MSTORE PUSH1 0x40 SWAP1 KECCAK256 PUSH1 0x4 ADD SLOAD PUSH1 0xFF AND PUSH2 0x4D4 JUMPI PUSH1 0x40 MLOAD PUSH3 0x461BCD PUSH1 0xE5 SHL DUP2 MSTORE PUSH1 0x20 PUSH1 0x4 DUP3 ADD MSTORE PUSH1 0x23 PUSH1 0x24 DUP3 ADD MSTORE PUSH32 0x56455354494E474255434B45543A20636C61696D20646F6573206E6F74206578 PUSH1 0x44 DUP3 ADD MSTORE PUSH3 0x1A5CDD PUSH1 0xEA SHL PUSH1 0x64 DUP3 ADD MSTORE PUSH1 0x84 ADD PUSH2 0x454 JUMP JUMPDEST PUSH1 0x1 PUSH1 0x1 PUSH1 0xA0 SHL SUB DUP1 DUP3 AND PUSH1 0x0 SWAP1 DUP2 MSTORE PUSH1 0x5 PUSH1 0x20 SWAP1 DUP2 MSTORE PUSH1 0x40 DUP1 DUP4 KECCAK256 DUP2 MLOAD PUSH1 0xA0 DUP2 ADD DUP4 MSTORE DUP2 SLOAD SWAP1 SWAP6 AND DUP6 MSTORE PUSH1 0x1 DUP2 ADD SLOAD SWAP3 DUP6 ADD SWAP3 SWAP1 SWAP3 MSTORE PUSH1 0x2 DUP3 ADD SLOAD SWAP1 DUP5 ADD MSTORE PUSH1 0x3 DUP2 ADD SLOAD PUSH1 0x60 DUP5 ADD MSTORE PUSH1 0x4 DUP2 ADD SLOAD PUSH1 0xFF AND ISZERO ISZERO PUSH1 0x80 DUP5 ADD MSTORE SWAP2 PUSH2 0x537 SWAP1 PUSH2 0x87D JUMP JUMPDEST SWAP1 POP PUSH1 0x0 DUP3 PUSH1 0x3 ADD SLOAD DUP3 PUSH2 0x54B SWAP2 SWAP1 PUSH2 0x109C JUMP JUMPDEST SWAP1 POP PUSH1 0x0 DUP2 DUP5 PUSH1 0x3 ADD SLOAD PUSH2 0x55F SWAP2 SWAP1 PUSH2 0x1062 JUMP JUMPDEST SWAP1 POP DUP4 PUSH1 0x1 ADD SLOAD DUP2 GT ISZERO PUSH2 0x5CD JUMPI PUSH1 0x40 MLOAD PUSH3 0x461BCD PUSH1 0xE5 SHL DUP2 MSTORE PUSH1 0x20 PUSH1 0x4 DUP3 ADD MSTORE PUSH1 0x2F PUSH1 0x24 DUP3 ADD MSTORE PUSH32 0x56455354494E474255434B45543A2063616E206E6F7420776974686472617720 PUSH1 0x44 DUP3 ADD MSTORE PUSH15 0x1B5BDC99481D1A185B881D1BDD185B PUSH1 0x8A SHL PUSH1 0x64 DUP3 ADD MSTORE PUSH1 0x84 ADD PUSH2 0x454 JUMP JUMPDEST PUSH1 0x0 DUP3 GT PUSH2 0x61D JUMPI PUSH1 0x40 MLOAD PUSH3 0x461BCD PUSH1 0xE5 SHL DUP2 MSTORE PUSH1 0x20 PUSH1 0x4 DUP3 ADD DUP2 SWAP1 MSTORE PUSH1 0x24 DUP3 ADD MSTORE PUSH32 0x56455354494E474255434B45543A206E6F20616D6F756E7420636C61696D6564 PUSH1 0x44 DUP3 ADD MSTORE PUSH1 0x64 ADD PUSH2 0x454 JUMP JUMPDEST PUSH1 0x2 SLOAD PUSH1 0x40 MLOAD PUSH4 0xA9059CBB PUSH1 0xE0 SHL DUP2 MSTORE PUSH1 0x1 PUSH1 0x1 PUSH1 0xA0 SHL SUB DUP8 DUP2 AND PUSH1 0x4 DUP4 ADD MSTORE PUSH1 0x24 DUP3 ADD DUP6 SWAP1 MSTORE SWAP1 SWAP2 AND SWAP1 PUSH4 0xA9059CBB SWAP1 PUSH1 0x44 ADD PUSH1 0x20 PUSH1 0x40 MLOAD DUP1 DUP4 SUB DUP2 PUSH1 0x0 DUP8 DUP1 EXTCODESIZE ISZERO DUP1 ISZERO PUSH2 0x66B JUMPI PUSH1 0x0 DUP1 REVERT JUMPDEST POP GAS CALL ISZERO DUP1 ISZERO PUSH2 0x67F JUMPI RETURNDATASIZE PUSH1 0x0 DUP1 RETURNDATACOPY RETURNDATASIZE PUSH1 0x0 REVERT JUMPDEST POP POP POP POP PUSH1 0x40 MLOAD RETURNDATASIZE PUSH1 0x1F NOT PUSH1 0x1F DUP3 ADD AND DUP3 ADD DUP1 PUSH1 0x40 MSTORE POP DUP2 ADD SWAP1 PUSH2 0x6A3 SWAP2 SWAP1 PUSH2 0xE4F JUMP JUMPDEST PUSH2 0x6E1 JUMPI PUSH1 0x40 MLOAD PUSH3 0x461BCD PUSH1 0xE5 SHL DUP2 MSTORE PUSH1 0x20 PUSH1 0x4 DUP3 ADD MSTORE PUSH1 0xF PUSH1 0x24 DUP3 ADD MSTORE PUSH15 0x1D1C985B9CD9995C8819985A5B1959 PUSH1 0x8A SHL PUSH1 0x44 DUP3 ADD MSTORE PUSH1 0x64 ADD PUSH2 0x454 JUMP JUMPDEST DUP4 SLOAD PUSH1 0x40 MLOAD DUP4 DUP2 MSTORE PUSH1 0x1 PUSH1 0x1 PUSH1 0xA0 SHL SUB SWAP1 SWAP2 AND SWAP1 PUSH32 0x394A4E97A8193F113CCE457FC16CABC66FF1A10C478CDAB3B82E5CC57C67BBF9 SWAP1 PUSH1 0x20 ADD PUSH1 0x40 MLOAD DUP1 SWAP2 SUB SWAP1 LOG2 DUP2 DUP5 PUSH1 0x3 ADD PUSH1 0x0 DUP3 DUP3 SLOAD PUSH2 0x736 SWAP2 SWAP1 PUSH2 0x1062 JUMP JUMPDEST SWAP3 POP POP DUP2 SWAP1 SSTORE POP DUP2 PUSH1 0x8 PUSH1 0x0 DUP3 DUP3 SLOAD PUSH2 0x74F SWAP2 SWAP1 PUSH2 0x1062 JUMP JUMPDEST SWAP1 SWAP2 SSTORE POP POP POP POP POP POP POP JUMP JUMPDEST CALLER PUSH2 0x76E PUSH1 0x0 SLOAD PUSH1 0x1 PUSH1 0x1 PUSH1 0xA0 SHL SUB AND SWAP1 JUMP JUMPDEST PUSH1 0x1 PUSH1 0x1 PUSH1 0xA0 SHL SUB AND EQ PUSH2 0x7C4 JUMPI PUSH1 0x40 MLOAD PUSH3 0x461BCD PUSH1 0xE5 SHL DUP2 MSTORE PUSH1 0x20 PUSH1 0x4 DUP3 ADD DUP2 SWAP1 MSTORE PUSH1 0x24 DUP3 ADD MSTORE PUSH32 0x4F776E61626C653A2063616C6C6572206973206E6F7420746865206F776E6572 PUSH1 0x44 DUP3 ADD MSTORE PUSH1 0x64 ADD PUSH2 0x454 JUMP JUMPDEST PUSH1 0x4 DUP1 SLOAD PUSH1 0x1 PUSH1 0x1 PUSH1 0xA0 SHL SUB NOT AND PUSH1 0x1 PUSH1 0x1 PUSH1 0xA0 SHL SUB SWAP3 SWAP1 SWAP3 AND SWAP2 SWAP1 SWAP2 OR SWAP1 SSTORE JUMP JUMPDEST PUSH1 0x4 SLOAD PUSH1 0x1 PUSH1 0x1 PUSH1 0xA0 SHL SUB AND CALLER EQ DUP1 PUSH2 0x809 JUMPI POP PUSH1 0x0 SLOAD PUSH1 0x1 PUSH1 0x1 PUSH1 0xA0 SHL SUB AND CALLER EQ JUMPDEST PUSH2 0x825 JUMPI PUSH1 0x40 MLOAD PUSH3 0x461BCD PUSH1 0xE5 SHL DUP2 MSTORE PUSH1 0x4 ADD PUSH2 0x454 SWAP1 PUSH2 0x101F JUMP JUMPDEST PUSH1 0x0 JUMPDEST PUSH1 0xE SLOAD DUP2 LT ISZERO PUSH2 0x87A JUMPI PUSH1 0x0 PUSH1 0x6 DUP3 DUP2 SLOAD DUP2 LT PUSH2 0x847 JUMPI PUSH2 0x847 PUSH2 0x111F JUMP JUMPDEST PUSH1 0x0 SWAP2 DUP3 MSTORE PUSH1 0x20 SWAP1 SWAP2 KECCAK256 ADD SLOAD PUSH1 0x1 PUSH1 0x1 PUSH1 0xA0 SHL SUB AND SWAP1 POP PUSH2 0x867 DUP2 PUSH2 0x3B0 JUMP JUMPDEST POP DUP1 PUSH2 0x872 DUP2 PUSH2 0x10EE JUMP JUMPDEST SWAP2 POP POP PUSH2 0x828 JUMP JUMPDEST POP JUMP JUMPDEST PUSH1 0x9 SLOAD PUSH1 0xD SLOAD PUSH1 0x40 DUP4 DUP2 ADD MLOAD PUSH1 0x20 DUP6 ADD MLOAD SWAP2 MLOAD PUSH4 0x3F6B9393 PUSH1 0xE1 SHL DUP2 MSTORE TIMESTAMP PUSH1 0x4 DUP3 ADD DUP2 SWAP1 MSTORE PUSH1 0x24 DUP3 ADD SWAP6 SWAP1 SWAP6 MSTORE PUSH1 0x44 DUP2 ADD SWAP4 SWAP1 SWAP4 MSTORE PUSH1 0x64 DUP4 ADD MSTORE PUSH1 0x84 DUP3 ADD MSTORE PUSH1 0x0 SWAP2 SWAP1 PUSH20 0x0 SWAP1 PUSH4 0x7ED72726 SWAP1 PUSH1 0xA4 ADD JUMPDEST PUSH1 0x20 PUSH1 0x40 MLOAD DUP1 DUP4 SUB DUP2 DUP7 DUP1 EXTCODESIZE ISZERO DUP1 ISZERO PUSH2 0x8F8 JUMPI PUSH1 0x0 DUP1 REVERT JUMPDEST POP GAS DELEGATECALL ISZERO DUP1 ISZERO PUSH2 0x90C JUMPI RETURNDATASIZE PUSH1 0x0 DUP1 RETURNDATACOPY RETURNDATASIZE PUSH1 0x0 REVERT JUMPDEST POP POP POP POP PUSH1 0x40 MLOAD RETURNDATASIZE PUSH1 0x1F NOT PUSH1 0x1F DUP3 ADD AND DUP3 ADD DUP1 PUSH1 0x40 MSTORE POP DUP2 ADD SWAP1 PUSH2 0x930 SWAP2 SWAP1 PUSH2 0xFB1 JUMP JUMPDEST SWAP4 SWAP3 POP POP POP JUMP JUMPDEST PUSH1 0x9 SLOAD PUSH1 0xD SLOAD PUSH1 0xC SLOAD PUSH1 0xB SLOAD PUSH1 0x40 MLOAD PUSH4 0x3F6B9393 PUSH1 0xE1 SHL DUP2 MSTORE TIMESTAMP PUSH1 0x4 DUP3 ADD DUP2 SWAP1 MSTORE PUSH1 0x24 DUP3 ADD SWAP6 SWAP1 SWAP6 MSTORE PUSH1 0x44 DUP2 ADD SWAP4 SWAP1 SWAP4 MSTORE PUSH1 0x64 DUP4 ADD SWAP2 SWAP1 SWAP2 MSTORE PUSH1 0x84 DUP3 ADD MSTORE PUSH1 0x0 SWAP2 SWAP1 DUP3 SWAP1 PUSH20 0x0 SWAP1 PUSH4 0x7ED72726 SWAP1 PUSH1 0xA4 ADD PUSH2 0x8E0 JUMP JUMPDEST CALLER PUSH2 0x9B2 PUSH1 0x0 SLOAD PUSH1 0x1 PUSH1 0x1 PUSH1 0xA0 SHL SUB AND SWAP1 JUMP JUMPDEST PUSH1 0x1 PUSH1 0x1 PUSH1 0xA0 SHL SUB AND EQ PUSH2 0xA08 JUMPI PUSH1 0x40 MLOAD PUSH3 0x461BCD PUSH1 0xE5 SHL DUP2 MSTORE PUSH1 0x20 PUSH1 0x4 DUP3 ADD DUP2 SWAP1 MSTORE PUSH1 0x24 DUP3 ADD MSTORE PUSH32 0x4F776E61626C653A2063616C6C6572206973206E6F7420746865206F776E6572 PUSH1 0x44 DUP3 ADD MSTORE PUSH1 0x64 ADD PUSH2 0x454 JUMP JUMPDEST DUP1 MLOAD PUSH2 0xA1B SWAP1 PUSH1 0x1 SWAP1 PUSH1 0x20 DUP5 ADD SWAP1 PUSH2 0xD55 JUMP JUMPDEST POP POP JUMP JUMPDEST PUSH1 0x6 DUP2 DUP2 SLOAD DUP2 LT PUSH2 0xA2F JUMPI PUSH1 0x0 DUP1 REVERT JUMPDEST PUSH1 0x0 SWAP2 DUP3 MSTORE PUSH1 0x20 SWAP1 SWAP2 KECCAK256 ADD SLOAD PUSH1 0x1 PUSH1 0x1 PUSH1 0xA0 SHL SUB AND SWAP1 POP DUP2 JUMP JUMPDEST PUSH1 0x1 PUSH1 0x1 PUSH1 0xA0 SHL SUB DUP1 DUP3 AND PUSH1 0x0 SWAP1 DUP2 MSTORE PUSH1 0x5 PUSH1 0x20 SWAP1 DUP2 MSTORE PUSH1 0x40 DUP1 DUP4 KECCAK256 DUP2 MLOAD PUSH1 0xA0 DUP2 ADD DUP4 MSTORE DUP2 SLOAD SWAP1 SWAP6 AND DUP6 MSTORE PUSH1 0x1 DUP2 ADD SLOAD SWAP3 DUP6 ADD SWAP3 SWAP1 SWAP3 MSTORE PUSH1 0x2 DUP3 ADD SLOAD SWAP1 DUP5 ADD MSTORE PUSH1 0x3 DUP2 ADD SLOAD PUSH1 0x60 DUP5 ADD MSTORE PUSH1 0x4 ADD SLOAD PUSH1 0xFF AND ISZERO ISZERO PUSH1 0x80 DUP4 ADD MSTORE SWAP1 DUP2 PUSH2 0xAAC DUP3 PUSH2 0x87D JUMP JUMPDEST SWAP5 SWAP4 POP POP POP POP JUMP JUMPDEST PUSH1 0x4 SLOAD PUSH1 0x1 PUSH1 0x1 PUSH1 0xA0 SHL SUB AND CALLER EQ DUP1 PUSH2 0xAD7 JUMPI POP PUSH1 0x0 SLOAD PUSH1 0x1 PUSH1 0x1 PUSH1 0xA0 SHL SUB AND CALLER EQ JUMPDEST PUSH2 0xAF3 JUMPI PUSH1 0x40 MLOAD PUSH3 0x461BCD PUSH1 0xE5 SHL DUP2 MSTORE PUSH1 0x4 ADD PUSH2 0x454 SWAP1 PUSH2 0x101F JUMP JUMPDEST PUSH1 0x1 PUSH1 0x1 PUSH1 0xA0 SHL SUB DUP3 AND PUSH1 0x0 SWAP1 DUP2 MSTORE PUSH1 0x5 PUSH1 0x20 MSTORE PUSH1 0x40 SWAP1 KECCAK256 PUSH1 0x4 ADD SLOAD PUSH1 0xFF AND ISZERO PUSH2 0xB7B JUMPI PUSH1 0x40 MLOAD PUSH3 0x461BCD PUSH1 0xE5 SHL DUP2 MSTORE PUSH1 0x20 PUSH1 0x4 DUP3 ADD MSTORE PUSH1 0x33 PUSH1 0x24 DUP3 ADD MSTORE PUSH32 0x56455354494E474255434B45543A20636C61696D206174207468697320616464 PUSH1 0x44 DUP3 ADD MSTORE PUSH19 0x7265737320616C726561647920657869737473 PUSH1 0x68 SHL PUSH1 0x64 DUP3 ADD MSTORE PUSH1 0x84 ADD PUSH2 0x454 JUMP JUMPDEST PUSH1 0xB SLOAD DUP2 PUSH1 0x7 SLOAD PUSH2 0xB8C SWAP2 SWAP1 PUSH2 0x1062 JUMP JUMPDEST GT ISZERO PUSH2 0xBEF JUMPI PUSH1 0x40 MLOAD PUSH3 0x461BCD PUSH1 0xE5 SHL DUP2 MSTORE PUSH1 0x20 PUSH1 0x4 DUP3 ADD MSTORE PUSH1 0x2C PUSH1 0x24 DUP3 ADD MSTORE PUSH32 0x56455354494E474255434B45543A2063616E206E6F7420636C61696D206D6F72 PUSH1 0x44 DUP3 ADD MSTORE PUSH12 0x19481D1A185B881D1BDD185B PUSH1 0xA2 SHL PUSH1 0x64 DUP3 ADD MSTORE PUSH1 0x84 ADD PUSH2 0x454 JUMP JUMPDEST PUSH1 0x0 DUP2 GT PUSH2 0xC4B JUMPI PUSH1 0x40 MLOAD PUSH3 0x461BCD PUSH1 0xE5 SHL DUP2 MSTORE PUSH1 0x20 PUSH1 0x4 DUP3 ADD MSTORE PUSH1 0x24 DUP1 DUP3 ADD MSTORE PUSH32 0x56455354494E474255434B45543A20636C61696D2063616E206E6F7420626520 PUSH1 0x44 DUP3 ADD MSTORE PUSH4 0x7A65726F PUSH1 0xE0 SHL PUSH1 0x64 DUP3 ADD MSTORE PUSH1 0x84 ADD PUSH2 0x454 JUMP JUMPDEST PUSH1 0x0 PUSH1 0xA SLOAD DUP3 PUSH2 0xC5B SWAP2 SWAP1 PUSH2 0x107A JUMP JUMPDEST PUSH1 0x40 DUP1 MLOAD PUSH1 0xA0 DUP2 ADD DUP3 MSTORE PUSH1 0x1 PUSH1 0x1 PUSH1 0xA0 SHL SUB DUP1 DUP8 AND DUP1 DUP4 MSTORE PUSH1 0x20 DUP1 DUP5 ADD DUP9 DUP2 MSTORE DUP5 DUP7 ADD DUP8 DUP2 MSTORE PUSH1 0x0 PUSH1 0x60 DUP8 ADD DUP2 DUP2 MSTORE PUSH1 0x1 PUSH1 0x80 DUP10 ADD DUP2 DUP2 MSTORE DUP8 DUP5 MSTORE PUSH1 0x5 SWAP1 SWAP7 MSTORE SWAP9 DUP3 KECCAK256 SWAP8 MLOAD DUP9 SLOAD SWAP8 AND PUSH1 0x1 PUSH1 0x1 PUSH1 0xA0 SHL SUB NOT SWAP8 DUP9 AND OR DUP9 SSTORE SWAP3 MLOAD DUP8 DUP10 ADD SSTORE SWAP1 MLOAD PUSH1 0x2 DUP8 ADD SSTORE SWAP1 MLOAD PUSH1 0x3 DUP7 ADD SSTORE SWAP1 MLOAD PUSH1 0x4 SWAP1 SWAP5 ADD DUP1 SLOAD SWAP5 ISZERO ISZERO PUSH1 0xFF NOT SWAP1 SWAP6 AND SWAP5 SWAP1 SWAP5 OR SWAP1 SWAP4 SSTORE PUSH1 0x6 DUP1 SLOAD SWAP5 DUP6 ADD DUP2 SSTORE DUP4 MSTORE PUSH32 0xF652222313E28459528D920B65115C16C04F3EFC82AAEDC97BE59F3F377C0D3F SWAP1 SWAP4 ADD DUP1 SLOAD SWAP1 SWAP2 AND SWAP1 SWAP3 OR SWAP1 SWAP2 SSTORE PUSH1 0x7 DUP1 SLOAD SWAP3 SWAP4 POP DUP5 SWAP3 SWAP1 SWAP2 SWAP1 PUSH2 0xD31 SWAP1 DUP5 SWAP1 PUSH2 0x1062 JUMP JUMPDEST SWAP3 POP POP DUP2 SWAP1 SSTORE POP PUSH1 0x1 PUSH1 0xE PUSH1 0x0 DUP3 DUP3 SLOAD PUSH2 0xD4B SWAP2 SWAP1 PUSH2 0x1062 JUMP JUMPDEST SWAP1 SWAP2 SSTORE POP POP POP POP POP JUMP JUMPDEST DUP3 DUP1 SLOAD PUSH2 0xD61 SWAP1 PUSH2 0x10B3 JUMP JUMPDEST SWAP1 PUSH1 0x0 MSTORE PUSH1 0x20 PUSH1 0x0 KECCAK256 SWAP1 PUSH1 0x1F ADD PUSH1 0x20 SWAP1 DIV DUP2 ADD SWAP3 DUP3 PUSH2 0xD83 JUMPI PUSH1 0x0 DUP6 SSTORE PUSH2 0xDC9 JUMP JUMPDEST DUP3 PUSH1 0x1F LT PUSH2 0xD9C JUMPI DUP1 MLOAD PUSH1 0xFF NOT AND DUP4 DUP1 ADD OR DUP6 SSTORE PUSH2 0xDC9 JUMP JUMPDEST DUP3 DUP1 ADD PUSH1 0x1 ADD DUP6 SSTORE DUP3 ISZERO PUSH2 0xDC9 JUMPI SWAP2 DUP3 ADD JUMPDEST DUP3 DUP2 GT ISZERO PUSH2 0xDC9 JUMPI DUP3 MLOAD DUP3 SSTORE SWAP2 PUSH1 0x20 ADD SWAP2 SWAP1 PUSH1 0x1 ADD SWAP1 PUSH2 0xDAE JUMP JUMPDEST POP PUSH2 0xDD5 SWAP3 SWAP2 POP PUSH2 0xDD9 JUMP JUMPDEST POP SWAP1 JUMP JUMPDEST JUMPDEST DUP1 DUP3 GT ISZERO PUSH2 0xDD5 JUMPI PUSH1 0x0 DUP2 SSTORE PUSH1 0x1 ADD PUSH2 0xDDA JUMP JUMPDEST DUP1 CALLDATALOAD PUSH1 0x1 PUSH1 0x1 PUSH1 0xA0 SHL SUB DUP2 AND DUP2 EQ PUSH2 0xE05 JUMPI PUSH1 0x0 DUP1 REVERT JUMPDEST SWAP2 SWAP1 POP JUMP JUMPDEST PUSH1 0x0 PUSH1 0x20 DUP3 DUP5 SUB SLT ISZERO PUSH2 0xE1C JUMPI PUSH1 0x0 DUP1 REVERT JUMPDEST PUSH2 0x930 DUP3 PUSH2 0xDEE JUMP JUMPDEST PUSH1 0x0 DUP1 PUSH1 0x40 DUP4 DUP6 SUB SLT ISZERO PUSH2 0xE38 JUMPI PUSH1 0x0 DUP1 REVERT JUMPDEST PUSH2 0xE41 DUP4 PUSH2 0xDEE JUMP JUMPDEST SWAP5 PUSH1 0x20 SWAP4 SWAP1 SWAP4 ADD CALLDATALOAD SWAP4 POP POP POP JUMP JUMPDEST PUSH1 0x0 PUSH1 0x20 DUP3 DUP5 SUB SLT ISZERO PUSH2 0xE61 JUMPI PUSH1 0x0 DUP1 REVERT JUMPDEST DUP2 MLOAD PUSH2 0x930 DUP2 PUSH2 0x114B JUMP JUMPDEST PUSH1 0x0 PUSH1 0x20 DUP3 DUP5 SUB SLT ISZERO PUSH2 0xE7E JUMPI PUSH1 0x0 DUP1 REVERT JUMPDEST DUP2 CALLDATALOAD PUSH8 0xFFFFFFFFFFFFFFFF DUP1 DUP3 GT ISZERO PUSH2 0xE96 JUMPI PUSH1 0x0 DUP1 REVERT JUMPDEST DUP2 DUP5 ADD SWAP2 POP DUP5 PUSH1 0x1F DUP4 ADD SLT PUSH2 0xEAA JUMPI PUSH1 0x0 DUP1 REVERT JUMPDEST DUP2 CALLDATALOAD DUP2 DUP2 GT ISZERO PUSH2 0xEBC JUMPI PUSH2 0xEBC PUSH2 0x1135 JUMP JUMPDEST PUSH1 0x40 MLOAD PUSH1 0x1F DUP3 ADD PUSH1 0x1F NOT SWAP1 DUP2 AND PUSH1 0x3F ADD AND DUP2 ADD SWAP1 DUP4 DUP3 GT DUP2 DUP4 LT OR ISZERO PUSH2 0xEE4 JUMPI PUSH2 0xEE4 PUSH2 0x1135 JUMP JUMPDEST DUP2 PUSH1 0x40 MSTORE DUP3 DUP2 MSTORE DUP8 PUSH1 0x20 DUP5 DUP8 ADD ADD GT ISZERO PUSH2 0xEFD JUMPI PUSH1 0x0 DUP1 REVERT JUMPDEST DUP3 PUSH1 0x20 DUP7 ADD PUSH1 0x20 DUP4 ADD CALLDATACOPY PUSH1 0x0 SWAP3 DUP2 ADD PUSH1 0x20 ADD SWAP3 SWAP1 SWAP3 MSTORE POP SWAP6 SWAP5 POP POP POP POP POP JUMP JUMPDEST PUSH1 0x0 PUSH1 0xA0 DUP3 DUP5 SUB SLT ISZERO PUSH2 0xF2F JUMPI PUSH1 0x0 DUP1 REVERT JUMPDEST PUSH1 0x40 MLOAD PUSH1 0xA0 DUP2 ADD DUP2 DUP2 LT PUSH8 0xFFFFFFFFFFFFFFFF DUP3 GT OR ISZERO PUSH2 0xF52 JUMPI PUSH2 0xF52 PUSH2 0x1135 JUMP JUMPDEST PUSH1 0x40 MSTORE PUSH2 0xF5E DUP4 PUSH2 0xDEE JUMP JUMPDEST DUP2 MSTORE PUSH1 0x20 DUP4 ADD CALLDATALOAD PUSH1 0x20 DUP3 ADD MSTORE PUSH1 0x40 DUP4 ADD CALLDATALOAD PUSH1 0x40 DUP3 ADD MSTORE PUSH1 0x60 DUP4 ADD CALLDATALOAD PUSH1 0x60 DUP3 ADD MSTORE PUSH1 0x80 DUP4 ADD CALLDATALOAD PUSH2 0xF8C DUP2 PUSH2 0x114B JUMP JUMPDEST PUSH1 0x80 DUP3 ADD MSTORE SWAP4 SWAP3 POP POP POP JUMP JUMPDEST PUSH1 0x0 PUSH1 0x20 DUP3 DUP5 SUB SLT ISZERO PUSH2 0xFAA JUMPI PUSH1 0x0 DUP1 REVERT JUMPDEST POP CALLDATALOAD SWAP2 SWAP1 POP JUMP JUMPDEST PUSH1 0x0 PUSH1 0x20 DUP3 DUP5 SUB SLT ISZERO PUSH2 0xFC3 JUMPI PUSH1 0x0 DUP1 REVERT JUMPDEST POP MLOAD SWAP2 SWAP1 POP JUMP JUMPDEST PUSH1 0x0 PUSH1 0x20 DUP1 DUP4 MSTORE DUP4 MLOAD DUP1 DUP3 DUP6 ADD MSTORE PUSH1 0x0 JUMPDEST DUP2 DUP2 LT ISZERO PUSH2 0xFF7 JUMPI DUP6 DUP2 ADD DUP4 ADD MLOAD DUP6 DUP3 ADD PUSH1 0x40 ADD MSTORE DUP3 ADD PUSH2 0xFDB JUMP JUMPDEST DUP2 DUP2 GT ISZERO PUSH2 0x1009 JUMPI PUSH1 0x0 PUSH1 0x40 DUP4 DUP8 ADD ADD MSTORE JUMPDEST POP PUSH1 0x1F ADD PUSH1 0x1F NOT AND SWAP3 SWAP1 SWAP3 ADD PUSH1 0x40 ADD SWAP4 SWAP3 POP POP POP JUMP JUMPDEST PUSH1 0x20 DUP1 DUP3 MSTORE PUSH1 0x23 SWAP1 DUP3 ADD MSTORE PUSH32 0x4F776E61626C653A2063616C6C6572206973206E6F7420746865207265666F77 PUSH1 0x40 DUP3 ADD MSTORE PUSH3 0x3732B9 PUSH1 0xE9 SHL PUSH1 0x60 DUP3 ADD MSTORE PUSH1 0x80 ADD SWAP1 JUMP JUMPDEST PUSH1 0x0 DUP3 NOT DUP3 GT ISZERO PUSH2 0x1075 JUMPI PUSH2 0x1075 PUSH2 0x1109 JUMP JUMPDEST POP ADD SWAP1 JUMP JUMPDEST PUSH1 0x0 DUP3 PUSH2 0x1097 JUMPI PUSH4 0x4E487B71 PUSH1 0xE0 SHL PUSH1 0x0 MSTORE PUSH1 0x12 PUSH1 0x4 MSTORE PUSH1 0x24 PUSH1 0x0 REVERT JUMPDEST POP DIV SWAP1 JUMP JUMPDEST PUSH1 0x0 DUP3 DUP3 LT ISZERO PUSH2 0x10AE JUMPI PUSH2 0x10AE PUSH2 0x1109 JUMP JUMPDEST POP SUB SWAP1 JUMP JUMPDEST PUSH1 0x1 DUP2 DUP2 SHR SWAP1 DUP3 AND DUP1 PUSH2 0x10C7 JUMPI PUSH1 0x7F DUP3 AND SWAP2 POP JUMPDEST PUSH1 0x20 DUP3 LT DUP2 EQ ISZERO PUSH2 0x10E8 JUMPI PUSH4 0x4E487B71 PUSH1 0xE0 SHL PUSH1 0x0 MSTORE PUSH1 0x22 PUSH1 0x4 MSTORE PUSH1 0x24 PUSH1 0x0 REVERT JUMPDEST POP SWAP2 SWAP1 POP JUMP JUMPDEST PUSH1 0x0 PUSH1 0x0 NOT DUP3 EQ ISZERO PUSH2 0x1102 JUMPI PUSH2 0x1102 PUSH2 0x1109 JUMP JUMPDEST POP PUSH1 0x1 ADD SWAP1 JUMP JUMPDEST PUSH4 0x4E487B71 PUSH1 0xE0 SHL PUSH1 0x0 MSTORE PUSH1 0x11 PUSH1 0x4 MSTORE PUSH1 0x24 PUSH1 0x0 REVERT JUMPDEST PUSH4 0x4E487B71 PUSH1 0xE0 SHL PUSH1 0x0 MSTORE PUSH1 0x32 PUSH1 0x4 MSTORE PUSH1 0x24 PUSH1 0x0 REVERT JUMPDEST PUSH4 0x4E487B71 PUSH1 0xE0 SHL PUSH1 0x0 MSTORE PUSH1 0x41 PUSH1 0x4 MSTORE PUSH1 0x24 PUSH1 0x0 REVERT JUMPDEST DUP1 ISZERO ISZERO DUP2 EQ PUSH2 0x87A JUMPI PUSH1 0x0 DUP1 REVERT INVALID LOG2 PUSH5 0x6970667358 0x22 SLT KECCAK256 SWAP2 0xF9 0xA8 0xA9 DUP12 0xBC PUSH10 0xE6A74F82E233D2B66BF3 0xEF PUSH23 0x5F370480C9E46B5A940F153EBD64736F6C634300080500 CALLER LOG2 PUSH5 0x6970667358 0x22 SLT KECCAK256 MSTORE PUSH4 0xAB7C4E22 LOG3 EXP 0xCA 0xE9 DUP1 PUSH15 0x16EB825B61F2425F1E27C89F141277 SWAP6 PUSH6 0x6864B764736F PUSH13 0x63430008050033000000000000 ",
  "sha1": "2d00a8fade2c12164381cb26a09e164f6d14eaf9",
  "source": "// SPDX-License-Identifier: MIT\n\npragma solidity ^0.8.5;\n\nimport \"./VegaToken.sol\";\nimport \"./Ownable.sol\";\nimport \"./VestingBucket.sol\";\nimport \"./VestingConstants.sol\";\n\n// master distributes tokens to buckets\n// main token handler\n// bucket allocation is defined in VestingConstants\ncontract VegaMaster is Ownable {\n    //using VestingConstants for *;\n\n    VegaToken public vega_token;\n    address public vega_token_address;\n\n    //VestingConstants public vestingConstants;\n\n    uint256 private _circSupply;\n\n    //locked supply of vega\n    uint256 private _lockedSupply;\n\n    //uint256 public depositAmount;\n    //uint256 public vestedAmount;\n\n    address[] public buckets;\n    uint256 public bucket_num;\n\n    event Debug(string msg);\n\n    constructor() {\n        vega_token = new VegaToken();\n\n        _lockedSupply = 0;\n        _circSupply = 0;\n\n        vega_token_address = address(vega_token);\n\n        bucket_num = 0;\n\n        buckets = new address[](20);\n    }\n\n    function addVestingBucket(\n        uint256 cliffOffset,\n        string memory name,\n        uint256 periods,\n        uint256 amount\n    ) public onlyOwner {\n        VestingBucket vbucket = new VestingBucket(\n            vega_token_address,\n            block.timestamp + cliffOffset,\n            periods,\n            amount\n        );\n        //refowner of vbucket is owner of master\n        vbucket.setRefowner(owner());\n        vbucket.setName(name);\n        //require(bucket_num < num_buckets, \"bucket num too large\");\n        buckets[bucket_num] = address(vbucket);\n        bucket_num += 1;\n        transferToVested(address(vbucket), amount);\n        //return true\n    }\n\n    function transferToVested(address recipient, uint256 amount) private {\n        bool success = vega_token.transfer(address(recipient), amount);\n        require(success, \"transfer failed\");\n        //_lockedSupply += amount;\n    }\n\n    // function circSupply() public view returns (uint256) {\n    //     return _circSupply;\n    // }\n\n    // function lockedSupply() public view returns (uint256) {\n    //     return _lockedSupply;\n    // }\n\n    function maxSupply() public view returns (uint256) {\n        return vega_token.MAX_SUPPLY();\n    }\n\n    // function crossChainMint() public onlyOwner {}\n\n    // function crossChainBurn() public onlyOwner {}\n\n    // Call at cliffTime/periodTime to release tokens to tokenholders\n    // @dev: we pay for the fee\n    // TODO: multi call maybe\n    // function release() external payable onlyOwner {\n    //     VestingSchedule storage vestingSchedule;\n    //     uint256 i = 0;\n    //     uint256 newTotalWithdrawn = 0;\n    //     for (i = 0; i < registeredAddresses.length; i++) {\n    //         vestingSchedule = vestingSchedules[registeredAddresses[i]];\n    //         newTotalWithdrawn = _release(vestingSchedule);\n    //         vestingSchedule.withdrawnAmount = newTotalWithdrawn;\n    //     }\n    // }\n}\n",
  "sourcePath": "contracts/VegaMaster.sol",
  "type": "contract"
}