{
  "abi": [
    {
      "inputs": [],
      "name": "DEFAULT_PERIOD",
      "outputs": [
        {
          "internalType": "uint256",
          "name": "",
          "type": "uint256"
        }
      ],
      "stateMutability": "view",
      "type": "function"
    },
    {
      "inputs": [
        {
          "internalType": "uint256",
          "name": "a",
          "type": "uint256"
        },
        {
          "internalType": "uint256",
          "name": "m",
          "type": "uint256"
        }
      ],
      "name": "ceildiv",
      "outputs": [
        {
          "internalType": "uint256",
          "name": "",
          "type": "uint256"
        }
      ],
      "stateMutability": "pure",
      "type": "function"
    },
    {
      "inputs": [
        {
          "internalType": "uint256",
          "name": "_cliffTime",
          "type": "uint256"
        },
        {
          "internalType": "uint256",
          "name": "_amountPerPeriod",
          "type": "uint256"
        },
        {
          "internalType": "uint256",
          "name": "_totalAmount",
          "type": "uint256"
        },
        {
          "internalType": "uint256",
          "name": "_period",
          "type": "uint256"
        }
      ],
      "name": "getEndTime",
      "outputs": [
        {
          "internalType": "uint256",
          "name": "",
          "type": "uint256"
        }
      ],
      "stateMutability": "pure",
      "type": "function"
    },
    {
      "inputs": [
        {
          "internalType": "uint256",
          "name": "_cliffTime",
          "type": "uint256"
        },
        {
          "internalType": "uint256",
          "name": "_amountPerPeriod",
          "type": "uint256"
        },
        {
          "internalType": "uint256",
          "name": "_totalAmount",
          "type": "uint256"
        }
      ],
      "name": "getEndTime",
      "outputs": [
        {
          "internalType": "uint256",
          "name": "",
          "type": "uint256"
        }
      ],
      "stateMutability": "pure",
      "type": "function"
    },
    {
      "inputs": [
        {
          "internalType": "uint256",
          "name": "blocktime",
          "type": "uint256"
        },
        {
          "internalType": "uint256",
          "name": "cliffTime",
          "type": "uint256"
        },
        {
          "internalType": "uint256",
          "name": "endTime",
          "type": "uint256"
        },
        {
          "internalType": "uint256",
          "name": "amountPerPeriod",
          "type": "uint256"
        },
        {
          "internalType": "uint256",
          "name": "totalAmount",
          "type": "uint256"
        }
      ],
      "name": "getVestedAmountTS",
      "outputs": [
        {
          "internalType": "uint256",
          "name": "",
          "type": "uint256"
        }
      ],
      "stateMutability": "pure",
      "type": "function"
    },
    {
      "inputs": [
        {
          "internalType": "uint256",
          "name": "blocktime",
          "type": "uint256"
        },
        {
          "internalType": "uint256",
          "name": "cliffTime",
          "type": "uint256"
        },
        {
          "internalType": "uint256",
          "name": "endTime",
          "type": "uint256"
        },
        {
          "internalType": "uint256",
          "name": "amountPerPeriod",
          "type": "uint256"
        },
        {
          "internalType": "uint256",
          "name": "totalAmount",
          "type": "uint256"
        },
        {
          "internalType": "uint256",
          "name": "period",
          "type": "uint256"
        }
      ],
      "name": "getVestedAmountTSX",
      "outputs": [
        {
          "internalType": "uint256",
          "name": "",
          "type": "uint256"
        }
      ],
      "stateMutability": "pure",
      "type": "function"
    }
  ],
  "bytecode": "6103d961003a600b82828239805160001a60731461002d57634e487b7160e01b600052600060045260246000fd5b30600052607381538281f3fe730000000000000000000000000000000000000000301460806040526004361061006c5760003560e01c80631d833d811461007157806334542fed14610096578063780e7893146100a95780637ed72726146100b3578063a3bdbca2146100c6578063aad66172146100d9575b600080fd5b61008461007f366004610203565b6100ec565b60405190815260200160405180910390f35b6100846100a43660046102be565b610137565b61008462278d0081565b6100846100c1366004610283565b6101ae565b6100846100d4366004610251565b6101c1565b6100846100e7366004610225565b6101ea565b6000806100f98385610363565b9050806101125761010a8385610319565b915050610131565b8261011d828261034c565b6101279086610301565b61010a9190610319565b92915050565b60008487106101475750816101a4565b85871015610157575060006101a4565b6000610163878961034c565b905060006101718483610319565b61017c906001610301565b9050600061018a878361032d565b90508581111561019f578593505050506101a4565b925050505b9695505050505050565b60006101a4868686868662278d00610137565b60006101cd83856100ec565b6101d7908361032d565b6101e19086610301565b95945050505050565b60006101fb84848462278d006101c1565b949350505050565b6000806040838503121561021657600080fd5b50508035926020909101359150565b60008060006060848603121561023a57600080fd5b505081359360208301359350604090920135919050565b6000806000806080858703121561026757600080fd5b5050823594602084013594506040840135936060013592509050565b600080600080600060a0868803121561029b57600080fd5b505083359560208501359550604085013594606081013594506080013592509050565b60008060008060008060c087890312156102d757600080fd5b505084359660208601359650604086013595606081013595506080810135945060a0013592509050565b6000821982111561031457610314610377565b500190565b6000826103285761032861038d565b500490565b600081600019048311821515161561034757610347610377565b500290565b60008282101561035e5761035e610377565b500390565b6000826103725761037261038d565b500690565b634e487b7160e01b600052601160045260246000fd5b634e487b7160e01b600052601260045260246000fdfea26469706673582212200fd8edbbe27fb06b9cce7a518cd16cd0e393ebb8f4c9ebefaf31b99d556887a564736f6c63430008050033",
  "bytecodeSha1": "c400369197e46adf94d8e763335f5e8702277c5f",
  "compiler": {
    "evm_version": "istanbul",
    "optimizer": {
      "enabled": true,
      "runs": 200
    },
    "version": "0.8.5+commit.a4f2e591"
  },
  "contractName": "VestingMath",
  "language": "Solidity",
  "natspec": {
    "kind": "dev",
    "methods": {},
    "version": 1
  },
  "opcodes": "PUSH20 0x0 ADDRESS EQ PUSH1 0x80 PUSH1 0x40 MSTORE PUSH1 0x4 CALLDATASIZE LT PUSH2 0x6C JUMPI PUSH1 0x0 CALLDATALOAD PUSH1 0xE0 SHR DUP1 PUSH4 0x1D833D81 EQ PUSH2 0x71 JUMPI DUP1 PUSH4 0x34542FED EQ PUSH2 0x96 JUMPI DUP1 PUSH4 0x780E7893 EQ PUSH2 0xA9 JUMPI DUP1 PUSH4 0x7ED72726 EQ PUSH2 0xB3 JUMPI DUP1 PUSH4 0xA3BDBCA2 EQ PUSH2 0xC6 JUMPI DUP1 PUSH4 0xAAD66172 EQ PUSH2 0xD9 JUMPI JUMPDEST PUSH1 0x0 DUP1 REVERT JUMPDEST PUSH2 0x84 PUSH2 0x7F CALLDATASIZE PUSH1 0x4 PUSH2 0x203 JUMP JUMPDEST PUSH2 0xEC JUMP JUMPDEST PUSH1 0x40 MLOAD SWAP1 DUP2 MSTORE PUSH1 0x20 ADD PUSH1 0x40 MLOAD DUP1 SWAP2 SUB SWAP1 RETURN JUMPDEST PUSH2 0x84 PUSH2 0xA4 CALLDATASIZE PUSH1 0x4 PUSH2 0x2BE JUMP JUMPDEST PUSH2 0x137 JUMP JUMPDEST PUSH2 0x84 PUSH3 0x278D00 DUP2 JUMP JUMPDEST PUSH2 0x84 PUSH2 0xC1 CALLDATASIZE PUSH1 0x4 PUSH2 0x283 JUMP JUMPDEST PUSH2 0x1AE JUMP JUMPDEST PUSH2 0x84 PUSH2 0xD4 CALLDATASIZE PUSH1 0x4 PUSH2 0x251 JUMP JUMPDEST PUSH2 0x1C1 JUMP JUMPDEST PUSH2 0x84 PUSH2 0xE7 CALLDATASIZE PUSH1 0x4 PUSH2 0x225 JUMP JUMPDEST PUSH2 0x1EA JUMP JUMPDEST PUSH1 0x0 DUP1 PUSH2 0xF9 DUP4 DUP6 PUSH2 0x363 JUMP JUMPDEST SWAP1 POP DUP1 PUSH2 0x112 JUMPI PUSH2 0x10A DUP4 DUP6 PUSH2 0x319 JUMP JUMPDEST SWAP2 POP POP PUSH2 0x131 JUMP JUMPDEST DUP3 PUSH2 0x11D DUP3 DUP3 PUSH2 0x34C JUMP JUMPDEST PUSH2 0x127 SWAP1 DUP7 PUSH2 0x301 JUMP JUMPDEST PUSH2 0x10A SWAP2 SWAP1 PUSH2 0x319 JUMP JUMPDEST SWAP3 SWAP2 POP POP JUMP JUMPDEST PUSH1 0x0 DUP5 DUP8 LT PUSH2 0x147 JUMPI POP DUP2 PUSH2 0x1A4 JUMP JUMPDEST DUP6 DUP8 LT ISZERO PUSH2 0x157 JUMPI POP PUSH1 0x0 PUSH2 0x1A4 JUMP JUMPDEST PUSH1 0x0 PUSH2 0x163 DUP8 DUP10 PUSH2 0x34C JUMP JUMPDEST SWAP1 POP PUSH1 0x0 PUSH2 0x171 DUP5 DUP4 PUSH2 0x319 JUMP JUMPDEST PUSH2 0x17C SWAP1 PUSH1 0x1 PUSH2 0x301 JUMP JUMPDEST SWAP1 POP PUSH1 0x0 PUSH2 0x18A DUP8 DUP4 PUSH2 0x32D JUMP JUMPDEST SWAP1 POP DUP6 DUP2 GT ISZERO PUSH2 0x19F JUMPI DUP6 SWAP4 POP POP POP POP PUSH2 0x1A4 JUMP JUMPDEST SWAP3 POP POP POP JUMPDEST SWAP7 SWAP6 POP POP POP POP POP POP JUMP JUMPDEST PUSH1 0x0 PUSH2 0x1A4 DUP7 DUP7 DUP7 DUP7 DUP7 PUSH3 0x278D00 PUSH2 0x137 JUMP JUMPDEST PUSH1 0x0 PUSH2 0x1CD DUP4 DUP6 PUSH2 0xEC JUMP JUMPDEST PUSH2 0x1D7 SWAP1 DUP4 PUSH2 0x32D JUMP JUMPDEST PUSH2 0x1E1 SWAP1 DUP7 PUSH2 0x301 JUMP JUMPDEST SWAP6 SWAP5 POP POP POP POP POP JUMP JUMPDEST PUSH1 0x0 PUSH2 0x1FB DUP5 DUP5 DUP5 PUSH3 0x278D00 PUSH2 0x1C1 JUMP JUMPDEST SWAP5 SWAP4 POP POP POP POP JUMP JUMPDEST PUSH1 0x0 DUP1 PUSH1 0x40 DUP4 DUP6 SUB SLT ISZERO PUSH2 0x216 JUMPI PUSH1 0x0 DUP1 REVERT JUMPDEST POP POP DUP1 CALLDATALOAD SWAP3 PUSH1 0x20 SWAP1 SWAP2 ADD CALLDATALOAD SWAP2 POP JUMP JUMPDEST PUSH1 0x0 DUP1 PUSH1 0x0 PUSH1 0x60 DUP5 DUP7 SUB SLT ISZERO PUSH2 0x23A JUMPI PUSH1 0x0 DUP1 REVERT JUMPDEST POP POP DUP2 CALLDATALOAD SWAP4 PUSH1 0x20 DUP4 ADD CALLDATALOAD SWAP4 POP PUSH1 0x40 SWAP1 SWAP3 ADD CALLDATALOAD SWAP2 SWAP1 POP JUMP JUMPDEST PUSH1 0x0 DUP1 PUSH1 0x0 DUP1 PUSH1 0x80 DUP6 DUP8 SUB SLT ISZERO PUSH2 0x267 JUMPI PUSH1 0x0 DUP1 REVERT JUMPDEST POP POP DUP3 CALLDATALOAD SWAP5 PUSH1 0x20 DUP5 ADD CALLDATALOAD SWAP5 POP PUSH1 0x40 DUP5 ADD CALLDATALOAD SWAP4 PUSH1 0x60 ADD CALLDATALOAD SWAP3 POP SWAP1 POP JUMP JUMPDEST PUSH1 0x0 DUP1 PUSH1 0x0 DUP1 PUSH1 0x0 PUSH1 0xA0 DUP7 DUP9 SUB SLT ISZERO PUSH2 0x29B JUMPI PUSH1 0x0 DUP1 REVERT JUMPDEST POP POP DUP4 CALLDATALOAD SWAP6 PUSH1 0x20 DUP6 ADD CALLDATALOAD SWAP6 POP PUSH1 0x40 DUP6 ADD CALLDATALOAD SWAP5 PUSH1 0x60 DUP2 ADD CALLDATALOAD SWAP5 POP PUSH1 0x80 ADD CALLDATALOAD SWAP3 POP SWAP1 POP JUMP JUMPDEST PUSH1 0x0 DUP1 PUSH1 0x0 DUP1 PUSH1 0x0 DUP1 PUSH1 0xC0 DUP8 DUP10 SUB SLT ISZERO PUSH2 0x2D7 JUMPI PUSH1 0x0 DUP1 REVERT JUMPDEST POP POP DUP5 CALLDATALOAD SWAP7 PUSH1 0x20 DUP7 ADD CALLDATALOAD SWAP7 POP PUSH1 0x40 DUP7 ADD CALLDATALOAD SWAP6 PUSH1 0x60 DUP2 ADD CALLDATALOAD SWAP6 POP PUSH1 0x80 DUP2 ADD CALLDATALOAD SWAP5 POP PUSH1 0xA0 ADD CALLDATALOAD SWAP3 POP SWAP1 POP JUMP JUMPDEST PUSH1 0x0 DUP3 NOT DUP3 GT ISZERO PUSH2 0x314 JUMPI PUSH2 0x314 PUSH2 0x377 JUMP JUMPDEST POP ADD SWAP1 JUMP JUMPDEST PUSH1 0x0 DUP3 PUSH2 0x328 JUMPI PUSH2 0x328 PUSH2 0x38D JUMP JUMPDEST POP DIV SWAP1 JUMP JUMPDEST PUSH1 0x0 DUP2 PUSH1 0x0 NOT DIV DUP4 GT DUP3 ISZERO ISZERO AND ISZERO PUSH2 0x347 JUMPI PUSH2 0x347 PUSH2 0x377 JUMP JUMPDEST POP MUL SWAP1 JUMP JUMPDEST PUSH1 0x0 DUP3 DUP3 LT ISZERO PUSH2 0x35E JUMPI PUSH2 0x35E PUSH2 0x377 JUMP JUMPDEST POP SUB SWAP1 JUMP JUMPDEST PUSH1 0x0 DUP3 PUSH2 0x372 JUMPI PUSH2 0x372 PUSH2 0x38D JUMP JUMPDEST POP MOD SWAP1 JUMP JUMPDEST PUSH4 0x4E487B71 PUSH1 0xE0 SHL PUSH1 0x0 MSTORE PUSH1 0x11 PUSH1 0x4 MSTORE PUSH1 0x24 PUSH1 0x0 REVERT JUMPDEST PUSH4 0x4E487B71 PUSH1 0xE0 SHL PUSH1 0x0 MSTORE PUSH1 0x12 PUSH1 0x4 MSTORE PUSH1 0x24 PUSH1 0x0 REVERT INVALID LOG2 PUSH5 0x6970667358 0x22 SLT KECCAK256 0xF 0xD8 0xED 0xBB 0xE2 PUSH32 0xB06B9CCE7A518CD16CD0E393EBB8F4C9EBEFAF31B99D556887A564736F6C6343 STOP ADDMOD SDIV STOP CALLER ",
  "sha1": "53035f40959cc298a5ec311a6999ee4ef16f4b4f",
  "source": "// // SPDX-License-Identifier: MIT\npragma solidity ^0.8.5;\n\n//math relating to vesting schedules\nlibrary VestingMath {\n    uint256 public constant DEFAULT_PERIOD = 30 days;\n\n    // divide a with m and choose higher value if its round\n    // a > m\n    function ceildiv(uint256 a, uint256 m) public pure returns (uint256) {\n        uint256 t = a % m;\n        if (t == 0) {\n            return a / m;\n        } else {\n            return (a + (m - t)) / m;\n        }\n    }\n\n    function getEndTime(\n        uint256 _cliffTime,\n        uint256 _amountPerPeriod,\n        uint256 _totalAmount,\n        uint256 _period\n    ) public pure returns (uint256) {\n        return\n            _cliffTime + (_period * (ceildiv(_totalAmount, _amountPerPeriod)));\n    }\n\n    function getEndTime(\n        uint256 _cliffTime,\n        uint256 _amountPerPeriod,\n        uint256 _totalAmount\n    ) public pure returns (uint256) {\n        return\n            getEndTime(\n                _cliffTime,\n                _amountPerPeriod,\n                _totalAmount,\n                DEFAULT_PERIOD\n            );\n    }\n\n    function getVestedAmountTSX(\n        uint256 blocktime,\n        uint256 cliffTime,\n        uint256 endTime,\n        uint256 amountPerPeriod,\n        uint256 totalAmount,\n        uint256 period\n    ) public pure returns (uint256) {\n        if (blocktime >= endTime) return totalAmount;\n\n        // returns 0 if cliffTime is not reached\n        if (blocktime < cliffTime) return 0;\n\n        uint256 timeSinceCliff = blocktime - cliffTime;\n        uint256 validPeriodCount = timeSinceCliff / period + 1; // at cliff, one amount is withdrawable\n        uint256 potentialReturned = validPeriodCount * amountPerPeriod;\n\n        if (potentialReturned > totalAmount) {\n            return totalAmount;\n        }\n\n        return potentialReturned;\n    }\n\n    function getVestedAmountTS(\n        uint256 blocktime,\n        uint256 cliffTime,\n        uint256 endTime,\n        uint256 amountPerPeriod,\n        uint256 totalAmount\n    ) public pure returns (uint256) {\n        return\n            getVestedAmountTSX(\n                blocktime,\n                cliffTime,\n                endTime,\n                amountPerPeriod,\n                totalAmount,\n                DEFAULT_PERIOD\n            );\n    }\n}\n",
  "sourcePath": "contracts/VestingMath.sol",
  "type": "library"
}