{
  "abi": [
    {
      "inputs": [],
      "name": "DEFAULT_PERIOD",
      "outputs": [
        {
          "internalType": "uint256",
          "name": "",
          "type": "uint256"
        }
      ],
      "stateMutability": "view",
      "type": "function"
    },
    {
      "inputs": [],
      "name": "advisorsPeriods",
      "outputs": [
        {
          "internalType": "uint256",
          "name": "",
          "type": "uint256"
        }
      ],
      "stateMutability": "view",
      "type": "function"
    },
    {
      "inputs": [],
      "name": "advisoryAmount",
      "outputs": [
        {
          "internalType": "uint256",
          "name": "",
          "type": "uint256"
        }
      ],
      "stateMutability": "view",
      "type": "function"
    },
    {
      "inputs": [],
      "name": "advisoryCliff",
      "outputs": [
        {
          "internalType": "uint256",
          "name": "",
          "type": "uint256"
        }
      ],
      "stateMutability": "view",
      "type": "function"
    },
    {
      "inputs": [],
      "name": "ecoAmount",
      "outputs": [
        {
          "internalType": "uint256",
          "name": "",
          "type": "uint256"
        }
      ],
      "stateMutability": "view",
      "type": "function"
    },
    {
      "inputs": [],
      "name": "ecoCliff",
      "outputs": [
        {
          "internalType": "uint256",
          "name": "",
          "type": "uint256"
        }
      ],
      "stateMutability": "view",
      "type": "function"
    },
    {
      "inputs": [],
      "name": "ecoPeriods",
      "outputs": [
        {
          "internalType": "uint256",
          "name": "",
          "type": "uint256"
        }
      ],
      "stateMutability": "view",
      "type": "function"
    },
    {
      "inputs": [],
      "name": "liqAmount",
      "outputs": [
        {
          "internalType": "uint256",
          "name": "",
          "type": "uint256"
        }
      ],
      "stateMutability": "view",
      "type": "function"
    },
    {
      "inputs": [],
      "name": "liqCliff",
      "outputs": [
        {
          "internalType": "uint256",
          "name": "",
          "type": "uint256"
        }
      ],
      "stateMutability": "view",
      "type": "function"
    },
    {
      "inputs": [],
      "name": "liqPeriods",
      "outputs": [
        {
          "internalType": "uint256",
          "name": "",
          "type": "uint256"
        }
      ],
      "stateMutability": "view",
      "type": "function"
    },
    {
      "inputs": [],
      "name": "lpgrantsAmount",
      "outputs": [
        {
          "internalType": "uint256",
          "name": "",
          "type": "uint256"
        }
      ],
      "stateMutability": "view",
      "type": "function"
    },
    {
      "inputs": [],
      "name": "lpgrantsCliff",
      "outputs": [
        {
          "internalType": "uint256",
          "name": "",
          "type": "uint256"
        }
      ],
      "stateMutability": "view",
      "type": "function"
    },
    {
      "inputs": [],
      "name": "lpgrantsPeriods",
      "outputs": [
        {
          "internalType": "uint256",
          "name": "",
          "type": "uint256"
        }
      ],
      "stateMutability": "view",
      "type": "function"
    },
    {
      "inputs": [],
      "name": "lprewardsAmount",
      "outputs": [
        {
          "internalType": "uint256",
          "name": "",
          "type": "uint256"
        }
      ],
      "stateMutability": "view",
      "type": "function"
    },
    {
      "inputs": [],
      "name": "lprewardsPeriods",
      "outputs": [
        {
          "internalType": "uint256",
          "name": "",
          "type": "uint256"
        }
      ],
      "stateMutability": "view",
      "type": "function"
    },
    {
      "inputs": [],
      "name": "lpwRewardsCliff",
      "outputs": [
        {
          "internalType": "uint256",
          "name": "",
          "type": "uint256"
        }
      ],
      "stateMutability": "view",
      "type": "function"
    },
    {
      "inputs": [],
      "name": "privateAmount",
      "outputs": [
        {
          "internalType": "uint256",
          "name": "",
          "type": "uint256"
        }
      ],
      "stateMutability": "view",
      "type": "function"
    },
    {
      "inputs": [],
      "name": "privateCliff",
      "outputs": [
        {
          "internalType": "uint256",
          "name": "",
          "type": "uint256"
        }
      ],
      "stateMutability": "view",
      "type": "function"
    },
    {
      "inputs": [],
      "name": "privateMultiple",
      "outputs": [
        {
          "internalType": "uint256",
          "name": "",
          "type": "uint256"
        }
      ],
      "stateMutability": "view",
      "type": "function"
    },
    {
      "inputs": [],
      "name": "privatePeriods",
      "outputs": [
        {
          "internalType": "uint256",
          "name": "",
          "type": "uint256"
        }
      ],
      "stateMutability": "view",
      "type": "function"
    },
    {
      "inputs": [],
      "name": "publicAmount",
      "outputs": [
        {
          "internalType": "uint256",
          "name": "",
          "type": "uint256"
        }
      ],
      "stateMutability": "view",
      "type": "function"
    },
    {
      "inputs": [],
      "name": "publicCliff",
      "outputs": [
        {
          "internalType": "uint256",
          "name": "",
          "type": "uint256"
        }
      ],
      "stateMutability": "view",
      "type": "function"
    },
    {
      "inputs": [],
      "name": "publicMultiple",
      "outputs": [
        {
          "internalType": "uint256",
          "name": "",
          "type": "uint256"
        }
      ],
      "stateMutability": "view",
      "type": "function"
    },
    {
      "inputs": [],
      "name": "publicPeriods",
      "outputs": [
        {
          "internalType": "uint256",
          "name": "",
          "type": "uint256"
        }
      ],
      "stateMutability": "view",
      "type": "function"
    },
    {
      "inputs": [],
      "name": "seedAmount",
      "outputs": [
        {
          "internalType": "uint256",
          "name": "",
          "type": "uint256"
        }
      ],
      "stateMutability": "view",
      "type": "function"
    },
    {
      "inputs": [],
      "name": "seedCliff",
      "outputs": [
        {
          "internalType": "uint256",
          "name": "",
          "type": "uint256"
        }
      ],
      "stateMutability": "view",
      "type": "function"
    },
    {
      "inputs": [],
      "name": "seedMultiple",
      "outputs": [
        {
          "internalType": "uint256",
          "name": "",
          "type": "uint256"
        }
      ],
      "stateMutability": "view",
      "type": "function"
    },
    {
      "inputs": [],
      "name": "seedPeriods",
      "outputs": [
        {
          "internalType": "uint256",
          "name": "",
          "type": "uint256"
        }
      ],
      "stateMutability": "view",
      "type": "function"
    },
    {
      "inputs": [],
      "name": "teamAmount",
      "outputs": [
        {
          "internalType": "uint256",
          "name": "",
          "type": "uint256"
        }
      ],
      "stateMutability": "view",
      "type": "function"
    },
    {
      "inputs": [],
      "name": "teamCliff",
      "outputs": [
        {
          "internalType": "uint256",
          "name": "",
          "type": "uint256"
        }
      ],
      "stateMutability": "view",
      "type": "function"
    },
    {
      "inputs": [],
      "name": "teamPeriods",
      "outputs": [
        {
          "internalType": "uint256",
          "name": "",
          "type": "uint256"
        }
      ],
      "stateMutability": "view",
      "type": "function"
    },
    {
      "inputs": [],
      "name": "trademiningAmount",
      "outputs": [
        {
          "internalType": "uint256",
          "name": "",
          "type": "uint256"
        }
      ],
      "stateMutability": "view",
      "type": "function"
    },
    {
      "inputs": [],
      "name": "trademiningCliff",
      "outputs": [
        {
          "internalType": "uint256",
          "name": "",
          "type": "uint256"
        }
      ],
      "stateMutability": "view",
      "type": "function"
    },
    {
      "inputs": [],
      "name": "trademiningPeriods",
      "outputs": [
        {
          "internalType": "uint256",
          "name": "",
          "type": "uint256"
        }
      ],
      "stateMutability": "view",
      "type": "function"
    },
    {
      "inputs": [],
      "name": "treasuryAmount",
      "outputs": [
        {
          "internalType": "uint256",
          "name": "",
          "type": "uint256"
        }
      ],
      "stateMutability": "view",
      "type": "function"
    },
    {
      "inputs": [],
      "name": "treasuryCliff",
      "outputs": [
        {
          "internalType": "uint256",
          "name": "",
          "type": "uint256"
        }
      ],
      "stateMutability": "view",
      "type": "function"
    },
    {
      "inputs": [],
      "name": "treasuryPeriods",
      "outputs": [
        {
          "internalType": "uint256",
          "name": "",
          "type": "uint256"
        }
      ],
      "stateMutability": "view",
      "type": "function"
    }
  ],
  "bytecode": "61042361003a600b82828239805160001a60731461002d57634e487b7160e01b600052600060045260246000fd5b30600052607381538281f3fe73000000000000000000000000000000000000000030146080604052600436106102305760003560e01c8063780e78931161013a578063c51ce9ad116100c2578063db00d83811610086578063db00d838146102d1578063dcc91480146102a9578063e789fd7f146102a9578063e93aa5881461027b578063f0be9b9f146102fb57600080fd5b8063c51ce9ad146102eb578063c5774a3f146102f3578063c81ae9ee14610257578063cfcb12f0146102d1578063d3145f08146102b957600080fd5b80638df46565116101095780638df46565146102d1578063a26b3ca7146102d9578063a27a9e7f146102e3578063a2cbc624146102d1578063a406e51a146102d957600080fd5b8063780e7893146102575780638057f3321461023557806386e0e392146102c95780638824f00b146102b157600080fd5b8063368acb09116101bd5780635bacfddb1161018c5780635bacfddb146102a957806362afd79f1461024f5780636b4cd109146102b157806370439385146102b9578063763f7f32146102c157600080fd5b8063368acb09146102835780633879c9f31461028d5780634e761f9e14610297578063546dd883146102a157600080fd5b806311385082116102045780631138508214610235578063272f8b62146102575780632b2a37371461026b5780632da452a414610273578063342965dd1461027b57600080fd5b8062ee0ec814610235578063013296e11461024f57806306e6446c1461025757806308f35b2614610261575b600080fd5b61023d600681565b60405190815260200160405180910390f35b61023d610303565b61023d62278d0081565b61023d629e340081565b61023d605481565b61023d610314565b61023d600c81565b61023d6259027581565b61023d62ed4e0081565b61023d620d2f0081565b61023d610322565b61023d600081565b61023d610330565b61023d61033e565b61023d600181565b61023d606481565b61023d600381565b61023d624f1a0081565b61023d61034c565b61023d600281565b61023d61037e565b61023d607d81565b610311620f424060326103b8565b81565b610311620f424060646103b8565b610311620f424060416103b8565b610311620f424060c86103b8565b610311620f424060966103b8565b61035a6103e861029a6103b8565b610368620f424060106103b8565b61037291906103a0565b6103119061029b6103a0565b61038c6103e86101f46103b8565b61039a620f4240600c6103b8565b61031191905b600082198211156103b3576103b36103d7565b500190565b60008160001904831182151516156103d2576103d26103d7565b500290565b634e487b7160e01b600052601160045260246000fdfea2646970667358221220ba087b1796704824a51e55d172473babb483296878ac8a0a6913ca3de0fd18ed64736f6c63430008050033",
  "bytecodeSha1": "efcbe2661704ce24c62536bee58969901f7acdf1",
  "compiler": {
    "evm_version": "istanbul",
    "optimizer": {
      "enabled": true,
      "runs": 200
    },
    "version": "0.8.5+commit.a4f2e591"
  },
  "contractName": "VestingConstants",
  "language": "Solidity",
  "natspec": {
    "kind": "dev",
    "methods": {},
    "version": 1
  },
  "opcodes": "PUSH20 0x0 ADDRESS EQ PUSH1 0x80 PUSH1 0x40 MSTORE PUSH1 0x4 CALLDATASIZE LT PUSH2 0x230 JUMPI PUSH1 0x0 CALLDATALOAD PUSH1 0xE0 SHR DUP1 PUSH4 0x780E7893 GT PUSH2 0x13A JUMPI DUP1 PUSH4 0xC51CE9AD GT PUSH2 0xC2 JUMPI DUP1 PUSH4 0xDB00D838 GT PUSH2 0x86 JUMPI DUP1 PUSH4 0xDB00D838 EQ PUSH2 0x2D1 JUMPI DUP1 PUSH4 0xDCC91480 EQ PUSH2 0x2A9 JUMPI DUP1 PUSH4 0xE789FD7F EQ PUSH2 0x2A9 JUMPI DUP1 PUSH4 0xE93AA588 EQ PUSH2 0x27B JUMPI DUP1 PUSH4 0xF0BE9B9F EQ PUSH2 0x2FB JUMPI PUSH1 0x0 DUP1 REVERT JUMPDEST DUP1 PUSH4 0xC51CE9AD EQ PUSH2 0x2EB JUMPI DUP1 PUSH4 0xC5774A3F EQ PUSH2 0x2F3 JUMPI DUP1 PUSH4 0xC81AE9EE EQ PUSH2 0x257 JUMPI DUP1 PUSH4 0xCFCB12F0 EQ PUSH2 0x2D1 JUMPI DUP1 PUSH4 0xD3145F08 EQ PUSH2 0x2B9 JUMPI PUSH1 0x0 DUP1 REVERT JUMPDEST DUP1 PUSH4 0x8DF46565 GT PUSH2 0x109 JUMPI DUP1 PUSH4 0x8DF46565 EQ PUSH2 0x2D1 JUMPI DUP1 PUSH4 0xA26B3CA7 EQ PUSH2 0x2D9 JUMPI DUP1 PUSH4 0xA27A9E7F EQ PUSH2 0x2E3 JUMPI DUP1 PUSH4 0xA2CBC624 EQ PUSH2 0x2D1 JUMPI DUP1 PUSH4 0xA406E51A EQ PUSH2 0x2D9 JUMPI PUSH1 0x0 DUP1 REVERT JUMPDEST DUP1 PUSH4 0x780E7893 EQ PUSH2 0x257 JUMPI DUP1 PUSH4 0x8057F332 EQ PUSH2 0x235 JUMPI DUP1 PUSH4 0x86E0E392 EQ PUSH2 0x2C9 JUMPI DUP1 PUSH4 0x8824F00B EQ PUSH2 0x2B1 JUMPI PUSH1 0x0 DUP1 REVERT JUMPDEST DUP1 PUSH4 0x368ACB09 GT PUSH2 0x1BD JUMPI DUP1 PUSH4 0x5BACFDDB GT PUSH2 0x18C JUMPI DUP1 PUSH4 0x5BACFDDB EQ PUSH2 0x2A9 JUMPI DUP1 PUSH4 0x62AFD79F EQ PUSH2 0x24F JUMPI DUP1 PUSH4 0x6B4CD109 EQ PUSH2 0x2B1 JUMPI DUP1 PUSH4 0x70439385 EQ PUSH2 0x2B9 JUMPI DUP1 PUSH4 0x763F7F32 EQ PUSH2 0x2C1 JUMPI PUSH1 0x0 DUP1 REVERT JUMPDEST DUP1 PUSH4 0x368ACB09 EQ PUSH2 0x283 JUMPI DUP1 PUSH4 0x3879C9F3 EQ PUSH2 0x28D JUMPI DUP1 PUSH4 0x4E761F9E EQ PUSH2 0x297 JUMPI DUP1 PUSH4 0x546DD883 EQ PUSH2 0x2A1 JUMPI PUSH1 0x0 DUP1 REVERT JUMPDEST DUP1 PUSH4 0x11385082 GT PUSH2 0x204 JUMPI DUP1 PUSH4 0x11385082 EQ PUSH2 0x235 JUMPI DUP1 PUSH4 0x272F8B62 EQ PUSH2 0x257 JUMPI DUP1 PUSH4 0x2B2A3737 EQ PUSH2 0x26B JUMPI DUP1 PUSH4 0x2DA452A4 EQ PUSH2 0x273 JUMPI DUP1 PUSH4 0x342965DD EQ PUSH2 0x27B JUMPI PUSH1 0x0 DUP1 REVERT JUMPDEST DUP1 PUSH3 0xEE0EC8 EQ PUSH2 0x235 JUMPI DUP1 PUSH4 0x13296E1 EQ PUSH2 0x24F JUMPI DUP1 PUSH4 0x6E6446C EQ PUSH2 0x257 JUMPI DUP1 PUSH4 0x8F35B26 EQ PUSH2 0x261 JUMPI JUMPDEST PUSH1 0x0 DUP1 REVERT JUMPDEST PUSH2 0x23D PUSH1 0x6 DUP2 JUMP JUMPDEST PUSH1 0x40 MLOAD SWAP1 DUP2 MSTORE PUSH1 0x20 ADD PUSH1 0x40 MLOAD DUP1 SWAP2 SUB SWAP1 RETURN JUMPDEST PUSH2 0x23D PUSH2 0x303 JUMP JUMPDEST PUSH2 0x23D PUSH3 0x278D00 DUP2 JUMP JUMPDEST PUSH2 0x23D PUSH3 0x9E3400 DUP2 JUMP JUMPDEST PUSH2 0x23D PUSH1 0x54 DUP2 JUMP JUMPDEST PUSH2 0x23D PUSH2 0x314 JUMP JUMPDEST PUSH2 0x23D PUSH1 0xC DUP2 JUMP JUMPDEST PUSH2 0x23D PUSH3 0x590275 DUP2 JUMP JUMPDEST PUSH2 0x23D PUSH3 0xED4E00 DUP2 JUMP JUMPDEST PUSH2 0x23D PUSH3 0xD2F00 DUP2 JUMP JUMPDEST PUSH2 0x23D PUSH2 0x322 JUMP JUMPDEST PUSH2 0x23D PUSH1 0x0 DUP2 JUMP JUMPDEST PUSH2 0x23D PUSH2 0x330 JUMP JUMPDEST PUSH2 0x23D PUSH2 0x33E JUMP JUMPDEST PUSH2 0x23D PUSH1 0x1 DUP2 JUMP JUMPDEST PUSH2 0x23D PUSH1 0x64 DUP2 JUMP JUMPDEST PUSH2 0x23D PUSH1 0x3 DUP2 JUMP JUMPDEST PUSH2 0x23D PUSH3 0x4F1A00 DUP2 JUMP JUMPDEST PUSH2 0x23D PUSH2 0x34C JUMP JUMPDEST PUSH2 0x23D PUSH1 0x2 DUP2 JUMP JUMPDEST PUSH2 0x23D PUSH2 0x37E JUMP JUMPDEST PUSH2 0x23D PUSH1 0x7D DUP2 JUMP JUMPDEST PUSH2 0x311 PUSH3 0xF4240 PUSH1 0x32 PUSH2 0x3B8 JUMP JUMPDEST DUP2 JUMP JUMPDEST PUSH2 0x311 PUSH3 0xF4240 PUSH1 0x64 PUSH2 0x3B8 JUMP JUMPDEST PUSH2 0x311 PUSH3 0xF4240 PUSH1 0x41 PUSH2 0x3B8 JUMP JUMPDEST PUSH2 0x311 PUSH3 0xF4240 PUSH1 0xC8 PUSH2 0x3B8 JUMP JUMPDEST PUSH2 0x311 PUSH3 0xF4240 PUSH1 0x96 PUSH2 0x3B8 JUMP JUMPDEST PUSH2 0x35A PUSH2 0x3E8 PUSH2 0x29A PUSH2 0x3B8 JUMP JUMPDEST PUSH2 0x368 PUSH3 0xF4240 PUSH1 0x10 PUSH2 0x3B8 JUMP JUMPDEST PUSH2 0x372 SWAP2 SWAP1 PUSH2 0x3A0 JUMP JUMPDEST PUSH2 0x311 SWAP1 PUSH2 0x29B PUSH2 0x3A0 JUMP JUMPDEST PUSH2 0x38C PUSH2 0x3E8 PUSH2 0x1F4 PUSH2 0x3B8 JUMP JUMPDEST PUSH2 0x39A PUSH3 0xF4240 PUSH1 0xC PUSH2 0x3B8 JUMP JUMPDEST PUSH2 0x311 SWAP2 SWAP1 JUMPDEST PUSH1 0x0 DUP3 NOT DUP3 GT ISZERO PUSH2 0x3B3 JUMPI PUSH2 0x3B3 PUSH2 0x3D7 JUMP JUMPDEST POP ADD SWAP1 JUMP JUMPDEST PUSH1 0x0 DUP2 PUSH1 0x0 NOT DIV DUP4 GT DUP3 ISZERO ISZERO AND ISZERO PUSH2 0x3D2 JUMPI PUSH2 0x3D2 PUSH2 0x3D7 JUMP JUMPDEST POP MUL SWAP1 JUMP JUMPDEST PUSH4 0x4E487B71 PUSH1 0xE0 SHL PUSH1 0x0 MSTORE PUSH1 0x11 PUSH1 0x4 MSTORE PUSH1 0x24 PUSH1 0x0 REVERT INVALID LOG2 PUSH5 0x6970667358 0x22 SLT KECCAK256 0xBA ADDMOD PUSH28 0x1796704824A51E55D172473BABB483296878AC8A0A6913CA3DE0FD18 0xED PUSH5 0x736F6C6343 STOP ADDMOD SDIV STOP CALLER ",
  "sha1": "4080538a0e4fa07b61e8734750684c67883c1c70",
  "source": "// // SPDX-License-Identifier: MIT\npragma solidity ^0.8.5;\n\nlibrary VestingConstants {\n    uint256 public constant DEFAULT_PERIOD = 30 days;\n\n    uint256 constant K = 10**3;\n    uint256 constant M = 10**6;\n\n    //multiple is 1/price\n    uint256 public constant seedMultiple = 125; //0.008$\n    uint256 public constant privateMultiple = 100; //0.01$\n    uint256 public constant publicMultiple = 84; //0.0119$\n\n    //1000M supply allocate to 11 buckets\n    //total amounts, no decimals\n    uint256 public constant seedAmount = 12 * M + 500 * K;\n    uint256 public constant privateAmount = 65 * M;\n    uint256 public constant publicAmount = 16 * M + 666 * K + 667;\n    uint256 public constant liqAmount = 150 * M;\n    uint256 public constant lprewardsAmount = 200 * M;\n    uint256 public constant lpgrantsAmount = 50 * M;\n    uint256 public constant ecoAmount = 100 * M;\n    uint256 public constant trademiningAmount = 200 * M;\n    uint256 public constant teamAmount = 150 * M;\n    uint256 public constant advisoryAmount = 50 * M;\n    //treasury is the rest\n    uint256 public constant treasuryAmount = 5833333;\n\n    //cliffs\n    uint256 public constant seedCliff = 0 days; //33%\n    uint256 public constant privateCliff = 0 days;\n    uint256 public constant publicCliff = 0 days;\n    uint256 public constant liqCliff = 30 days;\n    uint256 public constant lpwRewardsCliff = 30 days;\n    uint256 public constant lpgrantsCliff = 60 days;\n    uint256 public constant ecoCliff = 120 days;\n    uint256 public constant trademiningCliff = 10 days;\n    uint256 public constant teamCliff = 180 days;\n    uint256 public constant advisoryCliff = 60 days;\n    uint256 public constant treasuryCliff = 30 days;\n\n    //durations\n    uint256 public constant seedPeriods = 6;\n    uint256 public constant privatePeriods = 6;\n    uint256 public constant publicPeriods = 3;\n    uint256 public constant liqPeriods = 2;\n    uint256 public constant lprewardsPeriods = 3;\n    uint256 public constant lpgrantsPeriods = 3;\n    uint256 public constant ecoPeriods = 6;\n    uint256 public constant trademiningPeriods = 3;\n    uint256 public constant teamPeriods = 12;\n    uint256 public constant advisorsPeriods = 12;\n    uint256 public constant treasuryPeriods = 1;\n}\n",
  "sourcePath": "contracts/VestingConstants.sol",
  "type": "library"
}