{
  "abi": [
    {
      "inputs": [
        {
          "internalType": "address",
          "name": "_VEGA_TOKEN_ADDRESS",
          "type": "address"
        },
        {
          "internalType": "uint256",
          "name": "_cliffTime",
          "type": "uint256"
        },
        {
          "internalType": "uint256",
          "name": "_numPeriods",
          "type": "uint256"
        },
        {
          "internalType": "uint256",
          "name": "_totalAmount",
          "type": "uint256"
        }
      ],
      "stateMutability": "nonpayable",
      "type": "constructor"
    },
    {
      "anonymous": false,
      "inputs": [
        {
          "indexed": true,
          "internalType": "address",
          "name": "addr",
          "type": "address"
        },
        {
          "indexed": false,
          "internalType": "uint256",
          "name": "amount",
          "type": "uint256"
        }
      ],
      "name": "DepositOwner",
      "type": "event"
    },
    {
      "anonymous": false,
      "inputs": [
        {
          "indexed": true,
          "internalType": "address",
          "name": "addr",
          "type": "address"
        },
        {
          "indexed": false,
          "internalType": "uint256",
          "name": "amount",
          "type": "uint256"
        }
      ],
      "name": "WithdrawClaim",
      "type": "event"
    },
    {
      "anonymous": false,
      "inputs": [
        {
          "indexed": false,
          "internalType": "uint256",
          "name": "amount",
          "type": "uint256"
        }
      ],
      "name": "WithdrawOwner",
      "type": "event"
    },
    {
      "inputs": [
        {
          "internalType": "address",
          "name": "_claimAddress",
          "type": "address"
        },
        {
          "internalType": "uint256",
          "name": "_claimTotalAmount",
          "type": "uint256"
        }
      ],
      "name": "addClaim",
      "outputs": [],
      "stateMutability": "nonpayable",
      "type": "function"
    },
    {
      "inputs": [],
      "name": "allClaim",
      "outputs": [],
      "stateMutability": "nonpayable",
      "type": "function"
    },
    {
      "inputs": [],
      "name": "bucketAmountPerPeriod",
      "outputs": [
        {
          "internalType": "uint256",
          "name": "",
          "type": "uint256"
        }
      ],
      "stateMutability": "view",
      "type": "function"
    },
    {
      "inputs": [
        {
          "internalType": "uint256",
          "name": "",
          "type": "uint256"
        }
      ],
      "name": "claimAddresses",
      "outputs": [
        {
          "internalType": "address",
          "name": "",
          "type": "address"
        }
      ],
      "stateMutability": "view",
      "type": "function"
    },
    {
      "inputs": [
        {
          "internalType": "address",
          "name": "",
          "type": "address"
        }
      ],
      "name": "claims",
      "outputs": [
        {
          "internalType": "address",
          "name": "claimAddress",
          "type": "address"
        },
        {
          "internalType": "uint256",
          "name": "claimTotalAmount",
          "type": "uint256"
        },
        {
          "internalType": "uint256",
          "name": "amountPerPeriod",
          "type": "uint256"
        },
        {
          "internalType": "uint256",
          "name": "withdrawnAmount",
          "type": "uint256"
        },
        {
          "internalType": "bool",
          "name": "isAdded",
          "type": "bool"
        }
      ],
      "stateMutability": "view",
      "type": "function"
    },
    {
      "inputs": [],
      "name": "cliffTime",
      "outputs": [
        {
          "internalType": "uint256",
          "name": "",
          "type": "uint256"
        }
      ],
      "stateMutability": "view",
      "type": "function"
    },
    {
      "inputs": [],
      "name": "endTime",
      "outputs": [
        {
          "internalType": "uint256",
          "name": "",
          "type": "uint256"
        }
      ],
      "stateMutability": "view",
      "type": "function"
    },
    {
      "inputs": [],
      "name": "getCurrentTime",
      "outputs": [
        {
          "internalType": "uint256",
          "name": "",
          "type": "uint256"
        }
      ],
      "stateMutability": "view",
      "type": "function"
    },
    {
      "inputs": [
        {
          "internalType": "address",
          "name": "_claimAddress",
          "type": "address"
        }
      ],
      "name": "getVestableAmount",
      "outputs": [
        {
          "internalType": "uint256",
          "name": "",
          "type": "uint256"
        }
      ],
      "stateMutability": "view",
      "type": "function"
    },
    {
      "inputs": [],
      "name": "getVestableAmountAll",
      "outputs": [
        {
          "internalType": "uint256",
          "name": "",
          "type": "uint256"
        }
      ],
      "stateMutability": "view",
      "type": "function"
    },
    {
      "inputs": [
        {
          "components": [
            {
              "internalType": "address",
              "name": "claimAddress",
              "type": "address"
            },
            {
              "internalType": "uint256",
              "name": "claimTotalAmount",
              "type": "uint256"
            },
            {
              "internalType": "uint256",
              "name": "amountPerPeriod",
              "type": "uint256"
            },
            {
              "internalType": "uint256",
              "name": "withdrawnAmount",
              "type": "uint256"
            },
            {
              "internalType": "bool",
              "name": "isAdded",
              "type": "bool"
            }
          ],
          "internalType": "struct VestingBucket.Claim",
          "name": "claim",
          "type": "tuple"
        }
      ],
      "name": "getVestedAmount",
      "outputs": [
        {
          "internalType": "uint256",
          "name": "",
          "type": "uint256"
        }
      ],
      "stateMutability": "view",
      "type": "function"
    },
    {
      "inputs": [],
      "name": "name",
      "outputs": [
        {
          "internalType": "string",
          "name": "",
          "type": "string"
        }
      ],
      "stateMutability": "view",
      "type": "function"
    },
    {
      "inputs": [],
      "name": "numClaims",
      "outputs": [
        {
          "internalType": "uint256",
          "name": "",
          "type": "uint256"
        }
      ],
      "stateMutability": "view",
      "type": "function"
    },
    {
      "inputs": [],
      "name": "numPeriods",
      "outputs": [
        {
          "internalType": "uint256",
          "name": "",
          "type": "uint256"
        }
      ],
      "stateMutability": "view",
      "type": "function"
    },
    {
      "inputs": [],
      "name": "owner",
      "outputs": [
        {
          "internalType": "address",
          "name": "",
          "type": "address"
        }
      ],
      "stateMutability": "view",
      "type": "function"
    },
    {
      "inputs": [],
      "name": "registerTime",
      "outputs": [
        {
          "internalType": "uint256",
          "name": "",
          "type": "uint256"
        }
      ],
      "stateMutability": "view",
      "type": "function"
    },
    {
      "inputs": [
        {
          "internalType": "string",
          "name": "_name",
          "type": "string"
        }
      ],
      "name": "setName",
      "outputs": [],
      "stateMutability": "nonpayable",
      "type": "function"
    },
    {
      "inputs": [
        {
          "internalType": "address",
          "name": "_refowner",
          "type": "address"
        }
      ],
      "name": "setRefowner",
      "outputs": [],
      "stateMutability": "nonpayable",
      "type": "function"
    },
    {
      "inputs": [],
      "name": "totalAmount",
      "outputs": [
        {
          "internalType": "uint256",
          "name": "",
          "type": "uint256"
        }
      ],
      "stateMutability": "view",
      "type": "function"
    },
    {
      "inputs": [],
      "name": "totalClaimAmount",
      "outputs": [
        {
          "internalType": "uint256",
          "name": "",
          "type": "uint256"
        }
      ],
      "stateMutability": "view",
      "type": "function"
    },
    {
      "inputs": [],
      "name": "totalWithdrawnAmount",
      "outputs": [
        {
          "internalType": "uint256",
          "name": "",
          "type": "uint256"
        }
      ],
      "stateMutability": "view",
      "type": "function"
    },
    {
      "inputs": [],
      "name": "vega_token",
      "outputs": [
        {
          "internalType": "contract VegaToken",
          "name": "",
          "type": "address"
        }
      ],
      "stateMutability": "view",
      "type": "function"
    },
    {
      "inputs": [
        {
          "internalType": "address",
          "name": "_claimAddress",
          "type": "address"
        }
      ],
      "name": "vestClaimMax",
      "outputs": [],
      "stateMutability": "nonpayable",
      "type": "function"
    }
  ],
  "bytecode": "60806040523480156200001157600080fd5b50604051620013c5380380620013c583398101604081905262000034916200019c565b60008054336001600160a01b031991821617909155600280549091166001600160a01b038616179055426003819055831015620000c95760405162461bcd60e51b815260206004820152602960248201527f56455354494e474255434b455420636c696666206d75737420626520696e207460448201526868652066757475726560b81b606482015260840160405180910390fd5b6009839055600a829055600b819055620000e4828262000203565b600c81905560405163556b30b960e11b81526004810185905260248101919091526044810182905273__VestingMath___________________________9063aad661729060640160206040518083038186803b1580156200014457600080fd5b505af415801562000159573d6000803e3d6000fd5b505050506040513d601f19601f820116820180604052508101906200017f9190620001e9565b600d555050600060088190556007819055600e5550620002269050565b60008060008060808587031215620001b357600080fd5b84516001600160a01b0381168114620001cb57600080fd5b60208601516040870151606090970151919890975090945092505050565b600060208284031215620001fc57600080fd5b5051919050565b6000826200022157634e487b7160e01b600052601260045260246000fd5b500490565b61118f80620002366000396000f3fe608060405234801561001057600080fd5b506004361061014d5760003560e01c80638da5cb5b116100c3578063c6788bdd1161007c578063c6788bdd14610259578063d0029d61146102d7578063dcd65479146102ea578063dfa93099146102f3578063f8fcabe314610306578063fc0fc8491461031957600080fd5b80638da5cb5b146101eb578063b4cb529a14610210578063b622870314610218578063bbb6f3471461022b578063c06d30a71461023e578063c47f00271461024657600080fd5b806328dc8ed91161011557806328dc8ed9146101ae57806329cb924d146101c15780633197cbb6146101c757806334dadad5146101d057806335e9d90f146101d95780638523b7db146101e257600080fd5b806306fdde03146101525780630f1a6444146101705780631a39d8ef146101875780631d8b44c51461019057806321e76dc114610199575b600080fd5b61015a610322565b6040516101679190610fca565b60405180910390f35b61017960095481565b604051908152602001610167565b610179600b5481565b61017960085481565b6101ac6101a7366004610e0a565b6103b0565b005b6101ac6101bc366004610e0a565b61075b565b42610179565b610179600d5481565b61017960035481565b610179600c5481565b61017960075481565b6000546001600160a01b03165b6040516001600160a01b039091168152602001610167565b6101ac6107e6565b610179610226366004610f1d565b61087d565b6002546101f8906001600160a01b031681565b610179610937565b6101ac610254366004610e6c565b61099f565b6102a3610267366004610e0a565b600560205260009081526040902080546001820154600283015460038401546004909401546001600160a01b0390931693919290919060ff1685565b604080516001600160a01b03909616865260208601949094529284019190915260608301521515608082015260a001610167565b6101f86102e5366004610f98565b610a1f565b610179600a5481565b610179610301366004610e0a565b610a49565b6101ac610314366004610e25565b610ab4565b610179600e5481565b6001805461032f906110b3565b80601f016020809104026020016040519081016040528092919081815260200182805461035b906110b3565b80156103a85780601f1061037d576101008083540402835291602001916103a8565b820191906000526020600020905b81548152906001019060200180831161038b57829003601f168201915b505050505081565b336001600160a01b03821614806103d157506000546001600160a01b031633145b806103e657506004546001600160a01b031633145b61045d5760405162461bcd60e51b815260206004820152603760248201527f56455354494e474255434b45543a2063616e206f6e6c792063616c6c2066726f60448201527f6d20636c61696d61646472657373206f72206f776e657200000000000000000060648201526084015b60405180910390fd5b6001600160a01b03811660009081526005602052604090206004015460ff166104d45760405162461bcd60e51b815260206004820152602360248201527f56455354494e474255434b45543a20636c61696d20646f6573206e6f742065786044820152621a5cdd60ea1b6064820152608401610454565b6001600160a01b038082166000908152600560209081526040808320815160a0810183528154909516855260018101549285019290925260028201549084015260038101546060840152600481015460ff1615156080840152916105379061087d565b9050600082600301548261054b919061109c565b9050600081846003015461055f9190611062565b905083600101548111156105cd5760405162461bcd60e51b815260206004820152602f60248201527f56455354494e474255434b45543a2063616e206e6f742077697468647261772060448201526e1b5bdc99481d1a185b881d1bdd185b608a1b6064820152608401610454565b6000821161061d5760405162461bcd60e51b815260206004820181905260248201527f56455354494e474255434b45543a206e6f20616d6f756e7420636c61696d65646044820152606401610454565b60025460405163a9059cbb60e01b81526001600160a01b038781166004830152602482018590529091169063a9059cbb90604401602060405180830381600087803b15801561066b57600080fd5b505af115801561067f573d6000803e3d6000fd5b505050506040513d601f19601f820116820180604052508101906106a39190610e4f565b6106e15760405162461bcd60e51b815260206004820152600f60248201526e1d1c985b9cd9995c8819985a5b1959608a1b6044820152606401610454565b83546040518381526001600160a01b03909116907f394a4e97a8193f113cce457fc16cabc66ff1a10c478cdab3b82e5cc57c67bbf99060200160405180910390a2818460030160008282546107369190611062565b92505081905550816008600082825461074f9190611062565b90915550505050505050565b3361076e6000546001600160a01b031690565b6001600160a01b0316146107c45760405162461bcd60e51b815260206004820181905260248201527f4f776e61626c653a2063616c6c6572206973206e6f7420746865206f776e65726044820152606401610454565b600480546001600160a01b0319166001600160a01b0392909216919091179055565b6004546001600160a01b031633148061080957506000546001600160a01b031633145b6108255760405162461bcd60e51b81526004016104549061101f565b60005b600e5481101561087a576000600682815481106108475761084761111f565b6000918252602090912001546001600160a01b03169050610867816103b0565b5080610872816110ee565b915050610828565b50565b600954600d5460408381015160208501519151633f6b939360e11b8152426004820181905260248201959095526044810193909352606483015260848201526000919073__VestingMath___________________________90637ed727269060a4015b60206040518083038186803b1580156108f857600080fd5b505af415801561090c573d6000803e3d6000fd5b505050506040513d601f19601f820116820180604052508101906109309190610fb1565b9392505050565b600954600d54600c54600b54604051633f6b939360e11b81524260048201819052602482019590955260448101939093526064830191909152608482015260009190829073__VestingMath___________________________90637ed727269060a4016108e0565b336109b26000546001600160a01b031690565b6001600160a01b031614610a085760405162461bcd60e51b815260206004820181905260248201527f4f776e61626c653a2063616c6c6572206973206e6f7420746865206f776e65726044820152606401610454565b8051610a1b906001906020840190610d55565b5050565b60068181548110610a2f57600080fd5b6000918252602090912001546001600160a01b0316905081565b6001600160a01b038082166000908152600560209081526040808320815160a08101835281549095168552600181015492850192909252600282015490840152600381015460608401526004015460ff16151560808301529081610aac8261087d565b949350505050565b6004546001600160a01b0316331480610ad757506000546001600160a01b031633145b610af35760405162461bcd60e51b81526004016104549061101f565b6001600160a01b03821660009081526005602052604090206004015460ff1615610b7b5760405162461bcd60e51b815260206004820152603360248201527f56455354494e474255434b45543a20636c61696d2061742074686973206164646044820152727265737320616c72656164792065786973747360681b6064820152608401610454565b600b5481600754610b8c9190611062565b1115610bef5760405162461bcd60e51b815260206004820152602c60248201527f56455354494e474255434b45543a2063616e206e6f7420636c61696d206d6f7260448201526b19481d1a185b881d1bdd185b60a21b6064820152608401610454565b60008111610c4b5760405162461bcd60e51b8152602060048201526024808201527f56455354494e474255434b45543a20636c61696d2063616e206e6f74206265206044820152637a65726f60e01b6064820152608401610454565b6000600a5482610c5b919061107a565b6040805160a0810182526001600160a01b03808716808352602080840188815284860187815260006060870181815260016080890181815287845260059096529882209751885497166001600160a01b0319978816178855925187890155905160028701559051600386015590516004909401805494151560ff199095169490941790935560068054948501815583527ff652222313e28459528d920b65115c16c04f3efc82aaedc97be59f3f377c0d3f9093018054909116909217909155600780549293508492909190610d31908490611062565b925050819055506001600e6000828254610d4b9190611062565b9091555050505050565b828054610d61906110b3565b90600052602060002090601f016020900481019282610d835760008555610dc9565b82601f10610d9c57805160ff1916838001178555610dc9565b82800160010185558215610dc9579182015b82811115610dc9578251825591602001919060010190610dae565b50610dd5929150610dd9565b5090565b5b80821115610dd55760008155600101610dda565b80356001600160a01b0381168114610e0557600080fd5b919050565b600060208284031215610e1c57600080fd5b61093082610dee565b60008060408385031215610e3857600080fd5b610e4183610dee565b946020939093013593505050565b600060208284031215610e6157600080fd5b81516109308161114b565b600060208284031215610e7e57600080fd5b813567ffffffffffffffff80821115610e9657600080fd5b818401915084601f830112610eaa57600080fd5b813581811115610ebc57610ebc611135565b604051601f8201601f19908116603f01168101908382118183101715610ee457610ee4611135565b81604052828152876020848701011115610efd57600080fd5b826020860160208301376000928101602001929092525095945050505050565b600060a08284031215610f2f57600080fd5b60405160a0810181811067ffffffffffffffff82111715610f5257610f52611135565b604052610f5e83610dee565b81526020830135602082015260408301356040820152606083013560608201526080830135610f8c8161114b565b60808201529392505050565b600060208284031215610faa57600080fd5b5035919050565b600060208284031215610fc357600080fd5b5051919050565b600060208083528351808285015260005b81811015610ff757858101830151858201604001528201610fdb565b81811115611009576000604083870101525b50601f01601f1916929092016040019392505050565b60208082526023908201527f4f776e61626c653a2063616c6c6572206973206e6f7420746865207265666f776040820152623732b960e91b606082015260800190565b6000821982111561107557611075611109565b500190565b60008261109757634e487b7160e01b600052601260045260246000fd5b500490565b6000828210156110ae576110ae611109565b500390565b600181811c908216806110c757607f821691505b602082108114156110e857634e487b7160e01b600052602260045260246000fd5b50919050565b600060001982141561110257611102611109565b5060010190565b634e487b7160e01b600052601160045260246000fd5b634e487b7160e01b600052603260045260246000fd5b634e487b7160e01b600052604160045260246000fd5b801515811461087a57600080fdfea264697066735822122091f9a8a98bbc69e6a74f82e233d2b66bf3ef765f370480c9e46b5a940f153ebd64736f6c63430008050033",
  "bytecodeSha1": "fde1a55c75fce6583a2a69f9445080aae3492215",
  "compiler": {
    "evm_version": "istanbul",
    "optimizer": {
      "enabled": true,
      "runs": 200
    },
    "version": "0.8.5+commit.a4f2e591"
  },
  "contractName": "VestingBucket",
  "deployedBytecode": "608060405234801561001057600080fd5b506004361061014d5760003560e01c80638da5cb5b116100c3578063c6788bdd1161007c578063c6788bdd14610259578063d0029d61146102d7578063dcd65479146102ea578063dfa93099146102f3578063f8fcabe314610306578063fc0fc8491461031957600080fd5b80638da5cb5b146101eb578063b4cb529a14610210578063b622870314610218578063bbb6f3471461022b578063c06d30a71461023e578063c47f00271461024657600080fd5b806328dc8ed91161011557806328dc8ed9146101ae57806329cb924d146101c15780633197cbb6146101c757806334dadad5146101d057806335e9d90f146101d95780638523b7db146101e257600080fd5b806306fdde03146101525780630f1a6444146101705780631a39d8ef146101875780631d8b44c51461019057806321e76dc114610199575b600080fd5b61015a610322565b6040516101679190610fca565b60405180910390f35b61017960095481565b604051908152602001610167565b610179600b5481565b61017960085481565b6101ac6101a7366004610e0a565b6103b0565b005b6101ac6101bc366004610e0a565b61075b565b42610179565b610179600d5481565b61017960035481565b610179600c5481565b61017960075481565b6000546001600160a01b03165b6040516001600160a01b039091168152602001610167565b6101ac6107e6565b610179610226366004610f1d565b61087d565b6002546101f8906001600160a01b031681565b610179610937565b6101ac610254366004610e6c565b61099f565b6102a3610267366004610e0a565b600560205260009081526040902080546001820154600283015460038401546004909401546001600160a01b0390931693919290919060ff1685565b604080516001600160a01b03909616865260208601949094529284019190915260608301521515608082015260a001610167565b6101f86102e5366004610f98565b610a1f565b610179600a5481565b610179610301366004610e0a565b610a49565b6101ac610314366004610e25565b610ab4565b610179600e5481565b6001805461032f906110b3565b80601f016020809104026020016040519081016040528092919081815260200182805461035b906110b3565b80156103a85780601f1061037d576101008083540402835291602001916103a8565b820191906000526020600020905b81548152906001019060200180831161038b57829003601f168201915b505050505081565b336001600160a01b03821614806103d157506000546001600160a01b031633145b806103e657506004546001600160a01b031633145b61045d5760405162461bcd60e51b815260206004820152603760248201527f56455354494e474255434b45543a2063616e206f6e6c792063616c6c2066726f60448201527f6d20636c61696d61646472657373206f72206f776e657200000000000000000060648201526084015b60405180910390fd5b6001600160a01b03811660009081526005602052604090206004015460ff166104d45760405162461bcd60e51b815260206004820152602360248201527f56455354494e474255434b45543a20636c61696d20646f6573206e6f742065786044820152621a5cdd60ea1b6064820152608401610454565b6001600160a01b038082166000908152600560209081526040808320815160a0810183528154909516855260018101549285019290925260028201549084015260038101546060840152600481015460ff1615156080840152916105379061087d565b9050600082600301548261054b919061109c565b9050600081846003015461055f9190611062565b905083600101548111156105cd5760405162461bcd60e51b815260206004820152602f60248201527f56455354494e474255434b45543a2063616e206e6f742077697468647261772060448201526e1b5bdc99481d1a185b881d1bdd185b608a1b6064820152608401610454565b6000821161061d5760405162461bcd60e51b815260206004820181905260248201527f56455354494e474255434b45543a206e6f20616d6f756e7420636c61696d65646044820152606401610454565b60025460405163a9059cbb60e01b81526001600160a01b038781166004830152602482018590529091169063a9059cbb90604401602060405180830381600087803b15801561066b57600080fd5b505af115801561067f573d6000803e3d6000fd5b505050506040513d601f19601f820116820180604052508101906106a39190610e4f565b6106e15760405162461bcd60e51b815260206004820152600f60248201526e1d1c985b9cd9995c8819985a5b1959608a1b6044820152606401610454565b83546040518381526001600160a01b03909116907f394a4e97a8193f113cce457fc16cabc66ff1a10c478cdab3b82e5cc57c67bbf99060200160405180910390a2818460030160008282546107369190611062565b92505081905550816008600082825461074f9190611062565b90915550505050505050565b3361076e6000546001600160a01b031690565b6001600160a01b0316146107c45760405162461bcd60e51b815260206004820181905260248201527f4f776e61626c653a2063616c6c6572206973206e6f7420746865206f776e65726044820152606401610454565b600480546001600160a01b0319166001600160a01b0392909216919091179055565b6004546001600160a01b031633148061080957506000546001600160a01b031633145b6108255760405162461bcd60e51b81526004016104549061101f565b60005b600e5481101561087a576000600682815481106108475761084761111f565b6000918252602090912001546001600160a01b03169050610867816103b0565b5080610872816110ee565b915050610828565b50565b600954600d5460408381015160208501519151633f6b939360e11b8152426004820181905260248201959095526044810193909352606483015260848201526000919073__$5e6753039be095b2af09f6e281dd6eeca6$__90637ed727269060a4015b60206040518083038186803b1580156108f857600080fd5b505af415801561090c573d6000803e3d6000fd5b505050506040513d601f19601f820116820180604052508101906109309190610fb1565b9392505050565b600954600d54600c54600b54604051633f6b939360e11b81524260048201819052602482019590955260448101939093526064830191909152608482015260009190829073__$5e6753039be095b2af09f6e281dd6eeca6$__90637ed727269060a4016108e0565b336109b26000546001600160a01b031690565b6001600160a01b031614610a085760405162461bcd60e51b815260206004820181905260248201527f4f776e61626c653a2063616c6c6572206973206e6f7420746865206f776e65726044820152606401610454565b8051610a1b906001906020840190610d55565b5050565b60068181548110610a2f57600080fd5b6000918252602090912001546001600160a01b0316905081565b6001600160a01b038082166000908152600560209081526040808320815160a08101835281549095168552600181015492850192909252600282015490840152600381015460608401526004015460ff16151560808301529081610aac8261087d565b949350505050565b6004546001600160a01b0316331480610ad757506000546001600160a01b031633145b610af35760405162461bcd60e51b81526004016104549061101f565b6001600160a01b03821660009081526005602052604090206004015460ff1615610b7b5760405162461bcd60e51b815260206004820152603360248201527f56455354494e474255434b45543a20636c61696d2061742074686973206164646044820152727265737320616c72656164792065786973747360681b6064820152608401610454565b600b5481600754610b8c9190611062565b1115610bef5760405162461bcd60e51b815260206004820152602c60248201527f56455354494e474255434b45543a2063616e206e6f7420636c61696d206d6f7260448201526b19481d1a185b881d1bdd185b60a21b6064820152608401610454565b60008111610c4b5760405162461bcd60e51b8152602060048201526024808201527f56455354494e474255434b45543a20636c61696d2063616e206e6f74206265206044820152637a65726f60e01b6064820152608401610454565b6000600a5482610c5b919061107a565b6040805160a0810182526001600160a01b03808716808352602080840188815284860187815260006060870181815260016080890181815287845260059096529882209751885497166001600160a01b0319978816178855925187890155905160028701559051600386015590516004909401805494151560ff199095169490941790935560068054948501815583527ff652222313e28459528d920b65115c16c04f3efc82aaedc97be59f3f377c0d3f9093018054909116909217909155600780549293508492909190610d31908490611062565b925050819055506001600e6000828254610d4b9190611062565b9091555050505050565b828054610d61906110b3565b90600052602060002090601f016020900481019282610d835760008555610dc9565b82601f10610d9c57805160ff1916838001178555610dc9565b82800160010185558215610dc9579182015b82811115610dc9578251825591602001919060010190610dae565b50610dd5929150610dd9565b5090565b5b80821115610dd55760008155600101610dda565b80356001600160a01b0381168114610e0557600080fd5b919050565b600060208284031215610e1c57600080fd5b61093082610dee565b60008060408385031215610e3857600080fd5b610e4183610dee565b946020939093013593505050565b600060208284031215610e6157600080fd5b81516109308161114b565b600060208284031215610e7e57600080fd5b813567ffffffffffffffff80821115610e9657600080fd5b818401915084601f830112610eaa57600080fd5b813581811115610ebc57610ebc611135565b604051601f8201601f19908116603f01168101908382118183101715610ee457610ee4611135565b81604052828152876020848701011115610efd57600080fd5b826020860160208301376000928101602001929092525095945050505050565b600060a08284031215610f2f57600080fd5b60405160a0810181811067ffffffffffffffff82111715610f5257610f52611135565b604052610f5e83610dee565b81526020830135602082015260408301356040820152606083013560608201526080830135610f8c8161114b565b60808201529392505050565b600060208284031215610faa57600080fd5b5035919050565b600060208284031215610fc357600080fd5b5051919050565b600060208083528351808285015260005b81811015610ff757858101830151858201604001528201610fdb565b81811115611009576000604083870101525b50601f01601f1916929092016040019392505050565b60208082526023908201527f4f776e61626c653a2063616c6c6572206973206e6f7420746865207265666f776040820152623732b960e91b606082015260800190565b6000821982111561107557611075611109565b500190565b60008261109757634e487b7160e01b600052601260045260246000fd5b500490565b6000828210156110ae576110ae611109565b500390565b600181811c908216806110c757607f821691505b602082108114156110e857634e487b7160e01b600052602260045260246000fd5b50919050565b600060001982141561110257611102611109565b5060010190565b634e487b7160e01b600052601160045260246000fd5b634e487b7160e01b600052603260045260246000fd5b634e487b7160e01b600052604160045260246000fd5b801515811461087a57600080fdfea264697066735822122091f9a8a98bbc69e6a74f82e233d2b66bf3ef765f370480c9e46b5a940f153ebd64736f6c63430008050033",
  "language": "Solidity",
  "natspec": {
    "kind": "dev",
    "methods": {
      "owner()": {
        "details": "Returns the address of the current owner."
      }
    },
    "version": 1
  },
  "opcodes": "PUSH1 0x80 PUSH1 0x40 MSTORE CALLVALUE DUP1 ISZERO PUSH2 0x10 JUMPI PUSH1 0x0 DUP1 REVERT JUMPDEST POP PUSH1 0x4 CALLDATASIZE LT PUSH2 0x14D JUMPI PUSH1 0x0 CALLDATALOAD PUSH1 0xE0 SHR DUP1 PUSH4 0x8DA5CB5B GT PUSH2 0xC3 JUMPI DUP1 PUSH4 0xC6788BDD GT PUSH2 0x7C JUMPI DUP1 PUSH4 0xC6788BDD EQ PUSH2 0x259 JUMPI DUP1 PUSH4 0xD0029D61 EQ PUSH2 0x2D7 JUMPI DUP1 PUSH4 0xDCD65479 EQ PUSH2 0x2EA JUMPI DUP1 PUSH4 0xDFA93099 EQ PUSH2 0x2F3 JUMPI DUP1 PUSH4 0xF8FCABE3 EQ PUSH2 0x306 JUMPI DUP1 PUSH4 0xFC0FC849 EQ PUSH2 0x319 JUMPI PUSH1 0x0 DUP1 REVERT JUMPDEST DUP1 PUSH4 0x8DA5CB5B EQ PUSH2 0x1EB JUMPI DUP1 PUSH4 0xB4CB529A EQ PUSH2 0x210 JUMPI DUP1 PUSH4 0xB6228703 EQ PUSH2 0x218 JUMPI DUP1 PUSH4 0xBBB6F347 EQ PUSH2 0x22B JUMPI DUP1 PUSH4 0xC06D30A7 EQ PUSH2 0x23E JUMPI DUP1 PUSH4 0xC47F0027 EQ PUSH2 0x246 JUMPI PUSH1 0x0 DUP1 REVERT JUMPDEST DUP1 PUSH4 0x28DC8ED9 GT PUSH2 0x115 JUMPI DUP1 PUSH4 0x28DC8ED9 EQ PUSH2 0x1AE JUMPI DUP1 PUSH4 0x29CB924D EQ PUSH2 0x1C1 JUMPI DUP1 PUSH4 0x3197CBB6 EQ PUSH2 0x1C7 JUMPI DUP1 PUSH4 0x34DADAD5 EQ PUSH2 0x1D0 JUMPI DUP1 PUSH4 0x35E9D90F EQ PUSH2 0x1D9 JUMPI DUP1 PUSH4 0x8523B7DB EQ PUSH2 0x1E2 JUMPI PUSH1 0x0 DUP1 REVERT JUMPDEST DUP1 PUSH4 0x6FDDE03 EQ PUSH2 0x152 JUMPI DUP1 PUSH4 0xF1A6444 EQ PUSH2 0x170 JUMPI DUP1 PUSH4 0x1A39D8EF EQ PUSH2 0x187 JUMPI DUP1 PUSH4 0x1D8B44C5 EQ PUSH2 0x190 JUMPI DUP1 PUSH4 0x21E76DC1 EQ PUSH2 0x199 JUMPI JUMPDEST PUSH1 0x0 DUP1 REVERT JUMPDEST PUSH2 0x15A PUSH2 0x322 JUMP JUMPDEST PUSH1 0x40 MLOAD PUSH2 0x167 SWAP2 SWAP1 PUSH2 0xFCA JUMP JUMPDEST PUSH1 0x40 MLOAD DUP1 SWAP2 SUB SWAP1 RETURN JUMPDEST PUSH2 0x179 PUSH1 0x9 SLOAD DUP2 JUMP JUMPDEST PUSH1 0x40 MLOAD SWAP1 DUP2 MSTORE PUSH1 0x20 ADD PUSH2 0x167 JUMP JUMPDEST PUSH2 0x179 PUSH1 0xB SLOAD DUP2 JUMP JUMPDEST PUSH2 0x179 PUSH1 0x8 SLOAD DUP2 JUMP JUMPDEST PUSH2 0x1AC PUSH2 0x1A7 CALLDATASIZE PUSH1 0x4 PUSH2 0xE0A JUMP JUMPDEST PUSH2 0x3B0 JUMP JUMPDEST STOP JUMPDEST PUSH2 0x1AC PUSH2 0x1BC CALLDATASIZE PUSH1 0x4 PUSH2 0xE0A JUMP JUMPDEST PUSH2 0x75B JUMP JUMPDEST TIMESTAMP PUSH2 0x179 JUMP JUMPDEST PUSH2 0x179 PUSH1 0xD SLOAD DUP2 JUMP JUMPDEST PUSH2 0x179 PUSH1 0x3 SLOAD DUP2 JUMP JUMPDEST PUSH2 0x179 PUSH1 0xC SLOAD DUP2 JUMP JUMPDEST PUSH2 0x179 PUSH1 0x7 SLOAD DUP2 JUMP JUMPDEST PUSH1 0x0 SLOAD PUSH1 0x1 PUSH1 0x1 PUSH1 0xA0 SHL SUB AND JUMPDEST PUSH1 0x40 MLOAD PUSH1 0x1 PUSH1 0x1 PUSH1 0xA0 SHL SUB SWAP1 SWAP2 AND DUP2 MSTORE PUSH1 0x20 ADD PUSH2 0x167 JUMP JUMPDEST PUSH2 0x1AC PUSH2 0x7E6 JUMP JUMPDEST PUSH2 0x179 PUSH2 0x226 CALLDATASIZE PUSH1 0x4 PUSH2 0xF1D JUMP JUMPDEST PUSH2 0x87D JUMP JUMPDEST PUSH1 0x2 SLOAD PUSH2 0x1F8 SWAP1 PUSH1 0x1 PUSH1 0x1 PUSH1 0xA0 SHL SUB AND DUP2 JUMP JUMPDEST PUSH2 0x179 PUSH2 0x937 JUMP JUMPDEST PUSH2 0x1AC PUSH2 0x254 CALLDATASIZE PUSH1 0x4 PUSH2 0xE6C JUMP JUMPDEST PUSH2 0x99F JUMP JUMPDEST PUSH2 0x2A3 PUSH2 0x267 CALLDATASIZE PUSH1 0x4 PUSH2 0xE0A JUMP JUMPDEST PUSH1 0x5 PUSH1 0x20 MSTORE PUSH1 0x0 SWAP1 DUP2 MSTORE PUSH1 0x40 SWAP1 KECCAK256 DUP1 SLOAD PUSH1 0x1 DUP3 ADD SLOAD PUSH1 0x2 DUP4 ADD SLOAD PUSH1 0x3 DUP5 ADD SLOAD PUSH1 0x4 SWAP1 SWAP5 ADD SLOAD PUSH1 0x1 PUSH1 0x1 PUSH1 0xA0 SHL SUB SWAP1 SWAP4 AND SWAP4 SWAP2 SWAP3 SWAP1 SWAP2 SWAP1 PUSH1 0xFF AND DUP6 JUMP JUMPDEST PUSH1 0x40 DUP1 MLOAD PUSH1 0x1 PUSH1 0x1 PUSH1 0xA0 SHL SUB SWAP1 SWAP7 AND DUP7 MSTORE PUSH1 0x20 DUP7 ADD SWAP5 SWAP1 SWAP5 MSTORE SWAP3 DUP5 ADD SWAP2 SWAP1 SWAP2 MSTORE PUSH1 0x60 DUP4 ADD MSTORE ISZERO ISZERO PUSH1 0x80 DUP3 ADD MSTORE PUSH1 0xA0 ADD PUSH2 0x167 JUMP JUMPDEST PUSH2 0x1F8 PUSH2 0x2E5 CALLDATASIZE PUSH1 0x4 PUSH2 0xF98 JUMP JUMPDEST PUSH2 0xA1F JUMP JUMPDEST PUSH2 0x179 PUSH1 0xA SLOAD DUP2 JUMP JUMPDEST PUSH2 0x179 PUSH2 0x301 CALLDATASIZE PUSH1 0x4 PUSH2 0xE0A JUMP JUMPDEST PUSH2 0xA49 JUMP JUMPDEST PUSH2 0x1AC PUSH2 0x314 CALLDATASIZE PUSH1 0x4 PUSH2 0xE25 JUMP JUMPDEST PUSH2 0xAB4 JUMP JUMPDEST PUSH2 0x179 PUSH1 0xE SLOAD DUP2 JUMP JUMPDEST PUSH1 0x1 DUP1 SLOAD PUSH2 0x32F SWAP1 PUSH2 0x10B3 JUMP JUMPDEST DUP1 PUSH1 0x1F ADD PUSH1 0x20 DUP1 SWAP2 DIV MUL PUSH1 0x20 ADD PUSH1 0x40 MLOAD SWAP1 DUP2 ADD PUSH1 0x40 MSTORE DUP1 SWAP3 SWAP2 SWAP1 DUP2 DUP2 MSTORE PUSH1 0x20 ADD DUP3 DUP1 SLOAD PUSH2 0x35B SWAP1 PUSH2 0x10B3 JUMP JUMPDEST DUP1 ISZERO PUSH2 0x3A8 JUMPI DUP1 PUSH1 0x1F LT PUSH2 0x37D JUMPI PUSH2 0x100 DUP1 DUP4 SLOAD DIV MUL DUP4 MSTORE SWAP2 PUSH1 0x20 ADD SWAP2 PUSH2 0x3A8 JUMP JUMPDEST DUP3 ADD SWAP2 SWAP1 PUSH1 0x0 MSTORE PUSH1 0x20 PUSH1 0x0 KECCAK256 SWAP1 JUMPDEST DUP2 SLOAD DUP2 MSTORE SWAP1 PUSH1 0x1 ADD SWAP1 PUSH1 0x20 ADD DUP1 DUP4 GT PUSH2 0x38B JUMPI DUP3 SWAP1 SUB PUSH1 0x1F AND DUP3 ADD SWAP2 JUMPDEST POP POP POP POP POP DUP2 JUMP JUMPDEST CALLER PUSH1 0x1 PUSH1 0x1 PUSH1 0xA0 SHL SUB DUP3 AND EQ DUP1 PUSH2 0x3D1 JUMPI POP PUSH1 0x0 SLOAD PUSH1 0x1 PUSH1 0x1 PUSH1 0xA0 SHL SUB AND CALLER EQ JUMPDEST DUP1 PUSH2 0x3E6 JUMPI POP PUSH1 0x4 SLOAD PUSH1 0x1 PUSH1 0x1 PUSH1 0xA0 SHL SUB AND CALLER EQ JUMPDEST PUSH2 0x45D JUMPI PUSH1 0x40 MLOAD PUSH3 0x461BCD PUSH1 0xE5 SHL DUP2 MSTORE PUSH1 0x20 PUSH1 0x4 DUP3 ADD MSTORE PUSH1 0x37 PUSH1 0x24 DUP3 ADD MSTORE PUSH32 0x56455354494E474255434B45543A2063616E206F6E6C792063616C6C2066726F PUSH1 0x44 DUP3 ADD MSTORE PUSH32 0x6D20636C61696D61646472657373206F72206F776E6572000000000000000000 PUSH1 0x64 DUP3 ADD MSTORE PUSH1 0x84 ADD JUMPDEST PUSH1 0x40 MLOAD DUP1 SWAP2 SUB SWAP1 REVERT JUMPDEST PUSH1 0x1 PUSH1 0x1 PUSH1 0xA0 SHL SUB DUP2 AND PUSH1 0x0 SWAP1 DUP2 MSTORE PUSH1 0x5 PUSH1 0x20 MSTORE PUSH1 0x40 SWAP1 KECCAK256 PUSH1 0x4 ADD SLOAD PUSH1 0xFF AND PUSH2 0x4D4 JUMPI PUSH1 0x40 MLOAD PUSH3 0x461BCD PUSH1 0xE5 SHL DUP2 MSTORE PUSH1 0x20 PUSH1 0x4 DUP3 ADD MSTORE PUSH1 0x23 PUSH1 0x24 DUP3 ADD MSTORE PUSH32 0x56455354494E474255434B45543A20636C61696D20646F6573206E6F74206578 PUSH1 0x44 DUP3 ADD MSTORE PUSH3 0x1A5CDD PUSH1 0xEA SHL PUSH1 0x64 DUP3 ADD MSTORE PUSH1 0x84 ADD PUSH2 0x454 JUMP JUMPDEST PUSH1 0x1 PUSH1 0x1 PUSH1 0xA0 SHL SUB DUP1 DUP3 AND PUSH1 0x0 SWAP1 DUP2 MSTORE PUSH1 0x5 PUSH1 0x20 SWAP1 DUP2 MSTORE PUSH1 0x40 DUP1 DUP4 KECCAK256 DUP2 MLOAD PUSH1 0xA0 DUP2 ADD DUP4 MSTORE DUP2 SLOAD SWAP1 SWAP6 AND DUP6 MSTORE PUSH1 0x1 DUP2 ADD SLOAD SWAP3 DUP6 ADD SWAP3 SWAP1 SWAP3 MSTORE PUSH1 0x2 DUP3 ADD SLOAD SWAP1 DUP5 ADD MSTORE PUSH1 0x3 DUP2 ADD SLOAD PUSH1 0x60 DUP5 ADD MSTORE PUSH1 0x4 DUP2 ADD SLOAD PUSH1 0xFF AND ISZERO ISZERO PUSH1 0x80 DUP5 ADD MSTORE SWAP2 PUSH2 0x537 SWAP1 PUSH2 0x87D JUMP JUMPDEST SWAP1 POP PUSH1 0x0 DUP3 PUSH1 0x3 ADD SLOAD DUP3 PUSH2 0x54B SWAP2 SWAP1 PUSH2 0x109C JUMP JUMPDEST SWAP1 POP PUSH1 0x0 DUP2 DUP5 PUSH1 0x3 ADD SLOAD PUSH2 0x55F SWAP2 SWAP1 PUSH2 0x1062 JUMP JUMPDEST SWAP1 POP DUP4 PUSH1 0x1 ADD SLOAD DUP2 GT ISZERO PUSH2 0x5CD JUMPI PUSH1 0x40 MLOAD PUSH3 0x461BCD PUSH1 0xE5 SHL DUP2 MSTORE PUSH1 0x20 PUSH1 0x4 DUP3 ADD MSTORE PUSH1 0x2F PUSH1 0x24 DUP3 ADD MSTORE PUSH32 0x56455354494E474255434B45543A2063616E206E6F7420776974686472617720 PUSH1 0x44 DUP3 ADD MSTORE PUSH15 0x1B5BDC99481D1A185B881D1BDD185B PUSH1 0x8A SHL PUSH1 0x64 DUP3 ADD MSTORE PUSH1 0x84 ADD PUSH2 0x454 JUMP JUMPDEST PUSH1 0x0 DUP3 GT PUSH2 0x61D JUMPI PUSH1 0x40 MLOAD PUSH3 0x461BCD PUSH1 0xE5 SHL DUP2 MSTORE PUSH1 0x20 PUSH1 0x4 DUP3 ADD DUP2 SWAP1 MSTORE PUSH1 0x24 DUP3 ADD MSTORE PUSH32 0x56455354494E474255434B45543A206E6F20616D6F756E7420636C61696D6564 PUSH1 0x44 DUP3 ADD MSTORE PUSH1 0x64 ADD PUSH2 0x454 JUMP JUMPDEST PUSH1 0x2 SLOAD PUSH1 0x40 MLOAD PUSH4 0xA9059CBB PUSH1 0xE0 SHL DUP2 MSTORE PUSH1 0x1 PUSH1 0x1 PUSH1 0xA0 SHL SUB DUP8 DUP2 AND PUSH1 0x4 DUP4 ADD MSTORE PUSH1 0x24 DUP3 ADD DUP6 SWAP1 MSTORE SWAP1 SWAP2 AND SWAP1 PUSH4 0xA9059CBB SWAP1 PUSH1 0x44 ADD PUSH1 0x20 PUSH1 0x40 MLOAD DUP1 DUP4 SUB DUP2 PUSH1 0x0 DUP8 DUP1 EXTCODESIZE ISZERO DUP1 ISZERO PUSH2 0x66B JUMPI PUSH1 0x0 DUP1 REVERT JUMPDEST POP GAS CALL ISZERO DUP1 ISZERO PUSH2 0x67F JUMPI RETURNDATASIZE PUSH1 0x0 DUP1 RETURNDATACOPY RETURNDATASIZE PUSH1 0x0 REVERT JUMPDEST POP POP POP POP PUSH1 0x40 MLOAD RETURNDATASIZE PUSH1 0x1F NOT PUSH1 0x1F DUP3 ADD AND DUP3 ADD DUP1 PUSH1 0x40 MSTORE POP DUP2 ADD SWAP1 PUSH2 0x6A3 SWAP2 SWAP1 PUSH2 0xE4F JUMP JUMPDEST PUSH2 0x6E1 JUMPI PUSH1 0x40 MLOAD PUSH3 0x461BCD PUSH1 0xE5 SHL DUP2 MSTORE PUSH1 0x20 PUSH1 0x4 DUP3 ADD MSTORE PUSH1 0xF PUSH1 0x24 DUP3 ADD MSTORE PUSH15 0x1D1C985B9CD9995C8819985A5B1959 PUSH1 0x8A SHL PUSH1 0x44 DUP3 ADD MSTORE PUSH1 0x64 ADD PUSH2 0x454 JUMP JUMPDEST DUP4 SLOAD PUSH1 0x40 MLOAD DUP4 DUP2 MSTORE PUSH1 0x1 PUSH1 0x1 PUSH1 0xA0 SHL SUB SWAP1 SWAP2 AND SWAP1 PUSH32 0x394A4E97A8193F113CCE457FC16CABC66FF1A10C478CDAB3B82E5CC57C67BBF9 SWAP1 PUSH1 0x20 ADD PUSH1 0x40 MLOAD DUP1 SWAP2 SUB SWAP1 LOG2 DUP2 DUP5 PUSH1 0x3 ADD PUSH1 0x0 DUP3 DUP3 SLOAD PUSH2 0x736 SWAP2 SWAP1 PUSH2 0x1062 JUMP JUMPDEST SWAP3 POP POP DUP2 SWAP1 SSTORE POP DUP2 PUSH1 0x8 PUSH1 0x0 DUP3 DUP3 SLOAD PUSH2 0x74F SWAP2 SWAP1 PUSH2 0x1062 JUMP JUMPDEST SWAP1 SWAP2 SSTORE POP POP POP POP POP POP POP JUMP JUMPDEST CALLER PUSH2 0x76E PUSH1 0x0 SLOAD PUSH1 0x1 PUSH1 0x1 PUSH1 0xA0 SHL SUB AND SWAP1 JUMP JUMPDEST PUSH1 0x1 PUSH1 0x1 PUSH1 0xA0 SHL SUB AND EQ PUSH2 0x7C4 JUMPI PUSH1 0x40 MLOAD PUSH3 0x461BCD PUSH1 0xE5 SHL DUP2 MSTORE PUSH1 0x20 PUSH1 0x4 DUP3 ADD DUP2 SWAP1 MSTORE PUSH1 0x24 DUP3 ADD MSTORE PUSH32 0x4F776E61626C653A2063616C6C6572206973206E6F7420746865206F776E6572 PUSH1 0x44 DUP3 ADD MSTORE PUSH1 0x64 ADD PUSH2 0x454 JUMP JUMPDEST PUSH1 0x4 DUP1 SLOAD PUSH1 0x1 PUSH1 0x1 PUSH1 0xA0 SHL SUB NOT AND PUSH1 0x1 PUSH1 0x1 PUSH1 0xA0 SHL SUB SWAP3 SWAP1 SWAP3 AND SWAP2 SWAP1 SWAP2 OR SWAP1 SSTORE JUMP JUMPDEST PUSH1 0x4 SLOAD PUSH1 0x1 PUSH1 0x1 PUSH1 0xA0 SHL SUB AND CALLER EQ DUP1 PUSH2 0x809 JUMPI POP PUSH1 0x0 SLOAD PUSH1 0x1 PUSH1 0x1 PUSH1 0xA0 SHL SUB AND CALLER EQ JUMPDEST PUSH2 0x825 JUMPI PUSH1 0x40 MLOAD PUSH3 0x461BCD PUSH1 0xE5 SHL DUP2 MSTORE PUSH1 0x4 ADD PUSH2 0x454 SWAP1 PUSH2 0x101F JUMP JUMPDEST PUSH1 0x0 JUMPDEST PUSH1 0xE SLOAD DUP2 LT ISZERO PUSH2 0x87A JUMPI PUSH1 0x0 PUSH1 0x6 DUP3 DUP2 SLOAD DUP2 LT PUSH2 0x847 JUMPI PUSH2 0x847 PUSH2 0x111F JUMP JUMPDEST PUSH1 0x0 SWAP2 DUP3 MSTORE PUSH1 0x20 SWAP1 SWAP2 KECCAK256 ADD SLOAD PUSH1 0x1 PUSH1 0x1 PUSH1 0xA0 SHL SUB AND SWAP1 POP PUSH2 0x867 DUP2 PUSH2 0x3B0 JUMP JUMPDEST POP DUP1 PUSH2 0x872 DUP2 PUSH2 0x10EE JUMP JUMPDEST SWAP2 POP POP PUSH2 0x828 JUMP JUMPDEST POP JUMP JUMPDEST PUSH1 0x9 SLOAD PUSH1 0xD SLOAD PUSH1 0x40 DUP4 DUP2 ADD MLOAD PUSH1 0x20 DUP6 ADD MLOAD SWAP2 MLOAD PUSH4 0x3F6B9393 PUSH1 0xE1 SHL DUP2 MSTORE TIMESTAMP PUSH1 0x4 DUP3 ADD DUP2 SWAP1 MSTORE PUSH1 0x24 DUP3 ADD SWAP6 SWAP1 SWAP6 MSTORE PUSH1 0x44 DUP2 ADD SWAP4 SWAP1 SWAP4 MSTORE PUSH1 0x64 DUP4 ADD MSTORE PUSH1 0x84 DUP3 ADD MSTORE PUSH1 0x0 SWAP2 SWAP1 PUSH20 0x0 SWAP1 PUSH4 0x7ED72726 SWAP1 PUSH1 0xA4 ADD JUMPDEST PUSH1 0x20 PUSH1 0x40 MLOAD DUP1 DUP4 SUB DUP2 DUP7 DUP1 EXTCODESIZE ISZERO DUP1 ISZERO PUSH2 0x8F8 JUMPI PUSH1 0x0 DUP1 REVERT JUMPDEST POP GAS DELEGATECALL ISZERO DUP1 ISZERO PUSH2 0x90C JUMPI RETURNDATASIZE PUSH1 0x0 DUP1 RETURNDATACOPY RETURNDATASIZE PUSH1 0x0 REVERT JUMPDEST POP POP POP POP PUSH1 0x40 MLOAD RETURNDATASIZE PUSH1 0x1F NOT PUSH1 0x1F DUP3 ADD AND DUP3 ADD DUP1 PUSH1 0x40 MSTORE POP DUP2 ADD SWAP1 PUSH2 0x930 SWAP2 SWAP1 PUSH2 0xFB1 JUMP JUMPDEST SWAP4 SWAP3 POP POP POP JUMP JUMPDEST PUSH1 0x9 SLOAD PUSH1 0xD SLOAD PUSH1 0xC SLOAD PUSH1 0xB SLOAD PUSH1 0x40 MLOAD PUSH4 0x3F6B9393 PUSH1 0xE1 SHL DUP2 MSTORE TIMESTAMP PUSH1 0x4 DUP3 ADD DUP2 SWAP1 MSTORE PUSH1 0x24 DUP3 ADD SWAP6 SWAP1 SWAP6 MSTORE PUSH1 0x44 DUP2 ADD SWAP4 SWAP1 SWAP4 MSTORE PUSH1 0x64 DUP4 ADD SWAP2 SWAP1 SWAP2 MSTORE PUSH1 0x84 DUP3 ADD MSTORE PUSH1 0x0 SWAP2 SWAP1 DUP3 SWAP1 PUSH20 0x0 SWAP1 PUSH4 0x7ED72726 SWAP1 PUSH1 0xA4 ADD PUSH2 0x8E0 JUMP JUMPDEST CALLER PUSH2 0x9B2 PUSH1 0x0 SLOAD PUSH1 0x1 PUSH1 0x1 PUSH1 0xA0 SHL SUB AND SWAP1 JUMP JUMPDEST PUSH1 0x1 PUSH1 0x1 PUSH1 0xA0 SHL SUB AND EQ PUSH2 0xA08 JUMPI PUSH1 0x40 MLOAD PUSH3 0x461BCD PUSH1 0xE5 SHL DUP2 MSTORE PUSH1 0x20 PUSH1 0x4 DUP3 ADD DUP2 SWAP1 MSTORE PUSH1 0x24 DUP3 ADD MSTORE PUSH32 0x4F776E61626C653A2063616C6C6572206973206E6F7420746865206F776E6572 PUSH1 0x44 DUP3 ADD MSTORE PUSH1 0x64 ADD PUSH2 0x454 JUMP JUMPDEST DUP1 MLOAD PUSH2 0xA1B SWAP1 PUSH1 0x1 SWAP1 PUSH1 0x20 DUP5 ADD SWAP1 PUSH2 0xD55 JUMP JUMPDEST POP POP JUMP JUMPDEST PUSH1 0x6 DUP2 DUP2 SLOAD DUP2 LT PUSH2 0xA2F JUMPI PUSH1 0x0 DUP1 REVERT JUMPDEST PUSH1 0x0 SWAP2 DUP3 MSTORE PUSH1 0x20 SWAP1 SWAP2 KECCAK256 ADD SLOAD PUSH1 0x1 PUSH1 0x1 PUSH1 0xA0 SHL SUB AND SWAP1 POP DUP2 JUMP JUMPDEST PUSH1 0x1 PUSH1 0x1 PUSH1 0xA0 SHL SUB DUP1 DUP3 AND PUSH1 0x0 SWAP1 DUP2 MSTORE PUSH1 0x5 PUSH1 0x20 SWAP1 DUP2 MSTORE PUSH1 0x40 DUP1 DUP4 KECCAK256 DUP2 MLOAD PUSH1 0xA0 DUP2 ADD DUP4 MSTORE DUP2 SLOAD SWAP1 SWAP6 AND DUP6 MSTORE PUSH1 0x1 DUP2 ADD SLOAD SWAP3 DUP6 ADD SWAP3 SWAP1 SWAP3 MSTORE PUSH1 0x2 DUP3 ADD SLOAD SWAP1 DUP5 ADD MSTORE PUSH1 0x3 DUP2 ADD SLOAD PUSH1 0x60 DUP5 ADD MSTORE PUSH1 0x4 ADD SLOAD PUSH1 0xFF AND ISZERO ISZERO PUSH1 0x80 DUP4 ADD MSTORE SWAP1 DUP2 PUSH2 0xAAC DUP3 PUSH2 0x87D JUMP JUMPDEST SWAP5 SWAP4 POP POP POP POP JUMP JUMPDEST PUSH1 0x4 SLOAD PUSH1 0x1 PUSH1 0x1 PUSH1 0xA0 SHL SUB AND CALLER EQ DUP1 PUSH2 0xAD7 JUMPI POP PUSH1 0x0 SLOAD PUSH1 0x1 PUSH1 0x1 PUSH1 0xA0 SHL SUB AND CALLER EQ JUMPDEST PUSH2 0xAF3 JUMPI PUSH1 0x40 MLOAD PUSH3 0x461BCD PUSH1 0xE5 SHL DUP2 MSTORE PUSH1 0x4 ADD PUSH2 0x454 SWAP1 PUSH2 0x101F JUMP JUMPDEST PUSH1 0x1 PUSH1 0x1 PUSH1 0xA0 SHL SUB DUP3 AND PUSH1 0x0 SWAP1 DUP2 MSTORE PUSH1 0x5 PUSH1 0x20 MSTORE PUSH1 0x40 SWAP1 KECCAK256 PUSH1 0x4 ADD SLOAD PUSH1 0xFF AND ISZERO PUSH2 0xB7B JUMPI PUSH1 0x40 MLOAD PUSH3 0x461BCD PUSH1 0xE5 SHL DUP2 MSTORE PUSH1 0x20 PUSH1 0x4 DUP3 ADD MSTORE PUSH1 0x33 PUSH1 0x24 DUP3 ADD MSTORE PUSH32 0x56455354494E474255434B45543A20636C61696D206174207468697320616464 PUSH1 0x44 DUP3 ADD MSTORE PUSH19 0x7265737320616C726561647920657869737473 PUSH1 0x68 SHL PUSH1 0x64 DUP3 ADD MSTORE PUSH1 0x84 ADD PUSH2 0x454 JUMP JUMPDEST PUSH1 0xB SLOAD DUP2 PUSH1 0x7 SLOAD PUSH2 0xB8C SWAP2 SWAP1 PUSH2 0x1062 JUMP JUMPDEST GT ISZERO PUSH2 0xBEF JUMPI PUSH1 0x40 MLOAD PUSH3 0x461BCD PUSH1 0xE5 SHL DUP2 MSTORE PUSH1 0x20 PUSH1 0x4 DUP3 ADD MSTORE PUSH1 0x2C PUSH1 0x24 DUP3 ADD MSTORE PUSH32 0x56455354494E474255434B45543A2063616E206E6F7420636C61696D206D6F72 PUSH1 0x44 DUP3 ADD MSTORE PUSH12 0x19481D1A185B881D1BDD185B PUSH1 0xA2 SHL PUSH1 0x64 DUP3 ADD MSTORE PUSH1 0x84 ADD PUSH2 0x454 JUMP JUMPDEST PUSH1 0x0 DUP2 GT PUSH2 0xC4B JUMPI PUSH1 0x40 MLOAD PUSH3 0x461BCD PUSH1 0xE5 SHL DUP2 MSTORE PUSH1 0x20 PUSH1 0x4 DUP3 ADD MSTORE PUSH1 0x24 DUP1 DUP3 ADD MSTORE PUSH32 0x56455354494E474255434B45543A20636C61696D2063616E206E6F7420626520 PUSH1 0x44 DUP3 ADD MSTORE PUSH4 0x7A65726F PUSH1 0xE0 SHL PUSH1 0x64 DUP3 ADD MSTORE PUSH1 0x84 ADD PUSH2 0x454 JUMP JUMPDEST PUSH1 0x0 PUSH1 0xA SLOAD DUP3 PUSH2 0xC5B SWAP2 SWAP1 PUSH2 0x107A JUMP JUMPDEST PUSH1 0x40 DUP1 MLOAD PUSH1 0xA0 DUP2 ADD DUP3 MSTORE PUSH1 0x1 PUSH1 0x1 PUSH1 0xA0 SHL SUB DUP1 DUP8 AND DUP1 DUP4 MSTORE PUSH1 0x20 DUP1 DUP5 ADD DUP9 DUP2 MSTORE DUP5 DUP7 ADD DUP8 DUP2 MSTORE PUSH1 0x0 PUSH1 0x60 DUP8 ADD DUP2 DUP2 MSTORE PUSH1 0x1 PUSH1 0x80 DUP10 ADD DUP2 DUP2 MSTORE DUP8 DUP5 MSTORE PUSH1 0x5 SWAP1 SWAP7 MSTORE SWAP9 DUP3 KECCAK256 SWAP8 MLOAD DUP9 SLOAD SWAP8 AND PUSH1 0x1 PUSH1 0x1 PUSH1 0xA0 SHL SUB NOT SWAP8 DUP9 AND OR DUP9 SSTORE SWAP3 MLOAD DUP8 DUP10 ADD SSTORE SWAP1 MLOAD PUSH1 0x2 DUP8 ADD SSTORE SWAP1 MLOAD PUSH1 0x3 DUP7 ADD SSTORE SWAP1 MLOAD PUSH1 0x4 SWAP1 SWAP5 ADD DUP1 SLOAD SWAP5 ISZERO ISZERO PUSH1 0xFF NOT SWAP1 SWAP6 AND SWAP5 SWAP1 SWAP5 OR SWAP1 SWAP4 SSTORE PUSH1 0x6 DUP1 SLOAD SWAP5 DUP6 ADD DUP2 SSTORE DUP4 MSTORE PUSH32 0xF652222313E28459528D920B65115C16C04F3EFC82AAEDC97BE59F3F377C0D3F SWAP1 SWAP4 ADD DUP1 SLOAD SWAP1 SWAP2 AND SWAP1 SWAP3 OR SWAP1 SWAP2 SSTORE PUSH1 0x7 DUP1 SLOAD SWAP3 SWAP4 POP DUP5 SWAP3 SWAP1 SWAP2 SWAP1 PUSH2 0xD31 SWAP1 DUP5 SWAP1 PUSH2 0x1062 JUMP JUMPDEST SWAP3 POP POP DUP2 SWAP1 SSTORE POP PUSH1 0x1 PUSH1 0xE PUSH1 0x0 DUP3 DUP3 SLOAD PUSH2 0xD4B SWAP2 SWAP1 PUSH2 0x1062 JUMP JUMPDEST SWAP1 SWAP2 SSTORE POP POP POP POP POP JUMP JUMPDEST DUP3 DUP1 SLOAD PUSH2 0xD61 SWAP1 PUSH2 0x10B3 JUMP JUMPDEST SWAP1 PUSH1 0x0 MSTORE PUSH1 0x20 PUSH1 0x0 KECCAK256 SWAP1 PUSH1 0x1F ADD PUSH1 0x20 SWAP1 DIV DUP2 ADD SWAP3 DUP3 PUSH2 0xD83 JUMPI PUSH1 0x0 DUP6 SSTORE PUSH2 0xDC9 JUMP JUMPDEST DUP3 PUSH1 0x1F LT PUSH2 0xD9C JUMPI DUP1 MLOAD PUSH1 0xFF NOT AND DUP4 DUP1 ADD OR DUP6 SSTORE PUSH2 0xDC9 JUMP JUMPDEST DUP3 DUP1 ADD PUSH1 0x1 ADD DUP6 SSTORE DUP3 ISZERO PUSH2 0xDC9 JUMPI SWAP2 DUP3 ADD JUMPDEST DUP3 DUP2 GT ISZERO PUSH2 0xDC9 JUMPI DUP3 MLOAD DUP3 SSTORE SWAP2 PUSH1 0x20 ADD SWAP2 SWAP1 PUSH1 0x1 ADD SWAP1 PUSH2 0xDAE JUMP JUMPDEST POP PUSH2 0xDD5 SWAP3 SWAP2 POP PUSH2 0xDD9 JUMP JUMPDEST POP SWAP1 JUMP JUMPDEST JUMPDEST DUP1 DUP3 GT ISZERO PUSH2 0xDD5 JUMPI PUSH1 0x0 DUP2 SSTORE PUSH1 0x1 ADD PUSH2 0xDDA JUMP JUMPDEST DUP1 CALLDATALOAD PUSH1 0x1 PUSH1 0x1 PUSH1 0xA0 SHL SUB DUP2 AND DUP2 EQ PUSH2 0xE05 JUMPI PUSH1 0x0 DUP1 REVERT JUMPDEST SWAP2 SWAP1 POP JUMP JUMPDEST PUSH1 0x0 PUSH1 0x20 DUP3 DUP5 SUB SLT ISZERO PUSH2 0xE1C JUMPI PUSH1 0x0 DUP1 REVERT JUMPDEST PUSH2 0x930 DUP3 PUSH2 0xDEE JUMP JUMPDEST PUSH1 0x0 DUP1 PUSH1 0x40 DUP4 DUP6 SUB SLT ISZERO PUSH2 0xE38 JUMPI PUSH1 0x0 DUP1 REVERT JUMPDEST PUSH2 0xE41 DUP4 PUSH2 0xDEE JUMP JUMPDEST SWAP5 PUSH1 0x20 SWAP4 SWAP1 SWAP4 ADD CALLDATALOAD SWAP4 POP POP POP JUMP JUMPDEST PUSH1 0x0 PUSH1 0x20 DUP3 DUP5 SUB SLT ISZERO PUSH2 0xE61 JUMPI PUSH1 0x0 DUP1 REVERT JUMPDEST DUP2 MLOAD PUSH2 0x930 DUP2 PUSH2 0x114B JUMP JUMPDEST PUSH1 0x0 PUSH1 0x20 DUP3 DUP5 SUB SLT ISZERO PUSH2 0xE7E JUMPI PUSH1 0x0 DUP1 REVERT JUMPDEST DUP2 CALLDATALOAD PUSH8 0xFFFFFFFFFFFFFFFF DUP1 DUP3 GT ISZERO PUSH2 0xE96 JUMPI PUSH1 0x0 DUP1 REVERT JUMPDEST DUP2 DUP5 ADD SWAP2 POP DUP5 PUSH1 0x1F DUP4 ADD SLT PUSH2 0xEAA JUMPI PUSH1 0x0 DUP1 REVERT JUMPDEST DUP2 CALLDATALOAD DUP2 DUP2 GT ISZERO PUSH2 0xEBC JUMPI PUSH2 0xEBC PUSH2 0x1135 JUMP JUMPDEST PUSH1 0x40 MLOAD PUSH1 0x1F DUP3 ADD PUSH1 0x1F NOT SWAP1 DUP2 AND PUSH1 0x3F ADD AND DUP2 ADD SWAP1 DUP4 DUP3 GT DUP2 DUP4 LT OR ISZERO PUSH2 0xEE4 JUMPI PUSH2 0xEE4 PUSH2 0x1135 JUMP JUMPDEST DUP2 PUSH1 0x40 MSTORE DUP3 DUP2 MSTORE DUP8 PUSH1 0x20 DUP5 DUP8 ADD ADD GT ISZERO PUSH2 0xEFD JUMPI PUSH1 0x0 DUP1 REVERT JUMPDEST DUP3 PUSH1 0x20 DUP7 ADD PUSH1 0x20 DUP4 ADD CALLDATACOPY PUSH1 0x0 SWAP3 DUP2 ADD PUSH1 0x20 ADD SWAP3 SWAP1 SWAP3 MSTORE POP SWAP6 SWAP5 POP POP POP POP POP JUMP JUMPDEST PUSH1 0x0 PUSH1 0xA0 DUP3 DUP5 SUB SLT ISZERO PUSH2 0xF2F JUMPI PUSH1 0x0 DUP1 REVERT JUMPDEST PUSH1 0x40 MLOAD PUSH1 0xA0 DUP2 ADD DUP2 DUP2 LT PUSH8 0xFFFFFFFFFFFFFFFF DUP3 GT OR ISZERO PUSH2 0xF52 JUMPI PUSH2 0xF52 PUSH2 0x1135 JUMP JUMPDEST PUSH1 0x40 MSTORE PUSH2 0xF5E DUP4 PUSH2 0xDEE JUMP JUMPDEST DUP2 MSTORE PUSH1 0x20 DUP4 ADD CALLDATALOAD PUSH1 0x20 DUP3 ADD MSTORE PUSH1 0x40 DUP4 ADD CALLDATALOAD PUSH1 0x40 DUP3 ADD MSTORE PUSH1 0x60 DUP4 ADD CALLDATALOAD PUSH1 0x60 DUP3 ADD MSTORE PUSH1 0x80 DUP4 ADD CALLDATALOAD PUSH2 0xF8C DUP2 PUSH2 0x114B JUMP JUMPDEST PUSH1 0x80 DUP3 ADD MSTORE SWAP4 SWAP3 POP POP POP JUMP JUMPDEST PUSH1 0x0 PUSH1 0x20 DUP3 DUP5 SUB SLT ISZERO PUSH2 0xFAA JUMPI PUSH1 0x0 DUP1 REVERT JUMPDEST POP CALLDATALOAD SWAP2 SWAP1 POP JUMP JUMPDEST PUSH1 0x0 PUSH1 0x20 DUP3 DUP5 SUB SLT ISZERO PUSH2 0xFC3 JUMPI PUSH1 0x0 DUP1 REVERT JUMPDEST POP MLOAD SWAP2 SWAP1 POP JUMP JUMPDEST PUSH1 0x0 PUSH1 0x20 DUP1 DUP4 MSTORE DUP4 MLOAD DUP1 DUP3 DUP6 ADD MSTORE PUSH1 0x0 JUMPDEST DUP2 DUP2 LT ISZERO PUSH2 0xFF7 JUMPI DUP6 DUP2 ADD DUP4 ADD MLOAD DUP6 DUP3 ADD PUSH1 0x40 ADD MSTORE DUP3 ADD PUSH2 0xFDB JUMP JUMPDEST DUP2 DUP2 GT ISZERO PUSH2 0x1009 JUMPI PUSH1 0x0 PUSH1 0x40 DUP4 DUP8 ADD ADD MSTORE JUMPDEST POP PUSH1 0x1F ADD PUSH1 0x1F NOT AND SWAP3 SWAP1 SWAP3 ADD PUSH1 0x40 ADD SWAP4 SWAP3 POP POP POP JUMP JUMPDEST PUSH1 0x20 DUP1 DUP3 MSTORE PUSH1 0x23 SWAP1 DUP3 ADD MSTORE PUSH32 0x4F776E61626C653A2063616C6C6572206973206E6F7420746865207265666F77 PUSH1 0x40 DUP3 ADD MSTORE PUSH3 0x3732B9 PUSH1 0xE9 SHL PUSH1 0x60 DUP3 ADD MSTORE PUSH1 0x80 ADD SWAP1 JUMP JUMPDEST PUSH1 0x0 DUP3 NOT DUP3 GT ISZERO PUSH2 0x1075 JUMPI PUSH2 0x1075 PUSH2 0x1109 JUMP JUMPDEST POP ADD SWAP1 JUMP JUMPDEST PUSH1 0x0 DUP3 PUSH2 0x1097 JUMPI PUSH4 0x4E487B71 PUSH1 0xE0 SHL PUSH1 0x0 MSTORE PUSH1 0x12 PUSH1 0x4 MSTORE PUSH1 0x24 PUSH1 0x0 REVERT JUMPDEST POP DIV SWAP1 JUMP JUMPDEST PUSH1 0x0 DUP3 DUP3 LT ISZERO PUSH2 0x10AE JUMPI PUSH2 0x10AE PUSH2 0x1109 JUMP JUMPDEST POP SUB SWAP1 JUMP JUMPDEST PUSH1 0x1 DUP2 DUP2 SHR SWAP1 DUP3 AND DUP1 PUSH2 0x10C7 JUMPI PUSH1 0x7F DUP3 AND SWAP2 POP JUMPDEST PUSH1 0x20 DUP3 LT DUP2 EQ ISZERO PUSH2 0x10E8 JUMPI PUSH4 0x4E487B71 PUSH1 0xE0 SHL PUSH1 0x0 MSTORE PUSH1 0x22 PUSH1 0x4 MSTORE PUSH1 0x24 PUSH1 0x0 REVERT JUMPDEST POP SWAP2 SWAP1 POP JUMP JUMPDEST PUSH1 0x0 PUSH1 0x0 NOT DUP3 EQ ISZERO PUSH2 0x1102 JUMPI PUSH2 0x1102 PUSH2 0x1109 JUMP JUMPDEST POP PUSH1 0x1 ADD SWAP1 JUMP JUMPDEST PUSH4 0x4E487B71 PUSH1 0xE0 SHL PUSH1 0x0 MSTORE PUSH1 0x11 PUSH1 0x4 MSTORE PUSH1 0x24 PUSH1 0x0 REVERT JUMPDEST PUSH4 0x4E487B71 PUSH1 0xE0 SHL PUSH1 0x0 MSTORE PUSH1 0x32 PUSH1 0x4 MSTORE PUSH1 0x24 PUSH1 0x0 REVERT JUMPDEST PUSH4 0x4E487B71 PUSH1 0xE0 SHL PUSH1 0x0 MSTORE PUSH1 0x41 PUSH1 0x4 MSTORE PUSH1 0x24 PUSH1 0x0 REVERT JUMPDEST DUP1 ISZERO ISZERO DUP2 EQ PUSH2 0x87A JUMPI PUSH1 0x0 DUP1 REVERT INVALID LOG2 PUSH5 0x6970667358 0x22 SLT KECCAK256 SWAP2 0xF9 0xA8 0xA9 DUP12 0xBC PUSH10 0xE6A74F82E233D2B66BF3 0xEF PUSH23 0x5F370480C9E46B5A940F153EBD64736F6C634300080500 CALLER ",
  "sha1": "388d36faf7c84482d64459fb616357e168412697",
  "source": "// // SPDX-License-Identifier: MIT\npragma solidity ^0.8.5;\n\nimport \"./AbstractBucket.sol\";\nimport \"./Ownable.sol\";\nimport \"./VegaToken.sol\";\nimport \"./VestingMath.sol\";\n\n//bucket with vesting of multiple addresses\n//claims and\n//claim addresses have claims towards the bucket\n//vesting in equal parts per time\n//e.g. 6 months, 1/6 equal\ncontract VestingBucket is AbstractBucket {\n    address refowner;\n    //a claim towards this bucket by an addreess\n    struct Claim {\n        address claimAddress;\n        uint256 claimTotalAmount;\n        uint256 amountPerPeriod;\n        uint256 withdrawnAmount;\n        bool isAdded;\n    }\n\n    mapping(address => Claim) public claims;\n    address[] public claimAddresses;\n    uint256 public totalClaimAmount;\n    uint256 public totalWithdrawnAmount;\n\n    //unix time when vesting starts\n    uint256 public cliffTime;\n    //how many periods .the number of months not the number of the final month\n    uint256 public numPeriods;\n    //how much in total is vested\n    uint256 public totalAmount;\n    // calculated\n    //how much per period. since its linear this is calculated\n    uint256 public bucketAmountPerPeriod;\n    uint256 public endTime;\n    uint256 public numClaims;\n\n    //TODO deposit\n    event DepositOwner(address indexed addr, uint256 amount);\n    event WithdrawClaim(address indexed addr, uint256 amount);\n    event WithdrawOwner(uint256 amount);\n\n    modifier onlyRefOwner() {\n        require(\n            msg.sender == refowner || msg.sender == owner(),\n            \"Ownable: caller is not the refowner\"\n        );\n        _;\n    }\n\n    constructor(\n        address _VEGA_TOKEN_ADDRESS,\n        uint256 _cliffTime,\n        uint256 _numPeriods,\n        uint256 _totalAmount\n    ) AbstractBucket(_VEGA_TOKEN_ADDRESS) {\n        require(\n            _cliffTime >= block.timestamp,\n            \"VESTINGBUCKET cliff must be in the future\"\n        );\n        cliffTime = _cliffTime;\n        numPeriods = _numPeriods;\n        totalAmount = _totalAmount;\n\n        bucketAmountPerPeriod = totalAmount / numPeriods;\n        endTime = VestingMath.getEndTime(\n            _cliffTime,\n            bucketAmountPerPeriod,\n            _totalAmount\n        );\n\n        totalWithdrawnAmount = 0;\n        totalClaimAmount = 0;\n        numClaims = 0;\n        //claimAddresses =\n    }\n\n    function setRefowner(address _refowner) public onlyOwner {\n        refowner = _refowner;\n    }\n\n    //linear vesting claim\n    function addClaim(address _claimAddress, uint256 _claimTotalAmount)\n        public\n        onlyRefOwner\n    {\n        if (claims[_claimAddress].isAdded)\n            revert(\"VESTINGBUCKET: claim at this address already exists\");\n\n        require(\n            totalClaimAmount + _claimTotalAmount <= totalAmount,\n            \"VESTINGBUCKET: can not claim more than total\"\n        );\n\n        require(_claimTotalAmount > 0, \"VESTINGBUCKET: claim can not be zero\");\n\n        //TODO! add prechecks\n\n        uint256 amountPerPeriod = _claimTotalAmount / numPeriods;\n\n        claims[_claimAddress] = Claim({\n            claimAddress: _claimAddress,\n            amountPerPeriod: amountPerPeriod,\n            claimTotalAmount: _claimTotalAmount,\n            withdrawnAmount: 0,\n            isAdded: true\n        });\n\n        //claimAddresses[numClaims] = _claimAddress;\n        claimAddresses.push(_claimAddress);\n        totalClaimAmount += _claimTotalAmount;\n        numClaims += 1;\n        //amountPerPeriod: amountPerPeriod\n    }\n\n    function getCurrentTime() public view returns (uint256) {\n        return block.timestamp;\n    }\n\n    function getVestedAmount(Claim memory claim) public view returns (uint256) {\n        uint256 blocktime = block.timestamp;\n        return\n            VestingMath.getVestedAmountTS(\n                blocktime,\n                cliffTime,\n                endTime,\n                claim.amountPerPeriod,\n                claim.claimTotalAmount\n            );\n    }\n\n    function getVestableAmountAll() public view returns (uint256) {\n        uint256 blocktime = block.timestamp;\n\n        uint256 amount = VestingMath.getVestedAmountTS(\n            blocktime,\n            cliffTime,\n            endTime,\n            bucketAmountPerPeriod,\n            totalAmount\n        );\n\n        return amount;\n    }\n\n    function getVestableAmount(address _claimAddress)\n        public\n        view\n        returns (uint256)\n    {\n        Claim memory claim = claims[_claimAddress];\n        uint256 vestableAmount = getVestedAmount(claim);\n        return vestableAmount;\n    }\n\n    //vest the claim. this vests the maximum possible\n    function vestClaimMax(address _claimAddress) public {\n        require(\n            msg.sender == _claimAddress ||\n                msg.sender == owner() ||\n                msg.sender == refowner,\n            \"VESTINGBUCKET: can only call from claimaddress or owner\"\n        );\n\n        if (!claims[_claimAddress].isAdded)\n            revert(\"VESTINGBUCKET: claim does not exist\");\n\n        Claim storage claim = claims[_claimAddress];\n\n        uint256 vestableAmount = getVestedAmount(claim);\n\n        uint256 withdrawAmount = vestableAmount - claim.withdrawnAmount;\n        uint256 totalAfterwithdraw = claim.withdrawnAmount + withdrawAmount;\n        require(\n            totalAfterwithdraw <= claim.claimTotalAmount,\n            \"VESTINGBUCKET: can not withdraw more than total\"\n        );\n\n        require(withdrawAmount > 0, \"VESTINGBUCKET: no amount claimed\");\n\n        //edge case is handled in vesting math\n        //  if (vestingSchedule.totalWithdrawnAmount + withdrawableAmount > vestingSchedule.totalAmount) {\n        //   withdrawableAmount = vestingSchedule.totalAmount - vestingSchedule.totalWithdrawnAmount;\n        // }\n\n        require(\n            vega_token.transfer(_claimAddress, withdrawAmount),\n            \"transfer failed\"\n        );\n        emit WithdrawClaim(claim.claimAddress, withdrawAmount);\n        claim.withdrawnAmount += withdrawAmount;\n        totalWithdrawnAmount += withdrawAmount;\n    }\n\n    //owner calls all claims\n    function allClaim() public onlyRefOwner {\n        //for every claim\n        uint256 i = 0;\n        for (i = 0; i < numClaims; i++) {\n            address ca = claimAddresses[i];\n            vestClaimMax(ca);\n            //uint256 vestableAmount = getVestedAmount(claim);\n            //total += vestableAmount;\n        }\n    }\n\n    //pro forma functions\n\n    //remove claim is not implemented, if there is issues need to use new address\n    // function removeClaim(address _claimAddress) public onlyRefOwner {\n    //     claims[_claimAddress] = zero\n    //     numClaims -= 1;\n    // }\n\n    // function depositOwner(uint256 amount) public onlyOwner {\n    //     //require(approve)\n    //     bool transferSuccess = vega_token.transferFrom(\n    //         msg.sender,\n    //         address(this),\n    //         amount\n    //     );\n    //     require(transferSuccess, \"VESTINGBUCKET: deposit failed\");\n    //     emit DepositOwner(msg.sender, amount);\n    // }\n\n    // function withdrawOwner(uint256 amount) public onlyRefOwner {\n    //     //check existing claims\n    //     bool transferSuccess = vega_token.transfer(msg.sender, amount);\n    //     require(transferSuccess, \"VESTINGBUCKET: withdrawOwner failed\");\n    //     emit WithdrawOwner(amount);\n    // }\n}\n",
  "sourcePath": "contracts/VestingBucket.sol",
  "type": "contract"
}