{
  "abi": [
    {
      "inputs": [],
      "stateMutability": "nonpayable",
      "type": "constructor"
    },
    {
      "inputs": [
        {
          "internalType": "uint256",
          "name": "cliffOffset",
          "type": "uint256"
        },
        {
          "internalType": "string",
          "name": "name",
          "type": "string"
        },
        {
          "internalType": "uint256",
          "name": "periods",
          "type": "uint256"
        },
        {
          "internalType": "uint256",
          "name": "amount",
          "type": "uint256"
        }
      ],
      "name": "addVestingBucket",
      "outputs": [],
      "stateMutability": "nonpayable",
      "type": "function"
    },
    {
      "inputs": [],
      "name": "bucket_num",
      "outputs": [
        {
          "internalType": "uint256",
          "name": "",
          "type": "uint256"
        }
      ],
      "stateMutability": "view",
      "type": "function"
    },
    {
      "inputs": [
        {
          "internalType": "uint256",
          "name": "",
          "type": "uint256"
        }
      ],
      "name": "buckets",
      "outputs": [
        {
          "internalType": "address",
          "name": "",
          "type": "address"
        }
      ],
      "stateMutability": "view",
      "type": "function"
    },
    {
      "inputs": [],
      "name": "maxSupply",
      "outputs": [
        {
          "internalType": "uint256",
          "name": "",
          "type": "uint256"
        }
      ],
      "stateMutability": "view",
      "type": "function"
    },
    {
      "inputs": [],
      "name": "owner",
      "outputs": [
        {
          "internalType": "address",
          "name": "",
          "type": "address"
        }
      ],
      "stateMutability": "view",
      "type": "function"
    },
    {
      "inputs": [],
      "name": "vega_token",
      "outputs": [
        {
          "internalType": "contract VegaToken",
          "name": "",
          "type": "address"
        }
      ],
      "stateMutability": "view",
      "type": "function"
    },
    {
      "inputs": [],
      "name": "vega_token_address",
      "outputs": [
        {
          "internalType": "address",
          "name": "",
          "type": "address"
        }
      ],
      "stateMutability": "view",
      "type": "function"
    }
  ],
  "bytecode": "608060405234801561001057600080fd5b50600080546001600160a01b0319163317905560405161002f906100b4565b604051809103906000f08015801561004b573d6000803e3d6000fd5b50600180546001600160a01b03929092166001600160a01b0319928316811790915560028054909216179055600060045560408051601e8082526103e0820190925290602082016103c080368337505081516100ae9260039250602001906100c1565b5061013b565b610c9080611d0a83390190565b828054828255906000526020600020908101928215610116579160200282015b8281111561011657825182546001600160a01b0319166001600160a01b039091161782556020909201916001909101906100e1565b50610122929150610126565b5090565b5b808211156101225760008155600101610127565b611bc08061014a6000396000f3fe608060405234801561001057600080fd5b506004361061007d5760003560e01c80639b51fb0d1161005b5780639b51fb0d146100d8578063bbb6f347146100eb578063d5abeb01146100fe578063dc5202921461011457600080fd5b806368a87b0e1461008257806383429d0e146100b25780638da5cb5b146100c7575b600080fd5b600254610095906001600160a01b031681565b6040516001600160a01b0390911681526020015b60405180910390f35b6100c56100c0366004610586565b61011d565b005b6000546001600160a01b0316610095565b6100956100e6366004610554565b610397565b600154610095906001600160a01b031681565b6101066103c1565b6040519081526020016100a9565b61010660045481565b336101306000546001600160a01b031690565b6001600160a01b03161461018b5760405162461bcd60e51b815260206004820181905260248201527f4f776e61626c653a2063616c6c6572206973206e6f7420746865206f776e657260448201526064015b60405180910390fd5b6002546000906001600160a01b03166101a486426106a6565b84846040516101b29061051e565b6001600160a01b039094168452602084019290925260408301526060820152608001604051809103906000f0801580156101f0573d6000803e3d6000fd5b509050806001600160a01b031663b9377aff6102146000546001600160a01b031690565b6040516001600160e01b031960e084901b1681526001600160a01b039091166004820152602401600060405180830381600087803b15801561025557600080fd5b505af1158015610269573d6000803e3d6000fd5b505060405163c47f002760e01b81526001600160a01b038416925063c47f00279150610299908790600401610651565b600060405180830381600087803b1580156102b357600080fd5b505af11580156102c7573d6000803e3d6000fd5b50505050601e600454106103295760405162461bcd60e51b815260206004820152602360248201527f566567614d61737465723a206275636b6574206e756d62657220746f6f206c6160448201526272676560e81b6064820152608401610182565b8060036004548154811061033f5761033f6106cc565b9060005260206000200160006101000a8154816001600160a01b0302191690836001600160a01b0316021790555060016004600082825461038091906106a6565b9091555061039090508183610443565b5050505050565b600381815481106103a757600080fd5b6000918252602090912001546001600160a01b0316905081565b60015460408051630cb2dac360e21b815290516000926001600160a01b0316916332cb6b0c916004808301926020929190829003018186803b15801561040657600080fd5b505afa15801561041a573d6000803e3d6000fd5b505050506040513d601f19601f8201168201806040525081019061043e919061056d565b905090565b60015460405163a9059cbb60e01b81526001600160a01b03848116600483015260248201849052600092169063a9059cbb90604401602060405180830381600087803b15801561049257600080fd5b505af11580156104a6573d6000803e3d6000fd5b505050506040513d601f19601f820116820180604052508101906104ca919061052b565b9050806105195760405162461bcd60e51b815260206004820152601b60248201527f566567614d61737465723a207472616e73666572206661696c656400000000006044820152606401610182565b505050565b611492806106f983390190565b60006020828403121561053d57600080fd5b8151801515811461054d57600080fd5b9392505050565b60006020828403121561056657600080fd5b5035919050565b60006020828403121561057f57600080fd5b5051919050565b6000806000806080858703121561059c57600080fd5b84359350602085013567ffffffffffffffff808211156105bb57600080fd5b818701915087601f8301126105cf57600080fd5b8135818111156105e1576105e16106e2565b604051601f8201601f19908116603f01168101908382118183101715610609576106096106e2565b816040528281528a602084870101111561062257600080fd5b826020860160208301376000928101602001929092525095989597505050506040840135936060013592915050565b600060208083528351808285015260005b8181101561067e57858101830151858201604001528201610662565b81811115610690576000604083870101525b50601f01601f1916929092016040019392505050565b600082198211156106c757634e487b7160e01b600052601160045260246000fd5b500190565b634e487b7160e01b600052603260045260246000fd5b634e487b7160e01b600052604160045260246000fdfe60806040523480156200001157600080fd5b506040516200149238038062001492833981016040819052620000349162000197565b60008054336001600160a01b031991821617909155600380549091166001600160a01b038616179055426004819055831015620000c95760405162461bcd60e51b815260206004820152602960248201527f56455354494e474255434b455420636c696666206d75737420626520696e207460448201526868652066757475726560b81b606482015260840160405180910390fd5b6009839055600a829055600b819055620000e48282620001fe565b600c81905560405163556b30b960e11b81526004810185905260248101919091526044810182905273__VestingMath___________________________9063aad661729060640160206040518083038186803b1580156200014457600080fd5b505af415801562000159573d6000803e3d6000fd5b505050506040513d601f19601f820116820180604052508101906200017f9190620001e4565b600d5550506000600881905560075550620002219050565b60008060008060808587031215620001ae57600080fd5b84516001600160a01b0381168114620001c657600080fd5b60208601516040870151606090970151919890975090945092505050565b600060208284031215620001f757600080fd5b5051919050565b6000826200021c57634e487b7160e01b600052601260045260246000fd5b500490565b61126180620002316000396000f3fe608060405234801561001057600080fd5b50600436106101425760003560e01c80638da5cb5b116100b8578063c47f00271161007c578063c47f002714610251578063c6788bdd14610264578063d0029d61146102e2578063dcd65479146102f5578063dfa93099146102fe578063f8fcabe31461031157600080fd5b80638da5cb5b146101ff578063b4cb529a14610210578063b622870314610218578063b9377aff1461022b578063bbb6f3471461023e57600080fd5b80633197cbb61161010a5780633197cbb6146101a357806334dadad5146101ac57806335e9d90f146101b55780636ef98b21146101be57806372a1c148146101d15780638523b7db146101f657600080fd5b806306fdde03146101475780630f1a6444146101655780631a39d8ef1461017c5780631d8b44c51461018557806321e76dc11461018e575b600080fd5b61014f610324565b60405161015c919061104d565b60405180910390f35b61016e60095481565b60405190815260200161015c565b61016e600b5481565b61016e60085481565b6101a161019c366004610e8d565b6103b2565b005b61016e600d5481565b61016e60045481565b61016e600c5481565b6101a16101cc36600461101b565b61076b565b6001546001600160a01b03165b6040516001600160a01b03909116815260200161015c565b61016e60075481565b6000546001600160a01b03166101de565b6101a16108c1565b61016e610226366004610fa0565b610958565b6101a1610239366004610e8d565b610a11565b6003546101de906001600160a01b031681565b6101a161025f366004610eef565b610a6c565b6102ae610272366004610e8d565b600560205260009081526040902080546001820154600283015460038401546004909401546001600160a01b0390931693919290919060ff1685565b604080516001600160a01b03909616865260208601949094529284019190915260608301521515608082015260a00161015c565b6101de6102f036600461101b565b610abc565b61016e600a5481565b61016e61030c366004610e8d565b610ae6565b6101a161031f366004610ea8565b610b51565b6002805461033190611185565b80601f016020809104026020016040519081016040528092919081815260200182805461035d90611185565b80156103aa5780601f1061037f576101008083540402835291602001916103aa565b820191906000526020600020905b81548152906001019060200180831161038d57829003601f168201915b505050505081565b336001600160a01b03821614806103d357506000546001600160a01b031633145b806103e857506001546001600160a01b031633145b61045f5760405162461bcd60e51b815260206004820152603760248201527f56455354494e474255434b45543a2063616e206f6e6c792063616c6c2066726f60448201527f6d20636c61696d61646472657373206f72206f776e657200000000000000000060648201526084015b60405180910390fd5b6001600160a01b03811660009081526005602052604090206004015460ff166104d65760405162461bcd60e51b815260206004820152602360248201527f56455354494e474255434b45543a20636c61696d20646f6573206e6f742065786044820152621a5cdd60ea1b6064820152608401610456565b6001600160a01b038082166000908152600560209081526040808320815160a0810183528154909516855260018101549285019290925260028201549084015260038101546060840152600481015460ff16151560808401529161053990610958565b9050600082600301548261054d919061116e565b905060008184600301546105619190611134565b905083600101548111156105cf5760405162461bcd60e51b815260206004820152602f60248201527f56455354494e474255434b45543a2063616e206e6f742077697468647261772060448201526e1b5bdc99481d1a185b881d1bdd185b608a1b6064820152608401610456565b6000821161061f5760405162461bcd60e51b815260206004820181905260248201527f56455354494e474255434b45543a206e6f20616d6f756e7420636c61696d65646044820152606401610456565b60035460405163a9059cbb60e01b81526001600160a01b038781166004830152602482018590529091169063a9059cbb90604401602060405180830381600087803b15801561066d57600080fd5b505af1158015610681573d6000803e3d6000fd5b505050506040513d601f19601f820116820180604052508101906106a59190610ed2565b6106f15760405162461bcd60e51b815260206004820152601e60248201527f56455354494e474255434b45543a207472616e73666572206661696c656400006044820152606401610456565b83546040518381526001600160a01b03909116907f394a4e97a8193f113cce457fc16cabc66ff1a10c478cdab3b82e5cc57c67bbf99060200160405180910390a2818460030160008282546107469190611134565b92505081905550816008600082825461075f9190611134565b90915550505050505050565b6001546001600160a01b031633148061078e57506000546001600160a01b031633145b6107aa5760405162461bcd60e51b8152600401610456906110e5565b60035460405163a9059cbb60e01b8152336004820152602481018390526000916001600160a01b03169063a9059cbb90604401602060405180830381600087803b1580156107f757600080fd5b505af115801561080b573d6000803e3d6000fd5b505050506040513d601f19601f8201168201806040525081019061082f9190610ed2565b90508061088a5760405162461bcd60e51b815260206004820152602360248201527f56455354494e474255434b45543a2077697468647261774f776e6572206661696044820152621b195960ea1b6064820152608401610456565b6040518281527f87407f8cb494a98d977328908b1ff2a7e0b5a79c3ccc705b5c8569533631d59e9060200160405180910390a15050565b6001546001600160a01b03163314806108e457506000546001600160a01b031633145b6109005760405162461bcd60e51b8152600401610456906110e5565b60005b60065481101561095557600060068281548110610922576109226111f1565b6000918252602090912001546001600160a01b03169050610942816103b2565b508061094d816111c0565b915050610903565b50565b600954600d5460408381015160208501519151636bc18e9560e01b8152426004820181905260248201959095526044810193909352606483015260848201526000919073__VestingMath___________________________90636bc18e959060a40160206040518083038186803b1580156109d257600080fd5b505af41580156109e6573d6000803e3d6000fd5b505050506040513d601f19601f82011682018060405250810190610a0a9190611034565b9392505050565b33610a246000546001600160a01b031690565b6001600160a01b031614610a4a5760405162461bcd60e51b8152600401610456906110a2565b600180546001600160a01b0319166001600160a01b0392909216919091179055565b33610a7f6000546001600160a01b031690565b6001600160a01b031614610aa55760405162461bcd60e51b8152600401610456906110a2565b8051610ab8906002906020840190610dd8565b5050565b60068181548110610acc57600080fd5b6000918252602090912001546001600160a01b0316905081565b6001600160a01b038082166000908152600560209081526040808320815160a08101835281549095168552600181015492850192909252600282015490840152600381015460608401526004015460ff16151560808301529081610b4982610958565b949350505050565b6001546001600160a01b0316331480610b7457506000546001600160a01b031633145b610b905760405162461bcd60e51b8152600401610456906110e5565b6001600160a01b03821660009081526005602052604090206004015460ff1615610c185760405162461bcd60e51b815260206004820152603360248201527f56455354494e474255434b45543a20636c61696d2061742074686973206164646044820152727265737320616c72656164792065786973747360681b6064820152608401610456565b60008111610c745760405162461bcd60e51b8152602060048201526024808201527f56455354494e474255434b45543a20636c61696d2063616e206e6f74206265206044820152637a65726f60e01b6064820152608401610456565b600b5481600754610c859190611134565b1115610ce85760405162461bcd60e51b815260206004820152602c60248201527f56455354494e474255434b45543a2063616e206e6f7420636c61696d206d6f7260448201526b19481d1a185b881d1bdd185b60a21b6064820152608401610456565b6000600a5482610cf8919061114c565b6040805160a0810182526001600160a01b03808716808352602080840188815284860187815260006060870181815260016080890181815287845260059096529882209751885497166001600160a01b0319978816178855925187890155905160028701559051600386015590516004909401805494151560ff199095169490941790935560068054948501815583527ff652222313e28459528d920b65115c16c04f3efc82aaedc97be59f3f377c0d3f9093018054909116909217909155600780549293508492909190610dce908490611134565b9091555050505050565b828054610de490611185565b90600052602060002090601f016020900481019282610e065760008555610e4c565b82601f10610e1f57805160ff1916838001178555610e4c565b82800160010185558215610e4c579182015b82811115610e4c578251825591602001919060010190610e31565b50610e58929150610e5c565b5090565b5b80821115610e585760008155600101610e5d565b80356001600160a01b0381168114610e8857600080fd5b919050565b600060208284031215610e9f57600080fd5b610a0a82610e71565b60008060408385031215610ebb57600080fd5b610ec483610e71565b946020939093013593505050565b600060208284031215610ee457600080fd5b8151610a0a8161121d565b600060208284031215610f0157600080fd5b813567ffffffffffffffff80821115610f1957600080fd5b818401915084601f830112610f2d57600080fd5b813581811115610f3f57610f3f611207565b604051601f8201601f19908116603f01168101908382118183101715610f6757610f67611207565b81604052828152876020848701011115610f8057600080fd5b826020860160208301376000928101602001929092525095945050505050565b600060a08284031215610fb257600080fd5b60405160a0810181811067ffffffffffffffff82111715610fd557610fd5611207565b604052610fe183610e71565b8152602083013560208201526040830135604082015260608301356060820152608083013561100f8161121d565b60808201529392505050565b60006020828403121561102d57600080fd5b5035919050565b60006020828403121561104657600080fd5b5051919050565b600060208083528351808285015260005b8181101561107a5785810183015185820160400152820161105e565b8181111561108c576000604083870101525b50601f01601f1916929092016040019392505050565b60208082526023908201527f5265664f776e61626c653a2063616c6c6572206973206e6f7420746865206f776040820152623732b960e91b606082015260800190565b6020808252602f908201527f5265664f776e61626c653a2063616c6c6572206973206e6f7420746865206f7760408201526e3732b91037b9103932b337bbb732b960891b606082015260800190565b60008219821115611147576111476111db565b500190565b60008261116957634e487b7160e01b600052601260045260246000fd5b500490565b600082821015611180576111806111db565b500390565b600181811c9082168061119957607f821691505b602082108114156111ba57634e487b7160e01b600052602260045260246000fd5b50919050565b60006000198214156111d4576111d46111db565b5060010190565b634e487b7160e01b600052601160045260246000fd5b634e487b7160e01b600052603260045260246000fd5b634e487b7160e01b600052604160045260246000fd5b801515811461095557600080fdfea26469706673582212202ff559f025eee500c43358bb0191d0bc0bdd46eb2298357128315d40163b7bc164736f6c63430008050033a264697066735822122050c21170e8dd9e5aed0984f5f925e80e5c3ca4af63d53ee19c6f69a49893df1e64736f6c6343000805003360806040523480156200001157600080fd5b50620000206012600a620001f9565b6200003090633b9aca00620002c7565b60408051808201825260098152682b32b3b0aa37b5b2b760b91b6020808301918252835180850190945260048452635645474160e01b90840152600080546001600160a01b0319163317905581519192916200008f916001916200010a565b508051620000a59060029060208401906200010a565b506005839055600080546001600160a01b03908116825260036020908152604080842087905583549051878152921692917fddf252ad1be2c89b69c2b068fc378daa952ba7f163c4a11628f55a4df523b3ef910160405180910390a35050506200033c565b8280546200011890620002e9565b90600052602060002090601f0160209004810192826200013c576000855562000187565b82601f106200015757805160ff191683800117855562000187565b8280016001018555821562000187579182015b82811115620001875782518255916020019190600101906200016a565b506200019592915062000199565b5090565b5b808211156200019557600081556001016200019a565b600181815b80851115620001f1578160001904821115620001d557620001d562000326565b80851615620001e357918102915b93841c9390800290620001b5565b509250929050565b60006200020a60ff84168362000211565b9392505050565b6000826200022257506001620002c1565b816200023157506000620002c1565b81600181146200024a5760028114620002555762000275565b6001915050620002c1565b60ff84111562000269576200026962000326565b50506001821b620002c1565b5060208310610133831016604e8410600b84101617156200029a575081810a620002c1565b620002a68383620001b0565b8060001904821115620002bd57620002bd62000326565b0290505b92915050565b6000816000190483118215151615620002e457620002e462000326565b500290565b600181811c90821680620002fe57607f821691505b602082108114156200032057634e487b7160e01b600052602260045260246000fd5b50919050565b634e487b7160e01b600052601160045260246000fd5b610944806200034c6000396000f3fe608060405234801561001057600080fd5b50600436106100a95760003560e01c8063313ce56711610071578063313ce5671461012e57806332cb6b0c1461013557806370a082311461013d57806395d89b4114610166578063a9059cbb1461016e578063dd62ed3e1461018157600080fd5b806306fdde03146100ae578063095ea7b3146100cc57806318160ddd146100ef57806323b872dd146101015780632e0f262514610114575b600080fd5b6100b66101ba565b6040516100c3919061072c565b60405180910390f35b6100df6100da366004610702565b61024c565b60405190151581526020016100c3565b6005545b6040519081526020016100c3565b6100df61010f3660046106c6565b610263565b61011c601281565b60405160ff90911681526020016100c3565b601261011c565b6100f3610319565b6100f361014b366004610671565b6001600160a01b031660009081526003602052604090205490565b6100b6610336565b6100df61017c366004610702565b610345565b6100f361018f366004610693565b6001600160a01b03918216600090815260046020908152604080832093909416825291909152205490565b6060600180546101c9906108bd565b80601f01602080910402602001604051908101604052809291908181526020018280546101f5906108bd565b80156102425780601f1061021757610100808354040283529160200191610242565b820191906000526020600020905b81548152906001019060200180831161022557829003601f168201915b5050505050905090565b6000610259338484610352565b5060015b92915050565b6000610270848484610477565b6001600160a01b0384166000908152600460209081526040808320338452909152902054828110156102fa5760405162461bcd60e51b815260206004820152602860248201527f45524332303a207472616e7366657220616d6f756e74206578636565647320616044820152676c6c6f77616e636560c01b60648201526084015b60405180910390fd5b61030e853361030986856108a6565b610352565b506001949350505050565b6103256012600a6107dc565b61033390633b9aca00610887565b81565b6060600280546101c9906108bd565b6000610259338484610477565b6001600160a01b0383166103b45760405162461bcd60e51b8152602060048201526024808201527f45524332303a20617070726f76652066726f6d20746865207a65726f206164646044820152637265737360e01b60648201526084016102f1565b6001600160a01b0382166104155760405162461bcd60e51b815260206004820152602260248201527f45524332303a20617070726f766520746f20746865207a65726f206164647265604482015261737360f01b60648201526084016102f1565b6001600160a01b0383811660008181526004602090815260408083209487168084529482529182902085905590518481527f8c5be1e5ebec7d5bd14f71427d1e84f3dd0314c0f7b2291e5b200ac8c7c3b92591015b60405180910390a3505050565b6001600160a01b0383166104db5760405162461bcd60e51b815260206004820152602560248201527f45524332303a207472616e736665722066726f6d20746865207a65726f206164604482015264647265737360d81b60648201526084016102f1565b6001600160a01b03821661053d5760405162461bcd60e51b815260206004820152602360248201527f45524332303a207472616e7366657220746f20746865207a65726f206164647260448201526265737360e81b60648201526084016102f1565b6001600160a01b0383166000908152600360205260409020548111156105b45760405162461bcd60e51b815260206004820152602660248201527f45524332303a207472616e7366657220616d6f756e7420657863656564732062604482015265616c616e636560d01b60648201526084016102f1565b6001600160a01b038316600090815260036020526040812080548392906105dc9084906108a6565b90915550506001600160a01b03821660009081526003602052604081208054839290610609908490610781565b92505081905550816001600160a01b0316836001600160a01b03167fddf252ad1be2c89b69c2b068fc378daa952ba7f163c4a11628f55a4df523b3ef8360405161046a91815260200190565b80356001600160a01b038116811461066c57600080fd5b919050565b60006020828403121561068357600080fd5b61068c82610655565b9392505050565b600080604083850312156106a657600080fd5b6106af83610655565b91506106bd60208401610655565b90509250929050565b6000806000606084860312156106db57600080fd5b6106e484610655565b92506106f260208501610655565b9150604084013590509250925092565b6000806040838503121561071557600080fd5b61071e83610655565b946020939093013593505050565b600060208083528351808285015260005b818110156107595785810183015185820160400152820161073d565b8181111561076b576000604083870101525b50601f01601f1916929092016040019392505050565b60008219821115610794576107946108f8565b500190565b600181815b808511156107d45781600019048211156107ba576107ba6108f8565b808516156107c757918102915b93841c939080029061079e565b509250929050565b600061068c60ff8416836000826107f55750600161025d565b816108025750600061025d565b816001811461081857600281146108225761083e565b600191505061025d565b60ff841115610833576108336108f8565b50506001821b61025d565b5060208310610133831016604e8410600b8410161715610861575081810a61025d565b61086b8383610799565b806000190482111561087f5761087f6108f8565b029392505050565b60008160001904831182151516156108a1576108a16108f8565b500290565b6000828210156108b8576108b86108f8565b500390565b600181811c908216806108d157607f821691505b602082108114156108f257634e487b7160e01b600052602260045260246000fd5b50919050565b634e487b7160e01b600052601160045260246000fdfea264697066735822122068e55322576cbf7864b9703f4caab5671da5dc933895cca0e3590f30d9358cfb64736f6c63430008050033",
  "bytecodeSha1": "bbc159b2c8ce1c58d720a8c9509b46c32938df35",
  "compiler": {
    "evm_version": "istanbul",
    "optimizer": {
      "enabled": true,
      "runs": 200
    },
    "version": "0.8.5+commit.a4f2e591"
  },
  "contractName": "VegaMaster",
  "deployedBytecode": "608060405234801561001057600080fd5b506004361061007d5760003560e01c80639b51fb0d1161005b5780639b51fb0d146100d8578063bbb6f347146100eb578063d5abeb01146100fe578063dc5202921461011457600080fd5b806368a87b0e1461008257806383429d0e146100b25780638da5cb5b146100c7575b600080fd5b600254610095906001600160a01b031681565b6040516001600160a01b0390911681526020015b60405180910390f35b6100c56100c0366004610586565b61011d565b005b6000546001600160a01b0316610095565b6100956100e6366004610554565b610397565b600154610095906001600160a01b031681565b6101066103c1565b6040519081526020016100a9565b61010660045481565b336101306000546001600160a01b031690565b6001600160a01b03161461018b5760405162461bcd60e51b815260206004820181905260248201527f4f776e61626c653a2063616c6c6572206973206e6f7420746865206f776e657260448201526064015b60405180910390fd5b6002546000906001600160a01b03166101a486426106a6565b84846040516101b29061051e565b6001600160a01b039094168452602084019290925260408301526060820152608001604051809103906000f0801580156101f0573d6000803e3d6000fd5b509050806001600160a01b031663b9377aff6102146000546001600160a01b031690565b6040516001600160e01b031960e084901b1681526001600160a01b039091166004820152602401600060405180830381600087803b15801561025557600080fd5b505af1158015610269573d6000803e3d6000fd5b505060405163c47f002760e01b81526001600160a01b038416925063c47f00279150610299908790600401610651565b600060405180830381600087803b1580156102b357600080fd5b505af11580156102c7573d6000803e3d6000fd5b50505050601e600454106103295760405162461bcd60e51b815260206004820152602360248201527f566567614d61737465723a206275636b6574206e756d62657220746f6f206c6160448201526272676560e81b6064820152608401610182565b8060036004548154811061033f5761033f6106cc565b9060005260206000200160006101000a8154816001600160a01b0302191690836001600160a01b0316021790555060016004600082825461038091906106a6565b9091555061039090508183610443565b5050505050565b600381815481106103a757600080fd5b6000918252602090912001546001600160a01b0316905081565b60015460408051630cb2dac360e21b815290516000926001600160a01b0316916332cb6b0c916004808301926020929190829003018186803b15801561040657600080fd5b505afa15801561041a573d6000803e3d6000fd5b505050506040513d601f19601f8201168201806040525081019061043e919061056d565b905090565b60015460405163a9059cbb60e01b81526001600160a01b03848116600483015260248201849052600092169063a9059cbb90604401602060405180830381600087803b15801561049257600080fd5b505af11580156104a6573d6000803e3d6000fd5b505050506040513d601f19601f820116820180604052508101906104ca919061052b565b9050806105195760405162461bcd60e51b815260206004820152601b60248201527f566567614d61737465723a207472616e73666572206661696c656400000000006044820152606401610182565b505050565b611492806106f983390190565b60006020828403121561053d57600080fd5b8151801515811461054d57600080fd5b9392505050565b60006020828403121561056657600080fd5b5035919050565b60006020828403121561057f57600080fd5b5051919050565b6000806000806080858703121561059c57600080fd5b84359350602085013567ffffffffffffffff808211156105bb57600080fd5b818701915087601f8301126105cf57600080fd5b8135818111156105e1576105e16106e2565b604051601f8201601f19908116603f01168101908382118183101715610609576106096106e2565b816040528281528a602084870101111561062257600080fd5b826020860160208301376000928101602001929092525095989597505050506040840135936060013592915050565b600060208083528351808285015260005b8181101561067e57858101830151858201604001528201610662565b81811115610690576000604083870101525b50601f01601f1916929092016040019392505050565b600082198211156106c757634e487b7160e01b600052601160045260246000fd5b500190565b634e487b7160e01b600052603260045260246000fd5b634e487b7160e01b600052604160045260246000fdfe60806040523480156200001157600080fd5b506040516200149238038062001492833981016040819052620000349162000197565b60008054336001600160a01b031991821617909155600380549091166001600160a01b038616179055426004819055831015620000c95760405162461bcd60e51b815260206004820152602960248201527f56455354494e474255434b455420636c696666206d75737420626520696e207460448201526868652066757475726560b81b606482015260840160405180910390fd5b6009839055600a829055600b819055620000e48282620001fe565b600c81905560405163556b30b960e11b81526004810185905260248101919091526044810182905273__$5e6753039be095b2af09f6e281dd6eeca6$__9063aad661729060640160206040518083038186803b1580156200014457600080fd5b505af415801562000159573d6000803e3d6000fd5b505050506040513d601f19601f820116820180604052508101906200017f9190620001e4565b600d5550506000600881905560075550620002219050565b60008060008060808587031215620001ae57600080fd5b84516001600160a01b0381168114620001c657600080fd5b60208601516040870151606090970151919890975090945092505050565b600060208284031215620001f757600080fd5b5051919050565b6000826200021c57634e487b7160e01b600052601260045260246000fd5b500490565b61126180620002316000396000f3fe608060405234801561001057600080fd5b50600436106101425760003560e01c80638da5cb5b116100b8578063c47f00271161007c578063c47f002714610251578063c6788bdd14610264578063d0029d61146102e2578063dcd65479146102f5578063dfa93099146102fe578063f8fcabe31461031157600080fd5b80638da5cb5b146101ff578063b4cb529a14610210578063b622870314610218578063b9377aff1461022b578063bbb6f3471461023e57600080fd5b80633197cbb61161010a5780633197cbb6146101a357806334dadad5146101ac57806335e9d90f146101b55780636ef98b21146101be57806372a1c148146101d15780638523b7db146101f657600080fd5b806306fdde03146101475780630f1a6444146101655780631a39d8ef1461017c5780631d8b44c51461018557806321e76dc11461018e575b600080fd5b61014f610324565b60405161015c919061104d565b60405180910390f35b61016e60095481565b60405190815260200161015c565b61016e600b5481565b61016e60085481565b6101a161019c366004610e8d565b6103b2565b005b61016e600d5481565b61016e60045481565b61016e600c5481565b6101a16101cc36600461101b565b61076b565b6001546001600160a01b03165b6040516001600160a01b03909116815260200161015c565b61016e60075481565b6000546001600160a01b03166101de565b6101a16108c1565b61016e610226366004610fa0565b610958565b6101a1610239366004610e8d565b610a11565b6003546101de906001600160a01b031681565b6101a161025f366004610eef565b610a6c565b6102ae610272366004610e8d565b600560205260009081526040902080546001820154600283015460038401546004909401546001600160a01b0390931693919290919060ff1685565b604080516001600160a01b03909616865260208601949094529284019190915260608301521515608082015260a00161015c565b6101de6102f036600461101b565b610abc565b61016e600a5481565b61016e61030c366004610e8d565b610ae6565b6101a161031f366004610ea8565b610b51565b6002805461033190611185565b80601f016020809104026020016040519081016040528092919081815260200182805461035d90611185565b80156103aa5780601f1061037f576101008083540402835291602001916103aa565b820191906000526020600020905b81548152906001019060200180831161038d57829003601f168201915b505050505081565b336001600160a01b03821614806103d357506000546001600160a01b031633145b806103e857506001546001600160a01b031633145b61045f5760405162461bcd60e51b815260206004820152603760248201527f56455354494e474255434b45543a2063616e206f6e6c792063616c6c2066726f60448201527f6d20636c61696d61646472657373206f72206f776e657200000000000000000060648201526084015b60405180910390fd5b6001600160a01b03811660009081526005602052604090206004015460ff166104d65760405162461bcd60e51b815260206004820152602360248201527f56455354494e474255434b45543a20636c61696d20646f6573206e6f742065786044820152621a5cdd60ea1b6064820152608401610456565b6001600160a01b038082166000908152600560209081526040808320815160a0810183528154909516855260018101549285019290925260028201549084015260038101546060840152600481015460ff16151560808401529161053990610958565b9050600082600301548261054d919061116e565b905060008184600301546105619190611134565b905083600101548111156105cf5760405162461bcd60e51b815260206004820152602f60248201527f56455354494e474255434b45543a2063616e206e6f742077697468647261772060448201526e1b5bdc99481d1a185b881d1bdd185b608a1b6064820152608401610456565b6000821161061f5760405162461bcd60e51b815260206004820181905260248201527f56455354494e474255434b45543a206e6f20616d6f756e7420636c61696d65646044820152606401610456565b60035460405163a9059cbb60e01b81526001600160a01b038781166004830152602482018590529091169063a9059cbb90604401602060405180830381600087803b15801561066d57600080fd5b505af1158015610681573d6000803e3d6000fd5b505050506040513d601f19601f820116820180604052508101906106a59190610ed2565b6106f15760405162461bcd60e51b815260206004820152601e60248201527f56455354494e474255434b45543a207472616e73666572206661696c656400006044820152606401610456565b83546040518381526001600160a01b03909116907f394a4e97a8193f113cce457fc16cabc66ff1a10c478cdab3b82e5cc57c67bbf99060200160405180910390a2818460030160008282546107469190611134565b92505081905550816008600082825461075f9190611134565b90915550505050505050565b6001546001600160a01b031633148061078e57506000546001600160a01b031633145b6107aa5760405162461bcd60e51b8152600401610456906110e5565b60035460405163a9059cbb60e01b8152336004820152602481018390526000916001600160a01b03169063a9059cbb90604401602060405180830381600087803b1580156107f757600080fd5b505af115801561080b573d6000803e3d6000fd5b505050506040513d601f19601f8201168201806040525081019061082f9190610ed2565b90508061088a5760405162461bcd60e51b815260206004820152602360248201527f56455354494e474255434b45543a2077697468647261774f776e6572206661696044820152621b195960ea1b6064820152608401610456565b6040518281527f87407f8cb494a98d977328908b1ff2a7e0b5a79c3ccc705b5c8569533631d59e9060200160405180910390a15050565b6001546001600160a01b03163314806108e457506000546001600160a01b031633145b6109005760405162461bcd60e51b8152600401610456906110e5565b60005b60065481101561095557600060068281548110610922576109226111f1565b6000918252602090912001546001600160a01b03169050610942816103b2565b508061094d816111c0565b915050610903565b50565b600954600d5460408381015160208501519151636bc18e9560e01b8152426004820181905260248201959095526044810193909352606483015260848201526000919073__$5e6753039be095b2af09f6e281dd6eeca6$__90636bc18e959060a40160206040518083038186803b1580156109d257600080fd5b505af41580156109e6573d6000803e3d6000fd5b505050506040513d601f19601f82011682018060405250810190610a0a9190611034565b9392505050565b33610a246000546001600160a01b031690565b6001600160a01b031614610a4a5760405162461bcd60e51b8152600401610456906110a2565b600180546001600160a01b0319166001600160a01b0392909216919091179055565b33610a7f6000546001600160a01b031690565b6001600160a01b031614610aa55760405162461bcd60e51b8152600401610456906110a2565b8051610ab8906002906020840190610dd8565b5050565b60068181548110610acc57600080fd5b6000918252602090912001546001600160a01b0316905081565b6001600160a01b038082166000908152600560209081526040808320815160a08101835281549095168552600181015492850192909252600282015490840152600381015460608401526004015460ff16151560808301529081610b4982610958565b949350505050565b6001546001600160a01b0316331480610b7457506000546001600160a01b031633145b610b905760405162461bcd60e51b8152600401610456906110e5565b6001600160a01b03821660009081526005602052604090206004015460ff1615610c185760405162461bcd60e51b815260206004820152603360248201527f56455354494e474255434b45543a20636c61696d2061742074686973206164646044820152727265737320616c72656164792065786973747360681b6064820152608401610456565b60008111610c745760405162461bcd60e51b8152602060048201526024808201527f56455354494e474255434b45543a20636c61696d2063616e206e6f74206265206044820152637a65726f60e01b6064820152608401610456565b600b5481600754610c859190611134565b1115610ce85760405162461bcd60e51b815260206004820152602c60248201527f56455354494e474255434b45543a2063616e206e6f7420636c61696d206d6f7260448201526b19481d1a185b881d1bdd185b60a21b6064820152608401610456565b6000600a5482610cf8919061114c565b6040805160a0810182526001600160a01b03808716808352602080840188815284860187815260006060870181815260016080890181815287845260059096529882209751885497166001600160a01b0319978816178855925187890155905160028701559051600386015590516004909401805494151560ff199095169490941790935560068054948501815583527ff652222313e28459528d920b65115c16c04f3efc82aaedc97be59f3f377c0d3f9093018054909116909217909155600780549293508492909190610dce908490611134565b9091555050505050565b828054610de490611185565b90600052602060002090601f016020900481019282610e065760008555610e4c565b82601f10610e1f57805160ff1916838001178555610e4c565b82800160010185558215610e4c579182015b82811115610e4c578251825591602001919060010190610e31565b50610e58929150610e5c565b5090565b5b80821115610e585760008155600101610e5d565b80356001600160a01b0381168114610e8857600080fd5b919050565b600060208284031215610e9f57600080fd5b610a0a82610e71565b60008060408385031215610ebb57600080fd5b610ec483610e71565b946020939093013593505050565b600060208284031215610ee457600080fd5b8151610a0a8161121d565b600060208284031215610f0157600080fd5b813567ffffffffffffffff80821115610f1957600080fd5b818401915084601f830112610f2d57600080fd5b813581811115610f3f57610f3f611207565b604051601f8201601f19908116603f01168101908382118183101715610f6757610f67611207565b81604052828152876020848701011115610f8057600080fd5b826020860160208301376000928101602001929092525095945050505050565b600060a08284031215610fb257600080fd5b60405160a0810181811067ffffffffffffffff82111715610fd557610fd5611207565b604052610fe183610e71565b8152602083013560208201526040830135604082015260608301356060820152608083013561100f8161121d565b60808201529392505050565b60006020828403121561102d57600080fd5b5035919050565b60006020828403121561104657600080fd5b5051919050565b600060208083528351808285015260005b8181101561107a5785810183015185820160400152820161105e565b8181111561108c576000604083870101525b50601f01601f1916929092016040019392505050565b60208082526023908201527f5265664f776e61626c653a2063616c6c6572206973206e6f7420746865206f776040820152623732b960e91b606082015260800190565b6020808252602f908201527f5265664f776e61626c653a2063616c6c6572206973206e6f7420746865206f7760408201526e3732b91037b9103932b337bbb732b960891b606082015260800190565b60008219821115611147576111476111db565b500190565b60008261116957634e487b7160e01b600052601260045260246000fd5b500490565b600082821015611180576111806111db565b500390565b600181811c9082168061119957607f821691505b602082108114156111ba57634e487b7160e01b600052602260045260246000fd5b50919050565b60006000198214156111d4576111d46111db565b5060010190565b634e487b7160e01b600052601160045260246000fd5b634e487b7160e01b600052603260045260246000fd5b634e487b7160e01b600052604160045260246000fd5b801515811461095557600080fdfea26469706673582212202ff559f025eee500c43358bb0191d0bc0bdd46eb2298357128315d40163b7bc164736f6c63430008050033a264697066735822122050c21170e8dd9e5aed0984f5f925e80e5c3ca4af63d53ee19c6f69a49893df1e64736f6c63430008050033",
  "language": "Solidity",
  "natspec": {
    "kind": "dev",
    "methods": {
      "owner()": {
        "details": "Returns the address of the current owner."
      }
    },
    "version": 1
  },
  "opcodes": "PUSH1 0x80 PUSH1 0x40 MSTORE CALLVALUE DUP1 ISZERO PUSH2 0x10 JUMPI PUSH1 0x0 DUP1 REVERT JUMPDEST POP PUSH1 0x4 CALLDATASIZE LT PUSH2 0x7D JUMPI PUSH1 0x0 CALLDATALOAD PUSH1 0xE0 SHR DUP1 PUSH4 0x9B51FB0D GT PUSH2 0x5B JUMPI DUP1 PUSH4 0x9B51FB0D EQ PUSH2 0xD8 JUMPI DUP1 PUSH4 0xBBB6F347 EQ PUSH2 0xEB JUMPI DUP1 PUSH4 0xD5ABEB01 EQ PUSH2 0xFE JUMPI DUP1 PUSH4 0xDC520292 EQ PUSH2 0x114 JUMPI PUSH1 0x0 DUP1 REVERT JUMPDEST DUP1 PUSH4 0x68A87B0E EQ PUSH2 0x82 JUMPI DUP1 PUSH4 0x83429D0E EQ PUSH2 0xB2 JUMPI DUP1 PUSH4 0x8DA5CB5B EQ PUSH2 0xC7 JUMPI JUMPDEST PUSH1 0x0 DUP1 REVERT JUMPDEST PUSH1 0x2 SLOAD PUSH2 0x95 SWAP1 PUSH1 0x1 PUSH1 0x1 PUSH1 0xA0 SHL SUB AND DUP2 JUMP JUMPDEST PUSH1 0x40 MLOAD PUSH1 0x1 PUSH1 0x1 PUSH1 0xA0 SHL SUB SWAP1 SWAP2 AND DUP2 MSTORE PUSH1 0x20 ADD JUMPDEST PUSH1 0x40 MLOAD DUP1 SWAP2 SUB SWAP1 RETURN JUMPDEST PUSH2 0xC5 PUSH2 0xC0 CALLDATASIZE PUSH1 0x4 PUSH2 0x586 JUMP JUMPDEST PUSH2 0x11D JUMP JUMPDEST STOP JUMPDEST PUSH1 0x0 SLOAD PUSH1 0x1 PUSH1 0x1 PUSH1 0xA0 SHL SUB AND PUSH2 0x95 JUMP JUMPDEST PUSH2 0x95 PUSH2 0xE6 CALLDATASIZE PUSH1 0x4 PUSH2 0x554 JUMP JUMPDEST PUSH2 0x397 JUMP JUMPDEST PUSH1 0x1 SLOAD PUSH2 0x95 SWAP1 PUSH1 0x1 PUSH1 0x1 PUSH1 0xA0 SHL SUB AND DUP2 JUMP JUMPDEST PUSH2 0x106 PUSH2 0x3C1 JUMP JUMPDEST PUSH1 0x40 MLOAD SWAP1 DUP2 MSTORE PUSH1 0x20 ADD PUSH2 0xA9 JUMP JUMPDEST PUSH2 0x106 PUSH1 0x4 SLOAD DUP2 JUMP JUMPDEST CALLER PUSH2 0x130 PUSH1 0x0 SLOAD PUSH1 0x1 PUSH1 0x1 PUSH1 0xA0 SHL SUB AND SWAP1 JUMP JUMPDEST PUSH1 0x1 PUSH1 0x1 PUSH1 0xA0 SHL SUB AND EQ PUSH2 0x18B JUMPI PUSH1 0x40 MLOAD PUSH3 0x461BCD PUSH1 0xE5 SHL DUP2 MSTORE PUSH1 0x20 PUSH1 0x4 DUP3 ADD DUP2 SWAP1 MSTORE PUSH1 0x24 DUP3 ADD MSTORE PUSH32 0x4F776E61626C653A2063616C6C6572206973206E6F7420746865206F776E6572 PUSH1 0x44 DUP3 ADD MSTORE PUSH1 0x64 ADD JUMPDEST PUSH1 0x40 MLOAD DUP1 SWAP2 SUB SWAP1 REVERT JUMPDEST PUSH1 0x2 SLOAD PUSH1 0x0 SWAP1 PUSH1 0x1 PUSH1 0x1 PUSH1 0xA0 SHL SUB AND PUSH2 0x1A4 DUP7 TIMESTAMP PUSH2 0x6A6 JUMP JUMPDEST DUP5 DUP5 PUSH1 0x40 MLOAD PUSH2 0x1B2 SWAP1 PUSH2 0x51E JUMP JUMPDEST PUSH1 0x1 PUSH1 0x1 PUSH1 0xA0 SHL SUB SWAP1 SWAP5 AND DUP5 MSTORE PUSH1 0x20 DUP5 ADD SWAP3 SWAP1 SWAP3 MSTORE PUSH1 0x40 DUP4 ADD MSTORE PUSH1 0x60 DUP3 ADD MSTORE PUSH1 0x80 ADD PUSH1 0x40 MLOAD DUP1 SWAP2 SUB SWAP1 PUSH1 0x0 CREATE DUP1 ISZERO DUP1 ISZERO PUSH2 0x1F0 JUMPI RETURNDATASIZE PUSH1 0x0 DUP1 RETURNDATACOPY RETURNDATASIZE PUSH1 0x0 REVERT JUMPDEST POP SWAP1 POP DUP1 PUSH1 0x1 PUSH1 0x1 PUSH1 0xA0 SHL SUB AND PUSH4 0xB9377AFF PUSH2 0x214 PUSH1 0x0 SLOAD PUSH1 0x1 PUSH1 0x1 PUSH1 0xA0 SHL SUB AND SWAP1 JUMP JUMPDEST PUSH1 0x40 MLOAD PUSH1 0x1 PUSH1 0x1 PUSH1 0xE0 SHL SUB NOT PUSH1 0xE0 DUP5 SWAP1 SHL AND DUP2 MSTORE PUSH1 0x1 PUSH1 0x1 PUSH1 0xA0 SHL SUB SWAP1 SWAP2 AND PUSH1 0x4 DUP3 ADD MSTORE PUSH1 0x24 ADD PUSH1 0x0 PUSH1 0x40 MLOAD DUP1 DUP4 SUB DUP2 PUSH1 0x0 DUP8 DUP1 EXTCODESIZE ISZERO DUP1 ISZERO PUSH2 0x255 JUMPI PUSH1 0x0 DUP1 REVERT JUMPDEST POP GAS CALL ISZERO DUP1 ISZERO PUSH2 0x269 JUMPI RETURNDATASIZE PUSH1 0x0 DUP1 RETURNDATACOPY RETURNDATASIZE PUSH1 0x0 REVERT JUMPDEST POP POP PUSH1 0x40 MLOAD PUSH4 0xC47F0027 PUSH1 0xE0 SHL DUP2 MSTORE PUSH1 0x1 PUSH1 0x1 PUSH1 0xA0 SHL SUB DUP5 AND SWAP3 POP PUSH4 0xC47F0027 SWAP2 POP PUSH2 0x299 SWAP1 DUP8 SWAP1 PUSH1 0x4 ADD PUSH2 0x651 JUMP JUMPDEST PUSH1 0x0 PUSH1 0x40 MLOAD DUP1 DUP4 SUB DUP2 PUSH1 0x0 DUP8 DUP1 EXTCODESIZE ISZERO DUP1 ISZERO PUSH2 0x2B3 JUMPI PUSH1 0x0 DUP1 REVERT JUMPDEST POP GAS CALL ISZERO DUP1 ISZERO PUSH2 0x2C7 JUMPI RETURNDATASIZE PUSH1 0x0 DUP1 RETURNDATACOPY RETURNDATASIZE PUSH1 0x0 REVERT JUMPDEST POP POP POP POP PUSH1 0x1E PUSH1 0x4 SLOAD LT PUSH2 0x329 JUMPI PUSH1 0x40 MLOAD PUSH3 0x461BCD PUSH1 0xE5 SHL DUP2 MSTORE PUSH1 0x20 PUSH1 0x4 DUP3 ADD MSTORE PUSH1 0x23 PUSH1 0x24 DUP3 ADD MSTORE PUSH32 0x566567614D61737465723A206275636B6574206E756D62657220746F6F206C61 PUSH1 0x44 DUP3 ADD MSTORE PUSH3 0x726765 PUSH1 0xE8 SHL PUSH1 0x64 DUP3 ADD MSTORE PUSH1 0x84 ADD PUSH2 0x182 JUMP JUMPDEST DUP1 PUSH1 0x3 PUSH1 0x4 SLOAD DUP2 SLOAD DUP2 LT PUSH2 0x33F JUMPI PUSH2 0x33F PUSH2 0x6CC JUMP JUMPDEST SWAP1 PUSH1 0x0 MSTORE PUSH1 0x20 PUSH1 0x0 KECCAK256 ADD PUSH1 0x0 PUSH2 0x100 EXP DUP2 SLOAD DUP2 PUSH1 0x1 PUSH1 0x1 PUSH1 0xA0 SHL SUB MUL NOT AND SWAP1 DUP4 PUSH1 0x1 PUSH1 0x1 PUSH1 0xA0 SHL SUB AND MUL OR SWAP1 SSTORE POP PUSH1 0x1 PUSH1 0x4 PUSH1 0x0 DUP3 DUP3 SLOAD PUSH2 0x380 SWAP2 SWAP1 PUSH2 0x6A6 JUMP JUMPDEST SWAP1 SWAP2 SSTORE POP PUSH2 0x390 SWAP1 POP DUP2 DUP4 PUSH2 0x443 JUMP JUMPDEST POP POP POP POP POP JUMP JUMPDEST PUSH1 0x3 DUP2 DUP2 SLOAD DUP2 LT PUSH2 0x3A7 JUMPI PUSH1 0x0 DUP1 REVERT JUMPDEST PUSH1 0x0 SWAP2 DUP3 MSTORE PUSH1 0x20 SWAP1 SWAP2 KECCAK256 ADD SLOAD PUSH1 0x1 PUSH1 0x1 PUSH1 0xA0 SHL SUB AND SWAP1 POP DUP2 JUMP JUMPDEST PUSH1 0x1 SLOAD PUSH1 0x40 DUP1 MLOAD PUSH4 0xCB2DAC3 PUSH1 0xE2 SHL DUP2 MSTORE SWAP1 MLOAD PUSH1 0x0 SWAP3 PUSH1 0x1 PUSH1 0x1 PUSH1 0xA0 SHL SUB AND SWAP2 PUSH4 0x32CB6B0C SWAP2 PUSH1 0x4 DUP1 DUP4 ADD SWAP3 PUSH1 0x20 SWAP3 SWAP2 SWAP1 DUP3 SWAP1 SUB ADD DUP2 DUP7 DUP1 EXTCODESIZE ISZERO DUP1 ISZERO PUSH2 0x406 JUMPI PUSH1 0x0 DUP1 REVERT JUMPDEST POP GAS STATICCALL ISZERO DUP1 ISZERO PUSH2 0x41A JUMPI RETURNDATASIZE PUSH1 0x0 DUP1 RETURNDATACOPY RETURNDATASIZE PUSH1 0x0 REVERT JUMPDEST POP POP POP POP PUSH1 0x40 MLOAD RETURNDATASIZE PUSH1 0x1F NOT PUSH1 0x1F DUP3 ADD AND DUP3 ADD DUP1 PUSH1 0x40 MSTORE POP DUP2 ADD SWAP1 PUSH2 0x43E SWAP2 SWAP1 PUSH2 0x56D JUMP JUMPDEST SWAP1 POP SWAP1 JUMP JUMPDEST PUSH1 0x1 SLOAD PUSH1 0x40 MLOAD PUSH4 0xA9059CBB PUSH1 0xE0 SHL DUP2 MSTORE PUSH1 0x1 PUSH1 0x1 PUSH1 0xA0 SHL SUB DUP5 DUP2 AND PUSH1 0x4 DUP4 ADD MSTORE PUSH1 0x24 DUP3 ADD DUP5 SWAP1 MSTORE PUSH1 0x0 SWAP3 AND SWAP1 PUSH4 0xA9059CBB SWAP1 PUSH1 0x44 ADD PUSH1 0x20 PUSH1 0x40 MLOAD DUP1 DUP4 SUB DUP2 PUSH1 0x0 DUP8 DUP1 EXTCODESIZE ISZERO DUP1 ISZERO PUSH2 0x492 JUMPI PUSH1 0x0 DUP1 REVERT JUMPDEST POP GAS CALL ISZERO DUP1 ISZERO PUSH2 0x4A6 JUMPI RETURNDATASIZE PUSH1 0x0 DUP1 RETURNDATACOPY RETURNDATASIZE PUSH1 0x0 REVERT JUMPDEST POP POP POP POP PUSH1 0x40 MLOAD RETURNDATASIZE PUSH1 0x1F NOT PUSH1 0x1F DUP3 ADD AND DUP3 ADD DUP1 PUSH1 0x40 MSTORE POP DUP2 ADD SWAP1 PUSH2 0x4CA SWAP2 SWAP1 PUSH2 0x52B JUMP JUMPDEST SWAP1 POP DUP1 PUSH2 0x519 JUMPI PUSH1 0x40 MLOAD PUSH3 0x461BCD PUSH1 0xE5 SHL DUP2 MSTORE PUSH1 0x20 PUSH1 0x4 DUP3 ADD MSTORE PUSH1 0x1B PUSH1 0x24 DUP3 ADD MSTORE PUSH32 0x566567614D61737465723A207472616E73666572206661696C65640000000000 PUSH1 0x44 DUP3 ADD MSTORE PUSH1 0x64 ADD PUSH2 0x182 JUMP JUMPDEST POP POP POP JUMP JUMPDEST PUSH2 0x1492 DUP1 PUSH2 0x6F9 DUP4 CODECOPY ADD SWAP1 JUMP JUMPDEST PUSH1 0x0 PUSH1 0x20 DUP3 DUP5 SUB SLT ISZERO PUSH2 0x53D JUMPI PUSH1 0x0 DUP1 REVERT JUMPDEST DUP2 MLOAD DUP1 ISZERO ISZERO DUP2 EQ PUSH2 0x54D JUMPI PUSH1 0x0 DUP1 REVERT JUMPDEST SWAP4 SWAP3 POP POP POP JUMP JUMPDEST PUSH1 0x0 PUSH1 0x20 DUP3 DUP5 SUB SLT ISZERO PUSH2 0x566 JUMPI PUSH1 0x0 DUP1 REVERT JUMPDEST POP CALLDATALOAD SWAP2 SWAP1 POP JUMP JUMPDEST PUSH1 0x0 PUSH1 0x20 DUP3 DUP5 SUB SLT ISZERO PUSH2 0x57F JUMPI PUSH1 0x0 DUP1 REVERT JUMPDEST POP MLOAD SWAP2 SWAP1 POP JUMP JUMPDEST PUSH1 0x0 DUP1 PUSH1 0x0 DUP1 PUSH1 0x80 DUP6 DUP8 SUB SLT ISZERO PUSH2 0x59C JUMPI PUSH1 0x0 DUP1 REVERT JUMPDEST DUP5 CALLDATALOAD SWAP4 POP PUSH1 0x20 DUP6 ADD CALLDATALOAD PUSH8 0xFFFFFFFFFFFFFFFF DUP1 DUP3 GT ISZERO PUSH2 0x5BB JUMPI PUSH1 0x0 DUP1 REVERT JUMPDEST DUP2 DUP8 ADD SWAP2 POP DUP8 PUSH1 0x1F DUP4 ADD SLT PUSH2 0x5CF JUMPI PUSH1 0x0 DUP1 REVERT JUMPDEST DUP2 CALLDATALOAD DUP2 DUP2 GT ISZERO PUSH2 0x5E1 JUMPI PUSH2 0x5E1 PUSH2 0x6E2 JUMP JUMPDEST PUSH1 0x40 MLOAD PUSH1 0x1F DUP3 ADD PUSH1 0x1F NOT SWAP1 DUP2 AND PUSH1 0x3F ADD AND DUP2 ADD SWAP1 DUP4 DUP3 GT DUP2 DUP4 LT OR ISZERO PUSH2 0x609 JUMPI PUSH2 0x609 PUSH2 0x6E2 JUMP JUMPDEST DUP2 PUSH1 0x40 MSTORE DUP3 DUP2 MSTORE DUP11 PUSH1 0x20 DUP5 DUP8 ADD ADD GT ISZERO PUSH2 0x622 JUMPI PUSH1 0x0 DUP1 REVERT JUMPDEST DUP3 PUSH1 0x20 DUP7 ADD PUSH1 0x20 DUP4 ADD CALLDATACOPY PUSH1 0x0 SWAP3 DUP2 ADD PUSH1 0x20 ADD SWAP3 SWAP1 SWAP3 MSTORE POP SWAP6 SWAP9 SWAP6 SWAP8 POP POP POP POP PUSH1 0x40 DUP5 ADD CALLDATALOAD SWAP4 PUSH1 0x60 ADD CALLDATALOAD SWAP3 SWAP2 POP POP JUMP JUMPDEST PUSH1 0x0 PUSH1 0x20 DUP1 DUP4 MSTORE DUP4 MLOAD DUP1 DUP3 DUP6 ADD MSTORE PUSH1 0x0 JUMPDEST DUP2 DUP2 LT ISZERO PUSH2 0x67E JUMPI DUP6 DUP2 ADD DUP4 ADD MLOAD DUP6 DUP3 ADD PUSH1 0x40 ADD MSTORE DUP3 ADD PUSH2 0x662 JUMP JUMPDEST DUP2 DUP2 GT ISZERO PUSH2 0x690 JUMPI PUSH1 0x0 PUSH1 0x40 DUP4 DUP8 ADD ADD MSTORE JUMPDEST POP PUSH1 0x1F ADD PUSH1 0x1F NOT AND SWAP3 SWAP1 SWAP3 ADD PUSH1 0x40 ADD SWAP4 SWAP3 POP POP POP JUMP JUMPDEST PUSH1 0x0 DUP3 NOT DUP3 GT ISZERO PUSH2 0x6C7 JUMPI PUSH4 0x4E487B71 PUSH1 0xE0 SHL PUSH1 0x0 MSTORE PUSH1 0x11 PUSH1 0x4 MSTORE PUSH1 0x24 PUSH1 0x0 REVERT JUMPDEST POP ADD SWAP1 JUMP JUMPDEST PUSH4 0x4E487B71 PUSH1 0xE0 SHL PUSH1 0x0 MSTORE PUSH1 0x32 PUSH1 0x4 MSTORE PUSH1 0x24 PUSH1 0x0 REVERT JUMPDEST PUSH4 0x4E487B71 PUSH1 0xE0 SHL PUSH1 0x0 MSTORE PUSH1 0x41 PUSH1 0x4 MSTORE PUSH1 0x24 PUSH1 0x0 REVERT INVALID PUSH1 0x80 PUSH1 0x40 MSTORE CALLVALUE DUP1 ISZERO PUSH3 0x11 JUMPI PUSH1 0x0 DUP1 REVERT JUMPDEST POP PUSH1 0x40 MLOAD PUSH3 0x1492 CODESIZE SUB DUP1 PUSH3 0x1492 DUP4 CODECOPY DUP2 ADD PUSH1 0x40 DUP2 SWAP1 MSTORE PUSH3 0x34 SWAP2 PUSH3 0x197 JUMP JUMPDEST PUSH1 0x0 DUP1 SLOAD CALLER PUSH1 0x1 PUSH1 0x1 PUSH1 0xA0 SHL SUB NOT SWAP2 DUP3 AND OR SWAP1 SWAP2 SSTORE PUSH1 0x3 DUP1 SLOAD SWAP1 SWAP2 AND PUSH1 0x1 PUSH1 0x1 PUSH1 0xA0 SHL SUB DUP7 AND OR SWAP1 SSTORE TIMESTAMP PUSH1 0x4 DUP2 SWAP1 SSTORE DUP4 LT ISZERO PUSH3 0xC9 JUMPI PUSH1 0x40 MLOAD PUSH3 0x461BCD PUSH1 0xE5 SHL DUP2 MSTORE PUSH1 0x20 PUSH1 0x4 DUP3 ADD MSTORE PUSH1 0x29 PUSH1 0x24 DUP3 ADD MSTORE PUSH32 0x56455354494E474255434B455420636C696666206D75737420626520696E2074 PUSH1 0x44 DUP3 ADD MSTORE PUSH9 0x686520667574757265 PUSH1 0xB8 SHL PUSH1 0x64 DUP3 ADD MSTORE PUSH1 0x84 ADD PUSH1 0x40 MLOAD DUP1 SWAP2 SUB SWAP1 REVERT JUMPDEST PUSH1 0x9 DUP4 SWAP1 SSTORE PUSH1 0xA DUP3 SWAP1 SSTORE PUSH1 0xB DUP2 SWAP1 SSTORE PUSH3 0xE4 DUP3 DUP3 PUSH3 0x1FE JUMP JUMPDEST PUSH1 0xC DUP2 SWAP1 SSTORE PUSH1 0x40 MLOAD PUSH4 0x556B30B9 PUSH1 0xE1 SHL DUP2 MSTORE PUSH1 0x4 DUP2 ADD DUP6 SWAP1 MSTORE PUSH1 0x24 DUP2 ADD SWAP2 SWAP1 SWAP2 MSTORE PUSH1 0x44 DUP2 ADD DUP3 SWAP1 MSTORE PUSH20 0x0 SWAP1 PUSH4 0xAAD66172 SWAP1 PUSH1 0x64 ADD PUSH1 0x20 PUSH1 0x40 MLOAD DUP1 DUP4 SUB DUP2 DUP7 DUP1 EXTCODESIZE ISZERO DUP1 ISZERO PUSH3 0x144 JUMPI PUSH1 0x0 DUP1 REVERT JUMPDEST POP GAS DELEGATECALL ISZERO DUP1 ISZERO PUSH3 0x159 JUMPI RETURNDATASIZE PUSH1 0x0 DUP1 RETURNDATACOPY RETURNDATASIZE PUSH1 0x0 REVERT JUMPDEST POP POP POP POP PUSH1 0x40 MLOAD RETURNDATASIZE PUSH1 0x1F NOT PUSH1 0x1F DUP3 ADD AND DUP3 ADD DUP1 PUSH1 0x40 MSTORE POP DUP2 ADD SWAP1 PUSH3 0x17F SWAP2 SWAP1 PUSH3 0x1E4 JUMP JUMPDEST PUSH1 0xD SSTORE POP POP PUSH1 0x0 PUSH1 0x8 DUP2 SWAP1 SSTORE PUSH1 0x7 SSTORE POP PUSH3 0x221 SWAP1 POP JUMP JUMPDEST PUSH1 0x0 DUP1 PUSH1 0x0 DUP1 PUSH1 0x80 DUP6 DUP8 SUB SLT ISZERO PUSH3 0x1AE JUMPI PUSH1 0x0 DUP1 REVERT JUMPDEST DUP5 MLOAD PUSH1 0x1 PUSH1 0x1 PUSH1 0xA0 SHL SUB DUP2 AND DUP2 EQ PUSH3 0x1C6 JUMPI PUSH1 0x0 DUP1 REVERT JUMPDEST PUSH1 0x20 DUP7 ADD MLOAD PUSH1 0x40 DUP8 ADD MLOAD PUSH1 0x60 SWAP1 SWAP8 ADD MLOAD SWAP2 SWAP9 SWAP1 SWAP8 POP SWAP1 SWAP5 POP SWAP3 POP POP POP JUMP JUMPDEST PUSH1 0x0 PUSH1 0x20 DUP3 DUP5 SUB SLT ISZERO PUSH3 0x1F7 JUMPI PUSH1 0x0 DUP1 REVERT JUMPDEST POP MLOAD SWAP2 SWAP1 POP JUMP JUMPDEST PUSH1 0x0 DUP3 PUSH3 0x21C JUMPI PUSH4 0x4E487B71 PUSH1 0xE0 SHL PUSH1 0x0 MSTORE PUSH1 0x12 PUSH1 0x4 MSTORE PUSH1 0x24 PUSH1 0x0 REVERT JUMPDEST POP DIV SWAP1 JUMP JUMPDEST PUSH2 0x1261 DUP1 PUSH3 0x231 PUSH1 0x0 CODECOPY PUSH1 0x0 RETURN INVALID PUSH1 0x80 PUSH1 0x40 MSTORE CALLVALUE DUP1 ISZERO PUSH2 0x10 JUMPI PUSH1 0x0 DUP1 REVERT JUMPDEST POP PUSH1 0x4 CALLDATASIZE LT PUSH2 0x142 JUMPI PUSH1 0x0 CALLDATALOAD PUSH1 0xE0 SHR DUP1 PUSH4 0x8DA5CB5B GT PUSH2 0xB8 JUMPI DUP1 PUSH4 0xC47F0027 GT PUSH2 0x7C JUMPI DUP1 PUSH4 0xC47F0027 EQ PUSH2 0x251 JUMPI DUP1 PUSH4 0xC6788BDD EQ PUSH2 0x264 JUMPI DUP1 PUSH4 0xD0029D61 EQ PUSH2 0x2E2 JUMPI DUP1 PUSH4 0xDCD65479 EQ PUSH2 0x2F5 JUMPI DUP1 PUSH4 0xDFA93099 EQ PUSH2 0x2FE JUMPI DUP1 PUSH4 0xF8FCABE3 EQ PUSH2 0x311 JUMPI PUSH1 0x0 DUP1 REVERT JUMPDEST DUP1 PUSH4 0x8DA5CB5B EQ PUSH2 0x1FF JUMPI DUP1 PUSH4 0xB4CB529A EQ PUSH2 0x210 JUMPI DUP1 PUSH4 0xB6228703 EQ PUSH2 0x218 JUMPI DUP1 PUSH4 0xB9377AFF EQ PUSH2 0x22B JUMPI DUP1 PUSH4 0xBBB6F347 EQ PUSH2 0x23E JUMPI PUSH1 0x0 DUP1 REVERT JUMPDEST DUP1 PUSH4 0x3197CBB6 GT PUSH2 0x10A JUMPI DUP1 PUSH4 0x3197CBB6 EQ PUSH2 0x1A3 JUMPI DUP1 PUSH4 0x34DADAD5 EQ PUSH2 0x1AC JUMPI DUP1 PUSH4 0x35E9D90F EQ PUSH2 0x1B5 JUMPI DUP1 PUSH4 0x6EF98B21 EQ PUSH2 0x1BE JUMPI DUP1 PUSH4 0x72A1C148 EQ PUSH2 0x1D1 JUMPI DUP1 PUSH4 0x8523B7DB EQ PUSH2 0x1F6 JUMPI PUSH1 0x0 DUP1 REVERT JUMPDEST DUP1 PUSH4 0x6FDDE03 EQ PUSH2 0x147 JUMPI DUP1 PUSH4 0xF1A6444 EQ PUSH2 0x165 JUMPI DUP1 PUSH4 0x1A39D8EF EQ PUSH2 0x17C JUMPI DUP1 PUSH4 0x1D8B44C5 EQ PUSH2 0x185 JUMPI DUP1 PUSH4 0x21E76DC1 EQ PUSH2 0x18E JUMPI JUMPDEST PUSH1 0x0 DUP1 REVERT JUMPDEST PUSH2 0x14F PUSH2 0x324 JUMP JUMPDEST PUSH1 0x40 MLOAD PUSH2 0x15C SWAP2 SWAP1 PUSH2 0x104D JUMP JUMPDEST PUSH1 0x40 MLOAD DUP1 SWAP2 SUB SWAP1 RETURN JUMPDEST PUSH2 0x16E PUSH1 0x9 SLOAD DUP2 JUMP JUMPDEST PUSH1 0x40 MLOAD SWAP1 DUP2 MSTORE PUSH1 0x20 ADD PUSH2 0x15C JUMP JUMPDEST PUSH2 0x16E PUSH1 0xB SLOAD DUP2 JUMP JUMPDEST PUSH2 0x16E PUSH1 0x8 SLOAD DUP2 JUMP JUMPDEST PUSH2 0x1A1 PUSH2 0x19C CALLDATASIZE PUSH1 0x4 PUSH2 0xE8D JUMP JUMPDEST PUSH2 0x3B2 JUMP JUMPDEST STOP JUMPDEST PUSH2 0x16E PUSH1 0xD SLOAD DUP2 JUMP JUMPDEST PUSH2 0x16E PUSH1 0x4 SLOAD DUP2 JUMP JUMPDEST PUSH2 0x16E PUSH1 0xC SLOAD DUP2 JUMP JUMPDEST PUSH2 0x1A1 PUSH2 0x1CC CALLDATASIZE PUSH1 0x4 PUSH2 0x101B JUMP JUMPDEST PUSH2 0x76B JUMP JUMPDEST PUSH1 0x1 SLOAD PUSH1 0x1 PUSH1 0x1 PUSH1 0xA0 SHL SUB AND JUMPDEST PUSH1 0x40 MLOAD PUSH1 0x1 PUSH1 0x1 PUSH1 0xA0 SHL SUB SWAP1 SWAP2 AND DUP2 MSTORE PUSH1 0x20 ADD PUSH2 0x15C JUMP JUMPDEST PUSH2 0x16E PUSH1 0x7 SLOAD DUP2 JUMP JUMPDEST PUSH1 0x0 SLOAD PUSH1 0x1 PUSH1 0x1 PUSH1 0xA0 SHL SUB AND PUSH2 0x1DE JUMP JUMPDEST PUSH2 0x1A1 PUSH2 0x8C1 JUMP JUMPDEST PUSH2 0x16E PUSH2 0x226 CALLDATASIZE PUSH1 0x4 PUSH2 0xFA0 JUMP JUMPDEST PUSH2 0x958 JUMP JUMPDEST PUSH2 0x1A1 PUSH2 0x239 CALLDATASIZE PUSH1 0x4 PUSH2 0xE8D JUMP JUMPDEST PUSH2 0xA11 JUMP JUMPDEST PUSH1 0x3 SLOAD PUSH2 0x1DE SWAP1 PUSH1 0x1 PUSH1 0x1 PUSH1 0xA0 SHL SUB AND DUP2 JUMP JUMPDEST PUSH2 0x1A1 PUSH2 0x25F CALLDATASIZE PUSH1 0x4 PUSH2 0xEEF JUMP JUMPDEST PUSH2 0xA6C JUMP JUMPDEST PUSH2 0x2AE PUSH2 0x272 CALLDATASIZE PUSH1 0x4 PUSH2 0xE8D JUMP JUMPDEST PUSH1 0x5 PUSH1 0x20 MSTORE PUSH1 0x0 SWAP1 DUP2 MSTORE PUSH1 0x40 SWAP1 KECCAK256 DUP1 SLOAD PUSH1 0x1 DUP3 ADD SLOAD PUSH1 0x2 DUP4 ADD SLOAD PUSH1 0x3 DUP5 ADD SLOAD PUSH1 0x4 SWAP1 SWAP5 ADD SLOAD PUSH1 0x1 PUSH1 0x1 PUSH1 0xA0 SHL SUB SWAP1 SWAP4 AND SWAP4 SWAP2 SWAP3 SWAP1 SWAP2 SWAP1 PUSH1 0xFF AND DUP6 JUMP JUMPDEST PUSH1 0x40 DUP1 MLOAD PUSH1 0x1 PUSH1 0x1 PUSH1 0xA0 SHL SUB SWAP1 SWAP7 AND DUP7 MSTORE PUSH1 0x20 DUP7 ADD SWAP5 SWAP1 SWAP5 MSTORE SWAP3 DUP5 ADD SWAP2 SWAP1 SWAP2 MSTORE PUSH1 0x60 DUP4 ADD MSTORE ISZERO ISZERO PUSH1 0x80 DUP3 ADD MSTORE PUSH1 0xA0 ADD PUSH2 0x15C JUMP JUMPDEST PUSH2 0x1DE PUSH2 0x2F0 CALLDATASIZE PUSH1 0x4 PUSH2 0x101B JUMP JUMPDEST PUSH2 0xABC JUMP JUMPDEST PUSH2 0x16E PUSH1 0xA SLOAD DUP2 JUMP JUMPDEST PUSH2 0x16E PUSH2 0x30C CALLDATASIZE PUSH1 0x4 PUSH2 0xE8D JUMP JUMPDEST PUSH2 0xAE6 JUMP JUMPDEST PUSH2 0x1A1 PUSH2 0x31F CALLDATASIZE PUSH1 0x4 PUSH2 0xEA8 JUMP JUMPDEST PUSH2 0xB51 JUMP JUMPDEST PUSH1 0x2 DUP1 SLOAD PUSH2 0x331 SWAP1 PUSH2 0x1185 JUMP JUMPDEST DUP1 PUSH1 0x1F ADD PUSH1 0x20 DUP1 SWAP2 DIV MUL PUSH1 0x20 ADD PUSH1 0x40 MLOAD SWAP1 DUP2 ADD PUSH1 0x40 MSTORE DUP1 SWAP3 SWAP2 SWAP1 DUP2 DUP2 MSTORE PUSH1 0x20 ADD DUP3 DUP1 SLOAD PUSH2 0x35D SWAP1 PUSH2 0x1185 JUMP JUMPDEST DUP1 ISZERO PUSH2 0x3AA JUMPI DUP1 PUSH1 0x1F LT PUSH2 0x37F JUMPI PUSH2 0x100 DUP1 DUP4 SLOAD DIV MUL DUP4 MSTORE SWAP2 PUSH1 0x20 ADD SWAP2 PUSH2 0x3AA JUMP JUMPDEST DUP3 ADD SWAP2 SWAP1 PUSH1 0x0 MSTORE PUSH1 0x20 PUSH1 0x0 KECCAK256 SWAP1 JUMPDEST DUP2 SLOAD DUP2 MSTORE SWAP1 PUSH1 0x1 ADD SWAP1 PUSH1 0x20 ADD DUP1 DUP4 GT PUSH2 0x38D JUMPI DUP3 SWAP1 SUB PUSH1 0x1F AND DUP3 ADD SWAP2 JUMPDEST POP POP POP POP POP DUP2 JUMP JUMPDEST CALLER PUSH1 0x1 PUSH1 0x1 PUSH1 0xA0 SHL SUB DUP3 AND EQ DUP1 PUSH2 0x3D3 JUMPI POP PUSH1 0x0 SLOAD PUSH1 0x1 PUSH1 0x1 PUSH1 0xA0 SHL SUB AND CALLER EQ JUMPDEST DUP1 PUSH2 0x3E8 JUMPI POP PUSH1 0x1 SLOAD PUSH1 0x1 PUSH1 0x1 PUSH1 0xA0 SHL SUB AND CALLER EQ JUMPDEST PUSH2 0x45F JUMPI PUSH1 0x40 MLOAD PUSH3 0x461BCD PUSH1 0xE5 SHL DUP2 MSTORE PUSH1 0x20 PUSH1 0x4 DUP3 ADD MSTORE PUSH1 0x37 PUSH1 0x24 DUP3 ADD MSTORE PUSH32 0x56455354494E474255434B45543A2063616E206F6E6C792063616C6C2066726F PUSH1 0x44 DUP3 ADD MSTORE PUSH32 0x6D20636C61696D61646472657373206F72206F776E6572000000000000000000 PUSH1 0x64 DUP3 ADD MSTORE PUSH1 0x84 ADD JUMPDEST PUSH1 0x40 MLOAD DUP1 SWAP2 SUB SWAP1 REVERT JUMPDEST PUSH1 0x1 PUSH1 0x1 PUSH1 0xA0 SHL SUB DUP2 AND PUSH1 0x0 SWAP1 DUP2 MSTORE PUSH1 0x5 PUSH1 0x20 MSTORE PUSH1 0x40 SWAP1 KECCAK256 PUSH1 0x4 ADD SLOAD PUSH1 0xFF AND PUSH2 0x4D6 JUMPI PUSH1 0x40 MLOAD PUSH3 0x461BCD PUSH1 0xE5 SHL DUP2 MSTORE PUSH1 0x20 PUSH1 0x4 DUP3 ADD MSTORE PUSH1 0x23 PUSH1 0x24 DUP3 ADD MSTORE PUSH32 0x56455354494E474255434B45543A20636C61696D20646F6573206E6F74206578 PUSH1 0x44 DUP3 ADD MSTORE PUSH3 0x1A5CDD PUSH1 0xEA SHL PUSH1 0x64 DUP3 ADD MSTORE PUSH1 0x84 ADD PUSH2 0x456 JUMP JUMPDEST PUSH1 0x1 PUSH1 0x1 PUSH1 0xA0 SHL SUB DUP1 DUP3 AND PUSH1 0x0 SWAP1 DUP2 MSTORE PUSH1 0x5 PUSH1 0x20 SWAP1 DUP2 MSTORE PUSH1 0x40 DUP1 DUP4 KECCAK256 DUP2 MLOAD PUSH1 0xA0 DUP2 ADD DUP4 MSTORE DUP2 SLOAD SWAP1 SWAP6 AND DUP6 MSTORE PUSH1 0x1 DUP2 ADD SLOAD SWAP3 DUP6 ADD SWAP3 SWAP1 SWAP3 MSTORE PUSH1 0x2 DUP3 ADD SLOAD SWAP1 DUP5 ADD MSTORE PUSH1 0x3 DUP2 ADD SLOAD PUSH1 0x60 DUP5 ADD MSTORE PUSH1 0x4 DUP2 ADD SLOAD PUSH1 0xFF AND ISZERO ISZERO PUSH1 0x80 DUP5 ADD MSTORE SWAP2 PUSH2 0x539 SWAP1 PUSH2 0x958 JUMP JUMPDEST SWAP1 POP PUSH1 0x0 DUP3 PUSH1 0x3 ADD SLOAD DUP3 PUSH2 0x54D SWAP2 SWAP1 PUSH2 0x116E JUMP JUMPDEST SWAP1 POP PUSH1 0x0 DUP2 DUP5 PUSH1 0x3 ADD SLOAD PUSH2 0x561 SWAP2 SWAP1 PUSH2 0x1134 JUMP JUMPDEST SWAP1 POP DUP4 PUSH1 0x1 ADD SLOAD DUP2 GT ISZERO PUSH2 0x5CF JUMPI PUSH1 0x40 MLOAD PUSH3 0x461BCD PUSH1 0xE5 SHL DUP2 MSTORE PUSH1 0x20 PUSH1 0x4 DUP3 ADD MSTORE PUSH1 0x2F PUSH1 0x24 DUP3 ADD MSTORE PUSH32 0x56455354494E474255434B45543A2063616E206E6F7420776974686472617720 PUSH1 0x44 DUP3 ADD MSTORE PUSH15 0x1B5BDC99481D1A185B881D1BDD185B PUSH1 0x8A SHL PUSH1 0x64 DUP3 ADD MSTORE PUSH1 0x84 ADD PUSH2 0x456 JUMP JUMPDEST PUSH1 0x0 DUP3 GT PUSH2 0x61F JUMPI PUSH1 0x40 MLOAD PUSH3 0x461BCD PUSH1 0xE5 SHL DUP2 MSTORE PUSH1 0x20 PUSH1 0x4 DUP3 ADD DUP2 SWAP1 MSTORE PUSH1 0x24 DUP3 ADD MSTORE PUSH32 0x56455354494E474255434B45543A206E6F20616D6F756E7420636C61696D6564 PUSH1 0x44 DUP3 ADD MSTORE PUSH1 0x64 ADD PUSH2 0x456 JUMP JUMPDEST PUSH1 0x3 SLOAD PUSH1 0x40 MLOAD PUSH4 0xA9059CBB PUSH1 0xE0 SHL DUP2 MSTORE PUSH1 0x1 PUSH1 0x1 PUSH1 0xA0 SHL SUB DUP8 DUP2 AND PUSH1 0x4 DUP4 ADD MSTORE PUSH1 0x24 DUP3 ADD DUP6 SWAP1 MSTORE SWAP1 SWAP2 AND SWAP1 PUSH4 0xA9059CBB SWAP1 PUSH1 0x44 ADD PUSH1 0x20 PUSH1 0x40 MLOAD DUP1 DUP4 SUB DUP2 PUSH1 0x0 DUP8 DUP1 EXTCODESIZE ISZERO DUP1 ISZERO PUSH2 0x66D JUMPI PUSH1 0x0 DUP1 REVERT JUMPDEST POP GAS CALL ISZERO DUP1 ISZERO PUSH2 0x681 JUMPI RETURNDATASIZE PUSH1 0x0 DUP1 RETURNDATACOPY RETURNDATASIZE PUSH1 0x0 REVERT JUMPDEST POP POP POP POP PUSH1 0x40 MLOAD RETURNDATASIZE PUSH1 0x1F NOT PUSH1 0x1F DUP3 ADD AND DUP3 ADD DUP1 PUSH1 0x40 MSTORE POP DUP2 ADD SWAP1 PUSH2 0x6A5 SWAP2 SWAP1 PUSH2 0xED2 JUMP JUMPDEST PUSH2 0x6F1 JUMPI PUSH1 0x40 MLOAD PUSH3 0x461BCD PUSH1 0xE5 SHL DUP2 MSTORE PUSH1 0x20 PUSH1 0x4 DUP3 ADD MSTORE PUSH1 0x1E PUSH1 0x24 DUP3 ADD MSTORE PUSH32 0x56455354494E474255434B45543A207472616E73666572206661696C65640000 PUSH1 0x44 DUP3 ADD MSTORE PUSH1 0x64 ADD PUSH2 0x456 JUMP JUMPDEST DUP4 SLOAD PUSH1 0x40 MLOAD DUP4 DUP2 MSTORE PUSH1 0x1 PUSH1 0x1 PUSH1 0xA0 SHL SUB SWAP1 SWAP2 AND SWAP1 PUSH32 0x394A4E97A8193F113CCE457FC16CABC66FF1A10C478CDAB3B82E5CC57C67BBF9 SWAP1 PUSH1 0x20 ADD PUSH1 0x40 MLOAD DUP1 SWAP2 SUB SWAP1 LOG2 DUP2 DUP5 PUSH1 0x3 ADD PUSH1 0x0 DUP3 DUP3 SLOAD PUSH2 0x746 SWAP2 SWAP1 PUSH2 0x1134 JUMP JUMPDEST SWAP3 POP POP DUP2 SWAP1 SSTORE POP DUP2 PUSH1 0x8 PUSH1 0x0 DUP3 DUP3 SLOAD PUSH2 0x75F SWAP2 SWAP1 PUSH2 0x1134 JUMP JUMPDEST SWAP1 SWAP2 SSTORE POP POP POP POP POP POP POP JUMP JUMPDEST PUSH1 0x1 SLOAD PUSH1 0x1 PUSH1 0x1 PUSH1 0xA0 SHL SUB AND CALLER EQ DUP1 PUSH2 0x78E JUMPI POP PUSH1 0x0 SLOAD PUSH1 0x1 PUSH1 0x1 PUSH1 0xA0 SHL SUB AND CALLER EQ JUMPDEST PUSH2 0x7AA JUMPI PUSH1 0x40 MLOAD PUSH3 0x461BCD PUSH1 0xE5 SHL DUP2 MSTORE PUSH1 0x4 ADD PUSH2 0x456 SWAP1 PUSH2 0x10E5 JUMP JUMPDEST PUSH1 0x3 SLOAD PUSH1 0x40 MLOAD PUSH4 0xA9059CBB PUSH1 0xE0 SHL DUP2 MSTORE CALLER PUSH1 0x4 DUP3 ADD MSTORE PUSH1 0x24 DUP2 ADD DUP4 SWAP1 MSTORE PUSH1 0x0 SWAP2 PUSH1 0x1 PUSH1 0x1 PUSH1 0xA0 SHL SUB AND SWAP1 PUSH4 0xA9059CBB SWAP1 PUSH1 0x44 ADD PUSH1 0x20 PUSH1 0x40 MLOAD DUP1 DUP4 SUB DUP2 PUSH1 0x0 DUP8 DUP1 EXTCODESIZE ISZERO DUP1 ISZERO PUSH2 0x7F7 JUMPI PUSH1 0x0 DUP1 REVERT JUMPDEST POP GAS CALL ISZERO DUP1 ISZERO PUSH2 0x80B JUMPI RETURNDATASIZE PUSH1 0x0 DUP1 RETURNDATACOPY RETURNDATASIZE PUSH1 0x0 REVERT JUMPDEST POP POP POP POP PUSH1 0x40 MLOAD RETURNDATASIZE PUSH1 0x1F NOT PUSH1 0x1F DUP3 ADD AND DUP3 ADD DUP1 PUSH1 0x40 MSTORE POP DUP2 ADD SWAP1 PUSH2 0x82F SWAP2 SWAP1 PUSH2 0xED2 JUMP JUMPDEST SWAP1 POP DUP1 PUSH2 0x88A JUMPI PUSH1 0x40 MLOAD PUSH3 0x461BCD PUSH1 0xE5 SHL DUP2 MSTORE PUSH1 0x20 PUSH1 0x4 DUP3 ADD MSTORE PUSH1 0x23 PUSH1 0x24 DUP3 ADD MSTORE PUSH32 0x56455354494E474255434B45543A2077697468647261774F776E657220666169 PUSH1 0x44 DUP3 ADD MSTORE PUSH3 0x1B1959 PUSH1 0xEA SHL PUSH1 0x64 DUP3 ADD MSTORE PUSH1 0x84 ADD PUSH2 0x456 JUMP JUMPDEST PUSH1 0x40 MLOAD DUP3 DUP2 MSTORE PUSH32 0x87407F8CB494A98D977328908B1FF2A7E0B5A79C3CCC705B5C8569533631D59E SWAP1 PUSH1 0x20 ADD PUSH1 0x40 MLOAD DUP1 SWAP2 SUB SWAP1 LOG1 POP POP JUMP JUMPDEST PUSH1 0x1 SLOAD PUSH1 0x1 PUSH1 0x1 PUSH1 0xA0 SHL SUB AND CALLER EQ DUP1 PUSH2 0x8E4 JUMPI POP PUSH1 0x0 SLOAD PUSH1 0x1 PUSH1 0x1 PUSH1 0xA0 SHL SUB AND CALLER EQ JUMPDEST PUSH2 0x900 JUMPI PUSH1 0x40 MLOAD PUSH3 0x461BCD PUSH1 0xE5 SHL DUP2 MSTORE PUSH1 0x4 ADD PUSH2 0x456 SWAP1 PUSH2 0x10E5 JUMP JUMPDEST PUSH1 0x0 JUMPDEST PUSH1 0x6 SLOAD DUP2 LT ISZERO PUSH2 0x955 JUMPI PUSH1 0x0 PUSH1 0x6 DUP3 DUP2 SLOAD DUP2 LT PUSH2 0x922 JUMPI PUSH2 0x922 PUSH2 0x11F1 JUMP JUMPDEST PUSH1 0x0 SWAP2 DUP3 MSTORE PUSH1 0x20 SWAP1 SWAP2 KECCAK256 ADD SLOAD PUSH1 0x1 PUSH1 0x1 PUSH1 0xA0 SHL SUB AND SWAP1 POP PUSH2 0x942 DUP2 PUSH2 0x3B2 JUMP JUMPDEST POP DUP1 PUSH2 0x94D DUP2 PUSH2 0x11C0 JUMP JUMPDEST SWAP2 POP POP PUSH2 0x903 JUMP JUMPDEST POP JUMP JUMPDEST PUSH1 0x9 SLOAD PUSH1 0xD SLOAD PUSH1 0x40 DUP4 DUP2 ADD MLOAD PUSH1 0x20 DUP6 ADD MLOAD SWAP2 MLOAD PUSH4 0x6BC18E95 PUSH1 0xE0 SHL DUP2 MSTORE TIMESTAMP PUSH1 0x4 DUP3 ADD DUP2 SWAP1 MSTORE PUSH1 0x24 DUP3 ADD SWAP6 SWAP1 SWAP6 MSTORE PUSH1 0x44 DUP2 ADD SWAP4 SWAP1 SWAP4 MSTORE PUSH1 0x64 DUP4 ADD MSTORE PUSH1 0x84 DUP3 ADD MSTORE PUSH1 0x0 SWAP2 SWAP1 PUSH20 0x0 SWAP1 PUSH4 0x6BC18E95 SWAP1 PUSH1 0xA4 ADD PUSH1 0x20 PUSH1 0x40 MLOAD DUP1 DUP4 SUB DUP2 DUP7 DUP1 EXTCODESIZE ISZERO DUP1 ISZERO PUSH2 0x9D2 JUMPI PUSH1 0x0 DUP1 REVERT JUMPDEST POP GAS DELEGATECALL ISZERO DUP1 ISZERO PUSH2 0x9E6 JUMPI RETURNDATASIZE PUSH1 0x0 DUP1 RETURNDATACOPY RETURNDATASIZE PUSH1 0x0 REVERT JUMPDEST POP POP POP POP PUSH1 0x40 MLOAD RETURNDATASIZE PUSH1 0x1F NOT PUSH1 0x1F DUP3 ADD AND DUP3 ADD DUP1 PUSH1 0x40 MSTORE POP DUP2 ADD SWAP1 PUSH2 0xA0A SWAP2 SWAP1 PUSH2 0x1034 JUMP JUMPDEST SWAP4 SWAP3 POP POP POP JUMP JUMPDEST CALLER PUSH2 0xA24 PUSH1 0x0 SLOAD PUSH1 0x1 PUSH1 0x1 PUSH1 0xA0 SHL SUB AND SWAP1 JUMP JUMPDEST PUSH1 0x1 PUSH1 0x1 PUSH1 0xA0 SHL SUB AND EQ PUSH2 0xA4A JUMPI PUSH1 0x40 MLOAD PUSH3 0x461BCD PUSH1 0xE5 SHL DUP2 MSTORE PUSH1 0x4 ADD PUSH2 0x456 SWAP1 PUSH2 0x10A2 JUMP JUMPDEST PUSH1 0x1 DUP1 SLOAD PUSH1 0x1 PUSH1 0x1 PUSH1 0xA0 SHL SUB NOT AND PUSH1 0x1 PUSH1 0x1 PUSH1 0xA0 SHL SUB SWAP3 SWAP1 SWAP3 AND SWAP2 SWAP1 SWAP2 OR SWAP1 SSTORE JUMP JUMPDEST CALLER PUSH2 0xA7F PUSH1 0x0 SLOAD PUSH1 0x1 PUSH1 0x1 PUSH1 0xA0 SHL SUB AND SWAP1 JUMP JUMPDEST PUSH1 0x1 PUSH1 0x1 PUSH1 0xA0 SHL SUB AND EQ PUSH2 0xAA5 JUMPI PUSH1 0x40 MLOAD PUSH3 0x461BCD PUSH1 0xE5 SHL DUP2 MSTORE PUSH1 0x4 ADD PUSH2 0x456 SWAP1 PUSH2 0x10A2 JUMP JUMPDEST DUP1 MLOAD PUSH2 0xAB8 SWAP1 PUSH1 0x2 SWAP1 PUSH1 0x20 DUP5 ADD SWAP1 PUSH2 0xDD8 JUMP JUMPDEST POP POP JUMP JUMPDEST PUSH1 0x6 DUP2 DUP2 SLOAD DUP2 LT PUSH2 0xACC JUMPI PUSH1 0x0 DUP1 REVERT JUMPDEST PUSH1 0x0 SWAP2 DUP3 MSTORE PUSH1 0x20 SWAP1 SWAP2 KECCAK256 ADD SLOAD PUSH1 0x1 PUSH1 0x1 PUSH1 0xA0 SHL SUB AND SWAP1 POP DUP2 JUMP JUMPDEST PUSH1 0x1 PUSH1 0x1 PUSH1 0xA0 SHL SUB DUP1 DUP3 AND PUSH1 0x0 SWAP1 DUP2 MSTORE PUSH1 0x5 PUSH1 0x20 SWAP1 DUP2 MSTORE PUSH1 0x40 DUP1 DUP4 KECCAK256 DUP2 MLOAD PUSH1 0xA0 DUP2 ADD DUP4 MSTORE DUP2 SLOAD SWAP1 SWAP6 AND DUP6 MSTORE PUSH1 0x1 DUP2 ADD SLOAD SWAP3 DUP6 ADD SWAP3 SWAP1 SWAP3 MSTORE PUSH1 0x2 DUP3 ADD SLOAD SWAP1 DUP5 ADD MSTORE PUSH1 0x3 DUP2 ADD SLOAD PUSH1 0x60 DUP5 ADD MSTORE PUSH1 0x4 ADD SLOAD PUSH1 0xFF AND ISZERO ISZERO PUSH1 0x80 DUP4 ADD MSTORE SWAP1 DUP2 PUSH2 0xB49 DUP3 PUSH2 0x958 JUMP JUMPDEST SWAP5 SWAP4 POP POP POP POP JUMP JUMPDEST PUSH1 0x1 SLOAD PUSH1 0x1 PUSH1 0x1 PUSH1 0xA0 SHL SUB AND CALLER EQ DUP1 PUSH2 0xB74 JUMPI POP PUSH1 0x0 SLOAD PUSH1 0x1 PUSH1 0x1 PUSH1 0xA0 SHL SUB AND CALLER EQ JUMPDEST PUSH2 0xB90 JUMPI PUSH1 0x40 MLOAD PUSH3 0x461BCD PUSH1 0xE5 SHL DUP2 MSTORE PUSH1 0x4 ADD PUSH2 0x456 SWAP1 PUSH2 0x10E5 JUMP JUMPDEST PUSH1 0x1 PUSH1 0x1 PUSH1 0xA0 SHL SUB DUP3 AND PUSH1 0x0 SWAP1 DUP2 MSTORE PUSH1 0x5 PUSH1 0x20 MSTORE PUSH1 0x40 SWAP1 KECCAK256 PUSH1 0x4 ADD SLOAD PUSH1 0xFF AND ISZERO PUSH2 0xC18 JUMPI PUSH1 0x40 MLOAD PUSH3 0x461BCD PUSH1 0xE5 SHL DUP2 MSTORE PUSH1 0x20 PUSH1 0x4 DUP3 ADD MSTORE PUSH1 0x33 PUSH1 0x24 DUP3 ADD MSTORE PUSH32 0x56455354494E474255434B45543A20636C61696D206174207468697320616464 PUSH1 0x44 DUP3 ADD MSTORE PUSH19 0x7265737320616C726561647920657869737473 PUSH1 0x68 SHL PUSH1 0x64 DUP3 ADD MSTORE PUSH1 0x84 ADD PUSH2 0x456 JUMP JUMPDEST PUSH1 0x0 DUP2 GT PUSH2 0xC74 JUMPI PUSH1 0x40 MLOAD PUSH3 0x461BCD PUSH1 0xE5 SHL DUP2 MSTORE PUSH1 0x20 PUSH1 0x4 DUP3 ADD MSTORE PUSH1 0x24 DUP1 DUP3 ADD MSTORE PUSH32 0x56455354494E474255434B45543A20636C61696D2063616E206E6F7420626520 PUSH1 0x44 DUP3 ADD MSTORE PUSH4 0x7A65726F PUSH1 0xE0 SHL PUSH1 0x64 DUP3 ADD MSTORE PUSH1 0x84 ADD PUSH2 0x456 JUMP JUMPDEST PUSH1 0xB SLOAD DUP2 PUSH1 0x7 SLOAD PUSH2 0xC85 SWAP2 SWAP1 PUSH2 0x1134 JUMP JUMPDEST GT ISZERO PUSH2 0xCE8 JUMPI PUSH1 0x40 MLOAD PUSH3 0x461BCD PUSH1 0xE5 SHL DUP2 MSTORE PUSH1 0x20 PUSH1 0x4 DUP3 ADD MSTORE PUSH1 0x2C PUSH1 0x24 DUP3 ADD MSTORE PUSH32 0x56455354494E474255434B45543A2063616E206E6F7420636C61696D206D6F72 PUSH1 0x44 DUP3 ADD MSTORE PUSH12 0x19481D1A185B881D1BDD185B PUSH1 0xA2 SHL PUSH1 0x64 DUP3 ADD MSTORE PUSH1 0x84 ADD PUSH2 0x456 JUMP JUMPDEST PUSH1 0x0 PUSH1 0xA SLOAD DUP3 PUSH2 0xCF8 SWAP2 SWAP1 PUSH2 0x114C JUMP JUMPDEST PUSH1 0x40 DUP1 MLOAD PUSH1 0xA0 DUP2 ADD DUP3 MSTORE PUSH1 0x1 PUSH1 0x1 PUSH1 0xA0 SHL SUB DUP1 DUP8 AND DUP1 DUP4 MSTORE PUSH1 0x20 DUP1 DUP5 ADD DUP9 DUP2 MSTORE DUP5 DUP7 ADD DUP8 DUP2 MSTORE PUSH1 0x0 PUSH1 0x60 DUP8 ADD DUP2 DUP2 MSTORE PUSH1 0x1 PUSH1 0x80 DUP10 ADD DUP2 DUP2 MSTORE DUP8 DUP5 MSTORE PUSH1 0x5 SWAP1 SWAP7 MSTORE SWAP9 DUP3 KECCAK256 SWAP8 MLOAD DUP9 SLOAD SWAP8 AND PUSH1 0x1 PUSH1 0x1 PUSH1 0xA0 SHL SUB NOT SWAP8 DUP9 AND OR DUP9 SSTORE SWAP3 MLOAD DUP8 DUP10 ADD SSTORE SWAP1 MLOAD PUSH1 0x2 DUP8 ADD SSTORE SWAP1 MLOAD PUSH1 0x3 DUP7 ADD SSTORE SWAP1 MLOAD PUSH1 0x4 SWAP1 SWAP5 ADD DUP1 SLOAD SWAP5 ISZERO ISZERO PUSH1 0xFF NOT SWAP1 SWAP6 AND SWAP5 SWAP1 SWAP5 OR SWAP1 SWAP4 SSTORE PUSH1 0x6 DUP1 SLOAD SWAP5 DUP6 ADD DUP2 SSTORE DUP4 MSTORE PUSH32 0xF652222313E28459528D920B65115C16C04F3EFC82AAEDC97BE59F3F377C0D3F SWAP1 SWAP4 ADD DUP1 SLOAD SWAP1 SWAP2 AND SWAP1 SWAP3 OR SWAP1 SWAP2 SSTORE PUSH1 0x7 DUP1 SLOAD SWAP3 SWAP4 POP DUP5 SWAP3 SWAP1 SWAP2 SWAP1 PUSH2 0xDCE SWAP1 DUP5 SWAP1 PUSH2 0x1134 JUMP JUMPDEST SWAP1 SWAP2 SSTORE POP POP POP POP POP JUMP JUMPDEST DUP3 DUP1 SLOAD PUSH2 0xDE4 SWAP1 PUSH2 0x1185 JUMP JUMPDEST SWAP1 PUSH1 0x0 MSTORE PUSH1 0x20 PUSH1 0x0 KECCAK256 SWAP1 PUSH1 0x1F ADD PUSH1 0x20 SWAP1 DIV DUP2 ADD SWAP3 DUP3 PUSH2 0xE06 JUMPI PUSH1 0x0 DUP6 SSTORE PUSH2 0xE4C JUMP JUMPDEST DUP3 PUSH1 0x1F LT PUSH2 0xE1F JUMPI DUP1 MLOAD PUSH1 0xFF NOT AND DUP4 DUP1 ADD OR DUP6 SSTORE PUSH2 0xE4C JUMP JUMPDEST DUP3 DUP1 ADD PUSH1 0x1 ADD DUP6 SSTORE DUP3 ISZERO PUSH2 0xE4C JUMPI SWAP2 DUP3 ADD JUMPDEST DUP3 DUP2 GT ISZERO PUSH2 0xE4C JUMPI DUP3 MLOAD DUP3 SSTORE SWAP2 PUSH1 0x20 ADD SWAP2 SWAP1 PUSH1 0x1 ADD SWAP1 PUSH2 0xE31 JUMP JUMPDEST POP PUSH2 0xE58 SWAP3 SWAP2 POP PUSH2 0xE5C JUMP JUMPDEST POP SWAP1 JUMP JUMPDEST JUMPDEST DUP1 DUP3 GT ISZERO PUSH2 0xE58 JUMPI PUSH1 0x0 DUP2 SSTORE PUSH1 0x1 ADD PUSH2 0xE5D JUMP JUMPDEST DUP1 CALLDATALOAD PUSH1 0x1 PUSH1 0x1 PUSH1 0xA0 SHL SUB DUP2 AND DUP2 EQ PUSH2 0xE88 JUMPI PUSH1 0x0 DUP1 REVERT JUMPDEST SWAP2 SWAP1 POP JUMP JUMPDEST PUSH1 0x0 PUSH1 0x20 DUP3 DUP5 SUB SLT ISZERO PUSH2 0xE9F JUMPI PUSH1 0x0 DUP1 REVERT JUMPDEST PUSH2 0xA0A DUP3 PUSH2 0xE71 JUMP JUMPDEST PUSH1 0x0 DUP1 PUSH1 0x40 DUP4 DUP6 SUB SLT ISZERO PUSH2 0xEBB JUMPI PUSH1 0x0 DUP1 REVERT JUMPDEST PUSH2 0xEC4 DUP4 PUSH2 0xE71 JUMP JUMPDEST SWAP5 PUSH1 0x20 SWAP4 SWAP1 SWAP4 ADD CALLDATALOAD SWAP4 POP POP POP JUMP JUMPDEST PUSH1 0x0 PUSH1 0x20 DUP3 DUP5 SUB SLT ISZERO PUSH2 0xEE4 JUMPI PUSH1 0x0 DUP1 REVERT JUMPDEST DUP2 MLOAD PUSH2 0xA0A DUP2 PUSH2 0x121D JUMP JUMPDEST PUSH1 0x0 PUSH1 0x20 DUP3 DUP5 SUB SLT ISZERO PUSH2 0xF01 JUMPI PUSH1 0x0 DUP1 REVERT JUMPDEST DUP2 CALLDATALOAD PUSH8 0xFFFFFFFFFFFFFFFF DUP1 DUP3 GT ISZERO PUSH2 0xF19 JUMPI PUSH1 0x0 DUP1 REVERT JUMPDEST DUP2 DUP5 ADD SWAP2 POP DUP5 PUSH1 0x1F DUP4 ADD SLT PUSH2 0xF2D JUMPI PUSH1 0x0 DUP1 REVERT JUMPDEST DUP2 CALLDATALOAD DUP2 DUP2 GT ISZERO PUSH2 0xF3F JUMPI PUSH2 0xF3F PUSH2 0x1207 JUMP JUMPDEST PUSH1 0x40 MLOAD PUSH1 0x1F DUP3 ADD PUSH1 0x1F NOT SWAP1 DUP2 AND PUSH1 0x3F ADD AND DUP2 ADD SWAP1 DUP4 DUP3 GT DUP2 DUP4 LT OR ISZERO PUSH2 0xF67 JUMPI PUSH2 0xF67 PUSH2 0x1207 JUMP JUMPDEST DUP2 PUSH1 0x40 MSTORE DUP3 DUP2 MSTORE DUP8 PUSH1 0x20 DUP5 DUP8 ADD ADD GT ISZERO PUSH2 0xF80 JUMPI PUSH1 0x0 DUP1 REVERT JUMPDEST DUP3 PUSH1 0x20 DUP7 ADD PUSH1 0x20 DUP4 ADD CALLDATACOPY PUSH1 0x0 SWAP3 DUP2 ADD PUSH1 0x20 ADD SWAP3 SWAP1 SWAP3 MSTORE POP SWAP6 SWAP5 POP POP POP POP POP JUMP JUMPDEST PUSH1 0x0 PUSH1 0xA0 DUP3 DUP5 SUB SLT ISZERO PUSH2 0xFB2 JUMPI PUSH1 0x0 DUP1 REVERT JUMPDEST PUSH1 0x40 MLOAD PUSH1 0xA0 DUP2 ADD DUP2 DUP2 LT PUSH8 0xFFFFFFFFFFFFFFFF DUP3 GT OR ISZERO PUSH2 0xFD5 JUMPI PUSH2 0xFD5 PUSH2 0x1207 JUMP JUMPDEST PUSH1 0x40 MSTORE PUSH2 0xFE1 DUP4 PUSH2 0xE71 JUMP JUMPDEST DUP2 MSTORE PUSH1 0x20 DUP4 ADD CALLDATALOAD PUSH1 0x20 DUP3 ADD MSTORE PUSH1 0x40 DUP4 ADD CALLDATALOAD PUSH1 0x40 DUP3 ADD MSTORE PUSH1 0x60 DUP4 ADD CALLDATALOAD PUSH1 0x60 DUP3 ADD MSTORE PUSH1 0x80 DUP4 ADD CALLDATALOAD PUSH2 0x100F DUP2 PUSH2 0x121D JUMP JUMPDEST PUSH1 0x80 DUP3 ADD MSTORE SWAP4 SWAP3 POP POP POP JUMP JUMPDEST PUSH1 0x0 PUSH1 0x20 DUP3 DUP5 SUB SLT ISZERO PUSH2 0x102D JUMPI PUSH1 0x0 DUP1 REVERT JUMPDEST POP CALLDATALOAD SWAP2 SWAP1 POP JUMP JUMPDEST PUSH1 0x0 PUSH1 0x20 DUP3 DUP5 SUB SLT ISZERO PUSH2 0x1046 JUMPI PUSH1 0x0 DUP1 REVERT JUMPDEST POP MLOAD SWAP2 SWAP1 POP JUMP JUMPDEST PUSH1 0x0 PUSH1 0x20 DUP1 DUP4 MSTORE DUP4 MLOAD DUP1 DUP3 DUP6 ADD MSTORE PUSH1 0x0 JUMPDEST DUP2 DUP2 LT ISZERO PUSH2 0x107A JUMPI DUP6 DUP2 ADD DUP4 ADD MLOAD DUP6 DUP3 ADD PUSH1 0x40 ADD MSTORE DUP3 ADD PUSH2 0x105E JUMP JUMPDEST DUP2 DUP2 GT ISZERO PUSH2 0x108C JUMPI PUSH1 0x0 PUSH1 0x40 DUP4 DUP8 ADD ADD MSTORE JUMPDEST POP PUSH1 0x1F ADD PUSH1 0x1F NOT AND SWAP3 SWAP1 SWAP3 ADD PUSH1 0x40 ADD SWAP4 SWAP3 POP POP POP JUMP JUMPDEST PUSH1 0x20 DUP1 DUP3 MSTORE PUSH1 0x23 SWAP1 DUP3 ADD MSTORE PUSH32 0x5265664F776E61626C653A2063616C6C6572206973206E6F7420746865206F77 PUSH1 0x40 DUP3 ADD MSTORE PUSH3 0x3732B9 PUSH1 0xE9 SHL PUSH1 0x60 DUP3 ADD MSTORE PUSH1 0x80 ADD SWAP1 JUMP JUMPDEST PUSH1 0x20 DUP1 DUP3 MSTORE PUSH1 0x2F SWAP1 DUP3 ADD MSTORE PUSH32 0x5265664F776E61626C653A2063616C6C6572206973206E6F7420746865206F77 PUSH1 0x40 DUP3 ADD MSTORE PUSH15 0x3732B91037B9103932B337BBB732B9 PUSH1 0x89 SHL PUSH1 0x60 DUP3 ADD MSTORE PUSH1 0x80 ADD SWAP1 JUMP JUMPDEST PUSH1 0x0 DUP3 NOT DUP3 GT ISZERO PUSH2 0x1147 JUMPI PUSH2 0x1147 PUSH2 0x11DB JUMP JUMPDEST POP ADD SWAP1 JUMP JUMPDEST PUSH1 0x0 DUP3 PUSH2 0x1169 JUMPI PUSH4 0x4E487B71 PUSH1 0xE0 SHL PUSH1 0x0 MSTORE PUSH1 0x12 PUSH1 0x4 MSTORE PUSH1 0x24 PUSH1 0x0 REVERT JUMPDEST POP DIV SWAP1 JUMP JUMPDEST PUSH1 0x0 DUP3 DUP3 LT ISZERO PUSH2 0x1180 JUMPI PUSH2 0x1180 PUSH2 0x11DB JUMP JUMPDEST POP SUB SWAP1 JUMP JUMPDEST PUSH1 0x1 DUP2 DUP2 SHR SWAP1 DUP3 AND DUP1 PUSH2 0x1199 JUMPI PUSH1 0x7F DUP3 AND SWAP2 POP JUMPDEST PUSH1 0x20 DUP3 LT DUP2 EQ ISZERO PUSH2 0x11BA JUMPI PUSH4 0x4E487B71 PUSH1 0xE0 SHL PUSH1 0x0 MSTORE PUSH1 0x22 PUSH1 0x4 MSTORE PUSH1 0x24 PUSH1 0x0 REVERT JUMPDEST POP SWAP2 SWAP1 POP JUMP JUMPDEST PUSH1 0x0 PUSH1 0x0 NOT DUP3 EQ ISZERO PUSH2 0x11D4 JUMPI PUSH2 0x11D4 PUSH2 0x11DB JUMP JUMPDEST POP PUSH1 0x1 ADD SWAP1 JUMP JUMPDEST PUSH4 0x4E487B71 PUSH1 0xE0 SHL PUSH1 0x0 MSTORE PUSH1 0x11 PUSH1 0x4 MSTORE PUSH1 0x24 PUSH1 0x0 REVERT JUMPDEST PUSH4 0x4E487B71 PUSH1 0xE0 SHL PUSH1 0x0 MSTORE PUSH1 0x32 PUSH1 0x4 MSTORE PUSH1 0x24 PUSH1 0x0 REVERT JUMPDEST PUSH4 0x4E487B71 PUSH1 0xE0 SHL PUSH1 0x0 MSTORE PUSH1 0x41 PUSH1 0x4 MSTORE PUSH1 0x24 PUSH1 0x0 REVERT JUMPDEST DUP1 ISZERO ISZERO DUP2 EQ PUSH2 0x955 JUMPI PUSH1 0x0 DUP1 REVERT INVALID LOG2 PUSH5 0x6970667358 0x22 SLT KECCAK256 0x2F CREATE2 MSIZE CREATE 0x25 0xEE 0xE5 STOP 0xC4 CALLER PC 0xBB ADD SWAP2 0xD0 0xBC SIGNEXTEND 0xDD CHAINID 0xEB 0x22 SWAP9 CALLDATALOAD PUSH18 0x28315D40163B7BC164736F6C634300080500 CALLER LOG2 PUSH5 0x6970667358 0x22 SLT KECCAK256 POP 0xC2 GT PUSH17 0xE8DD9E5AED0984F5F925E80E5C3CA4AF63 0xD5 RETURNDATACOPY 0xE1 SWAP13 PUSH16 0x69A49893DF1E64736F6C634300080500 CALLER ",
  "sha1": "5517aeecde0ed49a3bde0fd97a00aaa9d2991a97",
  "source": "// SPDX-License-Identifier: MIT\npragma solidity ^0.8.5;\n\nimport \"./VegaToken.sol\";\nimport {Ownable} from \"./Ownable.sol\";\nimport \"./VestingBucket.sol\";\nimport \"./VestingConstants.sol\";\n\n// VegaMaster is the main token handler\n// master distributes tokens to buckets\n// bucket allocation is defined in VestingConstants\ncontract VegaMaster is Ownable {\n    VegaToken public vega_token;\n    address public vega_token_address;\n\n    address[] public buckets;\n    uint256 public bucket_num;\n    uint256 private constant maxbuckets = 30;\n\n    constructor() {\n        vega_token = new VegaToken();\n\n        vega_token_address = address(vega_token);\n\n        bucket_num = 0;\n\n        buckets = new address[](maxbuckets);\n    }\n\n    // add a vesting bucket from master and tranfer the entire amount to it\n    function addVestingBucket(\n        uint256 cliffOffset,\n        string memory name,\n        uint256 periods,\n        uint256 amount\n    ) public onlyOwner {\n        VestingBucket vbucket = new VestingBucket(\n            vega_token_address,\n            block.timestamp + cliffOffset,\n            periods,\n            amount\n        );\n        //refowner of vbucket is owner of master\n        vbucket.setRefOwner(owner());\n\n        vbucket.setName(name);\n        require(bucket_num < maxbuckets, \"VegaMaster: bucket number too large\");\n        buckets[bucket_num] = address(vbucket);\n        bucket_num += 1;\n        transferToVested(address(vbucket), amount);\n    }\n\n    // transfer amount to vesting bucket from master\n    function transferToVested(address recipient, uint256 amount) private {\n        bool success = vega_token.transfer(address(recipient), amount);\n        require(success, \"VegaMaster: transfer failed\");\n    }\n\n    function maxSupply() public view returns (uint256) {\n        return vega_token.MAX_SUPPLY();\n    }\n}\n",
  "sourcePath": "contracts/VegaMaster.sol",
  "type": "contract"
}