{
  "abi": [
    {
      "inputs": [
        {
          "internalType": "address",
          "name": "_VEGA_TOKEN_ADDRESS",
          "type": "address"
        },
        {
          "internalType": "uint256",
          "name": "_cliffTime",
          "type": "uint256"
        },
        {
          "internalType": "uint256",
          "name": "_numPeriods",
          "type": "uint256"
        },
        {
          "internalType": "uint256",
          "name": "_totalAmount",
          "type": "uint256"
        }
      ],
      "stateMutability": "nonpayable",
      "type": "constructor"
    },
    {
      "anonymous": false,
      "inputs": [
        {
          "indexed": true,
          "internalType": "address",
          "name": "addr",
          "type": "address"
        },
        {
          "indexed": false,
          "internalType": "uint256",
          "name": "amount",
          "type": "uint256"
        }
      ],
      "name": "WithdrawClaim",
      "type": "event"
    },
    {
      "anonymous": false,
      "inputs": [
        {
          "indexed": false,
          "internalType": "uint256",
          "name": "amount",
          "type": "uint256"
        }
      ],
      "name": "WithdrawOwner",
      "type": "event"
    },
    {
      "inputs": [
        {
          "internalType": "address",
          "name": "_claimAddress",
          "type": "address"
        },
        {
          "internalType": "uint256",
          "name": "_claimTotalAmount",
          "type": "uint256"
        }
      ],
      "name": "addClaim",
      "outputs": [],
      "stateMutability": "nonpayable",
      "type": "function"
    },
    {
      "inputs": [],
      "name": "allClaim",
      "outputs": [],
      "stateMutability": "nonpayable",
      "type": "function"
    },
    {
      "inputs": [],
      "name": "bucketAmountPerPeriod",
      "outputs": [
        {
          "internalType": "uint256",
          "name": "",
          "type": "uint256"
        }
      ],
      "stateMutability": "view",
      "type": "function"
    },
    {
      "inputs": [
        {
          "internalType": "uint256",
          "name": "",
          "type": "uint256"
        }
      ],
      "name": "claimAddresses",
      "outputs": [
        {
          "internalType": "address",
          "name": "",
          "type": "address"
        }
      ],
      "stateMutability": "view",
      "type": "function"
    },
    {
      "inputs": [
        {
          "internalType": "address",
          "name": "",
          "type": "address"
        }
      ],
      "name": "claims",
      "outputs": [
        {
          "internalType": "address",
          "name": "claimAddress",
          "type": "address"
        },
        {
          "internalType": "uint256",
          "name": "claimTotalAmount",
          "type": "uint256"
        },
        {
          "internalType": "uint256",
          "name": "amountPerPeriod",
          "type": "uint256"
        },
        {
          "internalType": "uint256",
          "name": "withdrawnAmount",
          "type": "uint256"
        },
        {
          "internalType": "bool",
          "name": "isAdded",
          "type": "bool"
        }
      ],
      "stateMutability": "view",
      "type": "function"
    },
    {
      "inputs": [],
      "name": "cliffTime",
      "outputs": [
        {
          "internalType": "uint256",
          "name": "",
          "type": "uint256"
        }
      ],
      "stateMutability": "view",
      "type": "function"
    },
    {
      "inputs": [],
      "name": "endTime",
      "outputs": [
        {
          "internalType": "uint256",
          "name": "",
          "type": "uint256"
        }
      ],
      "stateMutability": "view",
      "type": "function"
    },
    {
      "inputs": [
        {
          "internalType": "address",
          "name": "_claimAddress",
          "type": "address"
        }
      ],
      "name": "getVestableAmount",
      "outputs": [
        {
          "internalType": "uint256",
          "name": "",
          "type": "uint256"
        }
      ],
      "stateMutability": "view",
      "type": "function"
    },
    {
      "inputs": [
        {
          "components": [
            {
              "internalType": "address",
              "name": "claimAddress",
              "type": "address"
            },
            {
              "internalType": "uint256",
              "name": "claimTotalAmount",
              "type": "uint256"
            },
            {
              "internalType": "uint256",
              "name": "amountPerPeriod",
              "type": "uint256"
            },
            {
              "internalType": "uint256",
              "name": "withdrawnAmount",
              "type": "uint256"
            },
            {
              "internalType": "bool",
              "name": "isAdded",
              "type": "bool"
            }
          ],
          "internalType": "struct VestingBucket.Claim",
          "name": "claim",
          "type": "tuple"
        }
      ],
      "name": "getVestedAmount",
      "outputs": [
        {
          "internalType": "uint256",
          "name": "",
          "type": "uint256"
        }
      ],
      "stateMutability": "view",
      "type": "function"
    },
    {
      "inputs": [],
      "name": "name",
      "outputs": [
        {
          "internalType": "string",
          "name": "",
          "type": "string"
        }
      ],
      "stateMutability": "view",
      "type": "function"
    },
    {
      "inputs": [],
      "name": "numPeriods",
      "outputs": [
        {
          "internalType": "uint256",
          "name": "",
          "type": "uint256"
        }
      ],
      "stateMutability": "view",
      "type": "function"
    },
    {
      "inputs": [],
      "name": "owner",
      "outputs": [
        {
          "internalType": "address",
          "name": "",
          "type": "address"
        }
      ],
      "stateMutability": "view",
      "type": "function"
    },
    {
      "inputs": [],
      "name": "refOwner",
      "outputs": [
        {
          "internalType": "address",
          "name": "",
          "type": "address"
        }
      ],
      "stateMutability": "view",
      "type": "function"
    },
    {
      "inputs": [],
      "name": "registerTime",
      "outputs": [
        {
          "internalType": "uint256",
          "name": "",
          "type": "uint256"
        }
      ],
      "stateMutability": "view",
      "type": "function"
    },
    {
      "inputs": [
        {
          "internalType": "string",
          "name": "_name",
          "type": "string"
        }
      ],
      "name": "setName",
      "outputs": [],
      "stateMutability": "nonpayable",
      "type": "function"
    },
    {
      "inputs": [
        {
          "internalType": "address",
          "name": "_refowner",
          "type": "address"
        }
      ],
      "name": "setRefOwner",
      "outputs": [],
      "stateMutability": "nonpayable",
      "type": "function"
    },
    {
      "inputs": [],
      "name": "totalAmount",
      "outputs": [
        {
          "internalType": "uint256",
          "name": "",
          "type": "uint256"
        }
      ],
      "stateMutability": "view",
      "type": "function"
    },
    {
      "inputs": [],
      "name": "totalClaimAmount",
      "outputs": [
        {
          "internalType": "uint256",
          "name": "",
          "type": "uint256"
        }
      ],
      "stateMutability": "view",
      "type": "function"
    },
    {
      "inputs": [],
      "name": "totalWithdrawnAmount",
      "outputs": [
        {
          "internalType": "uint256",
          "name": "",
          "type": "uint256"
        }
      ],
      "stateMutability": "view",
      "type": "function"
    },
    {
      "inputs": [],
      "name": "vega_token",
      "outputs": [
        {
          "internalType": "contract VegaToken",
          "name": "",
          "type": "address"
        }
      ],
      "stateMutability": "view",
      "type": "function"
    },
    {
      "inputs": [
        {
          "internalType": "address",
          "name": "_claimAddress",
          "type": "address"
        }
      ],
      "name": "vestClaimMax",
      "outputs": [],
      "stateMutability": "nonpayable",
      "type": "function"
    },
    {
      "inputs": [
        {
          "internalType": "uint256",
          "name": "amount",
          "type": "uint256"
        }
      ],
      "name": "withdrawOwner",
      "outputs": [],
      "stateMutability": "nonpayable",
      "type": "function"
    }
  ],
  "bytecode": "60806040523480156200001157600080fd5b506040516200149238038062001492833981016040819052620000349162000197565b60008054336001600160a01b031991821617909155600380549091166001600160a01b038616179055426004819055831015620000c95760405162461bcd60e51b815260206004820152602960248201527f56455354494e474255434b455420636c696666206d75737420626520696e207460448201526868652066757475726560b81b606482015260840160405180910390fd5b6009839055600a829055600b819055620000e48282620001fe565b600c81905560405163556b30b960e11b81526004810185905260248101919091526044810182905273__VestingMath___________________________9063aad661729060640160206040518083038186803b1580156200014457600080fd5b505af415801562000159573d6000803e3d6000fd5b505050506040513d601f19601f820116820180604052508101906200017f9190620001e4565b600d5550506000600881905560075550620002219050565b60008060008060808587031215620001ae57600080fd5b84516001600160a01b0381168114620001c657600080fd5b60208601516040870151606090970151919890975090945092505050565b600060208284031215620001f757600080fd5b5051919050565b6000826200021c57634e487b7160e01b600052601260045260246000fd5b500490565b61126180620002316000396000f3fe608060405234801561001057600080fd5b50600436106101425760003560e01c80638da5cb5b116100b8578063c47f00271161007c578063c47f002714610251578063c6788bdd14610264578063d0029d61146102e2578063dcd65479146102f5578063dfa93099146102fe578063f8fcabe31461031157600080fd5b80638da5cb5b146101ff578063b4cb529a14610210578063b622870314610218578063b9377aff1461022b578063bbb6f3471461023e57600080fd5b80633197cbb61161010a5780633197cbb6146101a357806334dadad5146101ac57806335e9d90f146101b55780636ef98b21146101be57806372a1c148146101d15780638523b7db146101f657600080fd5b806306fdde03146101475780630f1a6444146101655780631a39d8ef1461017c5780631d8b44c51461018557806321e76dc11461018e575b600080fd5b61014f610324565b60405161015c919061104d565b60405180910390f35b61016e60095481565b60405190815260200161015c565b61016e600b5481565b61016e60085481565b6101a161019c366004610e8d565b6103b2565b005b61016e600d5481565b61016e60045481565b61016e600c5481565b6101a16101cc36600461101b565b61076b565b6001546001600160a01b03165b6040516001600160a01b03909116815260200161015c565b61016e60075481565b6000546001600160a01b03166101de565b6101a16108c1565b61016e610226366004610fa0565b610958565b6101a1610239366004610e8d565b610a11565b6003546101de906001600160a01b031681565b6101a161025f366004610eef565b610a6c565b6102ae610272366004610e8d565b600560205260009081526040902080546001820154600283015460038401546004909401546001600160a01b0390931693919290919060ff1685565b604080516001600160a01b03909616865260208601949094529284019190915260608301521515608082015260a00161015c565b6101de6102f036600461101b565b610abc565b61016e600a5481565b61016e61030c366004610e8d565b610ae6565b6101a161031f366004610ea8565b610b51565b6002805461033190611185565b80601f016020809104026020016040519081016040528092919081815260200182805461035d90611185565b80156103aa5780601f1061037f576101008083540402835291602001916103aa565b820191906000526020600020905b81548152906001019060200180831161038d57829003601f168201915b505050505081565b336001600160a01b03821614806103d357506000546001600160a01b031633145b806103e857506001546001600160a01b031633145b61045f5760405162461bcd60e51b815260206004820152603760248201527f56455354494e474255434b45543a2063616e206f6e6c792063616c6c2066726f60448201527f6d20636c61696d61646472657373206f72206f776e657200000000000000000060648201526084015b60405180910390fd5b6001600160a01b03811660009081526005602052604090206004015460ff166104d65760405162461bcd60e51b815260206004820152602360248201527f56455354494e474255434b45543a20636c61696d20646f6573206e6f742065786044820152621a5cdd60ea1b6064820152608401610456565b6001600160a01b038082166000908152600560209081526040808320815160a0810183528154909516855260018101549285019290925260028201549084015260038101546060840152600481015460ff16151560808401529161053990610958565b9050600082600301548261054d919061116e565b905060008184600301546105619190611134565b905083600101548111156105cf5760405162461bcd60e51b815260206004820152602f60248201527f56455354494e474255434b45543a2063616e206e6f742077697468647261772060448201526e1b5bdc99481d1a185b881d1bdd185b608a1b6064820152608401610456565b6000821161061f5760405162461bcd60e51b815260206004820181905260248201527f56455354494e474255434b45543a206e6f20616d6f756e7420636c61696d65646044820152606401610456565b60035460405163a9059cbb60e01b81526001600160a01b038781166004830152602482018590529091169063a9059cbb90604401602060405180830381600087803b15801561066d57600080fd5b505af1158015610681573d6000803e3d6000fd5b505050506040513d601f19601f820116820180604052508101906106a59190610ed2565b6106f15760405162461bcd60e51b815260206004820152601e60248201527f56455354494e474255434b45543a207472616e73666572206661696c656400006044820152606401610456565b83546040518381526001600160a01b03909116907f394a4e97a8193f113cce457fc16cabc66ff1a10c478cdab3b82e5cc57c67bbf99060200160405180910390a2818460030160008282546107469190611134565b92505081905550816008600082825461075f9190611134565b90915550505050505050565b6001546001600160a01b031633148061078e57506000546001600160a01b031633145b6107aa5760405162461bcd60e51b8152600401610456906110e5565b60035460405163a9059cbb60e01b8152336004820152602481018390526000916001600160a01b03169063a9059cbb90604401602060405180830381600087803b1580156107f757600080fd5b505af115801561080b573d6000803e3d6000fd5b505050506040513d601f19601f8201168201806040525081019061082f9190610ed2565b90508061088a5760405162461bcd60e51b815260206004820152602360248201527f56455354494e474255434b45543a2077697468647261774f776e6572206661696044820152621b195960ea1b6064820152608401610456565b6040518281527f87407f8cb494a98d977328908b1ff2a7e0b5a79c3ccc705b5c8569533631d59e9060200160405180910390a15050565b6001546001600160a01b03163314806108e457506000546001600160a01b031633145b6109005760405162461bcd60e51b8152600401610456906110e5565b60005b60065481101561095557600060068281548110610922576109226111f1565b6000918252602090912001546001600160a01b03169050610942816103b2565b508061094d816111c0565b915050610903565b50565b600954600d5460408381015160208501519151636bc18e9560e01b8152426004820181905260248201959095526044810193909352606483015260848201526000919073__VestingMath___________________________90636bc18e959060a40160206040518083038186803b1580156109d257600080fd5b505af41580156109e6573d6000803e3d6000fd5b505050506040513d601f19601f82011682018060405250810190610a0a9190611034565b9392505050565b33610a246000546001600160a01b031690565b6001600160a01b031614610a4a5760405162461bcd60e51b8152600401610456906110a2565b600180546001600160a01b0319166001600160a01b0392909216919091179055565b33610a7f6000546001600160a01b031690565b6001600160a01b031614610aa55760405162461bcd60e51b8152600401610456906110a2565b8051610ab8906002906020840190610dd8565b5050565b60068181548110610acc57600080fd5b6000918252602090912001546001600160a01b0316905081565b6001600160a01b038082166000908152600560209081526040808320815160a08101835281549095168552600181015492850192909252600282015490840152600381015460608401526004015460ff16151560808301529081610b4982610958565b949350505050565b6001546001600160a01b0316331480610b7457506000546001600160a01b031633145b610b905760405162461bcd60e51b8152600401610456906110e5565b6001600160a01b03821660009081526005602052604090206004015460ff1615610c185760405162461bcd60e51b815260206004820152603360248201527f56455354494e474255434b45543a20636c61696d2061742074686973206164646044820152727265737320616c72656164792065786973747360681b6064820152608401610456565b60008111610c745760405162461bcd60e51b8152602060048201526024808201527f56455354494e474255434b45543a20636c61696d2063616e206e6f74206265206044820152637a65726f60e01b6064820152608401610456565b600b5481600754610c859190611134565b1115610ce85760405162461bcd60e51b815260206004820152602c60248201527f56455354494e474255434b45543a2063616e206e6f7420636c61696d206d6f7260448201526b19481d1a185b881d1bdd185b60a21b6064820152608401610456565b6000600a5482610cf8919061114c565b6040805160a0810182526001600160a01b03808716808352602080840188815284860187815260006060870181815260016080890181815287845260059096529882209751885497166001600160a01b0319978816178855925187890155905160028701559051600386015590516004909401805494151560ff199095169490941790935560068054948501815583527ff652222313e28459528d920b65115c16c04f3efc82aaedc97be59f3f377c0d3f9093018054909116909217909155600780549293508492909190610dce908490611134565b9091555050505050565b828054610de490611185565b90600052602060002090601f016020900481019282610e065760008555610e4c565b82601f10610e1f57805160ff1916838001178555610e4c565b82800160010185558215610e4c579182015b82811115610e4c578251825591602001919060010190610e31565b50610e58929150610e5c565b5090565b5b80821115610e585760008155600101610e5d565b80356001600160a01b0381168114610e8857600080fd5b919050565b600060208284031215610e9f57600080fd5b610a0a82610e71565b60008060408385031215610ebb57600080fd5b610ec483610e71565b946020939093013593505050565b600060208284031215610ee457600080fd5b8151610a0a8161121d565b600060208284031215610f0157600080fd5b813567ffffffffffffffff80821115610f1957600080fd5b818401915084601f830112610f2d57600080fd5b813581811115610f3f57610f3f611207565b604051601f8201601f19908116603f01168101908382118183101715610f6757610f67611207565b81604052828152876020848701011115610f8057600080fd5b826020860160208301376000928101602001929092525095945050505050565b600060a08284031215610fb257600080fd5b60405160a0810181811067ffffffffffffffff82111715610fd557610fd5611207565b604052610fe183610e71565b8152602083013560208201526040830135604082015260608301356060820152608083013561100f8161121d565b60808201529392505050565b60006020828403121561102d57600080fd5b5035919050565b60006020828403121561104657600080fd5b5051919050565b600060208083528351808285015260005b8181101561107a5785810183015185820160400152820161105e565b8181111561108c576000604083870101525b50601f01601f1916929092016040019392505050565b60208082526023908201527f5265664f776e61626c653a2063616c6c6572206973206e6f7420746865206f776040820152623732b960e91b606082015260800190565b6020808252602f908201527f5265664f776e61626c653a2063616c6c6572206973206e6f7420746865206f7760408201526e3732b91037b9103932b337bbb732b960891b606082015260800190565b60008219821115611147576111476111db565b500190565b60008261116957634e487b7160e01b600052601260045260246000fd5b500490565b600082821015611180576111806111db565b500390565b600181811c9082168061119957607f821691505b602082108114156111ba57634e487b7160e01b600052602260045260246000fd5b50919050565b60006000198214156111d4576111d46111db565b5060010190565b634e487b7160e01b600052601160045260246000fd5b634e487b7160e01b600052603260045260246000fd5b634e487b7160e01b600052604160045260246000fd5b801515811461095557600080fdfea2646970667358221220f4968252ae2bfef97ade96d85eb4b6f3ac496b4f9417f86b43fd0fe4f71e9b5464736f6c63430008050033",
  "bytecodeSha1": "64047cc8299c080fcb89eebae4f57423f8ff5a02",
  "compiler": {
    "evm_version": "istanbul",
    "optimizer": {
      "enabled": true,
      "runs": 200
    },
    "version": "0.8.5+commit.a4f2e591"
  },
  "contractName": "VestingBucket",
  "deployedBytecode": "608060405234801561001057600080fd5b50600436106101425760003560e01c80638da5cb5b116100b8578063c47f00271161007c578063c47f002714610251578063c6788bdd14610264578063d0029d61146102e2578063dcd65479146102f5578063dfa93099146102fe578063f8fcabe31461031157600080fd5b80638da5cb5b146101ff578063b4cb529a14610210578063b622870314610218578063b9377aff1461022b578063bbb6f3471461023e57600080fd5b80633197cbb61161010a5780633197cbb6146101a357806334dadad5146101ac57806335e9d90f146101b55780636ef98b21146101be57806372a1c148146101d15780638523b7db146101f657600080fd5b806306fdde03146101475780630f1a6444146101655780631a39d8ef1461017c5780631d8b44c51461018557806321e76dc11461018e575b600080fd5b61014f610324565b60405161015c919061104d565b60405180910390f35b61016e60095481565b60405190815260200161015c565b61016e600b5481565b61016e60085481565b6101a161019c366004610e8d565b6103b2565b005b61016e600d5481565b61016e60045481565b61016e600c5481565b6101a16101cc36600461101b565b61076b565b6001546001600160a01b03165b6040516001600160a01b03909116815260200161015c565b61016e60075481565b6000546001600160a01b03166101de565b6101a16108c1565b61016e610226366004610fa0565b610958565b6101a1610239366004610e8d565b610a11565b6003546101de906001600160a01b031681565b6101a161025f366004610eef565b610a6c565b6102ae610272366004610e8d565b600560205260009081526040902080546001820154600283015460038401546004909401546001600160a01b0390931693919290919060ff1685565b604080516001600160a01b03909616865260208601949094529284019190915260608301521515608082015260a00161015c565b6101de6102f036600461101b565b610abc565b61016e600a5481565b61016e61030c366004610e8d565b610ae6565b6101a161031f366004610ea8565b610b51565b6002805461033190611185565b80601f016020809104026020016040519081016040528092919081815260200182805461035d90611185565b80156103aa5780601f1061037f576101008083540402835291602001916103aa565b820191906000526020600020905b81548152906001019060200180831161038d57829003601f168201915b505050505081565b336001600160a01b03821614806103d357506000546001600160a01b031633145b806103e857506001546001600160a01b031633145b61045f5760405162461bcd60e51b815260206004820152603760248201527f56455354494e474255434b45543a2063616e206f6e6c792063616c6c2066726f60448201527f6d20636c61696d61646472657373206f72206f776e657200000000000000000060648201526084015b60405180910390fd5b6001600160a01b03811660009081526005602052604090206004015460ff166104d65760405162461bcd60e51b815260206004820152602360248201527f56455354494e474255434b45543a20636c61696d20646f6573206e6f742065786044820152621a5cdd60ea1b6064820152608401610456565b6001600160a01b038082166000908152600560209081526040808320815160a0810183528154909516855260018101549285019290925260028201549084015260038101546060840152600481015460ff16151560808401529161053990610958565b9050600082600301548261054d919061116e565b905060008184600301546105619190611134565b905083600101548111156105cf5760405162461bcd60e51b815260206004820152602f60248201527f56455354494e474255434b45543a2063616e206e6f742077697468647261772060448201526e1b5bdc99481d1a185b881d1bdd185b608a1b6064820152608401610456565b6000821161061f5760405162461bcd60e51b815260206004820181905260248201527f56455354494e474255434b45543a206e6f20616d6f756e7420636c61696d65646044820152606401610456565b60035460405163a9059cbb60e01b81526001600160a01b038781166004830152602482018590529091169063a9059cbb90604401602060405180830381600087803b15801561066d57600080fd5b505af1158015610681573d6000803e3d6000fd5b505050506040513d601f19601f820116820180604052508101906106a59190610ed2565b6106f15760405162461bcd60e51b815260206004820152601e60248201527f56455354494e474255434b45543a207472616e73666572206661696c656400006044820152606401610456565b83546040518381526001600160a01b03909116907f394a4e97a8193f113cce457fc16cabc66ff1a10c478cdab3b82e5cc57c67bbf99060200160405180910390a2818460030160008282546107469190611134565b92505081905550816008600082825461075f9190611134565b90915550505050505050565b6001546001600160a01b031633148061078e57506000546001600160a01b031633145b6107aa5760405162461bcd60e51b8152600401610456906110e5565b60035460405163a9059cbb60e01b8152336004820152602481018390526000916001600160a01b03169063a9059cbb90604401602060405180830381600087803b1580156107f757600080fd5b505af115801561080b573d6000803e3d6000fd5b505050506040513d601f19601f8201168201806040525081019061082f9190610ed2565b90508061088a5760405162461bcd60e51b815260206004820152602360248201527f56455354494e474255434b45543a2077697468647261774f776e6572206661696044820152621b195960ea1b6064820152608401610456565b6040518281527f87407f8cb494a98d977328908b1ff2a7e0b5a79c3ccc705b5c8569533631d59e9060200160405180910390a15050565b6001546001600160a01b03163314806108e457506000546001600160a01b031633145b6109005760405162461bcd60e51b8152600401610456906110e5565b60005b60065481101561095557600060068281548110610922576109226111f1565b6000918252602090912001546001600160a01b03169050610942816103b2565b508061094d816111c0565b915050610903565b50565b600954600d5460408381015160208501519151636bc18e9560e01b8152426004820181905260248201959095526044810193909352606483015260848201526000919073__$5e6753039be095b2af09f6e281dd6eeca6$__90636bc18e959060a40160206040518083038186803b1580156109d257600080fd5b505af41580156109e6573d6000803e3d6000fd5b505050506040513d601f19601f82011682018060405250810190610a0a9190611034565b9392505050565b33610a246000546001600160a01b031690565b6001600160a01b031614610a4a5760405162461bcd60e51b8152600401610456906110a2565b600180546001600160a01b0319166001600160a01b0392909216919091179055565b33610a7f6000546001600160a01b031690565b6001600160a01b031614610aa55760405162461bcd60e51b8152600401610456906110a2565b8051610ab8906002906020840190610dd8565b5050565b60068181548110610acc57600080fd5b6000918252602090912001546001600160a01b0316905081565b6001600160a01b038082166000908152600560209081526040808320815160a08101835281549095168552600181015492850192909252600282015490840152600381015460608401526004015460ff16151560808301529081610b4982610958565b949350505050565b6001546001600160a01b0316331480610b7457506000546001600160a01b031633145b610b905760405162461bcd60e51b8152600401610456906110e5565b6001600160a01b03821660009081526005602052604090206004015460ff1615610c185760405162461bcd60e51b815260206004820152603360248201527f56455354494e474255434b45543a20636c61696d2061742074686973206164646044820152727265737320616c72656164792065786973747360681b6064820152608401610456565b60008111610c745760405162461bcd60e51b8152602060048201526024808201527f56455354494e474255434b45543a20636c61696d2063616e206e6f74206265206044820152637a65726f60e01b6064820152608401610456565b600b5481600754610c859190611134565b1115610ce85760405162461bcd60e51b815260206004820152602c60248201527f56455354494e474255434b45543a2063616e206e6f7420636c61696d206d6f7260448201526b19481d1a185b881d1bdd185b60a21b6064820152608401610456565b6000600a5482610cf8919061114c565b6040805160a0810182526001600160a01b03808716808352602080840188815284860187815260006060870181815260016080890181815287845260059096529882209751885497166001600160a01b0319978816178855925187890155905160028701559051600386015590516004909401805494151560ff199095169490941790935560068054948501815583527ff652222313e28459528d920b65115c16c04f3efc82aaedc97be59f3f377c0d3f9093018054909116909217909155600780549293508492909190610dce908490611134565b9091555050505050565b828054610de490611185565b90600052602060002090601f016020900481019282610e065760008555610e4c565b82601f10610e1f57805160ff1916838001178555610e4c565b82800160010185558215610e4c579182015b82811115610e4c578251825591602001919060010190610e31565b50610e58929150610e5c565b5090565b5b80821115610e585760008155600101610e5d565b80356001600160a01b0381168114610e8857600080fd5b919050565b600060208284031215610e9f57600080fd5b610a0a82610e71565b60008060408385031215610ebb57600080fd5b610ec483610e71565b946020939093013593505050565b600060208284031215610ee457600080fd5b8151610a0a8161121d565b600060208284031215610f0157600080fd5b813567ffffffffffffffff80821115610f1957600080fd5b818401915084601f830112610f2d57600080fd5b813581811115610f3f57610f3f611207565b604051601f8201601f19908116603f01168101908382118183101715610f6757610f67611207565b81604052828152876020848701011115610f8057600080fd5b826020860160208301376000928101602001929092525095945050505050565b600060a08284031215610fb257600080fd5b60405160a0810181811067ffffffffffffffff82111715610fd557610fd5611207565b604052610fe183610e71565b8152602083013560208201526040830135604082015260608301356060820152608083013561100f8161121d565b60808201529392505050565b60006020828403121561102d57600080fd5b5035919050565b60006020828403121561104657600080fd5b5051919050565b600060208083528351808285015260005b8181101561107a5785810183015185820160400152820161105e565b8181111561108c576000604083870101525b50601f01601f1916929092016040019392505050565b60208082526023908201527f5265664f776e61626c653a2063616c6c6572206973206e6f7420746865206f776040820152623732b960e91b606082015260800190565b6020808252602f908201527f5265664f776e61626c653a2063616c6c6572206973206e6f7420746865206f7760408201526e3732b91037b9103932b337bbb732b960891b606082015260800190565b60008219821115611147576111476111db565b500190565b60008261116957634e487b7160e01b600052601260045260246000fd5b500490565b600082821015611180576111806111db565b500390565b600181811c9082168061119957607f821691505b602082108114156111ba57634e487b7160e01b600052602260045260246000fd5b50919050565b60006000198214156111d4576111d46111db565b5060010190565b634e487b7160e01b600052601160045260246000fd5b634e487b7160e01b600052603260045260246000fd5b634e487b7160e01b600052604160045260246000fd5b801515811461095557600080fdfea2646970667358221220f4968252ae2bfef97ade96d85eb4b6f3ac496b4f9417f86b43fd0fe4f71e9b5464736f6c63430008050033",
  "language": "Solidity",
  "natspec": {
    "kind": "dev",
    "methods": {
      "owner()": {
        "details": "Returns the address of the current owner."
      }
    },
    "version": 1
  },
  "opcodes": "PUSH1 0x80 PUSH1 0x40 MSTORE CALLVALUE DUP1 ISZERO PUSH2 0x10 JUMPI PUSH1 0x0 DUP1 REVERT JUMPDEST POP PUSH1 0x4 CALLDATASIZE LT PUSH2 0x142 JUMPI PUSH1 0x0 CALLDATALOAD PUSH1 0xE0 SHR DUP1 PUSH4 0x8DA5CB5B GT PUSH2 0xB8 JUMPI DUP1 PUSH4 0xC47F0027 GT PUSH2 0x7C JUMPI DUP1 PUSH4 0xC47F0027 EQ PUSH2 0x251 JUMPI DUP1 PUSH4 0xC6788BDD EQ PUSH2 0x264 JUMPI DUP1 PUSH4 0xD0029D61 EQ PUSH2 0x2E2 JUMPI DUP1 PUSH4 0xDCD65479 EQ PUSH2 0x2F5 JUMPI DUP1 PUSH4 0xDFA93099 EQ PUSH2 0x2FE JUMPI DUP1 PUSH4 0xF8FCABE3 EQ PUSH2 0x311 JUMPI PUSH1 0x0 DUP1 REVERT JUMPDEST DUP1 PUSH4 0x8DA5CB5B EQ PUSH2 0x1FF JUMPI DUP1 PUSH4 0xB4CB529A EQ PUSH2 0x210 JUMPI DUP1 PUSH4 0xB6228703 EQ PUSH2 0x218 JUMPI DUP1 PUSH4 0xB9377AFF EQ PUSH2 0x22B JUMPI DUP1 PUSH4 0xBBB6F347 EQ PUSH2 0x23E JUMPI PUSH1 0x0 DUP1 REVERT JUMPDEST DUP1 PUSH4 0x3197CBB6 GT PUSH2 0x10A JUMPI DUP1 PUSH4 0x3197CBB6 EQ PUSH2 0x1A3 JUMPI DUP1 PUSH4 0x34DADAD5 EQ PUSH2 0x1AC JUMPI DUP1 PUSH4 0x35E9D90F EQ PUSH2 0x1B5 JUMPI DUP1 PUSH4 0x6EF98B21 EQ PUSH2 0x1BE JUMPI DUP1 PUSH4 0x72A1C148 EQ PUSH2 0x1D1 JUMPI DUP1 PUSH4 0x8523B7DB EQ PUSH2 0x1F6 JUMPI PUSH1 0x0 DUP1 REVERT JUMPDEST DUP1 PUSH4 0x6FDDE03 EQ PUSH2 0x147 JUMPI DUP1 PUSH4 0xF1A6444 EQ PUSH2 0x165 JUMPI DUP1 PUSH4 0x1A39D8EF EQ PUSH2 0x17C JUMPI DUP1 PUSH4 0x1D8B44C5 EQ PUSH2 0x185 JUMPI DUP1 PUSH4 0x21E76DC1 EQ PUSH2 0x18E JUMPI JUMPDEST PUSH1 0x0 DUP1 REVERT JUMPDEST PUSH2 0x14F PUSH2 0x324 JUMP JUMPDEST PUSH1 0x40 MLOAD PUSH2 0x15C SWAP2 SWAP1 PUSH2 0x104D JUMP JUMPDEST PUSH1 0x40 MLOAD DUP1 SWAP2 SUB SWAP1 RETURN JUMPDEST PUSH2 0x16E PUSH1 0x9 SLOAD DUP2 JUMP JUMPDEST PUSH1 0x40 MLOAD SWAP1 DUP2 MSTORE PUSH1 0x20 ADD PUSH2 0x15C JUMP JUMPDEST PUSH2 0x16E PUSH1 0xB SLOAD DUP2 JUMP JUMPDEST PUSH2 0x16E PUSH1 0x8 SLOAD DUP2 JUMP JUMPDEST PUSH2 0x1A1 PUSH2 0x19C CALLDATASIZE PUSH1 0x4 PUSH2 0xE8D JUMP JUMPDEST PUSH2 0x3B2 JUMP JUMPDEST STOP JUMPDEST PUSH2 0x16E PUSH1 0xD SLOAD DUP2 JUMP JUMPDEST PUSH2 0x16E PUSH1 0x4 SLOAD DUP2 JUMP JUMPDEST PUSH2 0x16E PUSH1 0xC SLOAD DUP2 JUMP JUMPDEST PUSH2 0x1A1 PUSH2 0x1CC CALLDATASIZE PUSH1 0x4 PUSH2 0x101B JUMP JUMPDEST PUSH2 0x76B JUMP JUMPDEST PUSH1 0x1 SLOAD PUSH1 0x1 PUSH1 0x1 PUSH1 0xA0 SHL SUB AND JUMPDEST PUSH1 0x40 MLOAD PUSH1 0x1 PUSH1 0x1 PUSH1 0xA0 SHL SUB SWAP1 SWAP2 AND DUP2 MSTORE PUSH1 0x20 ADD PUSH2 0x15C JUMP JUMPDEST PUSH2 0x16E PUSH1 0x7 SLOAD DUP2 JUMP JUMPDEST PUSH1 0x0 SLOAD PUSH1 0x1 PUSH1 0x1 PUSH1 0xA0 SHL SUB AND PUSH2 0x1DE JUMP JUMPDEST PUSH2 0x1A1 PUSH2 0x8C1 JUMP JUMPDEST PUSH2 0x16E PUSH2 0x226 CALLDATASIZE PUSH1 0x4 PUSH2 0xFA0 JUMP JUMPDEST PUSH2 0x958 JUMP JUMPDEST PUSH2 0x1A1 PUSH2 0x239 CALLDATASIZE PUSH1 0x4 PUSH2 0xE8D JUMP JUMPDEST PUSH2 0xA11 JUMP JUMPDEST PUSH1 0x3 SLOAD PUSH2 0x1DE SWAP1 PUSH1 0x1 PUSH1 0x1 PUSH1 0xA0 SHL SUB AND DUP2 JUMP JUMPDEST PUSH2 0x1A1 PUSH2 0x25F CALLDATASIZE PUSH1 0x4 PUSH2 0xEEF JUMP JUMPDEST PUSH2 0xA6C JUMP JUMPDEST PUSH2 0x2AE PUSH2 0x272 CALLDATASIZE PUSH1 0x4 PUSH2 0xE8D JUMP JUMPDEST PUSH1 0x5 PUSH1 0x20 MSTORE PUSH1 0x0 SWAP1 DUP2 MSTORE PUSH1 0x40 SWAP1 KECCAK256 DUP1 SLOAD PUSH1 0x1 DUP3 ADD SLOAD PUSH1 0x2 DUP4 ADD SLOAD PUSH1 0x3 DUP5 ADD SLOAD PUSH1 0x4 SWAP1 SWAP5 ADD SLOAD PUSH1 0x1 PUSH1 0x1 PUSH1 0xA0 SHL SUB SWAP1 SWAP4 AND SWAP4 SWAP2 SWAP3 SWAP1 SWAP2 SWAP1 PUSH1 0xFF AND DUP6 JUMP JUMPDEST PUSH1 0x40 DUP1 MLOAD PUSH1 0x1 PUSH1 0x1 PUSH1 0xA0 SHL SUB SWAP1 SWAP7 AND DUP7 MSTORE PUSH1 0x20 DUP7 ADD SWAP5 SWAP1 SWAP5 MSTORE SWAP3 DUP5 ADD SWAP2 SWAP1 SWAP2 MSTORE PUSH1 0x60 DUP4 ADD MSTORE ISZERO ISZERO PUSH1 0x80 DUP3 ADD MSTORE PUSH1 0xA0 ADD PUSH2 0x15C JUMP JUMPDEST PUSH2 0x1DE PUSH2 0x2F0 CALLDATASIZE PUSH1 0x4 PUSH2 0x101B JUMP JUMPDEST PUSH2 0xABC JUMP JUMPDEST PUSH2 0x16E PUSH1 0xA SLOAD DUP2 JUMP JUMPDEST PUSH2 0x16E PUSH2 0x30C CALLDATASIZE PUSH1 0x4 PUSH2 0xE8D JUMP JUMPDEST PUSH2 0xAE6 JUMP JUMPDEST PUSH2 0x1A1 PUSH2 0x31F CALLDATASIZE PUSH1 0x4 PUSH2 0xEA8 JUMP JUMPDEST PUSH2 0xB51 JUMP JUMPDEST PUSH1 0x2 DUP1 SLOAD PUSH2 0x331 SWAP1 PUSH2 0x1185 JUMP JUMPDEST DUP1 PUSH1 0x1F ADD PUSH1 0x20 DUP1 SWAP2 DIV MUL PUSH1 0x20 ADD PUSH1 0x40 MLOAD SWAP1 DUP2 ADD PUSH1 0x40 MSTORE DUP1 SWAP3 SWAP2 SWAP1 DUP2 DUP2 MSTORE PUSH1 0x20 ADD DUP3 DUP1 SLOAD PUSH2 0x35D SWAP1 PUSH2 0x1185 JUMP JUMPDEST DUP1 ISZERO PUSH2 0x3AA JUMPI DUP1 PUSH1 0x1F LT PUSH2 0x37F JUMPI PUSH2 0x100 DUP1 DUP4 SLOAD DIV MUL DUP4 MSTORE SWAP2 PUSH1 0x20 ADD SWAP2 PUSH2 0x3AA JUMP JUMPDEST DUP3 ADD SWAP2 SWAP1 PUSH1 0x0 MSTORE PUSH1 0x20 PUSH1 0x0 KECCAK256 SWAP1 JUMPDEST DUP2 SLOAD DUP2 MSTORE SWAP1 PUSH1 0x1 ADD SWAP1 PUSH1 0x20 ADD DUP1 DUP4 GT PUSH2 0x38D JUMPI DUP3 SWAP1 SUB PUSH1 0x1F AND DUP3 ADD SWAP2 JUMPDEST POP POP POP POP POP DUP2 JUMP JUMPDEST CALLER PUSH1 0x1 PUSH1 0x1 PUSH1 0xA0 SHL SUB DUP3 AND EQ DUP1 PUSH2 0x3D3 JUMPI POP PUSH1 0x0 SLOAD PUSH1 0x1 PUSH1 0x1 PUSH1 0xA0 SHL SUB AND CALLER EQ JUMPDEST DUP1 PUSH2 0x3E8 JUMPI POP PUSH1 0x1 SLOAD PUSH1 0x1 PUSH1 0x1 PUSH1 0xA0 SHL SUB AND CALLER EQ JUMPDEST PUSH2 0x45F JUMPI PUSH1 0x40 MLOAD PUSH3 0x461BCD PUSH1 0xE5 SHL DUP2 MSTORE PUSH1 0x20 PUSH1 0x4 DUP3 ADD MSTORE PUSH1 0x37 PUSH1 0x24 DUP3 ADD MSTORE PUSH32 0x56455354494E474255434B45543A2063616E206F6E6C792063616C6C2066726F PUSH1 0x44 DUP3 ADD MSTORE PUSH32 0x6D20636C61696D61646472657373206F72206F776E6572000000000000000000 PUSH1 0x64 DUP3 ADD MSTORE PUSH1 0x84 ADD JUMPDEST PUSH1 0x40 MLOAD DUP1 SWAP2 SUB SWAP1 REVERT JUMPDEST PUSH1 0x1 PUSH1 0x1 PUSH1 0xA0 SHL SUB DUP2 AND PUSH1 0x0 SWAP1 DUP2 MSTORE PUSH1 0x5 PUSH1 0x20 MSTORE PUSH1 0x40 SWAP1 KECCAK256 PUSH1 0x4 ADD SLOAD PUSH1 0xFF AND PUSH2 0x4D6 JUMPI PUSH1 0x40 MLOAD PUSH3 0x461BCD PUSH1 0xE5 SHL DUP2 MSTORE PUSH1 0x20 PUSH1 0x4 DUP3 ADD MSTORE PUSH1 0x23 PUSH1 0x24 DUP3 ADD MSTORE PUSH32 0x56455354494E474255434B45543A20636C61696D20646F6573206E6F74206578 PUSH1 0x44 DUP3 ADD MSTORE PUSH3 0x1A5CDD PUSH1 0xEA SHL PUSH1 0x64 DUP3 ADD MSTORE PUSH1 0x84 ADD PUSH2 0x456 JUMP JUMPDEST PUSH1 0x1 PUSH1 0x1 PUSH1 0xA0 SHL SUB DUP1 DUP3 AND PUSH1 0x0 SWAP1 DUP2 MSTORE PUSH1 0x5 PUSH1 0x20 SWAP1 DUP2 MSTORE PUSH1 0x40 DUP1 DUP4 KECCAK256 DUP2 MLOAD PUSH1 0xA0 DUP2 ADD DUP4 MSTORE DUP2 SLOAD SWAP1 SWAP6 AND DUP6 MSTORE PUSH1 0x1 DUP2 ADD SLOAD SWAP3 DUP6 ADD SWAP3 SWAP1 SWAP3 MSTORE PUSH1 0x2 DUP3 ADD SLOAD SWAP1 DUP5 ADD MSTORE PUSH1 0x3 DUP2 ADD SLOAD PUSH1 0x60 DUP5 ADD MSTORE PUSH1 0x4 DUP2 ADD SLOAD PUSH1 0xFF AND ISZERO ISZERO PUSH1 0x80 DUP5 ADD MSTORE SWAP2 PUSH2 0x539 SWAP1 PUSH2 0x958 JUMP JUMPDEST SWAP1 POP PUSH1 0x0 DUP3 PUSH1 0x3 ADD SLOAD DUP3 PUSH2 0x54D SWAP2 SWAP1 PUSH2 0x116E JUMP JUMPDEST SWAP1 POP PUSH1 0x0 DUP2 DUP5 PUSH1 0x3 ADD SLOAD PUSH2 0x561 SWAP2 SWAP1 PUSH2 0x1134 JUMP JUMPDEST SWAP1 POP DUP4 PUSH1 0x1 ADD SLOAD DUP2 GT ISZERO PUSH2 0x5CF JUMPI PUSH1 0x40 MLOAD PUSH3 0x461BCD PUSH1 0xE5 SHL DUP2 MSTORE PUSH1 0x20 PUSH1 0x4 DUP3 ADD MSTORE PUSH1 0x2F PUSH1 0x24 DUP3 ADD MSTORE PUSH32 0x56455354494E474255434B45543A2063616E206E6F7420776974686472617720 PUSH1 0x44 DUP3 ADD MSTORE PUSH15 0x1B5BDC99481D1A185B881D1BDD185B PUSH1 0x8A SHL PUSH1 0x64 DUP3 ADD MSTORE PUSH1 0x84 ADD PUSH2 0x456 JUMP JUMPDEST PUSH1 0x0 DUP3 GT PUSH2 0x61F JUMPI PUSH1 0x40 MLOAD PUSH3 0x461BCD PUSH1 0xE5 SHL DUP2 MSTORE PUSH1 0x20 PUSH1 0x4 DUP3 ADD DUP2 SWAP1 MSTORE PUSH1 0x24 DUP3 ADD MSTORE PUSH32 0x56455354494E474255434B45543A206E6F20616D6F756E7420636C61696D6564 PUSH1 0x44 DUP3 ADD MSTORE PUSH1 0x64 ADD PUSH2 0x456 JUMP JUMPDEST PUSH1 0x3 SLOAD PUSH1 0x40 MLOAD PUSH4 0xA9059CBB PUSH1 0xE0 SHL DUP2 MSTORE PUSH1 0x1 PUSH1 0x1 PUSH1 0xA0 SHL SUB DUP8 DUP2 AND PUSH1 0x4 DUP4 ADD MSTORE PUSH1 0x24 DUP3 ADD DUP6 SWAP1 MSTORE SWAP1 SWAP2 AND SWAP1 PUSH4 0xA9059CBB SWAP1 PUSH1 0x44 ADD PUSH1 0x20 PUSH1 0x40 MLOAD DUP1 DUP4 SUB DUP2 PUSH1 0x0 DUP8 DUP1 EXTCODESIZE ISZERO DUP1 ISZERO PUSH2 0x66D JUMPI PUSH1 0x0 DUP1 REVERT JUMPDEST POP GAS CALL ISZERO DUP1 ISZERO PUSH2 0x681 JUMPI RETURNDATASIZE PUSH1 0x0 DUP1 RETURNDATACOPY RETURNDATASIZE PUSH1 0x0 REVERT JUMPDEST POP POP POP POP PUSH1 0x40 MLOAD RETURNDATASIZE PUSH1 0x1F NOT PUSH1 0x1F DUP3 ADD AND DUP3 ADD DUP1 PUSH1 0x40 MSTORE POP DUP2 ADD SWAP1 PUSH2 0x6A5 SWAP2 SWAP1 PUSH2 0xED2 JUMP JUMPDEST PUSH2 0x6F1 JUMPI PUSH1 0x40 MLOAD PUSH3 0x461BCD PUSH1 0xE5 SHL DUP2 MSTORE PUSH1 0x20 PUSH1 0x4 DUP3 ADD MSTORE PUSH1 0x1E PUSH1 0x24 DUP3 ADD MSTORE PUSH32 0x56455354494E474255434B45543A207472616E73666572206661696C65640000 PUSH1 0x44 DUP3 ADD MSTORE PUSH1 0x64 ADD PUSH2 0x456 JUMP JUMPDEST DUP4 SLOAD PUSH1 0x40 MLOAD DUP4 DUP2 MSTORE PUSH1 0x1 PUSH1 0x1 PUSH1 0xA0 SHL SUB SWAP1 SWAP2 AND SWAP1 PUSH32 0x394A4E97A8193F113CCE457FC16CABC66FF1A10C478CDAB3B82E5CC57C67BBF9 SWAP1 PUSH1 0x20 ADD PUSH1 0x40 MLOAD DUP1 SWAP2 SUB SWAP1 LOG2 DUP2 DUP5 PUSH1 0x3 ADD PUSH1 0x0 DUP3 DUP3 SLOAD PUSH2 0x746 SWAP2 SWAP1 PUSH2 0x1134 JUMP JUMPDEST SWAP3 POP POP DUP2 SWAP1 SSTORE POP DUP2 PUSH1 0x8 PUSH1 0x0 DUP3 DUP3 SLOAD PUSH2 0x75F SWAP2 SWAP1 PUSH2 0x1134 JUMP JUMPDEST SWAP1 SWAP2 SSTORE POP POP POP POP POP POP POP JUMP JUMPDEST PUSH1 0x1 SLOAD PUSH1 0x1 PUSH1 0x1 PUSH1 0xA0 SHL SUB AND CALLER EQ DUP1 PUSH2 0x78E JUMPI POP PUSH1 0x0 SLOAD PUSH1 0x1 PUSH1 0x1 PUSH1 0xA0 SHL SUB AND CALLER EQ JUMPDEST PUSH2 0x7AA JUMPI PUSH1 0x40 MLOAD PUSH3 0x461BCD PUSH1 0xE5 SHL DUP2 MSTORE PUSH1 0x4 ADD PUSH2 0x456 SWAP1 PUSH2 0x10E5 JUMP JUMPDEST PUSH1 0x3 SLOAD PUSH1 0x40 MLOAD PUSH4 0xA9059CBB PUSH1 0xE0 SHL DUP2 MSTORE CALLER PUSH1 0x4 DUP3 ADD MSTORE PUSH1 0x24 DUP2 ADD DUP4 SWAP1 MSTORE PUSH1 0x0 SWAP2 PUSH1 0x1 PUSH1 0x1 PUSH1 0xA0 SHL SUB AND SWAP1 PUSH4 0xA9059CBB SWAP1 PUSH1 0x44 ADD PUSH1 0x20 PUSH1 0x40 MLOAD DUP1 DUP4 SUB DUP2 PUSH1 0x0 DUP8 DUP1 EXTCODESIZE ISZERO DUP1 ISZERO PUSH2 0x7F7 JUMPI PUSH1 0x0 DUP1 REVERT JUMPDEST POP GAS CALL ISZERO DUP1 ISZERO PUSH2 0x80B JUMPI RETURNDATASIZE PUSH1 0x0 DUP1 RETURNDATACOPY RETURNDATASIZE PUSH1 0x0 REVERT JUMPDEST POP POP POP POP PUSH1 0x40 MLOAD RETURNDATASIZE PUSH1 0x1F NOT PUSH1 0x1F DUP3 ADD AND DUP3 ADD DUP1 PUSH1 0x40 MSTORE POP DUP2 ADD SWAP1 PUSH2 0x82F SWAP2 SWAP1 PUSH2 0xED2 JUMP JUMPDEST SWAP1 POP DUP1 PUSH2 0x88A JUMPI PUSH1 0x40 MLOAD PUSH3 0x461BCD PUSH1 0xE5 SHL DUP2 MSTORE PUSH1 0x20 PUSH1 0x4 DUP3 ADD MSTORE PUSH1 0x23 PUSH1 0x24 DUP3 ADD MSTORE PUSH32 0x56455354494E474255434B45543A2077697468647261774F776E657220666169 PUSH1 0x44 DUP3 ADD MSTORE PUSH3 0x1B1959 PUSH1 0xEA SHL PUSH1 0x64 DUP3 ADD MSTORE PUSH1 0x84 ADD PUSH2 0x456 JUMP JUMPDEST PUSH1 0x40 MLOAD DUP3 DUP2 MSTORE PUSH32 0x87407F8CB494A98D977328908B1FF2A7E0B5A79C3CCC705B5C8569533631D59E SWAP1 PUSH1 0x20 ADD PUSH1 0x40 MLOAD DUP1 SWAP2 SUB SWAP1 LOG1 POP POP JUMP JUMPDEST PUSH1 0x1 SLOAD PUSH1 0x1 PUSH1 0x1 PUSH1 0xA0 SHL SUB AND CALLER EQ DUP1 PUSH2 0x8E4 JUMPI POP PUSH1 0x0 SLOAD PUSH1 0x1 PUSH1 0x1 PUSH1 0xA0 SHL SUB AND CALLER EQ JUMPDEST PUSH2 0x900 JUMPI PUSH1 0x40 MLOAD PUSH3 0x461BCD PUSH1 0xE5 SHL DUP2 MSTORE PUSH1 0x4 ADD PUSH2 0x456 SWAP1 PUSH2 0x10E5 JUMP JUMPDEST PUSH1 0x0 JUMPDEST PUSH1 0x6 SLOAD DUP2 LT ISZERO PUSH2 0x955 JUMPI PUSH1 0x0 PUSH1 0x6 DUP3 DUP2 SLOAD DUP2 LT PUSH2 0x922 JUMPI PUSH2 0x922 PUSH2 0x11F1 JUMP JUMPDEST PUSH1 0x0 SWAP2 DUP3 MSTORE PUSH1 0x20 SWAP1 SWAP2 KECCAK256 ADD SLOAD PUSH1 0x1 PUSH1 0x1 PUSH1 0xA0 SHL SUB AND SWAP1 POP PUSH2 0x942 DUP2 PUSH2 0x3B2 JUMP JUMPDEST POP DUP1 PUSH2 0x94D DUP2 PUSH2 0x11C0 JUMP JUMPDEST SWAP2 POP POP PUSH2 0x903 JUMP JUMPDEST POP JUMP JUMPDEST PUSH1 0x9 SLOAD PUSH1 0xD SLOAD PUSH1 0x40 DUP4 DUP2 ADD MLOAD PUSH1 0x20 DUP6 ADD MLOAD SWAP2 MLOAD PUSH4 0x6BC18E95 PUSH1 0xE0 SHL DUP2 MSTORE TIMESTAMP PUSH1 0x4 DUP3 ADD DUP2 SWAP1 MSTORE PUSH1 0x24 DUP3 ADD SWAP6 SWAP1 SWAP6 MSTORE PUSH1 0x44 DUP2 ADD SWAP4 SWAP1 SWAP4 MSTORE PUSH1 0x64 DUP4 ADD MSTORE PUSH1 0x84 DUP3 ADD MSTORE PUSH1 0x0 SWAP2 SWAP1 PUSH20 0x0 SWAP1 PUSH4 0x6BC18E95 SWAP1 PUSH1 0xA4 ADD PUSH1 0x20 PUSH1 0x40 MLOAD DUP1 DUP4 SUB DUP2 DUP7 DUP1 EXTCODESIZE ISZERO DUP1 ISZERO PUSH2 0x9D2 JUMPI PUSH1 0x0 DUP1 REVERT JUMPDEST POP GAS DELEGATECALL ISZERO DUP1 ISZERO PUSH2 0x9E6 JUMPI RETURNDATASIZE PUSH1 0x0 DUP1 RETURNDATACOPY RETURNDATASIZE PUSH1 0x0 REVERT JUMPDEST POP POP POP POP PUSH1 0x40 MLOAD RETURNDATASIZE PUSH1 0x1F NOT PUSH1 0x1F DUP3 ADD AND DUP3 ADD DUP1 PUSH1 0x40 MSTORE POP DUP2 ADD SWAP1 PUSH2 0xA0A SWAP2 SWAP1 PUSH2 0x1034 JUMP JUMPDEST SWAP4 SWAP3 POP POP POP JUMP JUMPDEST CALLER PUSH2 0xA24 PUSH1 0x0 SLOAD PUSH1 0x1 PUSH1 0x1 PUSH1 0xA0 SHL SUB AND SWAP1 JUMP JUMPDEST PUSH1 0x1 PUSH1 0x1 PUSH1 0xA0 SHL SUB AND EQ PUSH2 0xA4A JUMPI PUSH1 0x40 MLOAD PUSH3 0x461BCD PUSH1 0xE5 SHL DUP2 MSTORE PUSH1 0x4 ADD PUSH2 0x456 SWAP1 PUSH2 0x10A2 JUMP JUMPDEST PUSH1 0x1 DUP1 SLOAD PUSH1 0x1 PUSH1 0x1 PUSH1 0xA0 SHL SUB NOT AND PUSH1 0x1 PUSH1 0x1 PUSH1 0xA0 SHL SUB SWAP3 SWAP1 SWAP3 AND SWAP2 SWAP1 SWAP2 OR SWAP1 SSTORE JUMP JUMPDEST CALLER PUSH2 0xA7F PUSH1 0x0 SLOAD PUSH1 0x1 PUSH1 0x1 PUSH1 0xA0 SHL SUB AND SWAP1 JUMP JUMPDEST PUSH1 0x1 PUSH1 0x1 PUSH1 0xA0 SHL SUB AND EQ PUSH2 0xAA5 JUMPI PUSH1 0x40 MLOAD PUSH3 0x461BCD PUSH1 0xE5 SHL DUP2 MSTORE PUSH1 0x4 ADD PUSH2 0x456 SWAP1 PUSH2 0x10A2 JUMP JUMPDEST DUP1 MLOAD PUSH2 0xAB8 SWAP1 PUSH1 0x2 SWAP1 PUSH1 0x20 DUP5 ADD SWAP1 PUSH2 0xDD8 JUMP JUMPDEST POP POP JUMP JUMPDEST PUSH1 0x6 DUP2 DUP2 SLOAD DUP2 LT PUSH2 0xACC JUMPI PUSH1 0x0 DUP1 REVERT JUMPDEST PUSH1 0x0 SWAP2 DUP3 MSTORE PUSH1 0x20 SWAP1 SWAP2 KECCAK256 ADD SLOAD PUSH1 0x1 PUSH1 0x1 PUSH1 0xA0 SHL SUB AND SWAP1 POP DUP2 JUMP JUMPDEST PUSH1 0x1 PUSH1 0x1 PUSH1 0xA0 SHL SUB DUP1 DUP3 AND PUSH1 0x0 SWAP1 DUP2 MSTORE PUSH1 0x5 PUSH1 0x20 SWAP1 DUP2 MSTORE PUSH1 0x40 DUP1 DUP4 KECCAK256 DUP2 MLOAD PUSH1 0xA0 DUP2 ADD DUP4 MSTORE DUP2 SLOAD SWAP1 SWAP6 AND DUP6 MSTORE PUSH1 0x1 DUP2 ADD SLOAD SWAP3 DUP6 ADD SWAP3 SWAP1 SWAP3 MSTORE PUSH1 0x2 DUP3 ADD SLOAD SWAP1 DUP5 ADD MSTORE PUSH1 0x3 DUP2 ADD SLOAD PUSH1 0x60 DUP5 ADD MSTORE PUSH1 0x4 ADD SLOAD PUSH1 0xFF AND ISZERO ISZERO PUSH1 0x80 DUP4 ADD MSTORE SWAP1 DUP2 PUSH2 0xB49 DUP3 PUSH2 0x958 JUMP JUMPDEST SWAP5 SWAP4 POP POP POP POP JUMP JUMPDEST PUSH1 0x1 SLOAD PUSH1 0x1 PUSH1 0x1 PUSH1 0xA0 SHL SUB AND CALLER EQ DUP1 PUSH2 0xB74 JUMPI POP PUSH1 0x0 SLOAD PUSH1 0x1 PUSH1 0x1 PUSH1 0xA0 SHL SUB AND CALLER EQ JUMPDEST PUSH2 0xB90 JUMPI PUSH1 0x40 MLOAD PUSH3 0x461BCD PUSH1 0xE5 SHL DUP2 MSTORE PUSH1 0x4 ADD PUSH2 0x456 SWAP1 PUSH2 0x10E5 JUMP JUMPDEST PUSH1 0x1 PUSH1 0x1 PUSH1 0xA0 SHL SUB DUP3 AND PUSH1 0x0 SWAP1 DUP2 MSTORE PUSH1 0x5 PUSH1 0x20 MSTORE PUSH1 0x40 SWAP1 KECCAK256 PUSH1 0x4 ADD SLOAD PUSH1 0xFF AND ISZERO PUSH2 0xC18 JUMPI PUSH1 0x40 MLOAD PUSH3 0x461BCD PUSH1 0xE5 SHL DUP2 MSTORE PUSH1 0x20 PUSH1 0x4 DUP3 ADD MSTORE PUSH1 0x33 PUSH1 0x24 DUP3 ADD MSTORE PUSH32 0x56455354494E474255434B45543A20636C61696D206174207468697320616464 PUSH1 0x44 DUP3 ADD MSTORE PUSH19 0x7265737320616C726561647920657869737473 PUSH1 0x68 SHL PUSH1 0x64 DUP3 ADD MSTORE PUSH1 0x84 ADD PUSH2 0x456 JUMP JUMPDEST PUSH1 0x0 DUP2 GT PUSH2 0xC74 JUMPI PUSH1 0x40 MLOAD PUSH3 0x461BCD PUSH1 0xE5 SHL DUP2 MSTORE PUSH1 0x20 PUSH1 0x4 DUP3 ADD MSTORE PUSH1 0x24 DUP1 DUP3 ADD MSTORE PUSH32 0x56455354494E474255434B45543A20636C61696D2063616E206E6F7420626520 PUSH1 0x44 DUP3 ADD MSTORE PUSH4 0x7A65726F PUSH1 0xE0 SHL PUSH1 0x64 DUP3 ADD MSTORE PUSH1 0x84 ADD PUSH2 0x456 JUMP JUMPDEST PUSH1 0xB SLOAD DUP2 PUSH1 0x7 SLOAD PUSH2 0xC85 SWAP2 SWAP1 PUSH2 0x1134 JUMP JUMPDEST GT ISZERO PUSH2 0xCE8 JUMPI PUSH1 0x40 MLOAD PUSH3 0x461BCD PUSH1 0xE5 SHL DUP2 MSTORE PUSH1 0x20 PUSH1 0x4 DUP3 ADD MSTORE PUSH1 0x2C PUSH1 0x24 DUP3 ADD MSTORE PUSH32 0x56455354494E474255434B45543A2063616E206E6F7420636C61696D206D6F72 PUSH1 0x44 DUP3 ADD MSTORE PUSH12 0x19481D1A185B881D1BDD185B PUSH1 0xA2 SHL PUSH1 0x64 DUP3 ADD MSTORE PUSH1 0x84 ADD PUSH2 0x456 JUMP JUMPDEST PUSH1 0x0 PUSH1 0xA SLOAD DUP3 PUSH2 0xCF8 SWAP2 SWAP1 PUSH2 0x114C JUMP JUMPDEST PUSH1 0x40 DUP1 MLOAD PUSH1 0xA0 DUP2 ADD DUP3 MSTORE PUSH1 0x1 PUSH1 0x1 PUSH1 0xA0 SHL SUB DUP1 DUP8 AND DUP1 DUP4 MSTORE PUSH1 0x20 DUP1 DUP5 ADD DUP9 DUP2 MSTORE DUP5 DUP7 ADD DUP8 DUP2 MSTORE PUSH1 0x0 PUSH1 0x60 DUP8 ADD DUP2 DUP2 MSTORE PUSH1 0x1 PUSH1 0x80 DUP10 ADD DUP2 DUP2 MSTORE DUP8 DUP5 MSTORE PUSH1 0x5 SWAP1 SWAP7 MSTORE SWAP9 DUP3 KECCAK256 SWAP8 MLOAD DUP9 SLOAD SWAP8 AND PUSH1 0x1 PUSH1 0x1 PUSH1 0xA0 SHL SUB NOT SWAP8 DUP9 AND OR DUP9 SSTORE SWAP3 MLOAD DUP8 DUP10 ADD SSTORE SWAP1 MLOAD PUSH1 0x2 DUP8 ADD SSTORE SWAP1 MLOAD PUSH1 0x3 DUP7 ADD SSTORE SWAP1 MLOAD PUSH1 0x4 SWAP1 SWAP5 ADD DUP1 SLOAD SWAP5 ISZERO ISZERO PUSH1 0xFF NOT SWAP1 SWAP6 AND SWAP5 SWAP1 SWAP5 OR SWAP1 SWAP4 SSTORE PUSH1 0x6 DUP1 SLOAD SWAP5 DUP6 ADD DUP2 SSTORE DUP4 MSTORE PUSH32 0xF652222313E28459528D920B65115C16C04F3EFC82AAEDC97BE59F3F377C0D3F SWAP1 SWAP4 ADD DUP1 SLOAD SWAP1 SWAP2 AND SWAP1 SWAP3 OR SWAP1 SWAP2 SSTORE PUSH1 0x7 DUP1 SLOAD SWAP3 SWAP4 POP DUP5 SWAP3 SWAP1 SWAP2 SWAP1 PUSH2 0xDCE SWAP1 DUP5 SWAP1 PUSH2 0x1134 JUMP JUMPDEST SWAP1 SWAP2 SSTORE POP POP POP POP POP JUMP JUMPDEST DUP3 DUP1 SLOAD PUSH2 0xDE4 SWAP1 PUSH2 0x1185 JUMP JUMPDEST SWAP1 PUSH1 0x0 MSTORE PUSH1 0x20 PUSH1 0x0 KECCAK256 SWAP1 PUSH1 0x1F ADD PUSH1 0x20 SWAP1 DIV DUP2 ADD SWAP3 DUP3 PUSH2 0xE06 JUMPI PUSH1 0x0 DUP6 SSTORE PUSH2 0xE4C JUMP JUMPDEST DUP3 PUSH1 0x1F LT PUSH2 0xE1F JUMPI DUP1 MLOAD PUSH1 0xFF NOT AND DUP4 DUP1 ADD OR DUP6 SSTORE PUSH2 0xE4C JUMP JUMPDEST DUP3 DUP1 ADD PUSH1 0x1 ADD DUP6 SSTORE DUP3 ISZERO PUSH2 0xE4C JUMPI SWAP2 DUP3 ADD JUMPDEST DUP3 DUP2 GT ISZERO PUSH2 0xE4C JUMPI DUP3 MLOAD DUP3 SSTORE SWAP2 PUSH1 0x20 ADD SWAP2 SWAP1 PUSH1 0x1 ADD SWAP1 PUSH2 0xE31 JUMP JUMPDEST POP PUSH2 0xE58 SWAP3 SWAP2 POP PUSH2 0xE5C JUMP JUMPDEST POP SWAP1 JUMP JUMPDEST JUMPDEST DUP1 DUP3 GT ISZERO PUSH2 0xE58 JUMPI PUSH1 0x0 DUP2 SSTORE PUSH1 0x1 ADD PUSH2 0xE5D JUMP JUMPDEST DUP1 CALLDATALOAD PUSH1 0x1 PUSH1 0x1 PUSH1 0xA0 SHL SUB DUP2 AND DUP2 EQ PUSH2 0xE88 JUMPI PUSH1 0x0 DUP1 REVERT JUMPDEST SWAP2 SWAP1 POP JUMP JUMPDEST PUSH1 0x0 PUSH1 0x20 DUP3 DUP5 SUB SLT ISZERO PUSH2 0xE9F JUMPI PUSH1 0x0 DUP1 REVERT JUMPDEST PUSH2 0xA0A DUP3 PUSH2 0xE71 JUMP JUMPDEST PUSH1 0x0 DUP1 PUSH1 0x40 DUP4 DUP6 SUB SLT ISZERO PUSH2 0xEBB JUMPI PUSH1 0x0 DUP1 REVERT JUMPDEST PUSH2 0xEC4 DUP4 PUSH2 0xE71 JUMP JUMPDEST SWAP5 PUSH1 0x20 SWAP4 SWAP1 SWAP4 ADD CALLDATALOAD SWAP4 POP POP POP JUMP JUMPDEST PUSH1 0x0 PUSH1 0x20 DUP3 DUP5 SUB SLT ISZERO PUSH2 0xEE4 JUMPI PUSH1 0x0 DUP1 REVERT JUMPDEST DUP2 MLOAD PUSH2 0xA0A DUP2 PUSH2 0x121D JUMP JUMPDEST PUSH1 0x0 PUSH1 0x20 DUP3 DUP5 SUB SLT ISZERO PUSH2 0xF01 JUMPI PUSH1 0x0 DUP1 REVERT JUMPDEST DUP2 CALLDATALOAD PUSH8 0xFFFFFFFFFFFFFFFF DUP1 DUP3 GT ISZERO PUSH2 0xF19 JUMPI PUSH1 0x0 DUP1 REVERT JUMPDEST DUP2 DUP5 ADD SWAP2 POP DUP5 PUSH1 0x1F DUP4 ADD SLT PUSH2 0xF2D JUMPI PUSH1 0x0 DUP1 REVERT JUMPDEST DUP2 CALLDATALOAD DUP2 DUP2 GT ISZERO PUSH2 0xF3F JUMPI PUSH2 0xF3F PUSH2 0x1207 JUMP JUMPDEST PUSH1 0x40 MLOAD PUSH1 0x1F DUP3 ADD PUSH1 0x1F NOT SWAP1 DUP2 AND PUSH1 0x3F ADD AND DUP2 ADD SWAP1 DUP4 DUP3 GT DUP2 DUP4 LT OR ISZERO PUSH2 0xF67 JUMPI PUSH2 0xF67 PUSH2 0x1207 JUMP JUMPDEST DUP2 PUSH1 0x40 MSTORE DUP3 DUP2 MSTORE DUP8 PUSH1 0x20 DUP5 DUP8 ADD ADD GT ISZERO PUSH2 0xF80 JUMPI PUSH1 0x0 DUP1 REVERT JUMPDEST DUP3 PUSH1 0x20 DUP7 ADD PUSH1 0x20 DUP4 ADD CALLDATACOPY PUSH1 0x0 SWAP3 DUP2 ADD PUSH1 0x20 ADD SWAP3 SWAP1 SWAP3 MSTORE POP SWAP6 SWAP5 POP POP POP POP POP JUMP JUMPDEST PUSH1 0x0 PUSH1 0xA0 DUP3 DUP5 SUB SLT ISZERO PUSH2 0xFB2 JUMPI PUSH1 0x0 DUP1 REVERT JUMPDEST PUSH1 0x40 MLOAD PUSH1 0xA0 DUP2 ADD DUP2 DUP2 LT PUSH8 0xFFFFFFFFFFFFFFFF DUP3 GT OR ISZERO PUSH2 0xFD5 JUMPI PUSH2 0xFD5 PUSH2 0x1207 JUMP JUMPDEST PUSH1 0x40 MSTORE PUSH2 0xFE1 DUP4 PUSH2 0xE71 JUMP JUMPDEST DUP2 MSTORE PUSH1 0x20 DUP4 ADD CALLDATALOAD PUSH1 0x20 DUP3 ADD MSTORE PUSH1 0x40 DUP4 ADD CALLDATALOAD PUSH1 0x40 DUP3 ADD MSTORE PUSH1 0x60 DUP4 ADD CALLDATALOAD PUSH1 0x60 DUP3 ADD MSTORE PUSH1 0x80 DUP4 ADD CALLDATALOAD PUSH2 0x100F DUP2 PUSH2 0x121D JUMP JUMPDEST PUSH1 0x80 DUP3 ADD MSTORE SWAP4 SWAP3 POP POP POP JUMP JUMPDEST PUSH1 0x0 PUSH1 0x20 DUP3 DUP5 SUB SLT ISZERO PUSH2 0x102D JUMPI PUSH1 0x0 DUP1 REVERT JUMPDEST POP CALLDATALOAD SWAP2 SWAP1 POP JUMP JUMPDEST PUSH1 0x0 PUSH1 0x20 DUP3 DUP5 SUB SLT ISZERO PUSH2 0x1046 JUMPI PUSH1 0x0 DUP1 REVERT JUMPDEST POP MLOAD SWAP2 SWAP1 POP JUMP JUMPDEST PUSH1 0x0 PUSH1 0x20 DUP1 DUP4 MSTORE DUP4 MLOAD DUP1 DUP3 DUP6 ADD MSTORE PUSH1 0x0 JUMPDEST DUP2 DUP2 LT ISZERO PUSH2 0x107A JUMPI DUP6 DUP2 ADD DUP4 ADD MLOAD DUP6 DUP3 ADD PUSH1 0x40 ADD MSTORE DUP3 ADD PUSH2 0x105E JUMP JUMPDEST DUP2 DUP2 GT ISZERO PUSH2 0x108C JUMPI PUSH1 0x0 PUSH1 0x40 DUP4 DUP8 ADD ADD MSTORE JUMPDEST POP PUSH1 0x1F ADD PUSH1 0x1F NOT AND SWAP3 SWAP1 SWAP3 ADD PUSH1 0x40 ADD SWAP4 SWAP3 POP POP POP JUMP JUMPDEST PUSH1 0x20 DUP1 DUP3 MSTORE PUSH1 0x23 SWAP1 DUP3 ADD MSTORE PUSH32 0x5265664F776E61626C653A2063616C6C6572206973206E6F7420746865206F77 PUSH1 0x40 DUP3 ADD MSTORE PUSH3 0x3732B9 PUSH1 0xE9 SHL PUSH1 0x60 DUP3 ADD MSTORE PUSH1 0x80 ADD SWAP1 JUMP JUMPDEST PUSH1 0x20 DUP1 DUP3 MSTORE PUSH1 0x2F SWAP1 DUP3 ADD MSTORE PUSH32 0x5265664F776E61626C653A2063616C6C6572206973206E6F7420746865206F77 PUSH1 0x40 DUP3 ADD MSTORE PUSH15 0x3732B91037B9103932B337BBB732B9 PUSH1 0x89 SHL PUSH1 0x60 DUP3 ADD MSTORE PUSH1 0x80 ADD SWAP1 JUMP JUMPDEST PUSH1 0x0 DUP3 NOT DUP3 GT ISZERO PUSH2 0x1147 JUMPI PUSH2 0x1147 PUSH2 0x11DB JUMP JUMPDEST POP ADD SWAP1 JUMP JUMPDEST PUSH1 0x0 DUP3 PUSH2 0x1169 JUMPI PUSH4 0x4E487B71 PUSH1 0xE0 SHL PUSH1 0x0 MSTORE PUSH1 0x12 PUSH1 0x4 MSTORE PUSH1 0x24 PUSH1 0x0 REVERT JUMPDEST POP DIV SWAP1 JUMP JUMPDEST PUSH1 0x0 DUP3 DUP3 LT ISZERO PUSH2 0x1180 JUMPI PUSH2 0x1180 PUSH2 0x11DB JUMP JUMPDEST POP SUB SWAP1 JUMP JUMPDEST PUSH1 0x1 DUP2 DUP2 SHR SWAP1 DUP3 AND DUP1 PUSH2 0x1199 JUMPI PUSH1 0x7F DUP3 AND SWAP2 POP JUMPDEST PUSH1 0x20 DUP3 LT DUP2 EQ ISZERO PUSH2 0x11BA JUMPI PUSH4 0x4E487B71 PUSH1 0xE0 SHL PUSH1 0x0 MSTORE PUSH1 0x22 PUSH1 0x4 MSTORE PUSH1 0x24 PUSH1 0x0 REVERT JUMPDEST POP SWAP2 SWAP1 POP JUMP JUMPDEST PUSH1 0x0 PUSH1 0x0 NOT DUP3 EQ ISZERO PUSH2 0x11D4 JUMPI PUSH2 0x11D4 PUSH2 0x11DB JUMP JUMPDEST POP PUSH1 0x1 ADD SWAP1 JUMP JUMPDEST PUSH4 0x4E487B71 PUSH1 0xE0 SHL PUSH1 0x0 MSTORE PUSH1 0x11 PUSH1 0x4 MSTORE PUSH1 0x24 PUSH1 0x0 REVERT JUMPDEST PUSH4 0x4E487B71 PUSH1 0xE0 SHL PUSH1 0x0 MSTORE PUSH1 0x32 PUSH1 0x4 MSTORE PUSH1 0x24 PUSH1 0x0 REVERT JUMPDEST PUSH4 0x4E487B71 PUSH1 0xE0 SHL PUSH1 0x0 MSTORE PUSH1 0x41 PUSH1 0x4 MSTORE PUSH1 0x24 PUSH1 0x0 REVERT JUMPDEST DUP1 ISZERO ISZERO DUP2 EQ PUSH2 0x955 JUMPI PUSH1 0x0 DUP1 REVERT INVALID LOG2 PUSH5 0x6970667358 0x22 SLT KECCAK256 DELEGATECALL SWAP7 DUP3 MSTORE 0xAE 0x2B INVALID 0xF9 PUSH27 0xDE96D85EB4B6F3AC496B4F9417F86B43FD0FE4F71E9B5464736F6C PUSH4 0x43000805 STOP CALLER ",
  "sha1": "44e4345c682ffb49c30a01c4b9dfbe1d78f050a8",
  "source": "// // SPDX-License-Identifier: MIT\npragma solidity ^0.8.5;\n\nimport \"./AbstractBucket.sol\";\nimport \"./Ownable.sol\";\nimport \"./VegaToken.sol\";\nimport \"./VestingMath.sol\";\n\n//bucket with vesting of multiple addresses\n//claims and\n//claim addresses have claims towards the bucket\n//vesting in equal parts per time\n//e.g. 6 months, 1/6 equal\ncontract VestingBucket is AbstractBucket {\n    //a claim towards this bucket by an addreess\n    struct Claim {\n        address claimAddress;\n        uint256 claimTotalAmount;\n        uint256 amountPerPeriod;\n        uint256 withdrawnAmount;\n        bool isAdded;\n    }\n\n    mapping(address => Claim) public claims;\n    address[] public claimAddresses;\n    uint256 public totalClaimAmount;\n    uint256 public totalWithdrawnAmount;\n\n    //unix time when vesting starts\n    uint256 public cliffTime;\n    //how many periods .the number of months not the number of the final month\n    uint256 public numPeriods;\n    //how much in total is vested\n    uint256 public totalAmount;\n    // calculated\n    //how much per period. since its linear this is calculated\n    uint256 public bucketAmountPerPeriod;\n    uint256 public endTime;\n\n    //TODO deposit\n    //event DepositOwner(address indexed addr, uint256 amount);\n    event WithdrawClaim(address indexed addr, uint256 amount);\n    event WithdrawOwner(uint256 amount);\n\n    constructor(\n        address _VEGA_TOKEN_ADDRESS,\n        uint256 _cliffTime,\n        uint256 _numPeriods,\n        uint256 _totalAmount\n    ) AbstractBucket(_VEGA_TOKEN_ADDRESS) {\n        require(\n            _cliffTime >= block.timestamp,\n            \"VESTINGBUCKET cliff must be in the future\"\n        );\n        cliffTime = _cliffTime;\n        numPeriods = _numPeriods;\n        totalAmount = _totalAmount;\n\n        bucketAmountPerPeriod = totalAmount / numPeriods;\n        endTime = VestingMath.getEndTime(\n            _cliffTime,\n            bucketAmountPerPeriod,\n            _totalAmount\n        );\n\n        totalWithdrawnAmount = 0;\n        totalClaimAmount = 0;\n    }\n\n    //linear vesting claim\n    function addClaim(address _claimAddress, uint256 _claimTotalAmount)\n        public\n        onlyRefOwner\n    {\n        if (claims[_claimAddress].isAdded)\n            revert(\"VESTINGBUCKET: claim at this address already exists\");\n\n        require(_claimTotalAmount > 0, \"VESTINGBUCKET: claim can not be zero\");\n\n        require(\n            totalClaimAmount + _claimTotalAmount <= totalAmount,\n            \"VESTINGBUCKET: can not claim more than total\"\n        );\n\n        //TODO! add prechecks\n\n        uint256 amountPerPeriod = _claimTotalAmount / numPeriods;\n\n        claims[_claimAddress] = Claim({\n            claimAddress: _claimAddress,\n            amountPerPeriod: amountPerPeriod,\n            claimTotalAmount: _claimTotalAmount,\n            withdrawnAmount: 0,\n            isAdded: true\n        });\n\n        claimAddresses.push(_claimAddress);\n        totalClaimAmount += _claimTotalAmount;\n        //amountPerPeriod: amountPerPeriod\n    }\n\n    function getVestedAmount(Claim memory claim) public view returns (uint256) {\n        uint256 blocktime = block.timestamp;\n        return\n            VestingMath.getVestedAmount(\n                blocktime,\n                cliffTime,\n                endTime,\n                claim.amountPerPeriod,\n                claim.claimTotalAmount\n            );\n    }\n\n    function getVestableAmount(address _claimAddress)\n        public\n        view\n        returns (uint256)\n    {\n        Claim memory claim = claims[_claimAddress];\n        uint256 vestableAmount = getVestedAmount(claim);\n        return vestableAmount;\n    }\n\n    //vest the claim. this vests the maximum possible\n    function vestClaimMax(address _claimAddress) public {\n        require(\n            msg.sender == _claimAddress ||\n                msg.sender == owner() ||\n                msg.sender == refOwner(),\n            \"VESTINGBUCKET: can only call from claimaddress or owner\"\n        );\n\n        if (!claims[_claimAddress].isAdded)\n            revert(\"VESTINGBUCKET: claim does not exist\");\n\n        Claim storage claim = claims[_claimAddress];\n\n        uint256 vestableAmount = getVestedAmount(claim);\n\n        uint256 withdrawAmount = vestableAmount - claim.withdrawnAmount;\n        uint256 totalAfterwithdraw = claim.withdrawnAmount + withdrawAmount;\n        require(\n            totalAfterwithdraw <= claim.claimTotalAmount,\n            \"VESTINGBUCKET: can not withdraw more than total\"\n        );\n\n        require(withdrawAmount > 0, \"VESTINGBUCKET: no amount claimed\");\n\n        //edge case is handled in vesting math\n        //  if (vestingSchedule.totalWithdrawnAmount + withdrawableAmount > vestingSchedule.totalAmount) {\n        //   withdrawableAmount = vestingSchedule.totalAmount - vestingSchedule.totalWithdrawnAmount;\n        // }\n\n        require(\n            vega_token.transfer(_claimAddress, withdrawAmount),\n            \"VESTINGBUCKET: transfer failed\"\n        );\n        emit WithdrawClaim(claim.claimAddress, withdrawAmount);\n        claim.withdrawnAmount += withdrawAmount;\n        totalWithdrawnAmount += withdrawAmount;\n    }\n\n    //owner calls all claims\n    function allClaim() public onlyRefOwner {\n        //for every claim\n        uint256 i = 0;\n        for (i = 0; i < claimAddresses.length; i++) {\n            address ca = claimAddresses[i];\n            vestClaimMax(ca);\n            //uint256 vestableAmount = getVestedAmount(claim);\n            //total += vestableAmount;\n        }\n    }\n\n    //allow withdraws which are not claimed\n    function withdrawOwner(uint256 amount) public onlyRefOwner {\n        //todo: could add check against existing claims\n        bool transferSuccess = vega_token.transfer(msg.sender, amount);\n        require(transferSuccess, \"VESTINGBUCKET: withdrawOwner failed\");\n        emit WithdrawOwner(amount);\n    }\n\n    //pro forma functions\n\n    //remove claim is not implemented, if there is issues need to use new address\n    // function removeClaim(address _claimAddress) public onlyRefOwner {\n    //     claims[_claimAddress] = zero\n    //     numClaims -= 1;\n    // }\n\n    // function depositOwner(uint256 amount) public onlyOwner {\n    //     //require(approve)\n    //     bool transferSuccess = vega_token.transferFrom(\n    //         msg.sender,\n    //         address(this),\n    //         amount\n    //     );\n    //     require(transferSuccess, \"VESTINGBUCKET: deposit failed\");\n    //     emit DepositOwner(msg.sender, amount);\n    // }\n}\n",
  "sourcePath": "contracts/VestingBucket.sol",
  "type": "contract"
}