{
  "abi": [
    {
      "inputs": [],
      "name": "DEFAULT_PERIOD",
      "outputs": [
        {
          "internalType": "uint256",
          "name": "",
          "type": "uint256"
        }
      ],
      "stateMutability": "view",
      "type": "function"
    },
    {
      "inputs": [
        {
          "internalType": "uint256",
          "name": "a",
          "type": "uint256"
        },
        {
          "internalType": "uint256",
          "name": "m",
          "type": "uint256"
        }
      ],
      "name": "ceildiv",
      "outputs": [
        {
          "internalType": "uint256",
          "name": "",
          "type": "uint256"
        }
      ],
      "stateMutability": "pure",
      "type": "function"
    },
    {
      "inputs": [
        {
          "internalType": "uint256",
          "name": "_cliffTime",
          "type": "uint256"
        },
        {
          "internalType": "uint256",
          "name": "_amountPerPeriod",
          "type": "uint256"
        },
        {
          "internalType": "uint256",
          "name": "_totalAmount",
          "type": "uint256"
        },
        {
          "internalType": "uint256",
          "name": "_period",
          "type": "uint256"
        }
      ],
      "name": "getEndTime",
      "outputs": [
        {
          "internalType": "uint256",
          "name": "",
          "type": "uint256"
        }
      ],
      "stateMutability": "pure",
      "type": "function"
    },
    {
      "inputs": [
        {
          "internalType": "uint256",
          "name": "_cliffTime",
          "type": "uint256"
        },
        {
          "internalType": "uint256",
          "name": "_amountPerPeriod",
          "type": "uint256"
        },
        {
          "internalType": "uint256",
          "name": "_totalAmount",
          "type": "uint256"
        }
      ],
      "name": "getEndTime",
      "outputs": [
        {
          "internalType": "uint256",
          "name": "",
          "type": "uint256"
        }
      ],
      "stateMutability": "pure",
      "type": "function"
    },
    {
      "inputs": [
        {
          "internalType": "uint256",
          "name": "blocktime",
          "type": "uint256"
        },
        {
          "internalType": "uint256",
          "name": "cliffTime",
          "type": "uint256"
        },
        {
          "internalType": "uint256",
          "name": "endTime",
          "type": "uint256"
        },
        {
          "internalType": "uint256",
          "name": "amountPerPeriod",
          "type": "uint256"
        },
        {
          "internalType": "uint256",
          "name": "totalAmount",
          "type": "uint256"
        }
      ],
      "name": "getVestedAmount",
      "outputs": [
        {
          "internalType": "uint256",
          "name": "",
          "type": "uint256"
        }
      ],
      "stateMutability": "pure",
      "type": "function"
    }
  ],
  "bytecode": "61038061003a600b82828239805160001a60731461002d57634e487b7160e01b600052600060045260246000fd5b30600052607381538281f3fe73000000000000000000000000000000000000000030146080604052600436106100615760003560e01c80631d833d81146100665780636bc18e951461008b578063780e78931461009e578063a3bdbca2146100a8578063aad66172146100bb575b600080fd5b6100796100743660046101ed565b6100ce565b60405190815260200160405180910390f35b61007961009936600461026d565b610119565b61007962278d0081565b6100796100b636600461023b565b610136565b6100796100c936600461020f565b61015f565b6000806100db838561030a565b9050806100f4576100ec83856102c0565b915050610113565b826100ff82826102f3565b61010990866102a8565b6100ec91906102c0565b92915050565b600061012c868686868662278d00610178565b9695505050505050565b600061014283856100ce565b61014c90836102d4565b61015690866102a8565b95945050505050565b600061017084848462278d00610136565b949350505050565b600084871061018857508161012c565b858710156101985750600061012c565b60006101a487896102f3565b905060006101b284836102c0565b6101bd9060016102a8565b905060006101cb87836102d4565b9050858111156101e05785935050505061012c565b9998505050505050505050565b6000806040838503121561020057600080fd5b50508035926020909101359150565b60008060006060848603121561022457600080fd5b505081359360208301359350604090920135919050565b6000806000806080858703121561025157600080fd5b5050823594602084013594506040840135936060013592509050565b600080600080600060a0868803121561028557600080fd5b505083359560208501359550604085013594606081013594506080013592509050565b600082198211156102bb576102bb61031e565b500190565b6000826102cf576102cf610334565b500490565b60008160001904831182151516156102ee576102ee61031e565b500290565b6000828210156103055761030561031e565b500390565b60008261031957610319610334565b500690565b634e487b7160e01b600052601160045260246000fd5b634e487b7160e01b600052601260045260246000fdfea2646970667358221220f29e3e82323e83287ab32205ba72027f5a0ca91973204b80a7827a35c47386f364736f6c63430008050033",
  "bytecodeSha1": "494ac2d17348312269ed660aef73ecd4f09dc032",
  "compiler": {
    "evm_version": "istanbul",
    "optimizer": {
      "enabled": true,
      "runs": 200
    },
    "version": "0.8.5+commit.a4f2e591"
  },
  "contractName": "VestingMath",
  "language": "Solidity",
  "natspec": {
    "kind": "dev",
    "methods": {},
    "version": 1
  },
  "opcodes": "PUSH20 0x0 ADDRESS EQ PUSH1 0x80 PUSH1 0x40 MSTORE PUSH1 0x4 CALLDATASIZE LT PUSH2 0x61 JUMPI PUSH1 0x0 CALLDATALOAD PUSH1 0xE0 SHR DUP1 PUSH4 0x1D833D81 EQ PUSH2 0x66 JUMPI DUP1 PUSH4 0x6BC18E95 EQ PUSH2 0x8B JUMPI DUP1 PUSH4 0x780E7893 EQ PUSH2 0x9E JUMPI DUP1 PUSH4 0xA3BDBCA2 EQ PUSH2 0xA8 JUMPI DUP1 PUSH4 0xAAD66172 EQ PUSH2 0xBB JUMPI JUMPDEST PUSH1 0x0 DUP1 REVERT JUMPDEST PUSH2 0x79 PUSH2 0x74 CALLDATASIZE PUSH1 0x4 PUSH2 0x1ED JUMP JUMPDEST PUSH2 0xCE JUMP JUMPDEST PUSH1 0x40 MLOAD SWAP1 DUP2 MSTORE PUSH1 0x20 ADD PUSH1 0x40 MLOAD DUP1 SWAP2 SUB SWAP1 RETURN JUMPDEST PUSH2 0x79 PUSH2 0x99 CALLDATASIZE PUSH1 0x4 PUSH2 0x26D JUMP JUMPDEST PUSH2 0x119 JUMP JUMPDEST PUSH2 0x79 PUSH3 0x278D00 DUP2 JUMP JUMPDEST PUSH2 0x79 PUSH2 0xB6 CALLDATASIZE PUSH1 0x4 PUSH2 0x23B JUMP JUMPDEST PUSH2 0x136 JUMP JUMPDEST PUSH2 0x79 PUSH2 0xC9 CALLDATASIZE PUSH1 0x4 PUSH2 0x20F JUMP JUMPDEST PUSH2 0x15F JUMP JUMPDEST PUSH1 0x0 DUP1 PUSH2 0xDB DUP4 DUP6 PUSH2 0x30A JUMP JUMPDEST SWAP1 POP DUP1 PUSH2 0xF4 JUMPI PUSH2 0xEC DUP4 DUP6 PUSH2 0x2C0 JUMP JUMPDEST SWAP2 POP POP PUSH2 0x113 JUMP JUMPDEST DUP3 PUSH2 0xFF DUP3 DUP3 PUSH2 0x2F3 JUMP JUMPDEST PUSH2 0x109 SWAP1 DUP7 PUSH2 0x2A8 JUMP JUMPDEST PUSH2 0xEC SWAP2 SWAP1 PUSH2 0x2C0 JUMP JUMPDEST SWAP3 SWAP2 POP POP JUMP JUMPDEST PUSH1 0x0 PUSH2 0x12C DUP7 DUP7 DUP7 DUP7 DUP7 PUSH3 0x278D00 PUSH2 0x178 JUMP JUMPDEST SWAP7 SWAP6 POP POP POP POP POP POP JUMP JUMPDEST PUSH1 0x0 PUSH2 0x142 DUP4 DUP6 PUSH2 0xCE JUMP JUMPDEST PUSH2 0x14C SWAP1 DUP4 PUSH2 0x2D4 JUMP JUMPDEST PUSH2 0x156 SWAP1 DUP7 PUSH2 0x2A8 JUMP JUMPDEST SWAP6 SWAP5 POP POP POP POP POP JUMP JUMPDEST PUSH1 0x0 PUSH2 0x170 DUP5 DUP5 DUP5 PUSH3 0x278D00 PUSH2 0x136 JUMP JUMPDEST SWAP5 SWAP4 POP POP POP POP JUMP JUMPDEST PUSH1 0x0 DUP5 DUP8 LT PUSH2 0x188 JUMPI POP DUP2 PUSH2 0x12C JUMP JUMPDEST DUP6 DUP8 LT ISZERO PUSH2 0x198 JUMPI POP PUSH1 0x0 PUSH2 0x12C JUMP JUMPDEST PUSH1 0x0 PUSH2 0x1A4 DUP8 DUP10 PUSH2 0x2F3 JUMP JUMPDEST SWAP1 POP PUSH1 0x0 PUSH2 0x1B2 DUP5 DUP4 PUSH2 0x2C0 JUMP JUMPDEST PUSH2 0x1BD SWAP1 PUSH1 0x1 PUSH2 0x2A8 JUMP JUMPDEST SWAP1 POP PUSH1 0x0 PUSH2 0x1CB DUP8 DUP4 PUSH2 0x2D4 JUMP JUMPDEST SWAP1 POP DUP6 DUP2 GT ISZERO PUSH2 0x1E0 JUMPI DUP6 SWAP4 POP POP POP POP PUSH2 0x12C JUMP JUMPDEST SWAP10 SWAP9 POP POP POP POP POP POP POP POP POP JUMP JUMPDEST PUSH1 0x0 DUP1 PUSH1 0x40 DUP4 DUP6 SUB SLT ISZERO PUSH2 0x200 JUMPI PUSH1 0x0 DUP1 REVERT JUMPDEST POP POP DUP1 CALLDATALOAD SWAP3 PUSH1 0x20 SWAP1 SWAP2 ADD CALLDATALOAD SWAP2 POP JUMP JUMPDEST PUSH1 0x0 DUP1 PUSH1 0x0 PUSH1 0x60 DUP5 DUP7 SUB SLT ISZERO PUSH2 0x224 JUMPI PUSH1 0x0 DUP1 REVERT JUMPDEST POP POP DUP2 CALLDATALOAD SWAP4 PUSH1 0x20 DUP4 ADD CALLDATALOAD SWAP4 POP PUSH1 0x40 SWAP1 SWAP3 ADD CALLDATALOAD SWAP2 SWAP1 POP JUMP JUMPDEST PUSH1 0x0 DUP1 PUSH1 0x0 DUP1 PUSH1 0x80 DUP6 DUP8 SUB SLT ISZERO PUSH2 0x251 JUMPI PUSH1 0x0 DUP1 REVERT JUMPDEST POP POP DUP3 CALLDATALOAD SWAP5 PUSH1 0x20 DUP5 ADD CALLDATALOAD SWAP5 POP PUSH1 0x40 DUP5 ADD CALLDATALOAD SWAP4 PUSH1 0x60 ADD CALLDATALOAD SWAP3 POP SWAP1 POP JUMP JUMPDEST PUSH1 0x0 DUP1 PUSH1 0x0 DUP1 PUSH1 0x0 PUSH1 0xA0 DUP7 DUP9 SUB SLT ISZERO PUSH2 0x285 JUMPI PUSH1 0x0 DUP1 REVERT JUMPDEST POP POP DUP4 CALLDATALOAD SWAP6 PUSH1 0x20 DUP6 ADD CALLDATALOAD SWAP6 POP PUSH1 0x40 DUP6 ADD CALLDATALOAD SWAP5 PUSH1 0x60 DUP2 ADD CALLDATALOAD SWAP5 POP PUSH1 0x80 ADD CALLDATALOAD SWAP3 POP SWAP1 POP JUMP JUMPDEST PUSH1 0x0 DUP3 NOT DUP3 GT ISZERO PUSH2 0x2BB JUMPI PUSH2 0x2BB PUSH2 0x31E JUMP JUMPDEST POP ADD SWAP1 JUMP JUMPDEST PUSH1 0x0 DUP3 PUSH2 0x2CF JUMPI PUSH2 0x2CF PUSH2 0x334 JUMP JUMPDEST POP DIV SWAP1 JUMP JUMPDEST PUSH1 0x0 DUP2 PUSH1 0x0 NOT DIV DUP4 GT DUP3 ISZERO ISZERO AND ISZERO PUSH2 0x2EE JUMPI PUSH2 0x2EE PUSH2 0x31E JUMP JUMPDEST POP MUL SWAP1 JUMP JUMPDEST PUSH1 0x0 DUP3 DUP3 LT ISZERO PUSH2 0x305 JUMPI PUSH2 0x305 PUSH2 0x31E JUMP JUMPDEST POP SUB SWAP1 JUMP JUMPDEST PUSH1 0x0 DUP3 PUSH2 0x319 JUMPI PUSH2 0x319 PUSH2 0x334 JUMP JUMPDEST POP MOD SWAP1 JUMP JUMPDEST PUSH4 0x4E487B71 PUSH1 0xE0 SHL PUSH1 0x0 MSTORE PUSH1 0x11 PUSH1 0x4 MSTORE PUSH1 0x24 PUSH1 0x0 REVERT JUMPDEST PUSH4 0x4E487B71 PUSH1 0xE0 SHL PUSH1 0x0 MSTORE PUSH1 0x12 PUSH1 0x4 MSTORE PUSH1 0x24 PUSH1 0x0 REVERT INVALID LOG2 PUSH5 0x6970667358 0x22 SLT KECCAK256 CALLCODE SWAP15 RETURNDATACOPY DUP3 ORIGIN RETURNDATACOPY DUP4 0x28 PUSH27 0xB32205BA72027F5A0CA91973204B80A7827A35C47386F364736F6C PUSH4 0x43000805 STOP CALLER ",
  "sha1": "c24ecc4ba29b0224a84df6fece983ba6217ec0f1",
  "source": "// // SPDX-License-Identifier: MIT\npragma solidity ^0.8.5;\n\n//math relating to vesting schedules\n//vesting happens linearly after cliff\n//note: due to rounding the last period might vest only small amount of tokens\nlibrary VestingMath {\n    uint256 public constant DEFAULT_PERIOD = 30 days;\n\n    // divide a with m and choose higher value if its round\n    // a > m\n    function ceildiv(uint256 a, uint256 m) public pure returns (uint256) {\n        uint256 t = a % m;\n        if (t == 0) {\n            return a / m;\n        } else {\n            return (a + (m - t)) / m;\n        }\n    }\n\n    function getEndTime(\n        uint256 _cliffTime,\n        uint256 _amountPerPeriod,\n        uint256 _totalAmount,\n        uint256 _period\n    ) public pure returns (uint256) {\n        return\n            _cliffTime + (_period * (ceildiv(_totalAmount, _amountPerPeriod)));\n    }\n\n    function getEndTime(\n        uint256 _cliffTime,\n        uint256 _amountPerPeriod,\n        uint256 _totalAmount\n    ) public pure returns (uint256) {\n        return\n            getEndTime(\n                _cliffTime,\n                _amountPerPeriod,\n                _totalAmount,\n                DEFAULT_PERIOD\n            );\n    }\n\n    function getVestedAmountPeriod(\n        uint256 blocktime,\n        uint256 cliffTime,\n        uint256 endTime,\n        uint256 amountPerPeriod,\n        uint256 totalAmount,\n        uint256 period\n    ) private pure returns (uint256) {\n        if (blocktime >= endTime) return totalAmount;\n\n        // returns 0 if cliffTime is not reached\n        if (blocktime < cliffTime) return 0;\n\n        uint256 timeSinceCliff = blocktime - cliffTime;\n        uint256 validPeriodCount = timeSinceCliff / period + 1; // at cliff, one amount is withdrawable\n        uint256 potentialReturned = validPeriodCount * amountPerPeriod;\n\n        if (potentialReturned > totalAmount) {\n            return totalAmount;\n        }\n\n        return potentialReturned;\n    }\n\n    function getVestedAmount(\n        uint256 blocktime,\n        uint256 cliffTime,\n        uint256 endTime,\n        uint256 amountPerPeriod,\n        uint256 totalAmount\n    ) public pure returns (uint256) {\n        return\n            getVestedAmountPeriod(\n                blocktime,\n                cliffTime,\n                endTime,\n                amountPerPeriod,\n                totalAmount,\n                DEFAULT_PERIOD\n            );\n    }\n}\n",
  "sourcePath": "contracts/VestingMath.sol",
  "type": "library"
}